:100000000A128A11EA2F0A168A119A220A128A11F2
:10001000831603131115080000300A168A116D2289
:100020000A128A113430F500F130F400F40B16286E
:10003000F50B16281B2830300A168A11DF220A1207
:100040008A110D30F500FB30F400F40B2528F50B78
:1000500025282A2830300A168A11DF220A128A112E
:100060001D30F5009130F400F40B3428F50B3428E2
:1000700030300A168A11DF220A128A1138300A1625
:100080008A11DF220A128A110C300A168A11DF2225
:100090000A128A1106300A168A11DF220A128A1100
:1000A00008008312031351088039D6005608DB007C
:1000B0005108D6005607D7005708E100D01F612825
:1000C0006228632861146108031967286828772863
:1000D000610A031D6C286D2875280030D10000309E
:1000E000D0000030CF000030CE00D0177F28003085
:1000F000D1000030D0000030CF000030CE005508D5
:100100008039D6005608DB065508D6005607D700BA
:100110005708E000D41F8D288E288F2860146008AF
:10012000031993289428A328600A031D9828992866
:10013000A1280030D5000030D4000030D3000030BA
:10014000D200D417AB280030D5000030D4000030E6
:10015000D3000030D20060080319AF28B028B528BA
:100160006108031DB428B528BE280030D100003036
:10017000D0000030CF000030CE00B12B4E08D600AA
:100180005608F00054080A168A1163230A128A11CD
:10019000710883120313E7007008E6006608D600B2
:1001A000D701D801D9015908DF005808DE005708E7
:1001B000DD005608DC006708D600D701D801D90158
:1001C0005908E5005808E4005708E3005608E20023
:1001D0004F08D6005608F00053080A168A11632308
:1001E0000A128A11710883120313E7007008E600EF
:1001F0006608D600D701D801D9015608DC07570890
:1002000003110318013E03190629DD0758080311DD
:100210000318013E03190D29DE07590803110318BD
:10022000013E03191429DF076708D600D701D8015A
:10023000D9015608E207570803110318013E0319B4
:100240002229E307580803110318013E031929293D
:10025000E407590803110318013E03193029E50783
:100260005008D6005608F00052080A168A11632377
:100270000A128A11710883120313E7007008E6005E
:100280006608D600D701D801D9015608DC075708FF
:1002900003110318013E03194E29DD075808031105
:1002A0000318013E03195529DE07590803110318E5
:1002B000013E03195C29DF076708D600D701D80182
:1002C000D9015608E207570803110318013E031924
:1002D0006A29E307580803110318013E031971291D
:1002E000E407590803110318013E03197829E507AB
:1002F0000830D6000310DC0DDD0DDE0DDF0DD60B52
:100300007A294F08D6005608F00052080A168A11BA
:1003100063230A128A11710883120313E70070081D
:10032000E6006608D6006708D700D801D90156084C
:10033000DC07570803110318013E0319A029DD0744
:10034000580803110318013E0319A729DE075908AD
:1003500003110318013E0319AE29DF074E08D6002A
:100360005608F00053080A168A1163230A128A11EC
:10037000710883120313E7007008E6006608D600D0
:100380006708D700D801D9015608DC0757080311C0
:100390000318013E0319CD29DD075808031103187E
:1003A000013E0319D429DE07590803110318013E41
:1003B0000319DB29DF070830D6000310DC0DDD0D43
:1003C000DE0DDF0DD60BDD294E08D6005608F000F5
:1003D00052080A168A1163230A128A1171088312BD
:1003E0000313E7007008E6006608D6006708D70028
:1003F000D801D9015608DC07570803110318013E3C
:100400000319032ADD07580803110318013E0319D5
:100410000A2ADE07590803110318013E0319112A9D
:10042000DF074F08D6005608F00054080A168A1154
:1004300063230A128A11710883120313E7007008FC
:10044000E6006608D6006708D700D801D90156082B
:10045000E207570803110318013E0319302AE30786
:10046000580803110318013E0319372AE4075908F5
:1004700003110318013E03193E2AE5075008D60070
:100480005608F00053080A168A1163230A128A11CB
:10049000710883120313E7007008E6006608D600AF
:1004A0006708D700D801D9015608E2075708031199
:1004B0000318013E03195D2AE307580803110318C6
:1004C000013E0319642AE407590803110318013E89
:1004D00003196B2AE5075008D6005608F0005408A7
:1004E0000A168A1163230A128A11710883120313F0
:1004F000E7007008E6006608D6006708D700D80154
:10050000D90108300310D60DD70DD80DD90DFF3EF7
:10051000031D822A5608E207570803110318013EFB
:100520000319932AE307580803110318013E03191E
:100530009A2AE407590803110318013E0319A12A56
:10054000E5075C08D6005D08D7005E08D8005F08A4
:10055000D90018300310D90CD80CD70CD60CFF3E9C
:10056000031DAA2A5608E207570803110318013E83
:100570000319BB2AE307580803110318013E0319A6
:10058000C22AE407590803110318013E0319C92AB6
:10059000E5070830D6000310DC0DDD0DDE0DDF0DA4
:1005A000D60BCB2A61086007D600D701D70D5608B5
:1005B000823EE60057080318013EFF3EE700FD2A91
:1005C0000130D6000310E20DE30DE40DE50DD60B6E
:1005D000E22ADF1FEC2AED2AEE2A62140130D6004F
:1005E0000310DC0DDD0DDE0DDF0DD60BF02AFF3024
:1005F000E6070318E70AFF30E707E41F002B012B8B
:10060000E02AE001DF1F052B062B222BFF305C05C3
:10061000D600FF305D05D700FF305E05D8007F3083
:100620005F05D90059085804570456040319192BBB
:100630001A2B1D2BE001E00A222B621C202B212B00
:10064000222B1A2B60080319262B272B582B01303D
:10065000E207003003180130E307003003180130CF
:10066000E407003003180130E507651C382B392BEF
:10067000582B6208D6006308D7006408D8006508C4
:10068000D9000130DA00590DD90CD80CD70CD60C92
:10069000DA0B432B5908E5005808E4005708E3003B
:1006A0005608E2000130E6070318E70A0030E707C2
:1006B0006708803AFF0080307F02031D612BFF3006
:1006C0006602031C642B652B702B7F30831203138F
:1006D000E5008030E4000030E3000030E200A52BAC
:1006E000831203136708803AFF0080307F02031DE6
:1006F0007B2B0130660203187E2B7F2B8B2B003067
:1007000083120313E5000030E4000030E300003002
:10071000E200DB01A52B831203136608D6005608FE
:10072000E100FF30E205FF30E3057F30E4050030F3
:10073000E505611C9C2B9D2B9E2BE4176108D600C0
:100740000310560CD7005708E5005B08D600560882
:10075000E5046508D1006408D0006308CF00620892
:10076000CE0008000A128A1502200A128A110A1203
:100770008A110C200A128A110A168A11A7220A125B
:100780008A11F401F40A01300A168A111B230A1295
:100790008A110130F3008030F4000A168A113F24D8
:1007A0000A128A11083083160313EC006C08F40057
:1007B00001300A168A111B230A128A110630F3002F
:1007C0008030F4000A168A113F240A128A110E3072
:1007D00083160313EC006C08F40001300A168A112A
:1007E0001B230A128A110A30F3008030F4000A1623
:1007F0008A113F240A128A110A168A117B220A12D0
:100800008A115030F0000030F1000A168A1184225B
:100810000A128A110230F0000030F1000A168A1123
:1008200084220A128A110A128A1103200A128A11DA
:10083000033083160313EE000830ED007630EC0031
:10084000EC0B202CED0B202CEE0B202C00000A16BC
:100850008A117B220A128A115130F0000030F10017
:100860000A168A1184220A128A110030F000F1005F
:100870000A168A11D9230A128A11700883160313E3
:10088000EC006C08C8000A128A1103200A128A11AF
:10089000033083160313EE000830ED007630EC00D1
:1008A000EC0B502CED0B502CEE0B502C00000A16CC
:1008B0008A117B220A128A115030F0000030F100B8
:1008C0000A168A1184220A128A110130F0000030BF
:1008D000F1000A168A1184220A128A110A128A1158
:1008E00003200A128A11033083160313EE00083026
:1008F000ED007630EC00EC0B7B2CED0B7B2CEE0B43
:100900007B2C00000A168A117B220A128A115130B0
:10091000F0000030F1000A168A1184220A128A11AE
:100920000030F000F1000A168A11D9230A128A1148
:10093000700883160313EC006C08C7000A128A11B2
:1009400003200A128A11033083160313EE000830C5
:10095000ED007630EC00EC0BAB2CED0BAB2CEE0B82
:10096000AB2C00000A168A117B220A128A11113060
:10097000F0000030F1000A168A1184220A128A114E
:100980000030F000F1000A168A11D9230A128A11E8
:10099000700883160313EC006C08C6000A128A1153
:1009A00003200A128A11033083160313EE00083065
:1009B000ED007630EC00EC0BDB2CED0BDB2CEE0BC2
:1009C000DB2C0000831603134808EC00ED016C08D3
:1009D000ED00EC016C0883120313A40083160313CB
:1009E0006D0883120313A5000030A51BFF30A6007D
:1009F000A70001300A128A15C8200A128A11831230
:100A00000313270883160313B70083120313260862
:100A100083160313B60083120313250883160313EA
:100A2000B50083120313240883160313B400370898
:100A300083120313B50083160313360883120313BE
:100A4000B40083160313350883120313B30083160F
:100A50000313340883120313B200831603134708E9
:100A6000EC00ED01EE01EF016F0883120313A70004
:100A7000831603136E0883120313A6008316031351
:100A80006D0883120313A500831603136C088312E9
:100A90000313A40001300A128A15C8200A128A1111
:100AA000831203132708B9002608B8002508B700E9
:100AB0002408B6000A128A1584210A128A118312A8
:100AC0000313350883160313B70083120313340886
:100AD00083160313B600831203133308831603131C
:100AE000B50083120313320883160313B400403099
:100AF00083120313D100A030D0000030CF000030AB
:100B0000CE004430B5007F30B400C030B3000030B8
:100B1000B20083160313370883120313B900831638
:100B20000313360883120313B80083160313350822
:100B300083120313B70083160313340883120313BD
:100B4000B6000A168A1123260A128A118312031389
:100B50003508D5003408D4003308D3003208D20059
:100B60000A128A1151200A128A11831203135108A2
:100B700083160313B3008312031350088316031361
:100B8000B200831203134F0883160313B1008312BC
:100B900003134E0883160313B0004230831203136D
:100BA000D100C830D0000030CF000030CE00831616
:100BB0000313330883120313D5008316031332087B
:100BC00083120313D4008316031331088312031313
:100BD000D30083160313300883120313D2000A12C2
:100BE0008A1151200A128A118312031351088316A5
:100BF0000313AF0083120313500883160313AE00D0
:100C0000831203134F0883160313AD0083120313DB
:100C10004E0883160313AC000030AB000030AA006E
:100C20000030A9000030A8002F08AB002E08AA0051
:100C30002D08A9002C08A8002B0883120313EB0031
:100C4000831603132A0883120313EA00831603137F
:100C5000290883120313E90083160313280883125B
:100C60000313E8000230EC000030ED00D3300A122C
:100C70008A150C240A128A11003083160313A70068
:100C80000030A6000030A5000030A4004608EC00AB
:100C9000ED01EE01EF016F0883120313A700831625
:100CA00003136E0883120313A600831603136D0843
:100CB00083120313A500831603136C088312031316
:100CC000A40000300A128A15C8200A128A11831261
:100CD0000313270883160313A700831203132608A0
:100CE00083160313A6008312031325088316031328
:100CF000A50083120313240883160313A4002708F6
:100D000083120313EB0083160313260883120313C5
:100D1000EA0083160313250883120313E9008316E0
:100D20000313240883120313E8000230EC000030A0
:100D3000ED00C9300A128A150C240A128A11F40136
:100D4000F40A02300A168A111B230A128A11D330C0
:100D5000F3000030F4000A168A113F240A128A11A7
:100D6000063083160313EC006C08F40002300A16F8
:100D70008A111B230A128A110E30F3008030F4000E
:100D80000A168A113F240A128A11073083160313A8
:100D9000EC006C08F40002300A168A111B230A12B8
:100DA0008A11C930F3000030F4000A168A113F247A
:100DB0000A128A110B3083160313EC006C08F4003E
:100DC00002300A168A111B230A128A110E30F30010
:100DD0008030F4000A168A113F240A128A11831601
:100DE00003132F08F3002E08F2002D08F1002C0841
:100DF000F0000A168A11A9250A128A1171088312B5
:100E00000313A5007008A4000A168A11B4220A125E
:100E10008A1183160313EC006C08C5002F08F30039
:100E20002E08F2002D08F1002C08F0000A168A1195
:100E3000A9250A128A11710883120313A5007008EC
:100E4000A4000A168A11F9220A128A1183160313C2
:100E5000EC006C08C4002F08F3002E08F2002D08E7
:100E6000F1002C08F0000A168A11A9250A128A112D
:100E70007108FC007008FB000A168A11B1230A12DF
:100E80008A1183160313EC006C08C3003030EC00A9
:100E90006C08C5073030EC006C08C4073030EC003B
:100EA0006C08C307C93083120313A4000030A500E7
:100EB0000A168A11B4220A128A1183160313EC004F
:100EC0006C08C200C93083120313A4000030A500CF
:100ED0000A168A11F9220A128A1183160313EC00EA
:100EE0006C08C100C930FB000030FC000A168A11F2
:100EF000B1230A128A1183160313EC006C08C00098
:100F00003030EC006C08C2073030EC006C08C107D0
:100F10003030EC006C08C007831203138C1E912F35
:100F2000922FD52F0A168A1169220A128A11831666
:100F30000313EC006C08BF0073303F06031DA12FA4
:100F4000A22FB92F45080A168A118E220A128A1179
:100F50008316031344080A168A118E220A128A1174
:100F60008316031343080A168A118E220A128A1165
:100F7000D52F64303F06031DBE2FBF2FD52F42084B
:100F80000A168A118E220A128A1183160313410847
:100F90000A168A118E220A128A1183160313400838
:100FA0000A168A118E220A128A1183160313BF01B0
:100FB000063083160313EE001330ED00AD30EC0065
:100FC000EC0BE02FED0BE02FEE0BE02FC12B0A1204
:100FD0008A1100288313A0308400DD300A168A119C
:100FE00073220A128A118317903084009A300A16ED
:100FF0008A1173220A128A1183010A128A11B22BF2
:1010040083160317880189018316031307108710B9
:1010140086018801890183120313890186018801ED
:101024000030A3000130A2008630A100A030A0004F
:101034000A168A1107240A128A15831603130F1736
:101044008F160F160F14080000307005F8000030DA
:101054007105F90080307205FA007F307305FB00DA
:101064007B087A0479047804031D39283A28422835
:101074000030F3000030F2000030F1000030F000E6
:1010840000307405F80000307505F90080307605ED
:10109400FA007F307705FB007B087A047904780432
:1010A400031D552856285E280030F7000030F6004E
:1010B4000030F5000030F400F31F61286228862810
:1010C4000030F8000030F9000030FA008030FB00F6
:1010D4007008F8027108031C710F71287228F90254
:1010E4007208031C720F77287828FA027308031C0D
:1010F400730F7D287E28FB027B08F3007A08F20038
:101104007908F1007808F000F71F89288A28AE28AA
:101114000030F8000030F9000030FA008030FB00A5
:101124007408F8027508031C750F99289A28F902A7
:101134007608031C760F9F28A028FA027708031C60
:10114400770FA528A628FB027B08F7007A08F6008B
:101154007908F5007808F4008030F3068030F7064B
:1011640077087302031DC02876087202031DC02885
:1011740075087102031DC028740870020318C3287F
:10118400C428C6280310C7280314080083120313B5
:10119400AC002C080319CF28D028E428A71FD32893
:1011A400D428E4282409AE002509AF002609B0009C
:1011B4002709B100AE0A0319AF0A0319B00A0319CB
:1011C400B10AEC282708B1002608B0002508AF00B2
:1011D4002408AE002708260425042404031DF3284C
:1011E400F428FD280030A7000030A6000030A50038
:1011F4000030A40083299630A8002808AD000F29E8
:101204000130A8002808AD0701300310B10CB00C60
:10121400AF0CAE0CFF3E031D0729FE303105031D44
:1012240014291529022931290130A8002808AD07FD
:101234000130AE07003003180130AF070030031847
:101244000130B007003003180130B107013003103A
:10125400B10CB00CAF0CAE0CFF3E031D2929FF30BE
:101264003105031D36293729162943290130AD02DA
:101274000130A8000310AE0DAF0DB00DB10DA80BD9
:101284003C29B01B462947294D2902302D02031859
:101294004C294D2938292D18502951295929FF3015
:1012A400AE05FF30AF057F30B005FF30B105031048
:1012B400AD0C2D08A800A901AA01AB011830031038
:1012C400A80DA90DAA0DAB0DFF3E031D6129280829
:1012D400AE042908AF042A08B0042B08B1042C0872
:1012E4000319752976297B29A71F79297A297B294E
:1012F400B1173108A7003008A6002F08A5002E0852
:10130400A40008008312031335088039BA003A0890
:10131400C2003508BA003A07BB003B08C400B41F3A
:101324009429952996294414440803199A299B2938
:10133400AB29440A031D9F29A029A8290030B50020
:101344000030B4000030B3000030B200B417B5016F
:10135400B3290030B5000030B4000030B3000030D1
:10136400B20039088039BA003A08C300430842067B
:101374000319BD29BE29BF2942173908BA003A0703
:10138400BB003B08C300B81FC829C929CA29431494
:1013940043080319CE29CF29DF29430A031DD32982
:1013A400D429DC290030B9000030B8000030B7007F
:1013B4000030B600B817B901E7290030B900003091
:1013C400B8000030B7000030B600440843020318E8
:1013D400EC29ED29312A421FF029F129F529803021
:1013E400BA003A08C2064408BA003A08C5004308DD
:1013F400BA003A08C4004508BA003A08C3003208E3
:10140400BA003A08C5003608BA003A08B2004508DE
:10141400BA003A08B6003308BA003A08C5003708DB
:10142400BA003A08B3004508BA003A08B7003408CD
:10143400BA003A08C5003808BA003A08B4004508AA
:10144400BA003A08B8003508BA003A08C5003908A5
:10145400BA003A08B5004508BA003A08B900C5010F
:101464004308BA00BB013B08BD0044083A02BC0073
:10147400031CBD033D08803AFF0080307F02031D3A
:10148400452A1A303C02031C482A492A862A831218
:1014940003133508340433043204031D522A542A36
:1014A4000130552A0030BA003A08C5000030B500B2
:1014B4000030B4000030B3000030B2004308BA007A
:1014C4003A08C4008E2A451C682A692A722A4508EB
:1014D400BA0003103A0C0138BB003B08C500742A5B
:1014E4000310C50C321C772A782A792AC5170130D3
:1014F400BA00350DB50CB40CB30CB20CBA0B7B2A84
:101504000130BA003A08C4078312031343084402A3
:10151400031C8D2A8E2A652A421B912A922ADD2ACF
:101524004408031D962A972AA02A0030B5000030EB
:10153400B4000030B3000030B2000B2C3608B20700
:10154400370803110318013E0319A92AB307380801
:1015540003110318013E0319B02AB4073908031113
:101564000318013E0319B72AB507351CBA2ABB2A4A
:10157400912B451CBE2ABF2AC82A4508BA0003106D
:101584003A0C0138BB003B08C500CA2A0310C50C3D
:10159400321CCD2ACE2ACF2AC5170130BA00350D08
:1015A400B50CB40CB30CB20CBA0BD12A0130BA008E
:1015B4003A08C407912B3508803AFF003908803A6D
:1015C4007F02031DEF2A38083402031DEF2A37086F
:1015D4003302031DEF2A360832020318F22AF32AD3
:1015E4004B2BFF30BA00FF30BB00FF30BC00FF3094
:1015F400BD003608BE003708BF003808C0003908EF
:10160400C1003208BE023308031C330F0A2B0B2B14
:10161400BF023408031C340F102B112BC0023508F1
:10162400031C350F162B172BC1023E08BA073F08BF
:1016340003183F0F1E2B1F2BBB0740080318400F36
:10164400242B252BBC0741080318410ABD073D087C
:10165400B5003C08B4003B08B3003A08B20080303F
:10166400BA003A08C206C509C50A4508031D3B2B42
:101674003C2B592B0130B207003003180130B3075B
:10168400003003180130B407003003180130B507E7
:10169400592B3608B2023708031C370FB302380837
:1016A400031C380FB4023908031C390FB50235087E
:1016B400340433043204031D602B612B8D2B450845
:1016C400031D652B662B8D2B0030B5000030B40054
:1016D4000030B3000030B2000B2C0130BA0003100C
:1016E400B20DB30DB40DB50DBA0B712BC51F7B2B09
:1016F4007C2B7D2B3214451C802B812B842B0314D3
:10170400C50D862B0310C50D440803198A2B8B2B9A
:101714008D2B0130C402B41F902B912B6F2BC3016E
:10172400C51F952B962BA42B45087F3903199B2B9A
:101734009C2B9F2BC301C30AA42B321CA22BA32BCB
:10174400A42B9C2B43080319A82BA92BDD2B0130B8
:10175400B207003003180130B3070030031801301A
:10176400B407003003180130B507351CBA2BBB2B66
:10177400DD2B3208BA003308BB003408BC0035083E
:10178400BD000130BE003D0DBD0CBC0CBB0CBA0C41
:10179400BE0BC52B3D08B5003C08B4003B08B300A4
:1017A4003A08B200440A0319D82BD92BDD2B013097
:1017B400BA003A08C407440A0319E12BE22BE72BC9
:1017C4004408031DE62BE72BF52B0030B500003051
:1017D400B4000030B3000030B2004408031DF32B02
:1017E400F42BF52BC201441CF82BF92BFB2BB4175B
:1017F400FF2B7F30BA003A08B4054408BA0003103E
:101804003A0CBB003B08B500C21F092C0A2C0B2C58
:10181400B517080083160313E100831203136B0842
:10182400F3006A08F2006908F1006808F0000A167B
:101834008A11A9250A128A15710883160313DE007A
:101844007008DD00E801E901E601E7010130EA0082
:101854000030EB00831203136B08F3006A08F200F4
:101864006908F1006808F0000030F7000030F60065
:101874000030F5000030F4000A128A1526200A12FE
:101884008A150318462C472C952CBF30831203135A
:10189400D1008030D0000030CF000030CE006B0883
:1018A400D5006A08D4006908D3006808D2000A1277
:1018B4008A1151200A128A15831203135108EB006E
:1018C4005008EA004F08E9004E08E8002D30EE0009
:1018D4008316031361088400831203136E088313B1
:1018E4008000013083160313E6070318E70A00306B
:1018F400E707952C0A30F7000030F8005E08FA007C
:101904005D08F9000A168A1140250A128A1578081A
:1019140083160313DE007708DD000130E80703189F
:10192400E90A0030E907831603135D085E04031D0A
:101934009C2C9D2C7C2CB92D68036904031DA32CBD
:10194400A42CA92C0130EA000030EB00EB2C02306F
:10195400DF000030E000D52C831603136B088312DC
:101964000313A100831603136A0883120313A00050
:101974000A30A2000030A3000A168A118A230A1230
:101984008A1583120313210883160313EB008312B1
:101994000313200883160313EA000130DF0703183A
:1019A400E00A0030E0076908803A83120313EE006E
:1019B400831603136008803A831203136E02031D17
:1019C400E72C831603135F0868020318EA2CEB2C38
:1019D400AE2C831603136A0883120313A400831620
:1019E40003136B0883120313A5000030A51BFF30FB
:1019F400A600A70001300A128A15C8200A128A1507
:101A0400831203132708B5002608B4002508B30081
:101A14002408B2006B08B9006A08B8006908B70066
:101A24006808B6000A168A1123260A128A15831238
:101A34000313350883160313E500831203133408D4
:101A440083160313E400831203133308831603136A
:101A5400E30083120313320883160313E2006B08B6
:101A640083120313A300831603136A088312031358
:101A7400A200831603136508F3006408F2006308E8
:101A8400F1006208F0000A168A11A9250A128A15C3
:101A9400710883120313A1007008A0000A168A11AA
:101AA4008A230A128A15831203132008A40021082A
:101AB400A5000030A51BFF30A600A70001300A12C4
:101AC4008A15C8200A128A15831203132708C9002D
:101AD4002608C8002508C7002408C6006B08CD00E6
:101AE4006A08CC006908CB006808CA000A168A1183
:101AF4003F230A128A15831203134908EB0048088E
:101B0400EA004708E9004608E8008316031365085D
:101B1400F3006408F2006308F1006208F0000A169A
:101B24008A11A9250A128A157008303E83120313FC
:101B3400EE00831603136608610783120313EF0094
:101B44006F0884006E08831380000130831603132A
:101B5400E6070318E70A0030E707FF30E807031831
:101B6400E90AFF30E9070130EA000030EB006808B9
:101B74006904031DBE2DBF2D9E2C2E30831203132A
:101B8400EE00831603136608610783120313EF0044
:101B94006F0884006E0883138000013083160313DA
:101BA400E6070318E70A0030E7070130DF000030DA
:101BB400E000032E831603136B0883120313A100A2
:101BC400831603136A0883120313A0000A30A200C9
:101BD4000030A3000A168A118A230A128A15831276
:101BE4000313210883160313EB0083120313200845
:101BF40083160313EA000130DF070318E00A0030FC
:101C0400E007831203136D08803AEE008316031372
:101C14006008803A831203136E02031D172E831685
:101C240003135F08831203136C0203181A2E1B2E6E
:101C3400DC2D831603136A0883120313A40083168E
:101C440003136B0883120313A5000030A51BFF3098
:101C5400A600A70001300A128A15C8200A128A15A4
:101C6400831203132708D1002608D0002508CF00CB
:101C74002408CE006B08F3006A08F2006908F1003A
:101C84006808F0000A168A11A9250A128A15700834
:101C940083120313A4007108A5000030A51BFF30B4
:101CA400A600A70001300A128A15C8200A128A1554
:101CB400831203132708C9002608C8002508C70093
:101CC4002408C6006B08CD006A08CC006908CB0064
:101CD4006808CA000A168A113F230A128A15831259
:101CE40003134908D5004808D4004708D300460820
:101CF400D2000A128A1151200A128A158312031380
:101D0400510883160313E500831203135008831646
:101D14000313E400831203134F0883160313E30031
:101D2400831203134E0883160313E200650883121B
:101D34000313EB0083160313640883120313EA00EE
:101D440083160313630883120313E9008316031332
:101D5400620883120313E8006B08F3006A08F200B8
:101D64006908F1006808F0000A168A11A9250A1208
:101D74008A15013083160313EA000030EB00831246
:101D840003136D0883160313E900831203136C080D
:101D940083160313E800E92F68036904031DD32E97
:101DA400D42ED92E0130EA000030EB001B2F023074
:101DB400DF000030E000052F831603136B08831245
:101DC4000313A100831603136A0883120313A000EC
:101DD4000A30A2000030A3000A168A118A230A12CC
:101DE4008A1583120313210883160313EB0083124D
:101DF4000313200883160313EA000130DF070318D6
:101E0400E00A0030E0076908803A83120313EE0009
:101E1400831603136008803A831203136E02031DB2
:101E2400172F831603135F08680203181A2F1B2F3A
:101E3400DE2E831603136A0883120313A400831689
:101E440003136B0883120313A5000030A51BFF3096
:101E5400A600A70001300A128A15C8200A128A15A2
:101E6400831203132708B5002608B4002508B3001D
:101E74002408B2006B08B9006A08B8006908B70002
:101E84006808B6000A168A1123260A128A158312D4
:101E94000313350883160313E50083120313340870
:101EA40083160313E4008312031333088316031306
:101EB400E30083120313320883160313E2006B0852
:101EC40083120313A300831603136A0883120313F4
:101ED400A200831603136508F3006408F200630884
:101EE400F1006208F0000A168A11A9250A128A155F
:101EF400710883120313A1007008A0000A168A1146
:101F04008A230A128A15831203132008A4002108C5
:101F1400A5000030A51BFF30A600A70001300A125F
:101F24008A15C8200A128A15831203132708C900C8
:101F34002608C8002508C7002408C6006B08CD0081
:101F44006A08CC006908CB006808CA000A168A111E
:101F54003F230A128A15831203134908EB00480829
:101F6400EA004708E9004608E800831603136508F9
:101F7400F3006408F2006308F1006208F0000A1636
:101F84008A11A9250A128A157008303E8312031398
:101F9400EE00831603136608610783120313EF0030
:101FA4006F0884006E0883138000013083160313C6
:101FB400E6070318E70A0030E707FF30E8070318CD
:101FC400E90AFF30E9070130EA000030EB00680855
:101FD4006904031DEE2FEF2FCE2E0A308312031354
:101FE400EE00831603136608610783120313EF00E0
:101FF4006F0884006E08831380000800FF1B0A2802
:1020040083137F1883170008840A0319FF0A080042
:1020140010308A000408840A82070034543445349A
:102024004D3450340034483455344D340034433442
:0A2034004F344E34003443340034BE
:1024D200831203131A080800F00070088312031312
:1024E2008600080064008001840A0406031900348F
:1024F2000406742A0A168A119A220A168A11831667
:102502000313111408000A168A119A220A168A1154
:1025120070088312031393000800F000831603135C
:10252200981C942A952A8F2A700883120313990003
:1025320008008316031314199F2AA02A9A2A110845
:102542001F39031DA52AA62A9A2A080000300A1656
:102552008A11DF220A168A1101300A168A11DF2235
:102562000A168A1108006430F7000030F80083125E
:1025720003132508FA002408F9000A168A114025D7
:102582000A168A117708FC007C08FD007D08080005
:10259200F20083120313091472080A168A116D22BB
:1025A2000A168A118312031309150630F100F10B82
:1025B200D82A00008312031309110800F3008312C2
:1025C2000313091073080A168A116D220A168A115A
:1025D2008312031309150B30F2006230F100F10B84
:1025E200F02AF20BF02A00008312031309110800EB
:1025F2000A30F7000030F800831203132508F300B5
:102602002408F2006430F0000030F1000A168A114A
:1026120081240A168A117108FA007008F9000A1654
:102622008A1140250A168A117708FC007C08FD00F1
:102632007D080800F6007603031D202B212B2D2B8D
:1026420074087F3EF5007508F70077080A168A11AC
:10265200DF220A168A113E2B02307606031D322B28
:10266200332B3E2B7408BF3EF5007508F700770840
:102672000A168A11DF220A168A1108008030831294
:102682000313C9064D08B5004C08B4004B08B3004B
:102692004A08B2004908B9004808B8004708B7001C
:1026A2004608B6000A128A1584210A168A11831274
:1026B20003133508C9003408C8003308C7003208BC
:1026C200C6000800F800F401F5017008F200F301F9
:1026D2007208F6007308F700781C702B712B772BA9
:1026E2007608F4070318F50A7708F5070130031096
:1026F200F60DF70DFF3E031D782B0310F80C78083A
:10270200031D842B852B6D2B7508F1007408F000D6
:102712000800FB01FC0183120313201C912B922B56
:10272200982B2208FB070318FC0A2308FC07013038
:102732000310A20DA30DFF3E031D992B01300310C0
:10274200A10CA00CFF3E031DA02B20082104031D99
:10275200AB2BAC2B8C2B7C08A1007B08A0000800C3
:102762007C08F3007B08F2006430F0000030F100D6
:102772000A168A1181240A168A1171088312031318
:10278200A1007008A0000A30F0000030F10021081A
:10279200F3002008F2000A168A1181240A168A110F
:1027A2007008FD007D0883120313A20022080800AE
:1027B2000A168A119A220A168A1183160313911590
:1027C2000A168A119A220A168A118312031313080F
:1027D200F200F3017208F4007308F5000A168A1178
:1027E2009A220A168A1170037104031DF92BFA2B1F
:1027F200FE2B831603139112012C831603139116D9
:1028020011167508F1007408F000080028308312D0
:1028120003139400831603139101831203132008F8
:10282200A4002108A5002208A6002308A700023060
:102832000310A40DA50DA60DA70DFF3E031D192C17
:102842002708F3002608F2002508F1002408F0000A
:102852000030F7007A30F6001230F5000030F40054
:102862000A168A11DA240A168A117008FF3E8316A4
:10287200031393009401871507160800F801F90164
:10288200642C78087307F6007408F5000318F50A3B
:10289200F81F4C2CF5037508F70077088312031311
:1028A200FF00760884000A168A1100200A168A118F
:1028B2000A168A11C9220A168A110130F80703186A
:1028C200F90A0030F90778087307F6007408F50072
:1028D2000318F50AF81F6E2CF5037508F700770840
:1028E20083120313FF00760884000A168A1100205F
:1028F2000A168A11003A031D7F2C802C422C0800F4
:10290200F601F31F852C862C8D2CF209F309F20AAD
:102912000319F30AF601F60AF11F902C912C962C5A
:10292200F009F109F00A0319F10A70087104031998
:102932009B2C9C2CCB2CF501F50AAA2C0130031000
:10294200F00DF10DFF3E031DA02C0130F4007408C0
:10295200F507F11FAD2CAE2C9F2C71087302031DDD
:10296200B42C70087202031CB72CB82CBE2C700851
:10297200F2027108031CF303F30201300310F10C9D
:10298200F00CFF3E031DBF2C0130F502031DCA2CC3
:10299200CB2CAE2C76080319CF2CD02CD52CF209D7
:1029A200F309F20A0319F30A7308F1007208F0003E
:1029B20008000030FC000030FB000030FA0000305C
:1029C200F90073087204710470040319E92CEA2CEB
:1029D200372DFD01FD0AFA2C0130F8000310F00D2D
:1029E200F10DF20DF30DF80BEF2C0130F800780821
:1029F200FD07F31FFD2CFE2CED2C0130F800031017
:102A0200F90DFA0DFB0DFC0DF80B002D7308770282
:102A1200031D152D72087602031D152D710875020E
:102A2200031D152D70087402031C182D192D282D55
:102A32007008F4027108031C710FF5027208031C7E
:102A4200720FF6027308031C730FF7027914013038
:102A52000310F30CF20CF10CF00CFF3E031D292DB8
:102A62000130FD02031D362D372DFE2C7C08F300AC
:102A72007B08F2007A08F1007908F000080083125E
:102A82000313A101F81F462D472D4E2DF709F80912
:102A9200F70A0319F80AA101A10AFA1F512D522DB2
:102AA2005B2DF909FA09F90A0319FA0A0130FB0048
:102AB2007B08A106A201A301770878040319622DFD
:102AC200632D9A2DA001A00A712D01300310F70D7C
:102AD200F80DFF3E031D672D0130FB007B08A007A8
:102AE200F81F742D752D662D01300310A20DA30D54
:102AF200FF3E031D762D78087A02031D822D77088A
:102B02007902031C852D862D8D2D7708F902780810
:102B1200031CFA03FA02221401300310F80CF70C1A
:102B2200FF3E031D8E2D0130A002031D992D9A2D0B
:102B3200752D210803199E2D9F2DA42DA209A309ED
:102B4200A20A0319A30A2308F8002208F7000800C2
:102B52000310720D730DF4007408FA007A08031D55
:102B6200B32DB42DBD2D0030F3000030F200003043
:102B7200F1000030F000222E7008F4007108F50018
:102B82007208F6007308F7001F300310F70CF60CFA
:102B9200F50CF40CFF3E031DC62D7408F8007808EE
:102BA200F900F217FF30F005FF30F105FF30F205B2
:102BB2000030F3059630FA02FA1FE02DE12DFB2DCD
:102BC2007A08803A973E0318E72DE82DE92DB42DB7
:102BD20001300310F30CF20CF10CF00CFF3E031D5C
:102BE200EA2D0130F4007408FA07031DF92DFA2DBD
:102BF200E92D122E20307A02031C002E012E0D2EFA
:102C0200B42D0130F4000310F00DF10DF20DF30DAF
:102C1200F40B042E0130FA027A08031D112E122E33
:102C2200022E79080319162E172E222EF009F10909
:102C3200F209F309F00A0319F10A0319F20A031956
:102C4200F30A08008312031339088039BA003A08DC
:102C5200C3003908BA003A07BB003B08CA00B81FD4
:102C6200332E342E352E4A144A080319392E3A2EA1
:102C72004A2E4A0A031D3E2E3F2E472E0030B9002F
:102C82000030B8000030B7000030B600B817B90104
:102C9200522E0030B9000030B8000030B7000030CA
:102CA200B60035088039BA003A08C3063508BA00BA
:102CB2003A07BB003B08CB00B41F602E612E622E88
:102CC2004B144B080319662E672E772E4B0A031DF1
:102CD2006B2E6C2E742E0030B5000030B400003024
:102CE200B3000030B200B417B5017F2E0030B5003A
:102CF2000030B4000030B3000030B20035083404B4
:102D020033043204031D862E872EA02E0030B90014
:102D12000030B8000030B7000030B6008030B80490
:102D22007F30B9044308BA003A08B9043908B5003B
:102D32003808B4003708B3003608B200FF2F4A083B
:102D4200031DA42EA52EAE2E0030B5000030B40017
:102D52000030B3000030B200FF2F4A08BA00BB01B6
:102D62003B08BD004B083A02BC00031CBD033C08F3
:102D72007F3EC4003D080318013E003EC5003908ED
:102D8200C2003808C1003708C0003608BF00003052
:102D9200B9000030B8000030B7000030B600003093
:102DA200C9000030C8000030C7000030C600CB01A7
:102DB200242F4B080319DE2EDF2EFF2E0130BA001E
:102DC2000310BF0DC00DC10DC20DBA0BE12E0130B3
:102DD200BA000310B60DB70DB80DB90DBA0BEA2E35
:102DE200C91FF42EF52EF62E36140130BA00031048
:102DF200C60DC70DC80DC90DBA0BF82E3508420213
:102E0200031D0D2F34084102031D0D2F330840020C
:102E1200031D0D2F32083F02031C102F112F202FEC
:102E220049173208BF023308031C330FC0023408AB
:102E3200031C340FC1023508031C350FC2020130D6
:102E4200BA003A08CB071A304B02031C292F2A2F4B
:102E5200DA2E4208410440043F040319312F322F75
:102E6200512F4614512F0130BA000310B60DB70D81
:102E7200B80DB90DBA0B362FC91F402F412F422F63
:102E820036140130BA000310C60DC70DC80DC90DA6
:102E9200BA0B442FFF30C4070318C50AFF30C50719
:102EA200B81F542F552F342FCB01C91F592F5A2F1A
:102EB200762FFF304605BA00FF304705BB00FF30D2
:102EC2004805BC007F304905BD003D083C043B0479
:102ED2003A0403196D2F6E2F712FCB01CB0A762F77
:102EE200361C742F752F762F6E2F4B0803197A2FED
:102EF2007B2FAC2F0130B607003003180130B70723
:102F0200003003180130B807003003180130B90748
:102F1200391C8C2F8D2FAC2F3608BA003708BB0016
:102F22003808BC003908BD000130BE003D0DBD0CA3
:102F3200BC0CBB0CBA0CBE0B972F3D08B9003C0869
:102F4200B8003B08B7003A08B6000130C4070318BE
:102F5200C50A0030C5074508803AFF0080307F026D
:102F6200031DB52FFF304402031CB82FB92FC72F02
:102F7200FF3083120313C4000030C5000030B900D3
:102F82000030B8000030B7000030B60083120313DF
:102F92004508803AFF0080307F02031DD22F0130A6
:102FA20044020318D52FD62FE32F83120313C40133
:102FB200C5010030B9000030B8000030B700003061
:102FC200B600C301831203134408BA003A08CA00C8
:102FD2004A1CEC2FED2FEF2FB817F32F7F30BA00DA
:102FE2003A08B8054A08BA0003103A0CBB003B087D
:0E2FF200B9004308BA003A08B904972E080047
:04400E00D420FF3F7C
:00000001FF
