:060000000A128A11EA2F2A
:100008000A168A1109240A128A1170088312031326
:1000180093000800F601F11F122813281A28F00986
:10002800F109F00A0319F10AF601F60AF31F1D286F
:100038001E282728F209F309F20A0319F30A0130E6
:10004800F4007408F606F701F80170087104031942
:100058002E282F286628F501F50A3D2801300310BF
:10006800F00DF10DFF3E031D33280130F400740834
:10007800F507F11F40284128322801300310F70DF9
:10008800F80DFF3E031D422871087302031D4E2818
:1000980070087202031C5128522859287008F2026D
:1000A8007108031CF303F302771401300310F10CF9
:1000B800F00CFF3E031D5A280130F502031D652888
:1000C80066284128760803196A286B287028F709DA
:1000D800F809F70A0319F80A7808F1007708F00018
:1000E80008000A168A119B240A128A110A168A1114
:1000F8007D250A128A110A168A1116240A128A11F3
:10010800F401F40A01300A168A1153240A128A11DA
:100118000130F3008030F4000A168A113B250A12D8
:100128008A11083083160313E4006408F4000130D0
:100138000A168A1153240A128A110630F3008030F5
:10014800F4000A168A113B250A128A110E3083160A
:100158000313E4006408F40001300A168A115324DA
:100168000A128A110A30F3008030F4000A168A1144
:100178003B250A128A110A168A11EB230A128A11E0
:100188005030F0000030F1000A128A1104200A12DF
:100198008A110230F0000030F1000A128A1104209E
:1001A8000A128A110A168A11F4230A128A110330D4
:1001B80083160313E6000830E5007630E400E40B0C
:1001C800E328E50BE328E60BE32800000A168A116A
:1001D800EB230A128A115130F0000030F1000A12A4
:1001E8008A1104200A128A110030F000F1000A1660
:1001F8008A110D250A128A11700883160313E40068
:100208006408C0000A168A11F4230A128A110330FE
:1002180083160313E6000830E5007630E400E40BAB
:100228001329E50B1329E60B132900000A168A1176
:10023800EB230A128A115030F0000030F1000A1244
:100248008A1104200A128A110130F0000030F100EE
:100258000A128A1104200A128A110A168A11F42332
:100268000A128A11033083160313E6000830E500EA
:100278007630E400E40B3E29E50B3E29E60B3E29E7
:1002880000000A168A11EB230A128A115130F00075
:100298000030F1000A128A1104200A128A11003073
:1002A800F000F1000A168A110D250A128A11700849
:1002B80083160313E4006408BF000A168A11F423A6
:1002C8000A128A11033083160313E6000830E5008A
:1002D8007630E400E40B6E29E50B6E29E60B6E29F7
:1002E80000000A168A11EB230A128A111130F00055
:1002F8000030F1000A128A1104200A128A11003013
:10030800F000F1000A168A110D250A128A117008E8
:1003180083160313E4006408BE000A168A11F42346
:100328000A128A11033083160313E6000830E50029
:100338007630E400E40B9E29E50B9E29E60B9E2906
:100348000000831603134008E400E5016408E50093
:10035800E401640883120313A400831603136508D9
:1003680083120313A5000030A51BFF30A600A700C9
:1003780001300A168A1144270A128A1183120313BC
:10038800270883160313B70083120313260883165E
:100398000313B60083120313250883160313B5004D
:1003A80083120313240883160313B4003708831237
:1003B8000313B50083160313360883120313B4001E
:1003C80083160313350883120313B300831603132C
:1003D800340883120313B200831603133F08E400A2
:1003E800E501E601E701670883120313A7008316F6
:1003F8000313660883120313A60083160313650804
:1004080083120313A50083160313640883120313CE
:10041800A40001300A168A1144270A128A1183128D
:1004280003132708B9002608B8002508B7002408D0
:10043800B6000A128A1517220A128A1183120313A8
:10044800350883160313B700831203133408831681
:100458000313B60083120313330883160313B5007E
:1004680083120313320883160313B4004030831237
:100478000313D100A030D0000030CF000030CE00F0
:100488004430B5007F30B400C030B3000030B20053
:1004980083160313370883120313B9008316031353
:1004A800360883120313B800831603133508831222
:1004B8000313B70083160313340883120313B6001B
:1004C8000A128A153A200A128A1183120313350870
:1004D800D5003408D4003308D3003208D2000A12F9
:1004E8008A159F240A128A1183120313510883164E
:1004F8000313B30083120313500883160313B200C7
:10050800831203134F0883160313B10083120313D6
:100518004E0883160313B000423083120313D10030
:10052800C830D0000030CF000030CE00831603134F
:10053800330883120313D50083160313320883127A
:100548000313D40083160313310883120313D30053
:1005580083160313300883120313D2000A128A1574
:100568009F240A128A118312031351088316031356
:10057800AF0083120313500883160313AE008312CF
:1005880003134F0883160313AD00831203134E0899
:1005980083160313AC000030AB000030AA00003013
:1005A800A9000030A8002F08AB002E08AA002D08CB
:1005B800A9002C08A8002B0883120313EB0083164C
:1005C80003132A0883120313EA0083160313290866
:1005D80083120313E90083160313280883120313F5
:1005E800E8000230EC000030ED00CB300A128A112E
:1005F800F6230A128A11003083160313A70000306D
:10060800A6000030A5000030A4003E08E400E50183
:10061800E601E701670883120313A7008316031393
:10062800660883120313A600831603136508831252
:100638000313A50083160313640883120313A4008D
:1006480000300A168A1144270A128A1183120313EA
:10065800270883160313A70083120313260883169B
:100668000313A60083120313250883160313A5009A
:1006780083120313240883160313A4002708831284
:100688000313EB0083160313260883120313EA00EF
:1006980083160313250883120313E9008316031333
:1006A800240883120313E8000230EC000030ED0048
:1006B800C1300A128A11F6230A128A11F401F40AC7
:1006C80002300A168A1153240A128A11CB30F30019
:1006D8000030F4000A168A113B250A128A110630E6
:1006E80083160313E4006408F40002300A168A1122
:1006F80053240A128A110E30F3008030F4000A16CF
:100708008A113B250A128A11073083160313E40065
:100718006408F40002300A168A1153240A128A1156
:10072800C130F3000030F4000A168A113B250A1282
:100738008A110B3083160313E4006408F4000230B6
:100748000A168A1153240A128A110E30F3008030D7
:10075800F4000A168A113B250A128A118312031320
:100768008C1EB72BB82BE12B0A168A11D9230A1233
:100778008A1183160313E4006408BD0073303D0634
:10078800031DC72BC82BE12B2F08F3002E08F200FE
:100798002D08F1002C08F0000A168A1128260A12E2
:1007A8008A1170080A168A11FD230A128A11C130AB
:1007B8000A168A11FD230A128A1183160313BD0132
:1007C800063083160313E6001330E500AD30E4006D
:1007D800E40BEC2BE50BEC2BE60BEC2B84280A1234
:1007E8008A11002883160313D900831203136B0898
:1007F800F3006A08F2006908F1006808F0000A16B8
:100808008A1128260A128A11710883160313D60042
:100818007008D500E001E101DE01DF010130E200EE
:100828000030E300831203136B08F3006A08F20038
:100838006908F1006808F0000030F7000030F600A1
:100848000030F5000030F4000A168A11A2260A12B8
:100858008A110318302C312C7F2CBF3083120313DC
:10086800D1008030D0000030CF000030CE006B08BF
:10087800D5006A08D4006908D3006808D2000A12B3
:100888008A159F240A128A11831203135108EB0058
:100898005008EA004F08E9004E08E8002D30EE0045
:1008A8008316031359088400831203136E088313F5
:1008B8008000013083160313DE070318DF0A0030B7
:1008C800DF077F2C0A30F0000030F1005608F300F3
:1008D8005508F2000A128A110E200A128A117108AC
:1008E80083160313D6007008D5000130E0070318FB
:1008F800E10A0030E1078316031355085604031D67
:10090800862C872C662CA32D60036104031D8D2C77
:100918008E2C932C0130E2000030E300D52C0230FD
:10092800D7000030D800BF2C831603136308831246
:100938000313A10083160313620883120313A00094
:100948000A30A2000030A3000A168A11E6240A120F
:100958008A1183120313210883160313E3008312F9
:100968000313200883160313E2000130D707031886
:10097800D80A0030D8076108803A83120313EE00C2
:10098800831603135808803A831203136E02031D5B
:10099800D12C83160313570860020318D42CD52CC6
:1009A800982C83160313620883120313A40083167A
:1009B8000313630883120313A5000030A51BFF303F
:1009C800A600A70001300A168A1144270A128A11C4
:1009D800831203132708B5002608B4002508B300BE
:1009E8002408B2006B08B9006A08B8006908B700A3
:1009F8006808B6000A128A153A200A128A11831268
:100A08000313350883160313DD0083120313340818
:100A180083160313DC0083120313330883160313AE
:100A2800DB0083120313320883160313DA0063080A
:100A380083120313A300831603136208831203139C
:100A4800A200831603135D08F3005C08F2005B083C
:100A5800F1005A08F0000A168A1128260A128A118B
:100A6800710883120313A1007008A0000A168A11E6
:100A7800E6240A128A11831203132008A40021080D
:100A8800A5000030A51BFF30A600A70001300A16FC
:100A98008A1144270A128A11831203132708C900EE
:100AA8002608C8002508C7002408C6006B08CD0022
:100AB8006A08CC006908CB006808CA000A168A11BF
:100AC80077240A128A11831203134908EB00480895
:100AD800EA004708E9004608E800831603135D08A2
:100AE800F3005C08F2005B08F1005A08F0000A16EF
:100AF8008A1128260A128A117008303E83120313BD
:100B0800EE00831603135E08590783120313EF00E0
:100B18006F0884006E088313800001308316031366
:100B2800DE070318DF0A0030DF07FF30E00703188D
:100B3800E10AFF30E1070130E2000030E30060081D
:100B48006104031DA82DA92D882C2E3083120313B0
:100B5800EE00831603135E08590783120313EF0090
:100B68006F0884006E088313800001308316031316
:100B7800DE070318DF0A0030DF070130D700003036
:100B8800D800ED2D83160313630883120313A10005
:100B980083160313620883120313A0000A30A2000D
:100BA8000030A3000A168A11E6240A128A11831259
:100BB8000313210883160313E30083120313200889
:100BC80083160313E2000130D7070318D80A003050
:100BD800D807831203136D08803AEE0083160313B7
:100BE8005808803A831203136E02031D012E8316E0
:100BF80003135708831203136C020318042E052EDF
:100C0800C62D83160313620883120313A4008316E8
:100C18000313630883120313A5000030A51BFF30DC
:100C2800A600A70001300A168A1144270A128A1161
:100C3800831203132708D1002608D0002508CF0007
:100C48002408CE006B08F3006A08F2006908F10076
:100C58006808F0000A168A1128260A128A117008F4
:100C680083120313A4007108A5000030A51BFF30F0
:100C7800A600A70001300A168A1144270A128A1111
:100C8800831203132708C9002608C8002508C700CF
:100C98002408C6006B08CD006A08CC006908CB00A0
:100CA8006808CA000A168A1177240A128A11831260
:100CB80003134908D5004808D4004708D30046085C
:100CC800D2000A128A159F240A128A11831203136A
:100CD800510883160313DD0083120313500883168B
:100CE8000313DC00831203134F0883160313DB007E
:100CF800831203134E0883160313DA005D08831268
:100D08000313EB00831603135C0883120313EA0032
:100D1800831603135B0883120313E9008316031376
:100D28005A0883120313E8006B08F3006A08F200FC
:100D38006908F1006808F0000A168A1128260A12C4
:100D48008A11013083160313E2000030E300831296
:100D580003136D0883160313E100831203136C0851
:100D680083160313E000D32F60036104031DBD2E17
:100D7800BE2EC32E0130E2000030E300052F023002
:100D8800D7000030D800EF2E8316031363088312B0
:100D98000313A10083160313620883120313A00030
:100DA8000A30A2000030A3000A168A11E6240A12AB
:100DB8008A1183120313210883160313E300831295
:100DC8000313200883160313E2000130D707031822
:100DD800D80A0030D8076108803A83120313EE005E
:100DE800831603135808803A831203136E02031DF7
:100DF800012F83160313570860020318042F052FC9
:100E0800C82E83160313620883120313A4008316E3
:100E18000313630883120313A5000030A51BFF30DA
:100E2800A600A70001300A168A1144270A128A115F
:100E3800831203132708B5002608B4002508B30059
:100E48002408B2006B08B9006A08B8006908B7003E
:100E58006808B6000A128A153A200A128A11831203
:100E68000313350883160313DD00831203133408B4
:100E780083160313DC00831203133308831603134A
:100E8800DB0083120313320883160313DA006308A6
:100E980083120313A3008316031362088312031338
:100EA800A200831603135D08F3005C08F2005B08D8
:100EB800F1005A08F0000A168A1128260A128A1127
:100EC800710883120313A1007008A0000A168A1182
:100ED800E6240A128A11831203132008A4002108A9
:100EE800A5000030A51BFF30A600A70001300A1698
:100EF8008A1144270A128A11831203132708C9008A
:100F08002608C8002508C7002408C6006B08CD00BD
:100F18006A08CC006908CB006808CA000A168A115A
:100F280077240A128A11831203134908EB00480830
:100F3800EA004708E9004608E800831603135D083D
:100F4800F3005C08F2005B08F1005A08F0000A168A
:100F58008A1128260A128A117008303E8312031358
:100F6800EE00831603135E08590783120313EF007C
:100F78006F0884006E088313800001308316031302
:100F8800DE070318DF0A0030DF07FF30E007031829
:100F9800E10AFF30E1070130E2000030E3006008B9
:100FA8006104031DD82FD92FB82E0A3083120313DA
:100FB800EE00831603135E08590783120313EF002C
:100FC8006F0884006E088313800008008313A03024
:100FD8008400D5300A168A11E3230A128A1183176E
:100FE800903084009A300A168A11E3230A128A1173
:080FF80083010A128A11752819
:10100400283083120313940083160313910183126F
:1010140003132008A4002108A5002208A600230821
:10102400A70002300310A40DA50DA60DA70DFF3EC9
:10103400031D14282708F3002608F2002508F100F0
:101044002408F0000030F7007A30F6001230F50082
:101054000030F4000A168A11C2250A128A15700893
:10106400FF3E8316031393009401871507160800A7
:101074008312031339088039BA003A08C3003908C7
:10108400BA003A07BB003B08CA00B81F4A284B28DD
:101094004C284A144A0803195028512861284A0A3E
:1010A400031D552856285E280030B9000030B800CA
:1010B4000030B7000030B600B817B9016928003015
:1010C400B9000030B8000030B7000030B600350871
:1010D4008039BA003A08C3063508BA003A07BB009B
:1010E4003B08CB00B41F7728782879284B144B0889
:1010F40003197D287E288E284B0A031D8228832805
:101104008B280030B5000030B4000030B30000304C
:10111400B200B417B50196280030B5000030B40011
:101124000030B3000030B200350834043304320414
:10113400031D9D289E28B7280030B9000030B80050
:101144000030B7000030B6008030B8047F30B904F6
:101154004308BA003A08B9043908B5003808B4009D
:101164003708B3003608B200162A4A08031DBB2804
:10117400BC28C5280030B5000030B4000030B300EE
:101184000030B200162A4A08BA00BB013B08BD0071
:101194004B083A02BC00031CBD033C087F3EC4005C
:1011A4003D080318013E003EC5003908C200380856
:1011B400C1003708C0003608BF000030B900003055
:1011C400B8000030B7000030B6000030C90000306D
:1011D400C8000030C7000030C600CB013B294B08D3
:1011E4000319F528F62816290130BA000310BF0D9B
:1011F400C00DC10DC20DBA0BF8280130BA0003109E
:10120400B60DB70DB80DB90DBA0B0129C91F0B29BD
:101214000C290D2936140130BA000310C60DC70D70
:10122400C80DC90DBA0B0F2935084202031D242924
:1012340034084102031D242933084002031D2429D4
:1012440032083F02031C2729282937294917320865
:10125400BF023308031C330FC0023408031C340FCD
:10126400C1023508031C350FC2020130BA003A0826
:10127400CB071A304B02031C40294129F1284208AC
:10128400410440043F0403194829492968294614A4
:1012940068290130BA000310B60DB70DB80DB90DA9
:1012A400BA0B4D29C91F5729582959293614013019
:1012B400BA000310C60DC70DC80DC90DBA0B5B29C2
:1012C400FF30C4070318C50AFF30C507B81F6B29D0
:1012D4006C294B29CB01C91F702971298D29FF3035
:1012E4004605BA00FF304705BB00FF304805BC0087
:1012F4007F304905BD003D083C043B043A04031912
:10130400842985298829CB01CB0A8D29361C8B2970
:101314008C298D2985294B08031991299229C329E0
:101324000130B607003003180130B7070030031846
:101334000130B807003003180130B907391CA3295C
:10134400A429C3293608BA003708BB003808BC00F2
:101354003908BD000130BE003D0DBD0CBC0CBB0CFA
:10136400BA0CBE0BAE293D08B9003C08B8003B08D6
:10137400B7003A08B6000130C4070318C50A0030A4
:10138400C5074508803AFF0080307F02031DCC2941
:10139400FF304402031CCF29D029DE29FF308312F9
:1013A4000313C4000030C5000030B9000030B80099
:1013B4000030B7000030B600831203134508803AAA
:1013C400FF0080307F02031DE92901304402031825
:1013D400EC29ED29FA2983120313C401C501003055
:1013E400B9000030B8000030B7000030B600C301C7
:1013F400831203134408BA003A08CA004A1C032A99
:10140400042A062AB8170A2A7F30BA003A08B8050F
:101414004A08BA0003103A0CBB003B08B900430861
:10142400BA003A08B904AE28080083120313350839
:101434008039BA003A08C2003508BA003A07BB003E
:101444003B08C400B41F272A282A292A4414440824
:1014540003192D2A2E2A3E2A440A031D322A332A2E
:101464003B2A0030B5000030B4000030B300003037
:10147400B200B417B501462A0030B5000030B400FC
:101484000030B3000030B20039088039BA003A089D
:10149400C300430842060319502A512A522A42170C
:1014A4003908BA003A07BB003B08C300B81F5B2ADF
:1014B4005C2A5D2A431443080319612A622A722AAA
:1014C400430A031D662A672A6F2A0030B9000030D8
:1014D400B8000030B7000030B600B817B9017A2A56
:1014E4000030B9000030B8000030B7000030B6005A
:1014F4004408430203187F2A802AC42A421F832AED
:10150400842A882A8030BA003A08C2064408BA00FD
:101514003A08C5004308BA003A08C4004508BA00AE
:101524003A08C3003208BA003A08C5003608BA00BF
:101534003A08B2004508BA003A08B6003308BA00BF
:101544003A08C5003708BA003A08B3004508BA009B
:101554003A08B7003408BA003A08C5003808BA0097
:101564003A08B4004508BA003A08B8003508BA0089
:101574003A08C5003908BA003A08B5004508BA0067
:101584003A08B900C5014308BA00BB013B08BD00D5
:1015940044083A02BC00031CBD033D08803AFF0026
:1015A40080307F02031DD82A1A303C02031CDB2A38
:1015B400DC2A192B83120313350834043304320450
:1015C400031DE52AE72A0130E82A0030BA003A0868
:1015D400C5000030B5000030B4000030B300003066
:1015E400B2004308BA003A08C400212B451CFB2A68
:1015F400FC2A052B4508BA0003103A0C0138BB003D
:101604003B08C500072B0310C50C321C0A2B0B2BFF
:101614000C2BC5170130BA00350DB50CB40CB30C46
:10162400B20CBA0B0E2B0130BA003A08C40783126D
:10163400031343084402031C202B212BF82A421BCA
:10164400242B252B702B4408031D292B2A2B332BE9
:101654000030B5000030B4000030B3000030B200F8
:101664009E2C3608B207370803110318013E0319EC
:101674003C2BB307380803110318013E0319432B0D
:10168400B407390803110318013E03194A2BB5079F
:10169400351C4D2B4E2B242C451C512B522B5B2BD4
:1016A4004508BA0003103A0C0138BB003B08C500DA
:1016B4005D2B0310C50C321C602B612B622BC517EC
:1016C4000130BA00350DB50CB40CB30CB20CBA0B26
:1016D400642B0130BA003A08C407242C3508803A38
:1016E400FF003908803A7F02031D822B3808340238
:1016F400031D822B37083302031D822B3608320266
:101704000318852B862BDE2BFF30BA00FF30BB007D
:10171400FF30BC00FF30BD003608BE003708BF00F4
:101724003808C0003908C1003208BE023308031C5F
:10173400330F9D2B9E2BBF023408031C340FA32BA5
:10174400A42BC0023508031C350FA92BAA2BC102F8
:101754003E08BA073F0803183F0FB12BB22BBB0753
:1017640040080318400FB72BB82BBC0741080318D7
:10177400410ABD073D08B5003C08B4003B08B3006E
:101784003A08B2008030BA003A08C206C509C50A50
:101794004508031DCE2BCF2BEC2B0130B2070030B4
:1017A40003180130B307003003180130B4070030C8
:1017B40003180130B507EC2B3608B2023708031CB6
:1017C400370FB3023808031C380FB4023908031C5E
:1017D400390FB5023508340433043204031DF32BE6
:1017E400F42B202C4508031DF82BF92B202C00305A
:1017F400B5000030B4000030B3000030B2009E2CBD
:101804000130BA000310B20DB30DB40DB50DBA0B0F
:10181400042CC51F0E2C0F2C102C3214451C132C19
:10182400142C172C0314C50D192C0310C50D4408D2
:1018340003191D2C1E2C202C0130C402B41F232C90
:10184400242C022CC301C51F282C292C372C450815
:101854007F3903192E2C2F2C322CC301C30A372CA9
:10186400321C352C362C372C2F2C430803193B2CD7
:101874003C2C702C0130B207003003180130B30740
:10188400003003180130B407003003180130B507E5
:10189400351C4D2C4E2C702C3208BA003308BB007A
:1018A4003408BC003508BD000130BE003D0DBD0C40
:1018B400BC0CBB0CBA0CBE0B582C3D08B5003C0844
:1018C400B4003B08B3003A08B200440A03196B2C75
:1018D4006C2C702C0130BA003A08C407440A03196E
:1018E400742C752C7A2C4408031D792C7A2C882CA2
:1018F4000030B5000030B4000030B3000030B20056
:101904004408031D862C872C882CC201441C8B2C74
:101914008C2C8E2CB417922C7F30BA003A08B40564
:101924004408BA0003103A0CBB003B08B500C21FC0
:101934009C2C9D2C9E2CB517080083120313510870
:101944008039D6005608DB005108D6005607D70068
:101954005708E100D01FAF2CB02CB12C61146108E2
:101964000319B52CB62CC52C610A031DBA2CBB2C4B
:10197400C32C0030D1000030D0000030CF00003044
:10198400CE00D017CD2C0030D1000030D000003074
:10199400CF000030CE0055088039D6005608DB064B
:1019A4005508D6005607D7005708E000D41FDB2C93
:1019B400DC2CDD2C601460080319E12CE22CF12CE2
:1019C400600A031DE62CE72CEF2C0030D500003014
:1019D400D4000030D3000030D200D417F92C0030EA
:1019E400D5000030D4000030D3000030D2006008AD
:1019F4000319FD2CFE2C032D6108031D022D032D5C
:101A04000C2D0030D1000030D0000030CF00003069
:101A1400CE00FF2F4E08D6005608F00054080A16D0
:101A24008A11BF240A128A15710883120313E7006E
:101A34007008E6006608D600D701D801D901590814
:101A4400DF005808DE005708DD005608DC00670890
:101A5400D600D701D801D9015908E5005808E40097
:101A64005708E3005608E2004F08D6005608F00075
:101A740053080A168A11BF240A128A1571088312A0
:101A84000313E7007008E6006608D600D701D80102
:101A9400D9015608DC07570803110318013E03193E
:101AA400542DDD07580803110318013E03195B2D5B
:101AB400DE07590803110318013E0319622DDF07DD
:101AC4006708D600D701D801D9015608E20757089C
:101AD40003110318013E0319702DE307580803117D
:101AE4000318013E0319772DE4075908031103185D
:101AF400013E03197E2DE5075008D6005608F00074
:101B040052080A168A11BF240A128A157108831210
:101B14000313E7007008E6006608D600D701D80171
:101B2400D9015608DC07570803110318013E0319AD
:101B34009C2DDD07580803110318013E0319A32D3A
:101B4400DE07590803110318013E0319AA2DDF0704
:101B54006708D600D701D801D9015608E20757080B
:101B640003110318013E0319B82DE30758080311A4
:101B74000318013E0319BF2DE40759080311031884
:101B8400013E0319C62DE5070830D6000310DC0D0D
:101B9400DD0DDE0DDF0DD60BC82D4F08D60056081F
:101BA400F00052080A168A11BF240A128A15710815
:101BB40083120313E7007008E6006608D60067087E
:101BC400D700D801D9015608DC07570803110318B8
:101BD400013E0319EE2DDD07580803110318013ED9
:101BE4000319F52DDE07590803110318013E0319E3
:101BF400FC2DDF074E08D6005608F00053080A16DD
:101C04008A11BF240A128A15710883120313E7008C
:101C14007008E6006608D6006708D700D801D90125
:101C24005608DC07570803110318013E03191B2E3D
:101C3400DD07580803110318013E0319222EDE079D
:101C4400590803110318013E0319292EDF07083030
:101C5400D6000310DC0DDD0DDE0DDF0DD60B2B2EB3
:101C64004E08D6005608F00052080A168A11BF24FE
:101C74000A128A15710883120313E7007008E6003C
:101C84006608D6006708D700D801D9015608DC07D2
:101C9400570803110318013E0319512EDD07580894
:101CA40003110318013E0319582EDE0759080311C6
:101CB4000318013E03195F2EDF074F08D6005608AC
:101CC400F00054080A168A11BF240A128A157108F2
:101CD40083120313E7007008E6006608D60067085D
:101CE400D700D801D9015608E20757080311031891
:101CF400013E03197E2EE307580803110318013E21
:101D04000319852EE407590803110318013E03192A
:101D14008C2EE5075008D6005608F00053080A1622
:101D24008A11BF240A128A15710883120313E7006B
:101D34007008E6006608D6006708D700D801D90104
:101D44005608E207570803110318013E0319AB2E86
:101D5400E307580803110318013E0319B22EE407E0
:101D6400590803110318013E0319B92EE507500859
:101D7400D6005608F00054080A168A11BF240A1225
:101D84008A15710883120313E7007008E6006608D9
:101D9400D6006708D700D801D90108300310D60D42
:101DA400D70DD80DD90DFF3E031DD02E5608E207DE
:101DB400570803110318013E0319E12EE3075808DD
:101DC40003110318013E0319E82EE407590803110F
:101DD4000318013E0319EF2EE5075C08D6005D08E1
:101DE400D7005E08D8005F08D90018300310D90C5A
:101DF400D80CD70CD60CFF3E031DF82E5608E2076C
:101E0400570803110318013E0319092FE307580863
:101E140003110318013E0319102FE4075908031195
:101E24000318013E0319172FE5070830D6000310E5
:101E3400DC0DDD0DDE0DDF0DD60B192F61086007FB
:101E4400D600D701D70D5608823EE600570803187E
:101E5400013EFF3EE7004B2F0130D6000310E20D98
:101E6400E30DE40DE50DD60B302FDF1F3A2F3B2F8A
:101E74003C2F62140130D6000310DC0DDD0DDE0DA5
:101E8400DF0DD60B3E2FFF30E6070318E70AFF30BD
:101E9400E707E41F4E2F4F2F2E2FE001DF1F532F94
:101EA400542F702FFF305C05D600FF305D05D7003E
:101EB400FF305E05D8007F305F05D900590858040B
:101EC400570456040319672F682F6B2FE001E00AAB
:101ED400702F621C6E2F6F2F702F682F60080319EC
:101EE400742F752FA62F0130E2070030031801303C
:101EF400E307003003180130E40700300318013011
:101F0400E507651C862F872FA62F6208D600630875
:101F1400D7006408D8006508D9000130DA00590DEB
:101F2400D90CD80CD70CD60CDA0B912F5908E50034
:101F34005808E4005708E3005608E2000130E607B9
:101F44000318E70A0030E7076708803AFF0080308B
:101F54007F02031DAF2FFF306602031CB22FB32F85
:101F6400BE2F7F3083120313E5008030E40000307D
:101F7400E3000030E200F32F831203136708803A72
:101F8400FF0080307F02031DC92F01306602031851
:101F9400CC2FCD2FD92F003083120313E50000304E
:101FA400E4000030E3000030E200DB01F32F831291
:101FB40003136608D6005608E100FF30E205FF303F
:101FC400E3057F30E4050030E505611CEA2FEB2FC3
:101FD400EC2FE4176108D6000310560CD7005708FD
:101FE400E5005B08D6005608E5046508D1006408DE
:101FF400D0006308CF006208CE000800FF1B0A2847
:1020040083137F1883170008840A0319FF0A080042
:1020140010308A000408840A82070034543445349A
:102024004D3450340034483455344D340034433442
:0A2034004F344E34003443340034BE
:1027B200831203131A080800F0007008831203132F
:1027C2008600080064008001840A040603190034AC
:1027D2000406E42B0A168A1109240A168A118316A2
:1027E2000313111408000A168A1109240A168A1101
:1027F2008316031311150800F00083160313981CA7
:10280200032C042CFE2B700883120313990008007A
:102812008316031314190E2C0F2C092C11081F39BF
:10282200031D142C152C092C080000300A168A11DD
:1028320039240A168A1101300A168A1139240A1615
:102842008A110800F20083120313091472080A168F
:102852008A11DD230A168A11831203130915063021
:10286200F100F10B322C000083120313091108004E
:10287200F30083120313091073080A168A11DD2369
:102882000A168A118312031309150B30F200623003
:10289200F100F10B4A2CF20B4A2C000083120313B5
:1028A20009110800F6007603031D582C592C652CDB
:1028B20074087F3EF5007508F70077080A168A113A
:1028C20039240A168A11762C02307606031D6A2CE8
:1028D2006B2C762C7408BF3EF5007508F70077085C
:1028E2000A168A1139240A168A11080080308312C6
:1028F2000313C9064D08B5004C08B4004B08B300D9
:102902004A08B2004908B9004808B8004708B700A9
:102912004608B6000A128A1517220A168A1183126D
:1029220003133508C9003408C8003308C700320849
:10293200C600080083160317880189018316031352
:102942000710871086018801890183120313890108
:10295200860188010030A3000130A2008630A10068
:10296200A030A0000A128A1502200A168A118316C4
:1029720003130F178F160F160F140800F800F40137
:10298200F5017008F200F3017208F6007308F7000F
:10299200781CCC2CCD2CD32C7608F4070318F50A1E
:1029A2007708F50701300310F60DF70DFF3E031D02
:1029B200D42C0310F80C7808031DE02CE12CC92C50
:1029C2007508F1007408F0000800FB01FC01831295
:1029D2000313201CED2CEE2CF42C2208FB07031809
:1029E200FC0A2308FC0701300310A20DA30DFF3ED1
:1029F200031DF52C01300310A10CA00CFF3E031D9A
:102A0200FC2C20082104031D072D082DE82C7C082E
:102A1200A1007B08A00008000A168A1109240A16E0
:102A22008A118316031391150A168A1109240A16AC
:102A32008A11831203131308F200F3017208F400DF
:102A42007308F5000A168A1109240A168A117003FE
:102A52007104031D2D2D2E2D322D83160313911279
:102A6200352D83160313911611167508F10074089B
:102A7200F0000800F801F901602D78087307F600EC
:102A82007408F5000318F50AF81F482DF5037508B8
:102A9200F700770883120313FF00760884000A16F2
:102AA2008A1100200A168A110A168A1123240A168C
:102AB2008A110130F8070318F90A0030F90778087B
:102AC2007307F6007408F5000318F50AF81F6A2D5B
:102AD200F5037508F700770883120313FF007608E1
:102AE20084000A168A1100200A168A11003A031D70
:102AF2007B2D7C2D3E2D080000300A168A11DD2325
:102B02000A168A113430F500F130F400F40B872DE7
:102B1200F50B872D8C2D30300A168A1139240A16AE
:102B22008A110D30F500FB30F400F40B962DF50BF5
:102B3200962D9B2D30300A168A1139240A168A11D5
:102B42001D30F5009130F400F40BA52DF50BA52DE9
:102B520030300A168A1139240A168A1138300A16B8
:102B62008A1139240A168A110C300A168A1139245C
:102B72000A168A1106300A168A1139240A168A118F
:102B820008000030FC000030FB000030FA0000308A
:102B9200F90073087204710470040319D12DD22D47
:102BA2001F2EFD01FD0AE22D0130F8000310F00D89
:102BB200F10DF20DF30DF80BD72D0130F800780866
:102BC200FD07F31FE52DE62DD52D0130F80003108A
:102BD200F90DFA0DFB0DFC0DF80BE82D73087702C9
:102BE200031DFD2D72087602031DFD2D710875026D
:102BF200031DFD2D70087402031C002E012E102EE1
:102C02007008F4027108031C710FF5027208031CAC
:102C1200720FF6027308031C730FF7027914013066
:102C22000310F30CF20CF10CF00CFF3E031D112EFD
:102C32000130FD02031D1E2E1F2EE62D7C08F3001F
:102C42007B08F2007A08F1007908F000080003100E
:102C5200720D730DF4007408FA007A08031D322E07
:102C6200332E3C2E0030F3000030F2000030F10031
:102C72000030F000A12E7008F4007108F50072080F
:102C8200F6007308F7001F300310F70CF60CF50C72
:102C9200F40CFF3E031D452E7408F8007808F90075
:102CA200F217FF30F005FF30F105FF30F20500307A
:102CB200F3059630FA02FA1F5F2E602E7A2E7A08FA
:102CC200803A973E0318662E672E682E332E013007
:102CD2000310F30CF20CF10CF00CFF3E031D692EF5
:102CE2000130F4007408FA07031D782E792E682E3D
:102CF200912E20307A02031C7F2E802E8C2E332EB2
:102D02000130F4000310F00DF10DF20DF30DF40B90
:102D1200832E0130FA027A08031D902E912E812E05
:102D220079080319952E962EA12EF009F109F209C0
:102D3200F309F00A0319F10A0319F20A0319F30A53
:102D4200080000307005F80000307105F90080308D
:102D52007205FA007F307305FB007B087A04790460
:102D62007804031DB52EB62EBE2E0030F3000030BF
:102D7200F2000030F1000030F00000307405F8007D
:102D820000307505F90080307605FA007F3077054E
:102D9200FB007B087A0479047804031DD12ED22E1D
:102DA200DA2E0030F7000030F6000030F500003077
:102DB200F400F31FDD2EDE2E022F0030F80000306B
:102DC200F9000030FA008030FB007008F802710848
:102DD200031C710FED2EEE2EF9027208031C720F06
:102DE200F32EF42EFA027308031C730FF92EFA2E37
:102DF200FB027B08F3007A08F2007908F1007808F8
:102E0200F000F71F052F062F2A2F0030F8000030A0
:102E1200F9000030FA008030FB007408F8027508EF
:102E2200031C750F152F162FF9027608031C760F57
:102E32001B2F1C2FFA027708031C770F212F222F3A
:102E4200FB027B08F7007A08F6007908F50078089B
:102E5200F4008030F3068030F70677087302031D12
:102E62003C2F76087202031D3C2F75087102031D68
:102E72003C2F7408700203183F2F402F422F03107B
:102E8200432F0314080083120313AC002C08031908
:102E92004B2F4C2F602FA71F4F2F502F602F24092D
:102EA200AE002509AF002609B0002709B100AE0A1D
:102EB2000319AF0A0319B00A0319B10A682F2708C8
:102EC200B1002608B0002508AF002408AE0027088C
:102ED200260425042404031D6F2F702F792F003040
:102EE200A7000030A6000030A5000030A400FF2F8C
:102EF2009630A8002808AD008B2F0130A8002808C2
:102F0200AD0701300310B10CB00CAF0CAE0CFF3E9C
:102F1200031D832FFE303105031D902F912F7E2F2D
:102F2200AD2F0130A8002808AD070130AE070030F0
:102F320003180130AF07003003180130B00700302A
:102F420003180130B10701300310B10CB00CAF0C03
:102F5200AE0CFF3E031DA52FFF303105031DB22F1E
:102F6200B32F922FBF2F0130AD020130A800031002
:102F7200AE0DAF0DB00DB10DA80BB82FB01BC22F07
:102F8200C32FC92F02302D020318C82FC92FB42F07
:102F92002D18CC2FCD2FD52FFF30AE05FF30AF052A
:102FA2007F30B005FF30B1050310AD0C2D08A8002D
:102FB200A901AA01AB0118300310A80DA90DAA0D91
:102FC200AB0DFF3E031DDD2F2808AE042908AF0418
:102FD2002A08B0042B08B1042C080319F12FF22F90
:102FE200F72FA71FF52FF62FF72FB1173108A700DC
:0E2FF2003008A6002F08A5002E08A400080035
:04400E00D420FF3F7C
:00000001FF
