:020000040000FA
:060000000A128A11EA2F2A
:10000C00F20083120313071472080A168A11C6240D
:10001C000A128A118312031387140330F100F10BB7
:10002C00152883120313871008000310720D730D2B
:10003C00F4007408FA007A08031D252826282F28B6
:10004C000030F3000030F2000030F1000030F0001E
:10005C0094287008F4007108F5007208F600730813
:10006C00F7001F300310F70CF60CF50CF40CFF3EE8
:10007C00031D38287408F8007808F900F217FF30CF
:10008C00F005FF30F105FF30F2050030F305963036
:10009C00FA02FA1F522853286D287A08803A973EA4
:1000AC00031859285A285B28262801300310F30C12
:1000BC00F20CF10CF00CFF3E031D5C280130F40037
:1000CC007408FA07031D6B286C285B2884282030E1
:1000DC007A02031C722873287F2826280130F4002A
:1000EC000310F00DF10DF20DF30DF40B7628013029
:1000FC00FA027A08031D83288428742879080319C6
:10010C00882889289428F009F109F209F309F00AE2
:10011C000319F10A0319F20A0319F30A08008312EE
:10012C00031351088039D6005608DB005108D6005D
:10013C005607D7005708E100D01FA528A628A728E6
:10014C00611461080319AB28AC28BB28610A031D94
:10015C00B028B128B9280030D1000030D0000030D0
:10016C00CF000030CE00D017C3280030D1000030B3
:10017C00D0000030CF000030CE0055088039D600BA
:10018C005608DB065508D6005607D7005708E0007E
:10019C00D41FD128D228D328601460080319D7287B
:1001AC00D828E728600A031DDC28DD28E528003064
:1001BC00D5000030D4000030D3000030D200D4176A
:1001CC00EF280030D5000030D4000030D3000030D0
:1001DC00D20060080319F328F428F9286108031DDC
:1001EC00F828F92802290030D1000030D000003066
:1001FC00CF000030CE00F52B4E08D6005608F0008C
:10020C0054080A168A118E250A128A117108831253
:10021C000313E7007008E6006608D600D701D80182
:10022C00D9015908DF005808DE005708DD005608D0
:10023C00DC006708D600D701D801D9015908E500C0
:10024C005808E4005708E3005608E2004F08D600AF
:10025C005608F00053080A168A118E250A128A11C4
:10026C00710883120313E7007008E6006608D600D5
:10027C00D701D801D9015608DC0757080311031818
:10028C00013E03194A29DD07580803110318013EE2
:10029C0003195129DE07590803110318013E0319EC
:1002AC005829DF076708D600D701D801D9015608AD
:1002BC00E207570803110318013E03196629E307E7
:1002CC00580803110318013E03196D29E407590856
:1002DC0003110318013E03197429E5075008D600D1
:1002EC005608F00052080A168A118E250A128A1135
:1002FC00710883120313E7007008E6006608D60045
:10030C00D701D801D9015608DC0757080311031887
:10031C00013E03199229DD07580803110318013E09
:10032C0003199929DE07590803110318013E031913
:10033C00A029DF076708D600D701D801D9015608D4
:10034C00E207570803110318013E0319AE29E3070E
:10035C00580803110318013E0319B529E40759087D
:10036C0003110318013E0319BC29E5070830D60018
:10037C000310DC0DDD0DDE0DDF0DD60BBE294F0895
:10038C00D6005608F00052080A168A118E250A1259
:10039C008A11710883120313E7007008E6006608DF
:1003AC00D6006708D700D801D9015608DC075708D2
:1003BC0003110318013E0319E429DD075808031142
:1003CC000318013E0319EB29DE0759080311031822
:1003DC00013E0319F229DF074E08D6005608F0003B
:1003EC0053080A168A118E250A128A117108831273
:1003FC000313E7007008E6006608D6006708D7000C
:10040C00D801D9015608DC07570803110318013E1F
:10041C000319112ADD07580803110318013E0319AB
:10042C00182ADE07590803110318013E03191F2A65
:10043C00DF070830D6000310DC0DDD0DDE0DDF0DFF
:10044C00D60B212A4E08D6005608F00052080A1680
:10045C008A118E250A128A11710883120313E70080
:10046C007008E6006608D6006708D700D801D901E5
:10047C005608DC07570803110318013E0319472AD5
:10048C00DD07580803110318013E03194E2ADE0735
:10049C00590803110318013E0319552ADF074F08A9
:1004AC00D6005608F00054080A168A118E250A1236
:1004BC008A11710883120313E7007008E6006608BE
:1004CC00D6006708D700D801D9015608E2075708AB
:1004DC0003110318013E0319742AE307580803118A
:1004EC000318013E03197B2AE4075908031103186A
:1004FC00013E0319822AE5075008D6005608F00081
:10050C0053080A168A118E250A128A117108831251
:10051C000313E7007008E6006608D6006708D700EA
:10052C00D801D9015608E207570803110318013EF8
:10053C000319A12AE307580803110318013E0319F4
:10054C00A82AE407590803110318013E0319AF2A1E
:10055C00E5075008D6005608F00054080A168A1110
:10056C008E250A128A11710883120313E700700892
:10057C00E6006608D6006708D700D801D901083014
:10058C000310D60DD70DD80DD90DFF3E031DC62A6D
:10059C005608E207570803110318013E0319D72A1E
:1005AC00E307580803110318013E0319DE2AE40778
:1005BC00590803110318013E0319E52AE5075C08E5
:1005CC00D6005D08D7005E08D8005F08D900183047
:1005DC000310D90CD80CD70CD60CFF3E031DEE2AF9
:1005EC005608E207570803110318013E0319FF2AA6
:1005FC00E307580803110318013E0319062BE407FF
:10060C00590803110318013E03190D2BE507083097
:10061C00D6000310DC0DDD0DDE0DDF0DD60B0F2B20
:10062C0061086007D600D701D70D5608823EE60058
:10063C0057080318013EFF3EE700412B0130D6005E
:10064C000310E20DE30DE40DE50DD60B262BDF1F99
:10065C00302B312B322B62140130D6000310DC0D01
:10066C00DD0DDE0DDF0DD60B342BFF30E607031846
:10067C00E70AFF30E707E41F442B452B242BE0014E
:10068C00DF1F492B4A2B662BFF305C05D600FF3051
:10069C005D05D700FF305E05D8007F305F05D900BF
:1006AC00590858045704560403195D2B5E2B612B13
:1006BC00E001E00A662B621C642B652B662B5E2B1B
:1006CC00600803196A2B6B2B9C2B0130E20700305E
:1006DC0003180130E307003003180130E407003041
:1006EC0003180130E507651C7C2B7D2B9C2B6208C5
:1006FC00D6006308D7006408D8006508D90001301B
:10070C00DA00590DD90CD80CD70CD60CDA0B872B78
:10071C005908E5005808E4005708E3005608E200C1
:10072C000130E6070318E70A0030E7076708803A4C
:10073C00FF0080307F02031DA52BFF306602031CD7
:10074C00A82BA92BB42B7F3083120313E500803028
:10075C00E4000030E3000030E200E92B83120313C5
:10076C006708803AFF0080307F02031DBF2B0130E9
:10077C0066020318C22BC32BCF2B0030831203133A
:10078C00E5000030E4000030E3000030E200DB0163
:10079C00E92B831203136608D6005608E100FF30DC
:1007AC00E205FF30E3057F30E4050030E505611C10
:1007BC00E02BE12BE22BE4176108D6000310560C5A
:1007CC00D7005708E5005B08D6005608E504650815
:1007DC00D1006408D0006308CF006208CE00080086
:1007EC0083160313D800831203136B08F3006A08F3
:1007FC00F2006908F1006808F0000A128A111B2047
:10080C000A128A11710883160313D5007008D400DC
:10081C00DF01E001DD01DE010130E1000030E2002A
:10082C00831203136B08F3006A08F2006908F100E5
:10083C006808F0000030F7000030F6000030F500DA
:10084C000030F4000A168A115E270A128A11031866
:10085C00302C312C7F2CBF3083120313D10080300D
:10086C00D0000030CF000030CE006B08D5006A08F5
:10087C00D4006908D3006808D2000A128A119520A6
:10088C000A128A11831203135108EB005008EA0074
:10089C004F08E9004E08E8002D30EE0083160313D4
:1008AC0058088400831203136E08831380000130F0
:1008BC0083160313DD070318DE0A0030DE077F2CD6
:1008CC000A30F0000030F1005508F3005408F20033
:1008DC000A168A11F7260A128A1171088316031355
:1008EC00D5007008D4000130DF070318E00A00308F
:1008FC00E0078316031354085504031D862C872C1C
:10090C00662CA32D5F036004031D8D2C8E2C932C61
:10091C000130E1000030E200D52C0230D60000306E
:10092C00D700BF2C83160313620883120313A10094
:10093C0083160313610883120313A0000A30A2006C
:10094C000030A3000A168A11B5250A128A118312E7
:10095C000313210883160313E200831203132008E8
:10096C0083160313E1000130D6070318D70A0030B1
:10097C00D7076008803A83120313EE008316031323
:10098C005708803A831203136E02031DD12C831671
:10099C00031356085F020318D42CD52C982C8316FD
:1009AC000313610883120313A40083160313620854
:1009BC0083120313A5000030A51BFF30A600A7006F
:1009CC0001300A128A153B200A128A118312031372
:1009DC002708B5002608B4002508B3002408B20087
:1009EC006B08B9006A08B8006908B7006808B60057
:1009FC000A128A15F7200A128A118312031335087A
:100A0C0083160313DC0083120313340883160313B9
:100A1C00DB0083120313330883160313DA008312EB
:100A2C000313320883160313D900620883120313CD
:100A3C00A30083160313610883120313A200831609
:100A4C0003135C08F3005B08F2005A08F100590824
:100A5C00F0000A128A111B200A128A1171088312E3
:100A6C000313A1007008A0000A168A11B5250A12FA
:100A7C008A11831203132008A4002108A50000305A
:100A8C00A51BFF30A600A70001300A128A153B20D7
:100A9C000A128A11831203132708C9002608C800FA
:100AAC002508C7002408C6006B08CD006A08CC00D6
:100ABC006908CB006808CA000A168A116A250A124E
:100ACC008A11831203134908EB004808EA0047080F
:100ADC00E9004608E800831603135C08F3005B0882
:100AEC00F2005A08F1005908F0000A128A111B2072
:100AFC000A128A117008303E83120313EE0083161B
:100B0C0003135D08580783120313EF006F0884006A
:100B1C006E0883138000013083160313DD0703185E
:100B2C00DE0A0030DE07FF30DF070318E00AFF3073
:100B3C00E0070130E1000030E2005F086004031DB3
:100B4C00A82DA92D882C2E3083120313EE008316AA
:100B5C0003135D08580783120313EF006F0884001A
:100B6C006E0883138000013083160313DD0703180E
:100B7C00DE0A0030DE070130D6000030D700ED2D44
:100B8C0083160313620883120313A1008316031345
:100B9C00610883120313A0000A30A2000030A300E6
:100BAC000A168A11B5250A128A1183120313210819
:100BBC0083160313E2008312031320088316031316
:100BCC00E1000130D6070318D70A0030D70783128B
:100BDC0003136D08803AEE00831603135708803A0E
:100BEC00831203136E02031D012E83160313560882
:100BFC00831203136C020318042E052EC62D8316C4
:100C0C000313610883120313A400831603136208F1
:100C1C0083120313A5000030A51BFF30A600A7000C
:100C2C0001300A128A153B200A128A11831203130F
:100C3C002708D1002608D0002508CF002408CE00B4
:100C4C006B08F3006A08F2006908F1006808F0000C
:100C5C000A128A111B200A128A11700883120313BC
:100C6C00A4007108A5000030A51BFF30A600A7004A
:100C7C0001300A128A153B200A128A1183120313BF
:100C8C002708C9002608C8002508C7002408C60084
:100C9C006B08CD006A08CC006908CB006808CA0054
:100CAC000A168A116A250A128A118312031349083B
:100CBC00D5004808D4004708D3004608D2000A12D1
:100CCC008A1195200A128A11831203135108831674
:100CDC000313DC0083120313500883160313DB0089
:100CEC00831203134F0883160313DA0083120313C2
:100CFC004E0883160313D9005C0883120313EB0010
:100D0C00831603135B0883120313EA008316031381
:100D1C005A0883120313E90083160313590883122C
:100D2C000313E8006B08F3006A08F2006908F1008D
:100D3C006808F0000A128A111B200A128A1101306D
:100D4C0083160313E1000030E200831203136D08D5
:100D5C0083160313E000831203136C08831603132A
:100D6C00DF00D32F5F036004031DBD2EBE2EC32EE8
:100D7C000130E1000030E200052F0230D6000030D7
:100D8C00D700EF2E83160313620883120313A100FE
:100D9C0083160313610883120313A0000A30A20008
:100DAC000030A3000A168A11B5250A128A11831283
:100DBC000313210883160313E20083120313200884
:100DCC0083160313E1000130D6070318D70A00304D
:100DDC00D7076008803A83120313EE0083160313BF
:100DEC005708803A831203136E02031D012F8316DA
:100DFC00031356085F020318042F052FC82E831601
:100E0C000313610883120313A400831603136208EF
:100E1C0083120313A5000030A51BFF30A600A7000A
:100E2C0001300A128A153B200A128A11831203130D
:100E3C002708B5002608B4002508B3002408B20022
:100E4C006B08B9006A08B8006908B7006808B600F2
:100E5C000A128A15F7200A128A1183120313350815
:100E6C0083160313DC008312031334088316031355
:100E7C00DB0083120313330883160313DA00831287
:100E8C000313320883160313D90062088312031369
:100E9C00A30083160313610883120313A2008316A5
:100EAC0003135C08F3005B08F2005A08F1005908C0
:100EBC00F0000A128A111B200A128A11710883127F
:100ECC000313A1007008A0000A168A11B5250A1296
:100EDC008A11831203132008A4002108A5000030F6
:100EEC00A51BFF30A600A70001300A128A153B2073
:100EFC000A128A11831203132708C9002608C80096
:100F0C002508C7002408C6006B08CD006A08CC0071
:100F1C006908CB006808CA000A168A116A250A12E9
:100F2C008A11831203134908EB004808EA004708AA
:100F3C00E9004608E800831603135C08F3005B081D
:100F4C00F2005A08F1005908F0000A128A111B200D
:100F5C000A128A117008303E83120313EE008316B6
:100F6C0003135D08580783120313EF006F08840006
:100F7C006E0883138000013083160313DD070318FA
:100F8C00DE0A0030DE07FF30DF070318E00AFF300F
:100F9C00E0070130E1000030E2005F086004031D4F
:100FAC00D82FD92FB82E0A3083120313EE008316D4
:100FBC0003135D08580783120313EF006F088400B6
:100FCC006E088313800008008313A0308400D43093
:100FDC000A168A11CC240A128A11831790308400C5
:100FEC009A300A168A11CC240A128A1183010A1229
:040FFC008A155C2DC9
:10100600283083120313940083160313910183126D
:1010160003132008A4002108A5002208A60023081F
:10102600A70002300310A40DA50DA60DA70DFF3EC7
:10103600031D15282708F3002608F2002508F100ED
:101046002408F0000030F7003D30F6000930F500C6
:101056000030F4000A168A1191260A128A157008C1
:10106600FF3E8316031393009401871507160800A5
:1010760083120313AC002C0803194228432857286F
:10108600A71F4628472857282409AE002509AF0080
:101096002609B0002709B100AE0A0319AF0A0319E1
:1010A600B00A0319B10A5F282708B1002608B00064
:1010B6002508AF002408AE002708260425042404CA
:1010C600031D6628672870280030A7000030A60098
:1010D6000030A5000030A400F6289630A8002808A5
:1010E600AD0082280130A8002808AD0701300310A2
:1010F600B10CB00CAF0CAE0CFF3E031D7A28FE30CF
:101106003105031D872888287528A4280130A800E2
:101116002808AD070130AE07003003180130AF07CD
:10112600003003180130B007003003180130B10752
:1011360001300310B10CB00CAF0CAE0CFF3E031D1A
:101146009C28FF303105031DA928AA288928B6281E
:101156000130AD020130A8000310AE0DAF0DB00D89
:10116600B10DA80BAF28B01BB928BA28C028023089
:101176002D020318BF28C028AB282D18C328C42861
:10118600CC28FF30AE05FF30AF057F30B005FF300D
:10119600B1050310AD0C2D08A800A901AA01AB01E9
:1011A60018300310A80DA90DAA0DAB0DFF3E031DA7
:1011B600D4282808AE042908AF042A08B0042B084E
:1011C600B1042C080319E828E928EE28A71FEC2803
:1011D600ED28EE28B1173108A7003008A6002F0821
:1011E600A5002E08A40008008312031339088039CD
:1011F600BA003A08C3003908BA003A07BB003B08F0
:10120600CA00B81F0729082909294A144A080319D8
:101216000D290E291E294A0A031D122913291B29E5
:101226000030B9000030B8000030B7000030B6001A
:10123600B817B90126290030B9000030B8000030CF
:10124600B7000030B60035088039BA003A08C30640
:101256003508BA003A07BB003B08CB00B41F342957
:10126600352936294B144B0803193A293B294B29B2
:101276004B0A031D3F29402948290030B50000309C
:10128600B4000030B3000030B200B417B5015329E2
:101296000030B5000030B4000030B3000030B200BA
:1012A6003508340433043204031D5A295B29742992
:1012B6000030B9000030B8000030B7000030B6008A
:1012C6008030B8047F30B9044308BA003A08B9043C
:1012D6003908B5003808B4003708B3003608B2003C
:1012E600D32A4A08031D7829792982290030B500B6
:1012F6000030B4000030B3000030B200D32A4A08F0
:10130600BA00BB013B08BD004B083A02BC00031CF7
:10131600BD033C087F3EC4003D080318013E003E65
:10132600C5003908C2003808C1003708C0003608B1
:10133600BF000030B9000030B8000030B700003000
:10134600B6000030C9000030C8000030C7000030C9
:10135600C600CB01F8294B080319B229B329D329B2
:101366000130BA000310BF0DC00DC10DC20DBA0B7E
:10137600B5290130BA000310B60DB70DB80DB90D79
:10138600BA0BBE29C91FC829C929CA293614013072
:10139600BA000310C60DC70DC80DC90DBA0BCC296E
:1013A60035084202031DE12934084102031DE129E3
:1013B60033084002031DE12932083F02031CE429D9
:1013C600E529F42949173208BF023308031C330FF5
:1013D600C0023408031C340FC1023508031C350F44
:1013E600C2020130BA003A08CB071A304B02031C7E
:1013F600FD29FE29AE294208410440043F04031991
:10140600052A062A252A4614252A0130BA00031081
:10141600B60DB70DB80DB90DBA0B0A2AC91F142A95
:10142600152A162A36140130BA000310C60DC70D48
:10143600C80DC90DBA0B182AFF30C4070318C50A10
:10144600FF30C507B81F282A292A082ACB01C91F39
:101456002D2A2E2A4A2AFF304605BA00FF304705B4
:10146600BB00FF304805BC007F304905BD003D0884
:101476003C043B043A040319412A422A452ACB017B
:10148600CB0A4A2A361C482A492A4A2A422A4B08A3
:1014960003194E2A4F2A802A0130B6070030031856
:1014A6000130B707003003180130B80700300318C1
:1014B6000130B907391C602A612A802A3608BA0029
:1014C6003708BB003808BC003908BD000130BE0033
:1014D6003D0DBD0CBC0CBB0CBA0CBE0B6B2A3D08FB
:1014E600B9003C08B8003B08B7003A08B60001301E
:1014F600C4070318C50A0030C5074508803AFF002F
:1015060080307F02031D892AFF304402031C8C2A87
:101516008D2A9B2AFF3083120313C4000030C500B6
:101526000030B9000030B8000030B7000030B60017
:10153600831203134508803AFF0080307F02031DA3
:10154600A62A013044020318A92AAA2AB72A831216
:101556000313C401C5010030B9000030B8000030E3
:10156600B7000030B600C301831203134408BA0063
:101576003A08CA004A1CC02AC12AC32AB817C72A71
:101586007F30BA003A08B8054A08BA0003103A0C88
:10159600BB003B08B9004308BA003A08B9046B29F6
:1015A60008008312031335088039BA003A08C200CE
:1015B6003508BA003A07BB003B08C400B41FE42A4A
:1015C600E52AE62A441444080319EA2AEB2AFB2AE8
:1015D600440A031DEF2AF02AF82A0030B50000302D
:1015E600B4000030B3000030B200B417B501032BCD
:1015F6000030B5000030B4000030B3000030B20057
:1016060039088039BA003A08C3004308420603196C
:101616000D2B0E2B0F2B42173908BA003A07BB00C9
:101626003B08C300B81F182B192B1A2B4314430869
:1016360003191E2B1F2B2F2B430A031D232B242B91
:101646002C2B0030B9000030B8000030B700003055
:10165600B600B817B901372B0030B9000030B80012
:101666000030B7000030B6004408430203183C2B94
:101676003D2B812B421F402B412B452B8030BA003E
:101686003A08C2064408BA003A08C5004308BA0038
:101696003A08C4004508BA003A08C3003208BA003E
:1016A6003A08C5003608BA003A08B2004508BA003A
:1016B6003A08B6003308BA003A08C5003708BA0037
:1016C6003A08B3004508BA003A08B7003408BA0029
:1016D6003A08C5003808BA003A08B4004508BA0006
:1016E6003A08B8003508BA003A08C5003908BA0001
:1016F6003A08B5004508BA003A08B900C5014308DA
:10170600BA00BB013B08BD0044083A02BC00031CFA
:10171600BD033D08803AFF0080307F02031D952BF4
:101726001A303C02031C982B992BD62B83120313D9
:101736003508340433043204031DA22BA42B0130D4
:10174600A52B0030BA003A08C5000030B5000030BD
:10175600B4000030B3000030B2004308BA003A08C3
:10176600C400DE2B451CB82BB92BC22B4508BA008A
:1017760003103A0C0138BB003B08C500C42B03100C
:10178600C50C321CC72BC82BC92BC5170130BA0094
:10179600350DB50CB40CB30CB20CBA0BCB2B013017
:1017A600BA003A08C4078312031343084402031C11
:1017B600DD2BDE2BB52B421BE12BE22B2D2C440817
:1017C600031DE62BE72BF02B0030B5000030B400EC
:1017D6000030B3000030B2005B2D3608B207370880
:1017E60003110318013E0319F92BB3073808031137
:1017F6000318013E0319002CB40739080311031816
:10180600013E0319072CB507351C0A2C0B2CE12CBD
:10181600451C0E2C0F2C182C4508BA0003103A0C48
:101826000138BB003B08C5001A2C0310C50C321C3E
:101836001D2C1E2C1F2CC5170130BA00350DB50CFA
:10184600B40CB30CB20CBA0B212C0130BA003A0816
:10185600C407E12C3508803AFF003908803A7F0238
:10186600031D3F2C38083402031D3F2C3708330272
:10187600031D3F2C360832020318422C432C9B2CA6
:10188600FF30BA00FF30BB00FF30BC00FF30BD00A8
:101896003608BE003708BF003808C0003908C10046
:1018A6003208BE023308031C330F5A2C5B2CBF02CE
:1018B6003408031C340F602C612CC0023508031C4D
:1018C600350F662C672CC1023E08BA073F0803187D
:1018D6003F0F6E2C6F2CBB0740080318400F742C6B
:1018E600752CBC0741080318410ABD073D08B50021
:1018F6003C08B4003B08B3003A08B2008030BA0096
:101906003A08C206C509C50A4508031D8B2C8C2C4E
:10191600A92C0130B207003003180130B30700309C
:1019260003180130B407003003180130B507A92C9D
:101936003608B2023708031C370FB3023808031CF7
:10194600380FB4023908031C390FB50235083404C0
:1019560033043204031DB02CB12CDD2C4508031DC5
:10196600B52CB62CDD2C0030B5000030B4000030AC
:10197600B3000030B2005B2D0130BA000310B20D87
:10198600B30DB40DB50DBA0BC12CC51FCB2CCC2C89
:10199600CD2C3214451CD02CD12CD42C0314C50DBF
:1019A600D62C0310C50D44080319DA2CDB2CDD2CCC
:1019B6000130C402B41FE02CE12CBF2CC301C51FAB
:1019C600E52CE62CF42C45087F390319EB2CEC2C7E
:1019D600EF2CC301C30AF42C321CF22CF32CF42C8A
:1019E600EC2C43080319F82CF92C2D2D0130B207E5
:1019F600003003180130B307003003180130B40774
:101A0600003003180130B507351C0A2D0B2D2D2D7E
:101A16003208BA003308BB003408BC003508BD00E4
:101A26000130BE003D0DBD0CBC0CBB0CBA0CBE0B90
:101A3600152D3D08B5003C08B4003B08B3003A0834
:101A4600B200440A0319282D292D2D2D0130BA0084
:101A56003A08C407440A0319312D322D372D44089C
:101A6600031D362D372D452D0030B5000030B4004E
:101A76000030B3000030B2004408031D432D442D4E
:101A8600452DC201441C482D492D4B2DB4174F2D11
:101A96007F30BA003A08B4054408BA0003103A0C7D
:101AA600BB003B08B500C21F592D5A2D5B2DB5173B
:101AB60008000A168A1124250A128A150A168A119E
:101AC6004C260A128A150A168A11FD240A128A154C
:101AD600F401F40A01300A168A1146250A128A15FB
:101AE6000130F3008030F4000A168A110A260A1221
:101AF6008A15083083160313E3006308F4000130E7
:101B06000A168A1146250A128A150530F300803016
:101B1600F4000A168A110A260A128A150E3083164E
:101B26000313E3006308F40001300A168A11462500
:101B36000A128A150930F3008030F4000A168A1159
:101B46000A260A128A150A168A11D4240A128A1536
:101B56005030F0000030F1000A168A11E6240A120D
:101B66008A150230F0000030F1000A168A11E624C8
:101B76000A128A150A168A11DD240A128A150330FA
:101B860083160313E5000830E4007630E300E30B28
:101B9600CA2DE40BCA2DE50BCA2D00000A168A11C0
:101BA600D4240A128A155130F0000030F1000A16CA
:101BB6008A11E6240A128A150030F000F1000A168E
:101BC6008A11DC250A128A15700883160313E300AE
:101BD6006308C9000A168A11DD240A128A15033021
:101BE60083160313E5000830E4007630E300E30BC8
:101BF600FA2DE40BFA2DE50BFA2D00000A168A11D0
:101C0600D4240A128A155030F0000030F1000A166A
:101C16008A11E6240A128A150130F0000030F1001C
:101C26000A168A11E6240A128A150A168A11DD2472
:101C36000A128A15033083160313E5000830E40000
:101C46007630E300E30B252EE40B252EE50B252E3F
:101C560000000A168A11D4240A128A155130F0009F
:101C66000030F1000A168A11E6240A128A1500309D
:101C7600F000F1000A168A11DC250A128A1570088E
:101C860083160313E3006308C8000A168A11DD24CD
:101C96000A128A15033083160313E5000830E400A0
:101CA6007630E300E30B552EE40B552EE50B552E4F
:101CB6000000831603134908E300E4016308E40007
:101CC600E301630883120313A40083160313640855
:101CD60083120313A5000030A51BFF30A600A70042
:101CE60001300A128A153B200A128A158312031341
:101CF600270883160313C1008312031326088316CD
:101D06000313C00083120313250883160313BF00B1
:101D160083120313240883160313BE00410883129B
:101D26000313B50083160313400883120313B4008C
:101D3600831603133F0883120313B300831603139A
:101D46003E0883120313B200831603134808E30008
:101D5600E401E501E601660883120313A700831672
:101D66000313650883120313A6008316031364087E
:101D760083120313A5008316031363088312031348
:101D8600A40001300A128A153B200A128A15831212
:101D960003132708B9002608B8002508B700240849
:101DA600B6000A128A15D4220A128A158312031360
:101DB600350883160313C1008312031334088316F0
:101DC6000313C00083120313330883160313BF00E3
:101DD60083120313320883160313BE0040308312A6
:101DE6000313D100A030D0000030CF000030CE0069
:101DF6004430B5007F30B400C030B3000030B200CC
:101E060083160313410883120313B90083160313C1
:101E1600400883120313B800831603133F08831286
:101E26000313B700831603133E0883120313B60089
:101E36000A128A15F7200A128A1583120313350827
:101E4600D5003408D4003308D3003208D2000A1271
:101E56008A1195200A128A158312031351088316D4
:101E66000313BD0083120313500883160313BC002B
:101E7600831203134F0883160313BB008312031345
:101E86004E0883160313BA00423083120313D1009F
:101E9600C830D0000030CF000030CE0083160313C8
:101EA6003D0883120313D500831603133C088312DF
:101EB6000313D400831603133B0883120313D300C2
:101EC600831603133A0883120313D2000A128A11E7
:101ED60095200A128A1583120313510883160313D9
:101EE600B90083120313500883160313B800831234
:101EF60003134F0883160313B700831203134E0808
:101F060083160313B6000030B5000030B40000306D
:101F1600B3000030B2003908B5003808B4003708FD
:101F2600B3003608B200350883120313EB0083169C
:101F36000313340883120313EA00831603133308CA
:101F460083120313E9008316031332088312031363
:101F5600E8000230EC000030ED00CA300A128A11A7
:101F6600F6230A128A15F401F40A02300A168A11B7
:101F760046250A128A15CA30F3000030F4000A1604
:101F86008A110A260A128A15063083160313E300FD
:101F96006308F40002300A168A1146250A128A15C9
:101FA6000330F3008030F4000A168A110A260A125A
:101FB6008A15003083160313B5000030B4000030D4
:101FC600B3000030B2000030B1000030B000003085
:101FD600AF000030AE00063083160313E500133061
:101FE600E400AD30E300E30BF62FE40BF62FE50B30
:101FF600F62F6B2D0A128A110028FF1B0A2883135D
:102006007F1883170008840A0319FF0A0800103096
:102016008A000408840A8207003441344434433475
:102026000034533445344E34003443344F344E3444
:02203600003474
:10298C00F0007008831203138600080064008001B5
:10299C00840A0406031900340406CD2C0A168A1185
:1029AC00F0240A168A1183160313111408000A1650
:1029BC008A11F0240A168A118316031311150800C4
:1029CC000A168A11F0240A168A117008831203134E
:1029DC0093000800831603131419F52CF62CF02C15
:1029EC0011081F39031DFB2CFC2CF02C08000030A7
:1029FC000A168A110A250A168A1101300A168A113A
:102A0C000A250A168A110800F30083120313071013
:102A1C0073080A168A11C6240A168A118312031324
:102A2C0087140630F2003030F100F10B1B2DF20B45
:102A3C001B2D000083120313871008008316031745
:102A4C0088018901831603130710871086018801FA
:102A5C0083120313860188010030A3000130A20009
:102A6C008630A100A030A0000A128A1503200A1695
:102A7C008A11831603130F178F160F160F140800E5
:102A8C00F6007603031D4B2D4C2D582D74087F3EFC
:102A9C00F5007508F70077080A168A110A250A1638
:102AAC008A11692D02307606031D5D2D5E2D692D70
:102ABC007408BF3EF5007508F70077080A168A11EE
:102ACC000A250A168A110800803083120313C906DE
:102ADC004D08B5004C08B4004B08B3004A08B200CE
:102AEC004908B9004808B8004708B7004608B600BE
:102AFC000A128A15D4220A168A1183120313350876
:102B0C00C9003408C8003308C7003208C6000800E2
:102B1C00F800F401F5017008F200F3017208F600F8
:102B2C007308F700781C9B2D9C2DA22D7608F407BA
:102B3C000318F50A7708F50701300310F60DF70DA9
:102B4C00FF3E031DA32D0310F80C7808031DAF2DB9
:102B5C00B02D982D7508F1007408F0000800FB01E9
:102B6C00FC0183120313201CBC2DBD2DC32D220888
:102B7C00FB070318FC0A2308FC0701300310A20D05
:102B8C00A30DFF3E031DC42D01300310A10CA00C9E
:102B9C00FF3E031DCB2D20082104031DD62DD72D60
:102BAC00B72D7C08A1007B08A00008000A168A112A
:102BBC00F0240A168A118316031391150A168A112A
:102BCC00F0240A168A11831203131308F200F3017E
:102BDC007208F4007308F5000A168A11F0240A161C
:102BEC008A1170037104031DFC2DFD2D012E83161B
:102BFC0003139112042E83160313911611167508E4
:102C0C00F1007408F0000800F801F9012F2E780883
:102C1C007307F6007408F5000318F50AF81F172E51
:102C2C00F5037508F700770883120313FF00760885
:102C3C0084000A168A1100200A168A110A128A11B7
:102C4C0006200A168A110130F8070318F90A003019
:102C5C00F90778087307F6007408F5000318F50AED
:102C6C00F81F392EF5037508F70077088312031344
:102C7C00FF00760884000A168A1100200A168A11B1
:102C8C00003A031D4A2E4B2E0D2E080000300A165A
:102C9C008A11C6240A168A111A30F500F830F4008D
:102CAC00F40B562EF50B562E000030300A168A11F6
:102CBC000A250A168A110730F5007D30F400F40B52
:102CCC00652EF50B652E30300A168A110A250A1668
:102CDC008A110F30F5004730F400F40B732EF50B0E
:102CEC00732E782E30300A168A110A250A168A118C
:102CFC0038300A168A110A250A168A110C300A165F
:102D0C008A110A250A168A1106300A168A110A2512
:102D1C000A168A1108000030FC000030FB0000305D
:102D2C00FA000030F900730872047104700403197E
:102D3C00A02EA12EEE2EFD01FD0AB12E0130F800C1
:102D4C000310F00DF10DF20DF30DF80BA62E013062
:102D5C00F8007808FD07F31FB42EB52EA42E013011
:102D6C00F8000310F90DFA0DFB0DFC0DF80BB72E46
:102D7C0073087702031DCC2E72087602031DCC2E2D
:102D8C0071087502031DCC2E70087402031CCF2E23
:102D9C00D02EDF2E7008F4027108031C710FF5029F
:102DAC007208031C720FF6027308031C730FF702F0
:102DBC00791401300310F30CF20CF10CF00CFF3E03
:102DCC00031DE02E0130FD02031DED2EEE2EB52E5F
:102DDC007C08F3007B08F2007A08F1007908F00017
:102DEC000800F601F11FFB2EFC2E032FF009F10950
:102DFC00F00A0319F10AF601F60AF31F062F072F42
:102E0C00102FF209F309F20A0319F30A0130F40046
:102E1C007408F606F701F801700871040319172FEE
:102E2C00182F4F2FF501F50A262F01300310F00D46
:102E3C00F10DFF3E031D1C2F0130F4007408F50743
:102E4C00F11F292F2A2F1B2F01300310F70DF80D1E
:102E5C00FF3E031D2B2F71087302031D372F7008C3
:102E6C007202031C3A2F3B2F422F7008F20271089A
:102E7C00031CF303F302771401300310F10CF00C74
:102E8C00FF3E031D432F0130F502031D4E2F4F2F24
:102E9C002A2F76080319532F542F592FF709F809A5
:102EAC00F70A0319F80A7808F1007708F00008000F
:102EBC0000307005F80000307105F90080307205A3
:102ECC00FA007F307305FB007B087A0479047804E0
:102EDC00031D712F722F7A2F0030F3000030F20097
:102EEC000030F1000030F00000307405F8000030C4
:102EFC007505F90080307605FA007F307705FB0008
:102F0C007B087A0479047804031D8D2F8E2F962F5D
:102F1C000030F7000030F6000030F5000030F4000F
:102F2C00F31F992F9A2FBE2F0030F8000030F900B4
:102F3C000030FA008030FB007008F8027108031CA6
:102F4C00710FA92FAA2FF9027208031C720FAF2F51
:102F5C00B02FFA027308031C730FB52FB62FFB02A8
:102F6C007B08F3007A08F2007908F1007808F00089
:102F7C00F71FC12FC22FE62F0030F8000030F900E8
:102F8C000030FA008030FB007408F8027508031C4E
:102F9C00750FD12FD22FF9027608031C760FD72F7D
:102FAC00D82FFA027708031C770FDD2FDE2FFB02D8
:102FBC007B08F7007A08F6007908F5007808F40029
:102FCC008030F3068030F70677087302031DF82F64
:102FDC0076087202031DF82F75087102031DF82F75
:102FEC00740870020318FB2FFC2FFE2F0310FF2F09
:042FFC0003140800B2
:04400E00D420FF3F7C
:00000001FF
