:020000040000FA
:060000000A128A11EF2F25
:10000C00F30083120313071073080A168A111725BD
:10001C000A128A118312031387140630F20030304F
:10002C00F100F10B1728F20B1728000083120313B1
:10003C00871008000310720D730DF4007408FA0099
:10004C007A08031D2A282B2834280030F3000030AE
:10005C00F2000030F1000030F00099287008F40034
:10006C007108F5007208F6007308F7001F300310D2
:10007C00F70CF60CF50CF40CFF3E031D3D28740830
:10008C00F8007808F900F217FF30F005FF30F105A1
:10009C00FF30F2050030F3059630FA02FA1F5728AC
:1000AC00582872287A08803A973E03185E285F28F1
:1000BC0060282B2801300310F30CF20CF10CF00C1F
:1000CC00FF3E031D61280130F4007408FA07031D7C
:1000DC00702871286028892820307A02031C772820
:1000EC00782884282B280130F4000310F00DF10D32
:1000FC00F20DF30DF40B7B280130FA027A08031D84
:10010C00882889287928790803198D288E28992818
:10011C00F009F109F209F309F00A0319F10A0319BC
:10012C00F20A0319F30A0800831203134F088039EB
:10013C00D4005408D9004F08D4005407D5005508F2
:10014C00DF00CE1FAA28AB28AC285F145F08031968
:10015C00B028B128C0285F0A031DB528B628BE28D0
:10016C000030CF000030CE000030CD000030CC008D
:10017C00CE17C8280030CF000030CE000030CD00A4
:10018C000030CC0053088039D4005408D9065308E9
:10019C00D4005407D5005508DE00D21FD628D72826
:1001AC00D8285E145E080319DC28DD28EC285E0ACA
:1001BC00031DE128E228EA280030D3000030D200E9
:1001CC000030D1000030D000D217F4280030D3001A
:1001DC000030D2000030D1000030D0005E0803198E
:1001EC00F828F928FE285F08031DFD28FE2807299A
:1001FC000030CF000030CE000030CD000030CC00FD
:10020C00FA2B4C08D4005408F00052080A168A1134
:10021C00BD250A128A11710883120313E5007008B8
:10022C00E4006408D400D501D601D7015708DD00DD
:10023C005608DC005508DB005408DA006508D400C9
:10024C00D501D601D7015708E3005608E20055083E
:10025C00E1005408E0004D08D4005408F0005108A7
:10026C000A168A11BD250A128A117108831203130A
:10027C00E5007008E4006408D400D501D601D7016C
:10028C005408DA07550803110318013E03194F29C6
:10029C00DB07560803110318013E03195629DC0726
:1002AC00570803110318013E03195D29DD07650882
:1002BC00D400D501D601D7015408E0075508031125
:1002CC000318013E03196B29E107560803110318A3
:1002DC00013E03197229E207570803110318013E66
:1002EC0003197929E3074E08D4005408F00050088C
:1002FC000A168A11BD250A128A117108831203137A
:10030C00E5007008E4006408D400D501D601D701DB
:10031C005408DA07550803110318013E03199729ED
:10032C00DB07560803110318013E03199E29DC074D
:10033C00570803110318013E0319A529DD076508A9
:10034C00D400D501D601D7015408E0075508031194
:10035C000318013E0319B329E107560803110318CA
:10036C00013E0319BA29E207570803110318013E8D
:10037C000319C129E3070830D4000310DA0DDB0D93
:10038C00DC0DDD0DD40BC3294D08D4005408F0004E
:10039C0050080A168A11BD250A128A117108831297
:1003AC000313E5007008E4006408D4006508D50068
:1003BC00D601D7015408DA07550803110318013E7A
:1003CC000319E929DB07560803110318013E031929
:1003DC00F029DC07570803110318013E0319F7290C
:1003EC00DD074C08D4005408F00051080A168A1195
:1003FC00BD250A128A11710883120313E5007008D7
:10040C00E4006408D4006508D500D601D70154086F
:10041C00DA07550803110318013E0319162ADB07E6
:10042C00560803110318013E03191D2ADC0757084F
:10043C0003110318013E0319242ADD070830D400E8
:10044C000310DA0DDB0DDC0DDD0DD40B262A4C0868
:10045C00D4005408F00050080A168A11BD250A125F
:10046C008A11710883120313E5007008E400640814
:10047C00D4006508D500D601D7015408DA07550811
:10048C0003110318013E03194C2ADB07560803110C
:10049C000318013E0319532ADC07570803110318EC
:1004AC00013E03195A2ADD074D08D4005408F00008
:1004BC0052080A168A11BD250A128A117108831274
:1004CC000313E5007008E4006408D4006508D50047
:1004DC00D601D7015408E007550803110318013E53
:1004EC000319792AE107560803110318013E031971
:1004FC00802AE207570803110318013E0319872AC3
:10050C00E3074E08D4005408F00051080A168A116B
:10051C00BD250A128A11710883120313E5007008B5
:10052C00E4006408D4006508D500D601D70154084E
:10053C00E007550803110318013E0319A62AE10729
:10054C00560803110318013E0319AD2AE207570898
:10055C0003110318013E0319B42AE3074E08D40013
:10056C005408F00052080A168A11BD250A128A1185
:10057C00710883120313E5007008E4006408D400CA
:10058C006508D500D601D70108300310D40DD50D60
:10059C00D60DD70DFF3E031DCB2A5408E007550896
:1005AC0003110318013E0319DC2AE1075608031155
:1005BC000318013E0319E32AE20757080311031835
:1005CC00013E0319EA2AE3075A08D4005B08D50058
:1005DC005C08D6005D08D70018300310D70CD60C79
:1005EC00D50CD40CFF3E031DF32A5408E007550824
:1005FC0003110318013E0319042BE10756080311DC
:10060C000318013E03190B2BE207570803110318BB
:10061C00013E0319122BE3070830D4000310DA0D46
:10062C00DB0DDC0DDD0DD40B142B5F085E07D40045
:10063C00D501D50D5408823EE40055080318013E3F
:10064C00FF3EE500462B0130D4000310E00DE10D18
:10065C00E20DE30DD40B2B2BDD1F352B362B372B5B
:10066C0060140130D4000310DA0DDB0DDC0DDD0D50
:10067C00D40B392BFF30E4070318E50AFF30E507EC
:10068C00E21F492B4A2B292BDE01DD1F4E2B4F2B52
:10069C006B2BFF305A05D400FF305B05D500FF30C3
:1006AC005C05D6007F305D05D7005708560455040D
:1006BC0054040319622B632B662BDE01DE0A6B2BB1
:1006CC00601C692B6A2B6B2B632B5E0803196F2B39
:1006DC00702BA12B0130E007003003180130E1072B
:1006EC00003003180130E207003003180130E30733
:1006FC00631C812B822BA12B6008D4006108D500D0
:10070C006208D6006308D7000130D800570DD70C0B
:10071C00D60CD50CD40CD80B8C2B5708E3005608F0
:10072C00E2005508E1005408E0000130E40703182A
:10073C00E50A0030E5076508803AFF0080307F024B
:10074C00031DAA2BFF306402031CAD2BAE2BB92B5F
:10075C007F3083120313E3008030E2000030E100AD
:10076C000030E000EE2B831203136508803AFF0083
:10077C0080307F02031DC42B013064020318C72B89
:10078C00C82BD42B003083120313E3000030E2009B
:10079C000030E1000030E000D901EE2B831203138E
:1007AC006408D4005408DF00FF30E005FF30E10599
:1007BC007F30E2050030E3055F1CE52BE62BE72BD1
:1007CC00E2175F08D4000310540CD5005508E30061
:1007DC005908D4005408E3046308CF006208CE0023
:1007EC006108CD006008CC00080083160313D40008
:1007FC00831203136908F3006808F2006708F1001C
:10080C006608F0000A128A1120200A128A11710857
:10081C0083160313D1007008D000DB01DC01D90171
:10082C00DA010130DD000030DE00831203136908A9
:10083C00F3006808F2006708F1006608F000003069
:10084C00F7000030F6000030F5000030F4000A1616
:10085C008A115E270A128A110318352C362C842C27
:10086C00BF3083120313CF008030CE000030CD0098
:10087C000030CC006908D3006808D2006708D100AA
:10088C006608D0000A128A119A200A128A11831261
:10089C0003134F08E9004E08E8004D08E7004C0828
:1008AC00E6002D30EC0083160313540884008312E9
:1008BC0003136C0883138000013083160313D907CC
:1008CC000318DA0A0030DA07842C0A30F000003002
:1008DC00F1005108F3005008F2000A128A151D208D
:1008EC000A128A11710883160313D1007008D00004
:1008FC000130DB070318DC0A0030DC078316031316
:10090C0050085104031D8B2C8C2C6B2CA82D5B03D5
:10091C005C04031D922C932C982C0130DD000030CC
:10092C00DE00DA2C0230D2000030D300C42C831647
:10093C0003135E0883120313A100831603135D08CF
:10094C0083120313A0000A30A2000030A3000A1681
:10095C008A11E4250A128A118312031321088316C3
:10096C000313DE0083120313200883160313DD0028
:10097C000130D2070318D30A0030D3075C08803A41
:10098C0083120313EC00831603135308803A83126B
:10099C0003136C02031DD62C8316031352085B023F
:1009AC000318D92CDA2C9D2C831603135D088312A3
:1009BC000313A400831603135E0883120313A5000C
:1009CC000030A51BFF30A600A70001300A128A15C3
:1009DC0084200A128A11831203132708B5002608F3
:1009EC00B4002508B3002408B2006908B9006808EF
:1009FC00B8006708B7006608B6000A128A154021CD
:100A0C000A128A1183120313350883160313D800B4
:100A1C0083120313340883160313D70083120313B2
:100A2C00330883160313D60083120313320883167C
:100A3C000313D5005E0883120313A300831603135C
:100A4C005D0883120313A200831603135808F300E6
:100A5C005708F2005608F1005508F0000A128A11E6
:100A6C0020200A128A11710883120313A100700846
:100A7C00A0000A168A11E4250A128A1183120313A4
:100A8C002008A4002108A5000030A51BFF30A600FB
:100A9C00A70001300A128A1584200A128A118312C7
:100AAC0003132708B5002608B4002508B300240852
:100ABC00B2006908B9006808B8006708B700660892
:100ACC00B6000A168A1199250A128A118312031389
:100ADC003508E9003408E8003308E7003208E6007E
:100AEC00831603135808F3005708F2005608F10058
:100AFC005508F0000A128A1120200A128A11700877
:100B0C00303E83120313EC00831603135908540769
:100B1C0083120313ED006D0884006C0883138000AE
:100B2C00013083160313D9070318DA0A0030DA07E9
:100B3C00FF30DB070318DC0AFF30DC070130DD0077
:100B4C000030DE005B085C04031DAD2DAE2D8D2C3A
:100B5C002E3083120313EC00831603135908540729
:100B6C0083120313ED006D0884006C08831380005E
:100B7C00013083160313D9070318DA0A0030DA0799
:100B8C000130D2000030D300F22D831603135E081F
:100B9C0083120313A100831603135D08831203133E
:100BAC00A0000A30A2000030A3000A168A11E42526
:100BBC000A128A1183120313210883160313DE0011
:100BCC0083120313200883160313DD000130D207B0
:100BDC000318D30A0030D307831203136B08803A2F
:100BEC00EC00831603135308803A831203136C0230
:100BFC00031D062E831603135208831203136A0275
:100C0C000318092E0A2ECB2D831603135D088312AD
:100C1C000313A400831603135E0883120313A500A9
:100C2C000030A51BFF30A600A70001300A128A1560
:100C3C0084200A128A11831203132708CF00260876
:100C4C00CE002508CD002408CC006908F300680804
:100C5C00F2006708F1006608F0000A128A112020E1
:100C6C000A128A11700883120313A4007108A500DC
:100C7C000030A51BFF30A600A70001300A128A1510
:100C8C0084200A128A11831203132708B500260840
:100C9C00B4002508B3002408B2006908B90068083C
:100CAC00B8006708B7006608B6000A168A119925BD
:100CBC000A128A11831203133508D3003408D200A8
:100CCC003308D1003208D0000A128A119A200A1275
:100CDC008A11831203134F0883160313D80083124F
:100CEC0003134E0883160313D700831203134D0806
:100CFC0083160313D600831203134C0883160313B5
:100D0C00D500580883120313E90083160313570800
:100D1C0083120313E800831603135608831203137C
:100D2C00E70083160313550883120313E6006908C2
:100D3C00F3006808F2006708F1006608F0000A1278
:100D4C008A1120200A128A11013083160313DD0048
:100D5C000030DE00831203136B0883160313DC00D0
:100D6C00831203136A0883160313DB00D82F5B036B
:100D7C005C04031DC22EC32EC82E0130DD000030D2
:100D8C00DE000A2F0230D2000030D300F42E83167E
:100D9C0003135E0883120313A100831603135D086B
:100DAC0083120313A0000A30A2000030A3000A161D
:100DBC008A11E4250A128A1183120313210883165F
:100DCC000313DE0083120313200883160313DD00C4
:100DDC000130D2070318D30A0030D3075C08803ADD
:100DEC0083120313EC00831603135308803A831207
:100DFC0003136C02031D062F8316031352085B02A8
:100E0C000318092F0A2FCD2E831603135D088312A6
:100E1C000313A400831603135E0883120313A500A7
:100E2C000030A51BFF30A600A70001300A128A155E
:100E3C0084200A128A11831203132708B50026088E
:100E4C00B4002508B3002408B2006908B90068088A
:100E5C00B8006708B7006608B6000A128A15402168
:100E6C000A128A1183120313350883160313D80050
:100E7C0083120313340883160313D700831203134E
:100E8C00330883160313D600831203133208831618
:100E9C000313D5005E0883120313A30083160313F8
:100EAC005D0883120313A200831603135808F30082
:100EBC005708F2005608F1005508F0000A128A1182
:100ECC0020200A128A11710883120313A1007008E2
:100EDC00A0000A168A11E4250A128A118312031340
:100EEC002008A4002108A5000030A51BFF30A60097
:100EFC00A70001300A128A1584200A128A11831263
:100F0C0003132708B5002608B4002508B3002408ED
:100F1C00B2006908B9006808B8006708B70066082D
:100F2C00B6000A168A1199250A128A118312031324
:100F3C003508E9003408E8003308E7003208E60019
:100F4C00831603135808F3005708F2005608F100F3
:100F5C005508F0000A128A1120200A128A11700812
:100F6C00303E83120313EC00831603135908540705
:100F7C0083120313ED006D0884006C08831380004A
:100F8C00013083160313D9070318DA0A0030DA0785
:100F9C00FF30DB070318DC0AFF30DC070130DD0013
:100FAC000030DE005B085C04031DDD2FDE2FBD2E40
:100FBC000A3083120313EC008316031359085407E9
:100FCC0083120313ED006D0884006C0883138000FA
:100FDC00080083120313EE01EF018313A030840089
:100FEC00D0300A128A1500200A128A1183010A12C3
:100FFC008A151D2B64008001840A04060319003431
:10100C0004060128F20083120313071472080A164F
:10101C008A1117250A128A158312031387140330B9
:10102C00F100F10B17288312031387100800F60147
:10103C00F11F212822282928F009F109F00A0319A7
:10104C00F10AF601F60AF31F2C282D283628F2098E
:10105C00F309F20A0319F30A0130F4007408F606D6
:10106C00F701F8017008710403193D283E28752812
:10107C00F501F50A4C2801300310F00DF10DFF3E7F
:10108C00031D42280130F4007408F507F11F4F28A6
:10109C005028412801300310F70DF80DFF3E031DB9
:1010AC00512871087302031D5D2870087202031C1D
:1010BC006028612868287008F2027108031CF30389
:1010CC00F302771401300310F10CF00CFF3E031DFA
:1010DC0069280130F502031D7428752850287608FC
:1010EC00031979287A287F28F709F809F70A0319D0
:1010FC00F80A7808F1007708F0000800831203134F
:10110C00AC002C0803198B288C28A028A71F8F282B
:10111C009028A0282409AE002509AF002609B000AC
:10112C002709B100AE0A0319AF0A0319B00A031953
:10113C00B10AA8282708B1002608B0002508AF007E
:10114C002408AE002708260425042404031DAF2818
:10115C00B028B9280030A7000030A6000030A50048
:10116C000030A4003F299630A8002808AD00CB28F9
:10117C000130A8002808AD0701300310B10CB00CE9
:10118C00AF0CAE0CFF3E031DC328FE303105031D12
:10119C00D028D128BE28ED280130A8002808AD079A
:1011AC000130AE07003003180130AF0700300318D0
:1011BC000130B007003003180130B10701300310C3
:1011CC00B10CB00CAF0CAE0CFF3E031DE528FF308C
:1011DC003105031DF228F328D228FF280130AD0277
:1011EC000130A8000310AE0DAF0DB00DB10DA80B62
:1011FC00F828B01B02290329092902302D020318F3
:10120C0008290929F4282D180C290D291529FF3036
:10121C00AE05FF30AF057F30B005FF30B1050310D0
:10122C00AD0C2D08A800A901AA01AB0118300310C0
:10123C00A80DA90DAA0DAB0DFF3E031D1D292808F5
:10124C00AE042908AF042A08B0042B08B1042C08FA
:10125C000319312932293729A71F3529362937296E
:10126C00B1173108A7003008A6002F08A5002E08DA
:10127C00A40008008312031339088039BA003A0815
:10128C00C3003908BA003A07BB003B08CA00B81FB4
:10129C005029512952294A144A0803195629572909
:1012AC0067294A0A031D5B295C2964290030B900AF
:1012BC000030B8000030B7000030B600B817B901E4
:1012CC006F290030B9000030B8000030B700003092
:1012DC00B60035088039BA003A08C3063508BA009A
:1012EC003A07BB003B08CB00B41F7D297E297F2920
:1012FC004B144B0803198329842994294B0A031D89
:10130C008829892991290030B5000030B4000030BB
:10131C00B3000030B200B417B5019C290030B50001
:10132C000030B4000030B3000030B2003508340493
:10133C0033043204031DA329A429BD290030B900AC
:10134C000030B8000030B7000030B6008030B80470
:10135C007F30B9044308BA003A08B9043908B5001B
:10136C003808B4003708B3003608B2001C2B4A0802
:10137C00031DC129C229CB290030B5000030B400AF
:10138C000030B3000030B2001C2B4A08BA00BB017D
:10139C003B08BD004B083A02BC00031CBD033C08D3
:1013AC007F3EC4003D080318013E003EC5003908CD
:1013BC00C2003808C1003708C0003608BF00003032
:1013CC00B9000030B8000030B7000030B600003073
:1013DC00C9000030C8000030C7000030C600CB0187
:1013EC00412A4B080319FB29FC291C2A0130BA009D
:1013FC000310BF0DC00DC10DC20DBA0BFE2901307B
:10140C00BA000310B60DB70DB80DB90DBA0B072AFB
:10141C00C91F112A122A132A36140130BA000310DC
:10142C00C60DC70DC80DC90DBA0B152A35084202D9
:10143C00031D2A2A34084102031D2A2A33084002BC
:10144C00031D2A2A32083F02031C2D2A2E2A3D2A6C
:10145C0049173208BF023308031C330FC00234088B
:10146C00031C340FC1023508031C350FC2020130B6
:10147C00BA003A08CB071A304B02031C462A472AFB
:10148C00F7294208410440043F0403194E2A4F2A0D
:10149C006E2A46146E2A0130BA000310B60DB70D31
:1014AC00B80DB90DBA0B532AC91F5D2A5E2A5F2AE3
:1014BC0036140130BA000310C60DC70DC80DC90D86
:1014CC00BA0B612AFF30C4070318C50AFF30C507E1
:1014DC00B81F712A722A512ACB01C91F762A772A82
:1014EC00932AFF304605BA00FF304705BB00FF309A
:1014FC004805BC007F304905BD003D083C043B0459
:10150C003A0403198A2A8B2A8E2ACB01CB0A932AF6
:10151C00361C912A922A932A8B2A4B080319972A54
:10152C00982AC92A0130B607003003180130B707D2
:10153C00003003180130B807003003180130B90728
:10154C00391CA92AAA2AC92A3608BA003708BB00AE
:10155C003808BC003908BD000130BE003D0DBD0C83
:10156C00BC0CBB0CBA0CBE0BB42A3D08B9003C0831
:10157C00B8003B08B7003A08B6000130C40703189E
:10158C00C50A0030C5074508803AFF0080307F024D
:10159C00031DD22AFF304402031CD52AD62AE42A82
:1015AC00FF3083120313C4000030C5000030B900B3
:1015BC000030B8000030B7000030B60083120313BF
:1015CC004508803AFF0080307F02031DEF2A01306E
:1015DC0044020318F22AF32A002B83120313C401CA
:1015EC00C5010030B9000030B8000030B700003041
:1015FC00B600C301831203134408BA003A08CA00A8
:10160C004A1C092B0A2B0C2BB817102B7F30BA0055
:10161C003A08B8054A08BA0003103A0CBB003B085C
:10162C00B9004308BA003A08B904B42908000A16EC
:10163C008A1153250A128A150A168A11B3260A1220
:10164C008A150A168A1146250A128A15F401F40A1B
:10165C0001300A168A1175250A128A150130F30019
:10166C008030F4000A168A1171260A128A15083085
:10167C0083160313DF005F08F40001300A168A1189
:10168C0075250A128A150530F3008030F4000A160D
:10169C008A1171260A128A150E3083160313DF0085
:1016AC005F08F40001300A168A1175250A128A1592
:1016BC000930F3008030F4000A168A1171260A12E0
:1016CC008A150A168A111D250A128A155030F00047
:1016DC000030F1000A168A112F250A128A150230E1
:1016EC00F0000030F1000A168A112F250A128A1513
:1016FC000A168A1126250A128A150330831603133B
:10170C00E1000830E0007630DF00DF0B8B2BE00BC4
:10171C008B2BE10B8B2B00000A168A111D250A124C
:10172C008A155130F0000030F1000A168A112F256D
:10173C000A128A150030F000F1000A168A110B26E5
:10174C000A128A15700883160313DF005F088312D0
:10175C000313EF000A168A1126250A128A15033084
:10176C0083160313E1000830E0007630DF00DF0B56
:10177C00BD2BE00BBD2BE10BBD2B00000A168A1113
:10178C001D250A128A155030F0000030F1000A169F
:10179C008A112F250A128A150130F0000030F10051
:1017AC000A168A112F250A128A150A168A1126255D
:1017BC000A128A15033083160313E1000830E00087
:1017CC007630DF00DF0BE82BE00BE82BE10BE82B8E
:1017DC0000000A168A111D250A128A155130F000D4
:1017EC000030F1000A168A112F250A128A150030D2
:1017FC00F000F1000A168A110B260A128A157008DD
:10180C0083160313DF005F0883120313EE000A161E
:10181C008A1126250A128A15033083160313E10058
:10182C000830E0007630DF00DF0B1A2CE00B1A2CAE
:10183C00E10B1A2C0000F401F40A02300A168A118A
:10184C0075250A128A15C630F3000030F4000A160A
:10185C008A1171260A128A15053083160313DF00CC
:10186C005F08F40002300A168A1175250A128A15CF
:10187C000D30F3008030F4000A168A1171260A121A
:10188C008A15073083160313DF005F08F40002305B
:10189C000A168A1175250A128A15BC30F30000301D
:1018AC00F4000A168A1171260A128A150B30831657
:1018BC000313DF005F08F40002300A168A11752545
:1018CC000A128A150330F3008030F4000A168A11CC
:1018DC0071260A128A15003083160313B5000030E6
:1018EC00B4000030B3000030B2000030B100003062
:1018FC00B0000030AF000030AE0040308312031354
:10190C00CF00A030CE000030CD000030CC004330F2
:10191C00B5007F30B4000030B3000030B2006F0867
:10192C0083160313DF00E001E101E2016208831278
:10193C000313A70083160313610883120313A60075
:10194C0083160313600883120313A5008316031375
:10195C005F0883120313A40001300A128A15842035
:10196C000A128A15831203132708B9002608B80037
:10197C002508B7002408B6000A128A1540210A125D
:10198C008A15831203133508D3003408D2003308A8
:10199C00D1003208D0000A128A119A200A128A1534
:1019AC00831203134F0883160313B500831203131A
:1019BC004E0883160313B400831203134D088316C9
:1019CC000313B300831203134C0883160313B200E2
:1019DC00350883120313E9008316031334088312AA
:1019EC000313E80083160313330883120313E70071
:1019FC0083160313320883120313E6000230EA0045
:101A0C000030EB00C6300A128A11FB230A128A1529
:101A1C00831203136E08A4008039031DFF30A50048
:101A2C00A600A70001300A128A1584200A128A1512
:101A3C0083120313270883160313B10083120313B5
:101A4C00260883160313B00083120313250883168C
:101A5C000313AF0083120313240883160313AE0081
:101A6C00310883120313E900831603133008831221
:101A7C000313E800831603132F0883120313E700E4
:101A8C00831603132E0883120313E6000230EA00B8
:101A9C000030EB00BC300A128A11FB230A128A15A3
:101AAC00063083160313E1001330E000AD30DF0085
:101ABC00DF0B5E2DE00B5E2DE10B5E2D2C2B0A1245
:101ACC008A1100287308803983120313A0002008A0
:101ADC00F8007308A0002007A1002108FA00F21FEB
:101AEC00782D792D7A2D7A147A0803197E2D7F2D75
:101AFC008F2D7A0A031D832D842D8C2D0030F3003D
:101B0C000030F2000030F1000030F000F217F30169
:101B1C00972D0030F3000030F2000030F10000305F
:101B2C00F00077088039A0002008F90079087806C1
:101B3C000319A12DA22DA32D78177708A00020073B
:101B4C00A1002108F900F61FAC2DAD2DAE2D791496
:101B5C0079080319B22DB32DC32D790A031DB72DA6
:101B6C00B82DC02D0030F7000030F6000030F50025
:101B7C000030F400F617F701CB2D0030F7000030E1
:101B8C00F6000030F5000030F4007A0879020318F2
:101B9C00D02DD12D152E781FD42DD52DD92D8030AB
:101BAC00A0002008F8067A08A0002008FB0079089D
:101BBC00A0002008FA007B08A0002008F90070089B
:101BCC00A0002008FB007408A0002008F0007B088F
:101BDC00A0002008F4007108A0002008FB00750884
:101BEC00A0002008F1007B08A0002008F500720876
:101BFC00A0002008FB007608A0002008F2007B085B
:101C0C00A0002008F6007308A0002008FB0077084D
:101C1C00A0002008F3007B08A0002008F700FB01BF
:101C2C007908A000A1012108A3007A082002A200D3
:101C3C00031CA3032308803AFF0080307F02031D9E
:101C4C00292E1A302202031C2C2E2D2E6E2E7308D8
:101C5C00720471047004031D342E362E0130372E9D
:101C6C00003083120313A0002008FB000030F300A7
:101C7C000030F2000030F1000030F0007908A000D4
:101C8C002008FA00742E7B1C4C2E4D2E582E7B08EF
:101C9C0083120313A0000310200C0138A1002108AB
:101CAC00FB005A2E0310FB0C701C5D2E5E2E5F2E5B
:101CBC00FB17013083120313A000730DF30CF20C0D
:101CCC00F10CF00CA00B632E0130A0002008FA07D9
:101CDC0079087A02031C732E742E492E781B772EEA
:101CEC00782EC72E7A08031D7C2E7D2E862E003072
:101CFC00F3000030F2000030F1000030F000FF2F54
:101D0C007408F007750803110318013E03198F2E90
:101D1C00F107760803110318013E0319962EF207FA
:101D2C00770803110318013E03199D2EF307731C4A
:101D3C00A02EA12E7F2F7B1CA42EA52EB02E7B08AF
:101D4C0083120313A0000310200C0138A1002108FA
:101D5C00FB00B22E0310FB0C701CB52EB62EB72E4A
:101D6C00FB17013083120313A000730DF30CF20C5C
:101D7C00F10CF00CA00BBB2E0130A0002008FA07D0
:101D8C007F2F7308803AFF007708803A7F02031D8B
:101D9C00D92E76087202031DD92E75087102031D07
:101DAC00D92E740870020318DC2EDD2E372FFF306D
:101DBC0083120313A000FF30A100FF30A200FF30FC
:101DCC00A3007408A4007508A5007608A60077087F
:101DDC00A7007008A4027108031C710FF62EF72ED1
:101DEC00A5027208031C720FFC2EFD2EA6027308AE
:101DFC00031C730F022F032FA7022408A00725082A
:101E0C000318250F0A2F0B2FA10726080318260FDE
:101E1C00102F112FA20727080318270AA30723083E
:101E2C00F3002208F2002108F1002008F0008030B5
:101E3C00A0002008F806FB09FB0A7B08031D272FCE
:101E4C00282F452F0130F007003003180130F1071F
:101E5C00003003180130F207003003180130F3078B
:101E6C00452F7408F0027508031C750FF1027608F3
:101E7C00031C760FF2027708031C770FF30273082A
:101E8C00720471047004031D4C2F4D2F7B2F7B08A3
:101E9C00031D512F522F7B2F0030F3000030F20026
:101EAC000030F1000030F000FF2F013083120313DB
:101EBC00A0000310F00DF10DF20DF30DA00B5F2F30
:101ECC00FB1F692F6A2F6B2F70147B1C6E2F6F2FCB
:101EDC00722F0314FB0D742F0310FB0D7A080319DA
:101EEC00782F792F7B2F0130FA02F21F7E2F7F2F54
:101EFC005B2FF901FB1F832F842F922F7B087F39D7
:101F0C000319892F8A2F8D2FF901F90A922F701C32
:101F1C00902F912F922F8A2F79080319962F972F94
:101F2C00CD2F0130F007003003180130F1070030DD
:101F3C0003180130F207003003180130F307731C4B
:101F4C00A82FA92FCD2F700883120313A00071089E
:101F5C00A1007208A2007308A3000130A400230D95
:101F6C00A30CA20CA10CA00CA40BB52F2308F300FE
:101F7C002208F2002108F1002008F0007A0A031967
:101F8C00C82FC92FCD2F0130A0002008FA077A0ADC
:101F9C000319D12FD22FD72F7A08031DD62FD72F65
:101FAC00E52F0030F3000030F2000030F10000307B
:101FBC00F0007A08031DE32FE42FE52FF8017A1CBB
:101FCC00E82FE92FEB2FF217F12F7F308312031339
:101FDC00A0002008F2057A0883120313A000031056
:101FEC00200CA1002108F300F81FFD2FFE2FFF2F5E
:101FFC00F3170800FF1B0A2883137F1883170008A8
:10200C00840A0319FF0A080010308A000408840AA5
:10201C00820700344134443443340034533445345F
:10202C004E34003443344F344E3400345634003480
:102A2E00F000700883120313860008000A168A113C
:102A3E0039250A168A1183160313111408000A1673
:102A4E008A1139250A168A118316031311150800E7
:102A5E000A168A1139250A168A1170088312031371
:102A6E00930008008316031314193E2D3F2D392DA4
:102A7E0011081F39031D442D452D392D0800003036
:102A8E000A128A1106200A168A1101300A128A11B8
:102A9E0006200A168A110800831603178801890179
:102AAE008316031307108710860188018312031300
:102ABE00860188010030A3000130A2008630A100FB
:102ACE00A030A0000A168A1139260A168A1183161A
:102ADE0003130F178F160F160F140800F600760348
:102AEE00031D7A2D7B2D872D74087F3EF50075080A
:102AFE00F70077080A128A1106200A168A11982DF5
:102B0E0002307606031D8C2D8D2D982D7408BF3E38
:102B1E00F5007508F70077080A128A1106200A16C2
:102B2E008A110800803083120313B5063908F300AA
:102B3E003808F2003708F1003608F0003508F700C3
:102B4E003408F6003308F5003208F4000A128A152C
:102B5E0068250A168A11730883120313B5007208CA
:102B6E00B4007108B3007008B2000800F800F40158
:102B7E00F5017008F200F3017208F6007308F70011
:102B8E00781CCA2DCB2DD12D7608F4070318F50A23
:102B9E007708F50701300310F60DF70DFF3E031D04
:102BAE00D22D0310F80C7808031DDE2DDF2DC72D56
:102BBE007508F1007408F0000800FB01FC01831297
:102BCE000313201CEB2DEC2DF22D2208FB0703180E
:102BDE00FC0A2308FC0701300310A20DA30DFF3ED3
:102BEE00031DF32D01300310A10CA00CFF3E031D9D
:102BFE00FA2D20082104031D052E062EE62D7C0835
:102C0E00A1007B08A00008000A168A1139250A16B1
:102C1E008A118316031391150A168A1139250A167D
:102C2E008A11831203131308F200F3017208F400E1
:102C3E007308F5000A168A1139250A168A117003CF
:102C4E007104031D2B2E2C2E302E8316031391127E
:102C5E00332E83160313911611167508F10074089E
:102C6E00F000080028308312031394008316031318
:102C7E009101831203132008A4002108A500220845
:102C8E00A6002308A70002300310A40DA50DA60D63
:102C9E00A70DFF3E031D4B2E2708F3002608F2005A
:102CAE002508F1002408F0000030F7003D30F60052
:102CBE000930F5000030F4000A168A11F8260A16BB
:102CCE008A117008FF3E8316031393009401871533
:102CDE0007160800F801F901962E78087307F6001A
:102CEE007408F5000318F50AF81F7E2EF503750813
:102CFE00F700770883120313FF00760884000A1684
:102D0E008A1100200A168A110A128A1508200A163C
:102D1E008A110130F8070318F90A0030F90778080C
:102D2E007307F6007408F5000318F50AF81FA02EB5
:102D3E00F5037508F700770883120313FF00760872
:102D4E0084000A168A1100200A168A11003A031D01
:102D5E00B12EB22E742E080000300A168A111725D5
:102D6E000A168A111A30F500F830F400F40BBD2E55
:102D7E00F50BBD2E000030300A128A1106200A16FD
:102D8E008A110730F5007D30F400F40BCC2EF50BD4
:102D9E00CC2E30300A128A1106200A168A110F30F4
:102DAE00F5004730F400F40BDA2EF50BDA2EDF2E99
:102DBE0030300A128A1106200A168A1138300A1289
:102DCE008A1106200A168A110C300A128A11062060
:102DDE000A168A1106300A128A1106200A168A115C
:102DEE0008000030FC000030FB000030FA0000301C
:102DFE00F90073087204710470040319072F082F69
:102E0E00552FFD01FD0A182F0130F8000310F00DAB
:102E1E00F10DF20DF30DF80B0D2F0130F8007808BF
:102E2E00FD07F31F1B2F1C2F0B2F0130F800031073
:102E3E00F90DFA0DFB0DFC0DF80B1E2F7308770222
:102E4E00031D332F72087602031D332F710875028E
:102E5E00031D332F70087402031C362F372F462F95
:102E6E007008F4027108031C710FF5027208031C3E
:102E7E00720FF6027308031C730FF70279140130F8
:102E8E000310F30CF20CF10CF00CFF3E031D472F58
:102E9E000130FD02031D542F552F1C2F7C08F3000B
:102EAE007B08F2007A08F1007908F0000800003083
:102EBE007005F80000307105F90080307205FA00D7
:102ECE007F307305FB007B087A0479047804031DB8
:102EDE00712F722F7A2F0030F3000030F200003085
:102EEE00F1000030F00000307405F8000030750578
:102EFE00F90080307605FA007F307705FB007B08FD
:102F0E007A0479047804031D8D2F8E2F962F0030AE
:102F1E00F7000030F6000030F5000030F400F31F2B
:102F2E00992F9A2FBE2F0030F8000030F900003094
:102F3E00FA008030FB007008F8027108031C710F54
:102F4E00A92FAA2FF9027208031C720FAF2FB02FF0
:102F5E00FA027308031C730FB52FB62FFB027B0802
:102F6E00F3007A08F2007908F1007808F000F71FF4
:102F7E00C12FC22FE62F0030F8000030F9000030CC
:102F8E00FA008030FB007408F8027508031C750FF8
:102F9E00D12FD22FF9027608031C760FD72FD82FF8
:102FAE00FA027708031C770FDD2FDE2FFB027B085A
:102FBE00F7007A08F6007908F5007808F4008030FA
:102FCE00F3068030F70677087302031DF82F760894
:102FDE007202031DF82F75087102031DF82F740875
:102FEE0070020318FB2FFC2FFE2F0310FF2F03146C
:022FFE000800C9
:04400E00D420FF3F7C
:00000001FF
