:020000040000FA
:060000000A128A11EA2F2A
:10000A00F20083120313091472080A128A150120D6
:10001A000A128A118312031309150630F100F10B33
:10002A001428000083120313091108000310720D2B
:10003A00730DF4007408FA007A08031D252826288F
:10004A002F280030F3000030F2000030F1000030B9
:10005A00F00094287008F4007108F5007208F600A0
:10006A007308F7001F300310F70CF60CF50CF40CAC
:10007A00FF3E031D38287408F8007808F900F217C3
:10008A00FF30F005FF30F105FF30F2050030F305CF
:10009A009630FA02FA1F522853286D287A08803AB5
:1000AA00973E031859285A285B282628013003103E
:1000BA00F30CF20CF10CF00CFF3E031D5C2801302E
:1000CA00F4007408FA07031D6B286C285B2884283F
:1000DA0020307A02031C722873287F2826280130D0
:1000EA00F4000310F00DF10DF20DF30DF40B762868
:1000FA000130FA027A08031D8328842874287908B3
:10010A000319882889289428F009F109F209F309C2
:10011A00F00A0319F10A0319F20A0319F30A08008B
:10012A008312031351088039D6005608DB005108A0
:10013A00D6005607D7005708E100D01FA528A628E1
:10014A00A728611461080319AB28AC28BB28610AE7
:10015A00031DB028B128B9280030D1000030D000E2
:10016A000030CF000030CE00D017C3280030D100B5
:10017A000030D0000030CF000030CE005508803962
:10018A00D6005608DB065508D6005607D70057088A
:10019A00E000D41FD128D228D3286014600803199C
:1001AA00D728D828E728600A031DDC28DD28E52897
:1001BA000030D5000030D4000030D3000030D20027
:1001CA00D417EF280030D5000030D4000030D30017
:1001DA000030D20060080319F328F428F9286108CE
:1001EA00031DF828F92802290030D1000030D00078
:1001FA000030CF000030CE00F52B4E08D60056084E
:10020A00F00054080A168A11DF240A128A117108AA
:10021A0083120313E7007008E6006608D600D701C8
:10022A00D801D9015908DF005808DE005708DD0057
:10023A005608DC006708D600D701D801D901590849
:10024A00E5005808E4005708E3005608E2004F08A2
:10025A00D6005608F00053080A168A11DF240A123B
:10026A008A11710883120313E7007008E600660812
:10027A00D600D701D801D9015608DC07570803115F
:10028A000318013E03194A29DD0758080311031808
:10029A00013E03195129DE07590803110318013ECB
:1002AA0003195829DF076708D600D701D801D901F1
:1002BA005608E207570803110318013E0319662975
:1002CA00E307580803110318013E03196D29E407CF
:1002DA00590803110318013E03197429E507500848
:1002EA00D6005608F00052080A168A11DF240A12AC
:1002FA008A11710883120313E7007008E600660882
:10030A00D600D701D801D9015608DC0757080311CE
:10031A000318013E03199229DD075808031103182F
:10032A00013E03199929DE07590803110318013EF2
:10033A000319A029DF076708D600D701D801D90118
:10034A005608E207570803110318013E0319AE299C
:10035A00E307580803110318013E0319B529E407F6
:10036A00590803110318013E0319BC29E50708308F
:10037A00D6000310DC0DDD0DDE0DDF0DD60BBE2918
:10038A004F08D6005608F00052080A168A11DF24D0
:10039A000A128A11710883120313E7007008E60033
:1003AA006608D6006708D700D801D9015608DC07C5
:1003BA00570803110318013E0319E429DD075808F9
:1003CA0003110318013E0319EB29DE07590803112B
:1003DA000318013E0319F229DF074E08D600560812
:1003EA00F00053080A168A11DF240A128A117108CA
:1003FA0083120313E7007008E6006608D600670850
:10040A00D700D801D9015608DC0757080311031889
:10041A00013E0319112ADD07580803110318013E8A
:10042A000319182ADE07590803110318013E031994
:10043A001F2ADF070830D6000310DC0DDD0DDE0DA4
:10044A00DF0DD60B212A4E08D6005608F0005208B6
:10045A000A168A11DF240A128A11710883120313F9
:10046A00E7007008E6006608D6006708D700D801DA
:10047A00D9015608DC07570803110318013E03196E
:10048A00472ADD07580803110318013E03194E2AAB
:10049A00DE07590803110318013E0319552ADF071D
:1004AA004F08D6005608F00054080A168A11DF24AD
:1004BA000A128A11710883120313E7007008E60012
:1004CA006608D6006708D700D801D9015608E2079E
:1004DA00570803110318013E0319742AE307580841
:1004EA0003110318013E03197B2AE4075908031173
:1004FA000318013E0319822AE5075008D600560858
:10050A00F00053080A168A11DF240A128A117108A8
:10051A0083120313E7007008E6006608D60067082E
:10052A00D700D801D9015608E20757080311031862
:10053A00013E0319A12AE307580803110318013ED3
:10054A000319A82AE407590803110318013E0319DD
:10055A00AF2AE5075008D6005608F00054080A16D4
:10056A008A11DF240A128A11710883120313E70021
:10057A007008E6006608D6006708D700D801D901D6
:10058A0008300310D60DD70DD80DD90DFF3E031D27
:10059A00C62A5608E207570803110318013E031931
:1005AA00D72AE307580803110318013E0319DE2A64
:1005BA00E407590803110318013E0319E52AE50760
:1005CA005C08D6005D08D7005E08D8005F08D9002D
:1005DA0018300310D90CD80CD70CD60CFF3E031DCB
:1005EA00EE2A5608E207570803110318013E0319B9
:1005FA00FF2AE307580803110318013E0319062BC3
:10060A00E407590803110318013E03190D2BE507E6
:10061A000830D6000310DC0DDD0DDE0DDF0DD60B24
:10062A000F2B61086007D600D701D70D5608823E06
:10063A00E60057080318013EFF3EE700412B013050
:10064A00D6000310E20DE30DE40DE50DD60B262BC3
:10065A00DF1F302B312B322B62140130D6000310EE
:10066A00DC0DDD0DDE0DDF0DD60B342BFF30E6077A
:10067A000318E70AFF30E707E41F442B452B242B16
:10068A00E001DF1F492B4A2B662BFF305C05D600A1
:10069A00FF305D05D700FF305E05D8007F305F056B
:1006AA00D900590858045704560403195D2B5E2BC8
:1006BA00612BE001E00A662B621C642B652B662B1A
:1006CA005E2B600803196A2B6B2B9C2B0130E20707
:1006DA00003003180130E307003003180130E40743
:1006EA00003003180130E507651C7C2B7D2B9C2B01
:1006FA006208D6006308D7006408D8006508D900E4
:10070A000130DA00590DD90CD80CD70CD60CDA0BFB
:10071A00872B5908E5005808E4005708E3005608F3
:10072A00E2000130E6070318E70A0030E707670826
:10073A00803AFF0080307F02031DA52BFF3066023E
:10074A00031CA82BA92BB42B7F3083120313E500BB
:10075A008030E4000030E3000030E200E92B83122D
:10076A0003136708803AFF0080307F02031DBF2B06
:10077A00013066020318C22BC32BCF2B0030831221
:10078A000313E5000030E4000030E3000030E2002B
:10079A00DB01E92B831203136608D6005608E10031
:1007AA00FF30E205FF30E3057F30E4050030E50560
:1007BA00611CE02BE12BE22BE4176108D600031041
:1007CA00560CD7005708E5005B08D6005608E50422
:1007DA006508D1006408D0006308CF006208CE0023
:1007EA00080083160313D800831203136B08F3005F
:1007FA006A08F2006908F1006808F0000A128A1112
:10080A001B200A128A11710883160313D500700877
:10081A00D400DF01E001DD01DE010130E10000303A
:10082A00E200831203136B08F3006A08F2006908F6
:10083A00F1006808F0000030F7000030F6000030E0
:10084A00F5000030F4000A168A11A2260A128A114B
:10085A000318302C312C7F2CBF3083120313D100A4
:10086A008030D0000030CF000030CE006B08D500B9
:10087A006A08D4006908D3006808D2000A128A11EB
:10088A0095200A128A11831203135108EB005008AB
:10089A00EA004F08E9004E08E8002D30EE00831602
:1008AA00031358088400831203136E08831380000D
:1008BA00013083160313DD070318DE0A0030DE0752
:1008CA007F2C0A30F0000030F1005508F30054087C
:1008DA00F2000A168A113B260A128A117108831637
:1008EA000313D5007008D4000130DF070318E00AAB
:1008FA000030E0078316031354085504031D862CA1
:10090A00872C662CA32D5F036004031D8D2C8E2C6F
:10091A00932C0130E1000030E200D52C0230D600E1
:10092A000030D700BF2C8316031362088312031307
:10093A00A10083160313610883120313A0000A306F
:10094A00A2000030A3000A168A1106250A128A118B
:10095A0083120313210883160313E200831203137D
:10096A00200883160313E1000130D6070318D70ABB
:10097A000030D7076008803A83120313EE0083160B
:10098A0003135708803A831203136E02031DD12CF6
:10099A008316031356085F020318D42CD52C982CFF
:1009AA0083160313610883120313A4008316031327
:1009BA00620883120313A5000030A51BFF30A600AE
:1009CA00A70001300A168A1144270A128A118312D3
:1009DA0003132708B5002608B4002508B300240825
:1009EA00B2006B08B9006A08B8006908B70068085D
:1009FA00B6000A128A154C200A128A1183120313AE
:100A0A00350883160313DC00831203133408831694
:100A1A000313DB0083120313330883160313DA006C
:100A2A0083120313320883160313D9006208831250
:100A3A000313A30083160313610883120313A2008E
:100A4A00831603135C08F3005B08F2005A08F100EE
:100A5A005908F0000A128A111B200A128A11710819
:100A6A0083120313A1007008A0000A168A11062532
:100A7A000A128A11831203132008A4002108A50070
:100A8A000030A51BFF30A600A70001300A168A1104
:100A9A0044270A128A11831203132708C900260859
:100AAA00C8002508C7002408C6006B08CD006A08DC
:100ABA00CC006908CB006808CA000A168A11972474
:100ACA000A128A11831203134908EB004808EA0044
:100ADA004708E9004608E800831603135C08F30098
:100AEA005B08F2005A08F1005908F0000A128A114C
:100AFA001B200A128A117008303E83120313EE007B
:100B0A00831603135D08580783120313EF006F0857
:100B1A0084006E0883138000013083160313DD07F7
:100B2A000318DE0A0030DE07FF30DF070318E00A89
:100B3A00FF30E0070130E1000030E2005F086004A6
:100B4A00031DA82DA92D882C2E3083120313EE0025
:100B5A00831603135D08580783120313EF006F0807
:100B6A0084006E0883138000013083160313DD07A7
:100B7A000318DE0A0030DE070130D6000030D70045
:100B8A00ED2D83160313620883120313A100831643
:100B9A000313610883120313A0000A30A200003075
:100BAA00A3000A168A1106250A128A118312031350
:100BBA00210883160313E200831203132008831605
:100BCA000313E1000130D6070318D70A0030D7070C
:100BDA00831203136D08803AEE0083160313570835
:100BEA00803A831203136E02031D012E8316031328
:100BFA005608831203136C020318042E052EC62D01
:100C0A0083160313610883120313A40083160313C4
:100C1A00620883120313A5000030A51BFF30A6004B
:100C2A00A70001300A168A1144270A128A11831270
:100C3A0003132708D1002608D0002508CF0024086E
:100C4A00CE006B08F3006A08F2006908F100680830
:100C5A00F0000A128A111B200A128A1170088312E4
:100C6A000313A4007108A5000030A51BFF30A600DD
:100C7A00A70001300A168A1144270A128A11831220
:100C8A0003132708C9002608C8002508C700240836
:100C9A00C6006B08CD006A08CC006908CB0068085A
:100CAA00CA000A168A1197240A128A118312031398
:100CBA004908D5004808D4004708D3004608D2009E
:100CCA000A128A1195200A128A11831203135108F3
:100CDA0083160313DC0083120313500883160313CD
:100CEA00DB00831203134F0883160313DA008312FF
:100CFA0003134E0883160313D9005C0883120313E7
:100D0A00EB00831603135B0883120313EA008316AE
:100D1A0003135A0883120313E900831603135908AD
:100D2A0083120313E8006B08F3006A08F2006908EB
:100D3A00F1006808F0000A128A111B200A128A11AF
:100D4A00013083160313E1000030E200831203131B
:100D5A006D0883160313E000831203136C088316CD
:100D6A000313DF00D32F5F036004031DBD2EBE2EC5
:100D7A00C32E0130E1000030E200052F0230D60018
:100D8A000030D700EF2E8316031362088312031371
:100D9A00A10083160313610883120313A0000A300B
:100DAA00A2000030A3000A168A1106250A128A1127
:100DBA0083120313210883160313E2008312031319
:100DCA00200883160313E1000130D6070318D70A57
:100DDA000030D7076008803A83120313EE008316A7
:100DEA0003135708803A831203136E02031D012F5F
:100DFA008316031356085F020318042F052FC82E03
:100E0A0083160313610883120313A40083160313C2
:100E1A00620883120313A5000030A51BFF30A60049
:100E2A00A70001300A168A1144270A128A1183126E
:100E3A0003132708B5002608B4002508B3002408C0
:100E4A00B2006B08B9006A08B8006908B7006808F8
:100E5A00B6000A128A154C200A128A118312031349
:100E6A00350883160313DC00831203133408831630
:100E7A000313DB0083120313330883160313DA0008
:100E8A0083120313320883160313D90062088312EC
:100E9A000313A30083160313610883120313A2002A
:100EAA00831603135C08F3005B08F2005A08F1008A
:100EBA005908F0000A128A111B200A128A117108B5
:100ECA0083120313A1007008A0000A168A110625CE
:100EDA000A128A11831203132008A4002108A5000C
:100EEA000030A51BFF30A600A70001300A168A11A0
:100EFA0044270A128A11831203132708C9002608F5
:100F0A00C8002508C7002408C6006B08CD006A0877
:100F1A00CC006908CB006808CA000A168A1197240F
:100F2A000A128A11831203134908EB004808EA00DF
:100F3A004708E9004608E800831603135C08F30033
:100F4A005B08F2005A08F1005908F0000A128A11E7
:100F5A001B200A128A117008303E83120313EE0016
:100F6A00831603135D08580783120313EF006F08F3
:100F7A0084006E0883138000013083160313DD0793
:100F8A000318DE0A0030DE07FF30DF070318E00A25
:100F9A00FF30E0070130E1000030E2005F08600442
:100FAA00031DD82FD92FB82E0A3083120313EE004F
:100FBA00831603135D08580783120313EF006F08A3
:100FCA0084006E088313800008008313A030840015
:100FDA00D4300A168A111B240A128A1183179030F8
:100FEA0084009A300A168A111B240A128A11830174
:060FFA000A128A15B12C59
:10100200F0007008831203138600080000300A12F1
:101012008A1501200A128A153430F500F130F400E5
:10102200F40B1128F50B1128162830300A168A11F4
:1010320059240A128A150D30F500FB30F400F40B26
:101042002028F50B2028252830300A168A11592429
:101052000A128A151D30F5009130F400F40B2F2886
:10106200F50B2F2830300A168A1159240A128A15D4
:1010720038300A168A1159240A128A150C300A16B7
:101082008A1159240A128A1506300A168A1159241D
:101092000A128A1508008312031339088039BA002C
:1010A2003A08C3003908BA003A07BB003B08CA0035
:1010B200B81F5C285D285E284A144A080319622872
:1010C200632873284A0A031D67286828702800309D
:1010D200B9000030B8000030B7000030B600B817D1
:1010E200B9017B280030B9000030B8000030B700E9
:1010F2000030B60035088039BA003A08C306350810
:10110200BA003A07BB003B08CB00B41F89288A28E3
:101112008B284B144B0803198F289028A0284B0AC0
:10112200031D942895289D280030B5000030B40096
:101132000030B3000030B200B417B501A828003067
:10114200B5000030B4000030B3000030B200350802
:10115200340433043204031DAF28B028C9280030F8
:10116200B9000030B8000030B7000030B60080305F
:10117200B8047F30B9044308BA003A08B904390800
:10118200B5003808B4003708B3003608B200282A80
:101192004A08031DCD28CE28D7280030B5000030DC
:1011A200B4000030B3000030B200282A4A08BA0066
:1011B200BB013B08BD004B083A02BC00031CBD0347
:1011C2003C087F3EC4003D080318013E003EC500B6
:1011D2003908C2003808C1003708C0003608BF000D
:1011E2000030B9000030B8000030B7000030B6005F
:1011F2000030C9000030C8000030C7000030C6000F
:10120200CB014D294B080319072908292829013048
:10121200BA000310BF0DC00DC10DC20DBA0B0A29D1
:101222000130BA000310B60DB70DB80DB90DBA0BE7
:101232001329C91F1D291E291F2936140130BA007E
:101242000310C60DC70DC80DC90DBA0B21293508EB
:101252004202031D362934084102031D3629330890
:101262004002031D362932083F02031C39293A295C
:10127200492949173208BF023308031C330FC00241
:101282003408031C340FC1023508031C350FC20297
:101292000130BA003A08CB071A304B02031C52291C
:1012A200532903294208410440043F0403195A29DF
:1012B2005B297A2946147A290130BA000310B60D47
:1012C200B70DB80DB90DBA0B5F29C91F69296A2973
:1012D2006B2936140130BA000310C60DC70DC80DB4
:1012E200C90DBA0B6D29FF30C4070318C50AFF30B8
:1012F200C507B81F7D297E295D29CB01C91F822917
:1013020083299F29FF304605BA00FF304705BB00FD
:10131200FF304805BC007F304905BD003D083C0454
:101322003B043A040319962997299A29CB01CB0A3F
:101332009F29361C9D299E299F2997294B0803190D
:10134200A329A429D5290130B6070030031801309A
:10135200B707003003180130B80700300318013016
:10136200B907391CB529B629D5293608BA00370874
:10137200BB003808BC003908BD000130BE003D0D7D
:10138200BD0CBC0CBB0CBA0CBE0BC0293D08B9008D
:101392003C08B8003B08B7003A08B6000130C40761
:1013A2000318C50A0030C5074508803AFF0080309F
:1013B2007F02031DDE29FF304402031CE129E229DA
:1013C200F029FF3083120313C4000030C50000303F
:1013D200B9000030B8000030B7000030B600831208
:1013E20003134508803AFF0080307F02031DFB296A
:1013F200013044020318FE29FF290C2A8312031329
:10140200C401C5010030B9000030B8000030B70097
:101412000030B600C301831203134408BA003A082D
:10142200CA004A1C152A162A182AB8171C2A7F3005
:10143200BA003A08B8054A08BA0003103A0CBB00D1
:101442003B08B9004308BA003A08B904C0280800AA
:101452008312031335088039BA003A08C2003508EE
:10146200BA003A07BB003B08C400B41F392A3A2A23
:101472003B2A4414440803193F2A402A502A440AAA
:10148200031D442A452A4D2A0030B5000030B4001D
:101492000030B3000030B200B417B501582A003052
:1014A200B5000030B4000030B3000030B20039089B
:1014B2008039BA003A08C300430842060319622A77
:1014C200632A642A42173908BA003A07BB003B086C
:1014D200C300B81F6D2A6E2A6F2A431443080319EA
:1014E200732A742A842A430A031D782A792A812AB4
:1014F2000030B9000030B8000030B7000030B6004C
:10150200B817B9018C2A0030B9000030B800003099
:10151200B7000030B600440843020318912A922A09
:10152200D62A421F952A962A9A2A8030BA003A0869
:10153200C2064408BA003A08C5004308BA003A088D
:10154200C4004508BA003A08C3003208BA003A0893
:10155200C5003608BA003A08B2004508BA003A088F
:10156200B6003308BA003A08C5003708BA003A088C
:10157200B3004508BA003A08B7003408BA003A087E
:10158200C5003808BA003A08B4004508BA003A085B
:10159200B8003508BA003A08C5003908BA003A0856
:1015A200B5004508BA003A08B900C5014308BA00B7
:1015B200BB013B08BD0044083A02BC00031CBD034A
:1015C2003D08803AFF0080307F02031DEA2A1A306C
:1015D2003C02031CED2AEE2A2B2B8312031335083F
:1015E200340433043204031DF72AF92A0130FA2A9B
:1015F2000030BA003A08C5000030B5000030B4002F
:101602000030B3000030B2004308BA003A08C40008
:10161200332B451C0D2B0E2B172B4508BA0003103C
:101622003A0C0138BB003B08C500192B0310C50C4E
:10163200321C1C2B1D2B1E2BC5170130BA00350D79
:10164200B50CB40CB30CB20CBA0B202B0130BA009F
:101652003A08C4078312031343084402031C322BC3
:10166200332B0A2B421B362B372B822B4408031DAC
:101672003B2B3C2B452B0030B5000030B400003032
:10168200B3000030B200B02C3608B207370803119D
:101692000318013E03194E2BB30738080311031830
:1016A200013E0319552BB407390803110318013EF3
:1016B20003195C2BB507351C5F2B602B362C451CA0
:1016C200632B642B6D2B4508BA0003103A0C0138CA
:1016D200BB003B08C5006F2B0310C50C321C722BDC
:1016E200732B742BC5170130BA00350DB50CB40C31
:1016F200B30CB20CBA0B762B0130BA003A08C4070D
:10170200362C3508803AFF003908803A7F02031DE3
:10171200942B38083402031D942B37083302031D1F
:10172200942B360832020318972B982BF02BFF309C
:10173200BA00FF30BB00FF30BC00FF30BD003608EE
:10174200BE003708BF003808C0003908C10032089F
:10175200BE023308031C330FAF2BB02BBF02340879
:10176200031C340FB52BB62BC0023508031C350FF2
:10177200BB2BBC2BC1023E08BA073F0803183F0F20
:10178200C32BC42BBB0740080318400FC92BCA2B1D
:10179200BC0741080318410ABD073D08B5003C08D3
:1017A200B4003B08B3003A08B2008030BA003A08ED
:1017B200C206C509C50A4508031DE02BE12BFE2B15
:1017C2000130B207003003180130B30700300318AC
:1017D2000130B407003003180130B507FE2B36087C
:1017E200B2023708031C370FB3023808031C380F44
:1017F200B4023908031C390FB50235083404330426
:101802003204031D052C062C322C4508031D0A2C1C
:101812000B2C322C0030B5000030B4000030B30085
:101822000030B200B02C0130BA000310B20DB30D7B
:10183200B40DB50DBA0B162CC51F202C212C222C51
:101842003214451C252C262C292C0314C50D2B2CB7
:101852000310C50D440803192F2C302C322C0130F3
:10186200C402B41F352C362C142CC301C51F3A2CCC
:101872003B2C492C45087F390319402C412C442C20
:10188200C301C30A492C321C472C482C492C412C39
:10189200430803194D2C4E2C822C0130B207003024
:1018A20003180130B307003003180130B4070030C9
:1018B20003180130B507351C5F2C602C822C3208CE
:1018C200BA003308BB003408BC003508BD00013043
:1018D200BE003D0DBD0CBC0CBB0CBA0CBE0B6A2C81
:1018E2003D08B5003C08B4003B08B3003A08B2001A
:1018F200440A03197D2C7E2C822C0130BA003A084E
:10190200C407440A0319862C872C8C2C4408031D17
:101912008B2C8C2C9A2C0030B5000030B400003097
:10192200B3000030B2004408031D982C992C9A2C65
:10193200C201441C9D2C9E2CA02CB417A42C7F30D9
:10194200BA003A08B4054408BA0003103A0CBB00C6
:101952003B08B500C21FAE2CAF2CB02CB517080047
:101962000A168A11BB240A128A150A128A1507203E
:101972000A128A150A168A114C240A128A15F401CF
:10198200F40A01300A168A1173240A128A150130E8
:10199200F3008030F4000A168A1193250A128A1580
:1019A200083083160313E3006308F40001300A16BB
:1019B2008A1173240A128A150630F3008030F4006B
:1019C2000A168A1193250A128A150E3083160313FA
:1019D200E3006308F40001300A168A1173240A1224
:1019E2008A150A30F3008030F4000A168A11932512
:1019F2000A128A150A168A1123240A128A155030ED
:101A0200F0000030F1000A168A1135240A128A15F4
:101A12000230F0000030F1000A168A1135240A1251
:101A22008A150A168A112C240A128A150330831683
:101A32000313E5000830E4007630E300E30B1F2DCA
:101A4200E40B1F2DE50B1F2D00000A168A1123241B
:101A52000A128A155130F0000030F1000A168A117C
:101A620035240A128A150030F000F1000A168A1194
:101A72002D250A128A15700883160313E3006308E2
:101A8200BF000A168A112C240A128A150330831603
:101A92000313E5000830E4007630E300E30B4F2D3A
:101AA200E40B4F2DE50B4F2D00000A168A1123245B
:101AB2000A128A155030F0000030F1000A168A111D
:101AC20035240A128A150130F0000030F1000A169E
:101AD2008A1135240A128A150A168A112C240A122E
:101AE2008A15033083160313E5000830E4007630CC
:101AF200E300E30B7A2DE40B7A2DE50B7A2D00003F
:101B02000A168A1123240A128A155130F000003075
:101B1200F1000A168A1135240A128A150030F000E3
:101B2200F1000A168A112D250A128A1570088316E9
:101B32000313E3006308BE000A168A112C240A125A
:101B42008A15033083160313E5000830E40076306B
:101B5200E300E30BAA2DE40BAA2DE50BAA2D00004E
:101B62000A168A1123240A128A151130F000003055
:101B7200F1000A168A1135240A128A150030F00083
:101B8200F1000A168A112D250A128A157008831689
:101B92000313E3006308BD000A168A112C240A12FB
:101BA2008A15033083160313E5000830E40076300B
:101BB200E300E30BDA2DE40BDA2DE50BDA2D00005E
:101BC200831603133F08E300E4016308E400E30122
:101BD200630883120313A400831603136408831299
:101BE2000313A5000030A51BFF30A600A70001309B
:101BF2000A168A1144270A128A1583120313270828
:101C020083160313B70083120313260883160313E4
:101C1200B60083120313250883160313B50083123B
:101C22000313240883160313B40037088312031323
:101C3200B50083160313360883120313B400831608
:101C42000313350883120313B300831603133408F6
:101C520083120313B200831603133E08E300E40168
:101C6200E501E601660883120313A7008316031336
:101C7200650883120313A6008316031364088312F4
:101C82000313A50083160313630883120313A4002E
:101C920001300A168A1144270A128A158312031385
:101CA2002708B9002608B8002508B7002408B6009E
:101CB2000A128A1529220A128A1583120313350879
:101CC20083160313B7008312031334088316031316
:101CD200B60083120313330883160313B50083126D
:101CE2000313320883160313B40040308312031324
:101CF200D100A030D0000030CF000030CE00443000
:101D0200B5007F30B400C030B3000030B20083169B
:101D12000313370883120313B9008316031336081B
:101D220083120313B80083160313350883120313B7
:101D3200B70083160313340883120313B6000A1282
:101D42008A154C200A128A15831203133508D5000E
:101D52003408D4003308D3003208D2000A128A11A0
:101D620095200A128A15831203135108831603134E
:101D7200B30083120313500883160313B2008312B5
:101D820003134F0883160313B100831203134E0883
:101D920083160313B000423083120313D100C830FC
:101DA200D0000030CF000030CE008316031333087A
:101DB20083120313D500831603133208831203130D
:101DC200D40083160313310883120313D30083163E
:101DD2000313300883120313D2000A128A119520CA
:101DE2000A128A1583120313510883160313AF00D4
:101DF20083120313500883160313AE0083120313D6
:101E02004F0883160313AD00831203134E08831683
:101E12000313AC000030AB000030AA000030A90070
:101E22000030A8002F08AB002E08AA002D08A90038
:101E32002C08A8002B0883120313EB00831603134C
:101E42002A0883120313EA00831603132908831254
:101E52000313E90083160313280883120313E8000F
:101E62000230EC000030ED00CA300A128A11F6236B
:101E72000A128A15003083160313A7000030A60049
:101E82000030A5000030A4003D08E300E401E501B4
:101E9200E601660883120313A7008316031365087D
:101EA20083120313A6008316031364088312031319
:101EB200A50083160313630883120313A4000030E2
:101EC2000A168A1144270A128A1583120313270855
:101ED20083160313A7008312031326088316031322
:101EE200A60083120313250883160313A500831289
:101EF2000313240883160313A40027088312031371
:101F0200EB0083160313260883120313EA008316D9
:101F12000313250883120313E9008316031324080D
:101F220083120313E8000230EC000030ED00C030F1
:101F32000A128A11F6230A128A15F401F40A0230EF
:101F42000A168A1173240A128A15CA30F300003065
:101F5200F4000A168A1193250A128A15063083168E
:101F62000313E3006308F40002300A168A11732493
:101F72000A128A150E30F3008030F4000A168A1114
:101F820093250A128A15073083160313E3006308A8
:101F9200F40002300A168A1173240A128A15C0301C
:101FA200F3000030F4000A168A1193250A128A15EA
:101FB2000B3083160313E3006308F40002300A16A1
:101FC2008A1173240A128A150E30F3008030F4004D
:101FD2000A168A1193250A128A15063083160313EC
:101FE200E5001330E400AD30E300E30BF62FE40B21
:101FF200F62FE50BF62FC02C0A128A110028FF1BC0
:102002000A2883137F1883170008840A0319FF0A1A
:10201200080010308A000408840A8207003454340D
:1020220045344D3450340034483455344D34003442
:0C20320043344F344E3400344334003447
:1028360064008001840A04060319003404061C2C73
:102846000A168A113F240A168A11831603131114D5
:1028560008000A168A113F240A168A1183160313E2
:10286600111508000A168A113F240A168A117008E3
:102876008312031393000800831603131419442CC0
:10288600452C3F2C11081F39031D4A2C4B2C3F2C7D
:10289600080000300A168A1159240A168A110130D6
:1028A6000A168A1159240A168A110800F30083129F
:1028B6000313091073080A128A1501200A168A11D1
:1028C6008312031309150B30F2006230F100F10B8D
:1028D6006A2CF20B6A2C00008312031309110800FC
:1028E600F6007603031D782C792C852C74087F3E20
:1028F600F5007508F70077080A168A1159240A1692
:102906008A11962C02307606031D8A2C8B2C962C67
:102916007408BF3EF5007508F70077080A168A1195
:1029260059240A168A110800803083120313C90637
:102936004D08B5004C08B4004B08B3004A08B20075
:102946004908B9004808B8004708B7004608B60065
:102956000A128A1529220A168A11831203133508C8
:10296600C9003408C8003308C7003208C60008008A
:10297600831603178801890183160313071087102E
:102986008601880189018312031389018601880162
:102996000030A3000130A2008630A100A030A000C4
:1029A6000A168A115B250A168A11831603130F1756
:1029B6008F160F160F140800F800F401F5017008C1
:1029C600F200F3017208F6007308F700781CEC2C8D
:1029D600ED2CF32C7608F4070318F50A7708F507AB
:1029E60001300310F60DF70DFF3E031DF42C031006
:1029F600F80C7808031D002D012DE92C7508F1004F
:102A06007408F0000800FB01FC0183120313201C6C
:102A16000D2D0E2D142D2208FB070318FC0A230882
:102A2600FC0701300310A20DA30DFF3E031D152D5B
:102A360001300310A10CA00CFF3E031D1C2D200825
:102A46002104031D272D282D082D7C08A1007B08B5
:102A5600A00008000A168A113F240A168A11831656
:102A6600031391150A168A113F240A168A11831236
:102A760003131308F200F3017208F4007308F5005B
:102A86000A168A113F240A168A1170037104031D5F
:102A96004D2D4E2D522D831603139112552D83164F
:102AA6000313911611167508F1007408F00008005A
:102AB60028308312031394008316031391018312A3
:102AC60003132008A4002108A5002208A600230855
:102AD600A70002300310A40DA50DA60DA70DFF3EFD
:102AE600031D6D2D2708F3002608F2002508F100C6
:102AF6002408F0000030F7007A30F6001230F500B6
:102B06000030F4000A168A11D5250A168A117008B3
:102B1600FF3E8316031393009401871507160800DA
:102B2600F801F901B82D78087307F6007408F50066
:102B36000318F50AF81FA02DF5037508F7007708A6
:102B460083120313FF00760884000A168A110020F8
:102B56000A168A110A128A1105200A168A110130EC
:102B6600F8070318F90A0030F90778087307F60022
:102B76007408F5000318F50AF81FC22DF503750849
:102B8600F700770883120313FF00760884000A16FD
:102B96008A1100200A168A11003A031DD32DD42D5E
:102BA600962D08000030FC000030FB000030FA00D3
:102BB6000030F90073087204710470040319E42DDF
:102BC600E52D322EFD01FD0AF52D0130F80003102A
:102BD600F00DF10DF20DF30DF80BEA2D0130F800B2
:102BE6007808FD07F31FF82DF92DE82D0130F800C0
:102BF6000310F90DFA0DFB0DFC0DF80BFB2D7308F8
:102C06007702031D102E72087602031D102E71081E
:102C16007502031D102E70087402031C132E142E49
:102C2600232E7008F4027108031C710FF502720856
:102C3600031C720FF6027308031C730FF702791454
:102C460001300310F30CF20CF10CF00CFF3E031DE7
:102C5600242E0130FD02031D312E322EF92D7C0863
:102C6600F3007B08F2007A08F1007908F00008000A
:102C7600F601F11F3F2E402E472EF009F109F00A0A
:102C86000319F10AF601F60AF31F4A2E4B2E542EAB
:102C9600F209F309F20A0319F30A0130F400740881
:102CA600F606F701F8017008710403195B2E5C2E15
:102CB600932EF501F50A6A2E01300310F00DF10D81
:102CC600FF3E031D602E0130F4007408F507F11F66
:102CD6006D2E6E2E5F2E01300310F70DF80DFF3EA0
:102CE600031D6F2E71087302031D7B2E700872027E
:102CF600031C7E2E7F2E862E7008F2027108031C9E
:102D0600F303F302771401300310F10CF00CFF3ECD
:102D1600031D872E0130F502031D922E932E6E2E73
:102D260076080319972E982E9D2EF709F809F70AAB
:102D36000319F80A7808F1007708F0000800003057
:102D46007005F80000307105F90080307205FA0050
:102D56007F307305FB007B087A0479047804031D31
:102D6600B52EB62EBE2E0030F3000030F200003035
:102D7600F1000030F00000307405F80000307505F1
:102D8600F90080307605FA007F307705FB007B0876
:102D96007A0479047804031DD12ED22EDA2E00305F
:102DA600F7000030F6000030F5000030F400F31FA5
:102DB600DD2EDE2E022F0030F8000030F900003044
:102DC600FA008030FB007008F8027108031C710FCE
:102DD600ED2EEE2EF9027208031C720FF32EF42E5E
:102DE600FA027308031C730FF92EFA2EFB027B08F6
:102DF600F3007A08F2007908F1007808F000F71F6E
:102E0600052F062F2A2F0030F8000030F900003079
:102E1600FA008030FB007408F8027508031C750F71
:102E2600152F162FF9027608031C760F1B2F1C2F61
:102E3600FA027708031C770F212F222FFB027B084B
:102E4600F7007A08F6007908F5007808F400803073
:102E5600F3068030F70677087302031D3C2F7608C9
:102E66007202031D3C2F75087102031D3C2F740866
:102E7600700203183F2F402F422F0310432F0314D5
:102E8600080083120313AC002C0803194B2F4C2F98
:102E9600602FA71F4F2F502F602F2409AE00250942
:102EA600AF002609B0002709B100AE0A0319AF0A20
:102EB6000319B00A0319B10A682F2708B1002608BA
:102EC600B0002508AF002408AE0027082604250414
:102ED6002404031D6F2F702F792F0030A7000030B8
:102EE600A6000030A5000030A400FF2F9630A800F1
:102EF6002808AD008B2F0130A8002808AD07013047
:102F06000310B10CB00CAF0CAE0CFF3E031D832FAB
:102F1600FE303105031D902F912F7E2FAD2F0130EE
:102F2600A8002808AD070130AE07003003180130AD
:102F3600AF07003003180130B00700300318013026
:102F4600B10701300310B10CB00CAF0CAE0CFF3E54
:102F5600031DA52FFF303105031DB22FB32F922F6E
:102F6600BF2F0130AD020130A8000310AE0DAF0D2A
:102F7600B00DB10DA80BB82FB01BC22FC32FC92F90
:102F860002302D020318C82FC92FB42F2D18CC2FAD
:102F9600CD2FD52FFF30AE05FF30AF057F30B00502
:102FA600FF30B1050310AD0C2D08A800A901AA0138
:102FB600AB0118300310A80DA90DAA0DAB0DFF3EED
:102FC600031DDD2F2808AE042908AF042A08B00423
:102FD6002B08B1042C080319F12FF22FF72FA71F86
:102FE600F52FF62FF72FB1173108A7003008A600E6
:0A2FF6002F08A5002E08A400080013
:04400E00D420FF3F7C
:00000001FF
