:020000040000FA
:060000000A128A1110280B
:10000800FE00030EF8000A08F900831203137F08A4
:10001800FA000A128A1121280A128A111328F001FB
:10002800F101F201F301F401F50183120313A301B5
:10003800A40183010A128A11CF288C1D242825289F
:100048007D281412141B29282A282E28941F2D28AD
:100058002E2835281308F6007608A40014139413E4
:10006800141683160313941A3A283B28592814198E
:100078003E283F285928831203131308F6007608F0
:10008800A4008C11141683160313141C4C284D2835
:100098004728831203131308F6007608A300A63036
:1000A800F600F60B552800007A28941A5C285D287B
:1000B8007A28141D602861287A28831203131308EC
:1000C800F6007608A4008316031314101030831268
:1000D800031393001416A630F600F60B71280000DF
:1000E80083160313141879287A28742883120313A3
:1000F8008C110C1F80288128B2281F0CF600760C62
:100108000F39003A031D89288A28AE281E08F600F0
:10011800F7017608F700F6017608F0007708F10095
:10012800831603131E087007F60071080318710A76
:10013800F7007608F0007708F100831203131E0811
:10014800F6007608F500831603131E08F6007608F5
:10015800F400B0281E08880083120C130B1DB52864
:10016800B628C6280130F6007608F3070B1183304D
:10017800810072087302031CC228C328C52808100E
:10018800C62808147A08FF0079088A00780E8300C8
:10019800FE0E7E0E09000A128A114C210A128A11DB
:1001A800831203139F149F18DA28DB28F5281F0CE5
:1001B800A200220C0F39003A031DE328E428E9289D
:1001C8001F08C33904389F00EB28C3309F058430CB
:1001D80083120313A200A20BEF280000831203135B
:1001E8009F1400307102333003197002031CFD287C
:1001F800FE280C29003071027D30031970020318A3
:10020800062907290C29B430A2002208F200D728B1
:10021800003071027E3003197002031C142915295D
:10022800232900307102C8300319700203181D29F0
:100238001E2923297830A2002208F200D72800308E
:100248007102C93003197002031C2B292C293A2981
:10025800013071022C300319700203183429352932
:100268003A295030A2002208F200D7280130710242
:100278002D3003197002031C4229432948291430E0
:10028800A2002208F200D728D7280A128A111028BB
:10029800033083160317880089010330831603137C
:1002A8008500860187018801831203138501860171
:1002B8008701880150300A128A119C210A128A117A
:1002C800831603130F178F160F160F148B170B17A0
:1002D8000C178B168C15831203130C130B118C112E
:1002E800831603139F171F129F12831203139F175E
:1002F800C3309F05843083120313A100A10B822908
:100308000000831203131F14843083120313A10007
:10031800A10B8C290000831603138112011281118D
:100328000115811001148330831203138100080022
:1003380083120313A000200883160313930036309A
:100348008312031394008030831603139400013042
:100358009100871507168B170B17831203138C113F
:08036800831603138C15080035
:04400E00D420FF3F7C
:00000001FF
