:020000040000FA
:060000000A128A1110280B
:10000800FE00030E83120313B8000A08B9007F0824
:10001800BA000A168A11C6280A128A1113288313ED
:100028004030840055300A168A155C270A128A1156
:1000380083160313EC01ED01EE01EF018317B330D2
:100048008400D3300A168A155C270A128A118301A4
:100058000A168A11282C83160317A7002008831272
:100068000313BE00831603171F0883120313BD0072
:10007800831603171E0883120313BC008316031785
:100088001D0883120313BB000A168A11C0210A1225
:100098008A11831203133C0883160317A4008312E2
:1000A80003133B0883160317A300AE01AF01AC018D
:1000B800AD010130B0000030B100200883160313F1
:1000C800A300831603171F0883160313A2008316C1
:1000D80003171E0883160313A100831603171D08B0
:1000E80083160313A0000030A7000030A6000030DC
:1000F800A5000030A4000A168A1118230A128A11D2
:100108000318872888280629BF3083160313C600DA
:100118008030C5000030C4000030C30083160317C8
:10012800200883160313CA00831603171F088316B3
:100138000313C900831603171E0883160313C80088
:10014800831603171D0883160313C7000A128A159E
:1001580045240A128A1183160313460883160317C7
:10016800A000831603134508831603179F00831600
:1001780003134408831603179E00831603134308CA
:10018800831603179D002D3083160313EA00831688
:10019800031727088400831603136A08831780004F
:1001A800013083160317AC070318AD0A0030AD07FA
:1001B80006290A3083120313BB000030BC008316E3
:1001C8000317240883120313BE008316031723089A
:1001D80083120313BD000A168A1135210A128A11E7
:1001E800831203133C0883160317A4008312031316
:1001F8003B0883160317A3000130AE070318AF0AA4
:100208000030AF078316031723082404031D0D29A4
:100218000E29DD287A2A2E032F04031D14291529F7
:100228001A290130B0000030B1005C290230A50065
:100238000030A600462983160317310883160313D6
:10024800A80083160317300883160313A7000A3083
:10025800A9000030AA000A168A1101200A128A1180
:1002680083160313280883160317B1008316031394
:10027800270883160317B0000130A5070318A60A3C
:100288000030A6072F08803A83160313EA00831666
:1002980003172608803A831603136A02031D582998
:1002A8008316031725082E0203185B295C291F29CA
:1002B80083160317300883160313AD00831603173C
:1002C800310883160313AE000030AE1BFF30AF00B9
:1002D800B00001300A128A154B200A128A118316BF
:1002E80003133008E0002F08DF002E08DE002D0879
:1002F800DD0083160317200883160313E400831612
:1003080003171F0883160313E300831603171E0839
:1003180083160313E200831603171D0883160313BD
:10032800E1000A128A112D250A128A118316031375
:10033800600883160317AB00831603135F08831640
:100348000317AA00831603135E0883160317A90070
:10035800831603135D0883160317A8003108831654
:100368000313AA0083160317300883160313A90082
:10037800831603172B0883120313BE008316031773
:100388002A0883120313BD00831603172908831252
:100398000313BC0083160317280883120313BB003A
:1003A8000A168A11C0210A128A11831203133C0803
:1003B80083160313A800831203133B088316031341
:1003C800A7000A168A1101200A128A11831603133C
:1003D8002708AD002808AE000030AE1BFF30AF0084
:1003E800B00001300A128A154B200A128A118316AE
:1003F80003133008BE002F08BD002E08BC002D08CE
:10040800BB0083160317200883160313C200831644
:1004180003171F0883160313C100831603171E084A
:1004280083160313C000831603171D0883160313CE
:10043800BF000A168A15A5270A128A118316031304
:100448003E0883160317A000831603133D0883167E
:1004580003179F00831603133C08831603179E0097
:10046800831603133B08831603179D002B0883127A
:100478000313BE00831603172A0883120313BD0053
:1004880083160317290883120313BC008316031766
:10049800280883120313BB000A168A11C0210A1206
:1004A8008A11831203133B08303E83160313EA00B4
:1004B800831603172C08270783160313EB006B0812
:1004C80084006A0883178000013083160317AC077D
:1004D8000318AD0A0030AD07FF30AE070318AF0AA6
:1004E800FF30AF070130B0000030B1002E082F04F4
:1004F800031D7F2A802A0F292E3083160313EA0052
:10050800831603172C08270783160313EB006B08C1
:1005180084006A0883178000013083160317AC072C
:100528000318AD0A0030AD070130A5000030A60061
:10053800C42A83160317310883160313A8008316E9
:100548000317300883160313A7000A30A9000030E8
:10055800AA000A168A1101200A128A1183160313A7
:10056800280883160317B100831603132708831678
:100578000317B0000130A5070318A60A0030A60724
:100588002208803A83160313EA0083160317260805
:10059800803A831603136A02031DD62A83160317AB
:1005A800250821020318D92ADA2A9D2A8316031757
:1005B800300883160313AD0083160317310883161A
:1005C8000313AE000030AE1BFF30AF00B0000130A7
:1005D8000A128A154B200A128A118316031330084F
:1005E800C6002F08C5002E08C4002D08C3008316B6
:1005F8000317200883120313BE00831603171F086E
:1006080083120313BD00831603171E0883120313F6
:10061800BC00831603171D0883120313BB000A16B8
:100628008A11C0210A128A11831203133B08831608
:100638000313AD00831203133C0883160313AE00A3
:100648000030AE1BFF30AF00B00001300A128A152F
:100658004B200A128A11831603133008BE002F0894
:10066800BD002E08BC002D08BB0083160317200808
:1006780083160313C200831603171F088316031378
:10068800C100831603171E0883160313C0008316C0
:1006980003171D0883160313BF000A168A15A5271A
:1006A8000A128A11831603133E08CA003D08C900BE
:1006B8003C08C8003B08C7000A128A1545240A12DC
:1006C8008A1183160313460883160317AB00831693
:1006D8000313450883160317AA0083160313440857
:1006E80083160317A90083160313430883160317F9
:1006F800A8002B08A0002A089F0029089E002808A7
:100708009D00200883120313BE00831603171F08D9
:1007180083120313BD00831603171E0883120313E5
:10072800BC00831603171D0883120313BB000A16A7
:100738008A11C0210A128A11013083160317B000EA
:100748000030B1002208AF002108AE00162D2E039C
:100758002F04031DB02BB12BB62B0130B000003095
:10076800B100F82B0230A5000030A600E22B83165A
:100778000317310883160313A800831603173008DC
:1007880083160313A7000A30A9000030AA000A162E
:100798008A1101200A128A11831603132808831666
:1007A8000317B10083160313270883160317B00035
:1007B8000130A5070318A60A0030A6072F08803ABB
:1007C80083160313EA00831603172608803A831654
:1007D80003136A02031DF42B8316031725082E0240
:1007E8000318F72BF82BBB2B831603173008831637
:1007F8000313AD0083160317310883160313AE00E5
:100808000030AE1BFF30AF00B00001300A128A156D
:100818004B200A128A11831603133008E0002F08B0
:10082800DF002E08DE002D08DD00831603172008E0
:1008380083160313E400831603171F088316031394
:10084800E300831603171E0883160313E2008316BA
:1008580003171D0883160313E1000A128A112D25B8
:100868000A128A1183160313600883160317AB0054
:10087800831603135F0883160317AA00831603134E
:100888005E0883160317A900831603135D088316F1
:100898000317A800310883160313AA008316031749
:1008A800300883160313A900831603172B08831235
:1008B8000313BE00831603172A0883120313BD000F
:1008C80083160317290883120313BC008316031722
:1008D800280883120313BB000A168A11C0210A12C2
:1008E8008A11831203133C0883160313A80083128A
:1008F80003133B0883160313A7000A168A11012065
:100908000A128A11831603132708AD002808AE00BF
:100918000030AE1BFF30AF00B00001300A128A155C
:100928004B200A128A11831603133008BE002F08C1
:10093800BD002E08BC002D08BB0083160317200835
:1009480083160313C200831603171F0883160313A5
:10095800C100831603171E0883160313C0008316ED
:1009680003171D0883160313BF000A168A15A52747
:100978000A128A11831603133E0883160317A00070
:10098800831603133D08831603179F00831603136A
:100998003C08831603179E00831603133B0883162F
:1009A80003179D002B0883120313BE008316031739
:1009B8002A0883120313BD0083160317290883121C
:1009C8000313BC0083160317280883120313BB0004
:1009D8000A168A11C0210A128A11831203133B08CE
:1009E800303E83160313EA00831603172C082707E3
:1009F80083160313EB006B0884006A0883178000D2
:100A0800013083160317AC070318AD0A0030AD0791
:100A1800FF30AE070318AF0AFF30AF070130B00050
:100A28000030B1002E082F04031D1B2D1C2DAB2BED
:100A38000A3083160313EA00831603172C082707C6
:100A480083160313EB006B0884006A088317800081
:100A580008008316031364088039E50065088316C7
:100A680003179400831603136408E5006507E6007E
:100A78006608831603179B0083160313E31F452D8F
:100A8800462D492D831603171B14831603171B08BD
:100A980003194F2D502D632D1B0A031D542D552D61
:100AA8005F2D003083160313E4000030E3000030AC
:100AB800E2000030E1000313E317E4016D2D00307C
:100AC80083160313E4000030E3000030E200003036
:100AD800E10060088039E50065088316031794066D
:100AE800831603136008E5006507E60066088316A9
:100AF80003179C0083160313DF1F832D842D872D76
:100B0800831603171C14831603171C0803198D2D4D
:100B18008E2DA12D1C0A031D922D932D9D2D003085
:100B280083160313E0000030DF000030DE000030E1
:100B3800DD000313DF17E001AB2D0030831603132C
:100B4800E0000030DF000030DE000030DD0060082B
:100B58005F045E045D04031DB22DB32DD02D00305B
:100B6800E4000030E3000030E2000030E1008030B3
:100B7800E3047F30E4048316031714088316031371
:100B8800E5006508E4046408E0006308DF00620823
:100B9800DE006108DD00CC2F831603171B08031D38
:100BA800D62DD72DE22D003083160313E000003038
:100BB800DF000030DE000030DD00CC2F1B0883167C
:100BC8000313E500E6016608E800831603171C080E
:100BD800831603136502E700031CE80367087F3EDA
:100BE8008316031795008316031368080318013E3C
:100BF800003E8316031796008316031364088316B2
:100C080003179300831603136308831603179200D0
:100C180083160313620883160317910083160313C0
:100C28006108831603179000003083160313E4004D
:100C38000030E3000030E2000030E10000308316AD
:100C480003179A0000309900003098000030970090
:100C58009C01B42E1C080319322E332E622E01304B
:100C680083160313E500031083160317900D910DE7
:100C7800920D930D83160313E50B372E0130E50013
:100C88000310E10DE20DE30DE40DE50B442E831690
:100C980003179A1F502E512E542E831603136114D6
:100CA80001300313E500031083160317970D980D01
:100CB800990D9A0D83160313E50B572E031360083D
:100CC800831603171302031D7F2E831603135F0871
:100CD800831603171202031D7F2E831603135E0863
:100CE800831603171102031D7F2E831603135D0855
:100CF800831603171002031C822E832EAC2E1A179C
:100D0800831603135D0883160317900283160313D3
:100D18005E08031C5E0F912E942E83160317910212
:100D2800831603135F08031C5F0F9B2E9E2E8316EA
:100D380003179202831603136008031C600FA52E85
:100D4800A82E83160317930283160313831603171B
:100D5800013083160313E5006508831603179C0703
:100D68001A301C02031CB92EBA2E2E2E1308120498
:100D7800110410040319C12EC22EEC2E1714EC2EE8
:100D88000130E5000310E10DE20DE30DE40DE50B84
:100D9800C62E831603179A1FD22ED32ED62E83164D
:100DA8000313611401300313E500031083160317BE
:100DB800970D980D990D9A0D83160313E50BD92EEF
:100DC800FF308316031795070318960AFF30960716
:100DD80083160313E31FF12EF22EC42E8316031776
:100DE8009C019A1FF82EF92E252FFF301705831620
:100DF8000313E500FF308316031718058316031342
:100E0800E600FF3083160317190583160313E7005E
:100E18007F30831603171A0583160313E800680842
:100E280067046604650403191A2F1B2F202F8316E5
:100E380003179C019C0A252F611C232F242F252F83
:100E48001B2F831603171C0803192B2F2C2F612F18
:100E5800013083160313E107003003180130E2075D
:100E6800003003180130E307003003180130E407AD
:100E7800641C3F2F402F612F6108E5006208E600DF
:100E88006308E7006408E8000130E900680DE80C31
:100E9800E70CE60CE50CE90B4A2F6808E400670844
:100EA800E3006608E2006508E100013083160317D5
:100EB80095070318960A0030960783160317160835
:100EC800803AFF0080307F02031D6C2FFF3015022F
:100ED800031C6F2F702F802FFF3083160317950088
:100EE80000309600003083160313E4000030E3005E
:100EF8000030E2000030E100831603171608803A3C
:100F0800FF0080307F02031D8B2F0130150203186C
:100F18008E2F8F2FA02F831603179501960100306F
:100F280083160313E4000030E3000030E2000030D1
:100F3800E100831603179401831603171508831617
:100F48000313E5006508831603179B001B1CAD2FD0
:100F5800AE2FB22F83160313E317B82F7F308316F3
:100F68000313E5006508E305831603171B088316BA
:100F78000313E5000310650CE6006608E400831619
:100F88000317140883160313E5006508E404C72D46
:100F9800080083160313A1002103031DD42FD52FA6
:100FA800E52F831203133F087F3E83160313A00027
:100FB8002008A20022080A168A1589270A128A110F
:100FC800FA2F02302106031DEA2FEB2FFA2F831286
:100FD80003133F08BF3E83160313A0002008A20096
:0E0FE80022080A168A1589270A128A110800A3
:1010000000300A168A1556270A128A151A308316D6
:101010000313A100F730A000A00B0C28A10B0C2893
:10102000112830300A168A1589270A128A150730C6
:1010300083160313A1007C30A000A00B1D28A10B78
:101040001D28000030300A168A1589270A128A15D1
:101050000F3083160313A1004730A000A00B2E28E9
:10106000A10B2E2830300A168A1589270A128A15F4
:1010700038300A168A1589270A128A150C300A1682
:101080008A1589270A128A1506300A168A158927B1
:101090000A128A15080083160313B50035080319D0
:1010A000522853286728B01F5628572867282D092B
:1010B000B7002E09B8002F09B9003009BA00B70AE5
:1010C0000319B80A0319B90A0319BA0A6F283008B4
:1010D000BA002F08B9002E08B8002D08B700300854
:1010E0002F042E042D04031D762877288028003035
:1010F000B0000030AF000030AE000030AD00062977
:101100009630B1003108B60092280130B1003108A4
:10111000B60701300310BA0CB90CB80CB70CFF3E7F
:10112000031D8A28FE303A05031D97289828852834
:10113000B4280130B1003108B6070130B7070030DC
:1011400003180130B807003003180130B907003028
:1011500003180130BA0701300310BA0CB90CB80CEF
:10116000B70CFF3E031DAC28FF303A05031DB9281C
:10117000BA289928C6280130B6020130B100031000
:10118000B70DB80DB90DBA0DB10BBF28B91BC928E1
:10119000CA28D028023036020318CF28D028BB280E
:1011A0003618D328D428DC28FF30B705FF30B8051F
:1011B0007F30B905FF30BA050310B60C3608B10010
:1011C000B201B301B40118300310B10DB20DB30D6B
:1011D000B40DFF3E031DE4283108B7043208B804FB
:1011E0003308B9043408BA0435080319F828F92873
:1011F000FE28B01FFC28FD28FE28BA173A08B000C8
:101200003908AF003808AE003708AD000800831673
:10121000031323088039A800280883120313BB0096
:10122000831603132308A8002807A900290883129E
:101230000313BD0083160313A21F1F29202923298E
:10124000831203133D1483123D0803192829292909
:101250003D293D0A031D2D292E29382900308316EA
:101260000313A3000030A2000030A1000030A00052
:1012700083160313A217A301472900308316031313
:10128000A3000030A2000030A1000030A000270819
:101290008039A800280883120313BC003C083B06D1
:1012A00003195329542955293B178316031327087B
:1012B000A8002807A900290883120313BC0083167D
:1012C0000313A61F642965296829831203133C149C
:1012D00083123C0803196D296E2982293C0A031DDB
:1012E000722973297D29003083160313A70000306B
:1012F000A6000030A5000030A40083160313A61733
:10130000A7018C29003083160313A7000030A60024
:101310000030A5000030A400831203133D083C02F6
:101320000318932994290A2A3B1F97299829A02951
:10133000803083160313A800280883120313BB060A
:101340003D0883160313A800280883120313BE0068
:101350003C0883160313A800280883120313BD005A
:101360003E0883160313A800280883120313BC0049
:10137000831603132008A800280883120313BE0055
:10138000831603132408A8002808A000831203135F
:101390003E0883160313A8002808A4002108A8000B
:1013A000280883120313BE00831603132508A80020
:1013B0002808A100831203133E0883160313A80014
:1013C0002808A5002208A800280883120313BE00DD
:1013D000831603132608A8002808A200831203130B
:1013E0003E0883160313A8002808A6002308A800B7
:1013F000280883120313BE00831603132708A800CE
:101400002808A300831203133E0883160313A800C1
:101410002808A7008312BE013C0883160313A80006
:10142000A9012908AB00831203133D088316031397
:101430002802AA00031CAB032B08803AFF0080306F
:101440007F02031D252A1A302A02031C282A292A72
:101450007C2A831603132308220421042004031D7D
:10146000322A342A0130352A0030A8002808831295
:101470000313BE00003083160313A3000030A20044
:101480000030A1000030A000831203133C08831633
:101490000313A800280883120313BD00842A3E1CEE
:1014A000522A532A602A3E0883160313A800031009
:1014B000280C0138A900290883120313BE00622AF0
:1014C0000310BE0C83160313201C672A682A6B2A9C
:1014D00083120313BE17013083160313A800230DD4
:1014E000A30CA20CA10CA00CA80B6F2A0130A80021
:1014F000280883120313BD07831203133C083D021F
:10150000031C832A842A4F2A3B1B872A882AE52A20
:101510003D08031D8C2A8D2A982A00308316031358
:10152000A3000030A2000030A1000030A000442C35
:10153000831603132408A007250803110318013E8E
:101540000319A32AA107260803110318013E031952
:10155000AA2AA207270803110318013E0319B12A7A
:10156000A307231CB42AB52AAC2B831203133E1CF9
:10157000BA2ABB2AC82A3E0883160313A800031000
:10158000280C0138A900290883120313BE00CA2AB7
:101590000310BE0C83160313201CCF2AD02AD32A93
:1015A00083120313BE17013083160313A800230D03
:1015B000A30CA20CA10CA00CA80BD72A0130A800E8
:1015C000280883120313BD07AC2B831603132308CB
:1015D000803AFF002708803A7F02031DF92A260877
:1015E0002202031DF92A25082102031DF92A2408D5
:1015F00020020318FC2AFD2A592BFF30A800FF30D7
:10160000A900FF30AA00FF30AB002408AC00250879
:10161000AD002608AE002708AF002008AC02210864
:10162000031C210F142B152BAD022208031C220FC3
:101630001A2B1B2BAE022308031C230F202B212B5C
:10164000AF022C08A8072D0803182D0F282B292BD3
:10165000A9072E0803182E0F2E2B2F2BAA072F08B1
:1016600003182F0AAB072B08A3002A08A200290899
:10167000A1002808A0008030A800280883120313C6
:10168000BB06BE09BE0A3E08031D472B482B672B2D
:10169000013083160313A007003003180130A1079F
:1016A000003003180130A207003003180130A307EF
:1016B000672B2408A0022508031C250FA102260879
:1016C000031C260FA2022708031C270FA302831660
:1016D00003132308220421042004031D702B712B03
:1016E000A62B831203133E08031D772B782BA62B02
:1016F000003083160313A3000030A2000030A100C5
:101700000030A000442C0130A8000310A00DA10D52
:10171000A20DA30DA80B852B83120313BE1F912BC3
:10172000922B952B83160313201483123E1C992BA6
:101730009A2B9D2B0314BE0D9F2B0310BE0D3D084D
:101740000319A32BA42BA62B0130BD028316031370
:10175000A21FAB2BAC2B832B8312BC01BE1FB12B62
:10176000B22BC32B3E087F390319B72BB82BBC2BE8
:101770008312BC01BC0AC32B83160313201CC12B8C
:10178000C22BC32BB82B83123C080319C82BC92BBF
:10179000052C013083160313A00700300318013015
:1017A000A107003003180130A207003003180130F0
:1017B000A307231CDC2BDD2B052C2008A800210807
:1017C000A9002208AA002308AB000130AC002B0DB1
:1017D000AB0CAA0CA90CA80CAC0BE72B2B08A30094
:1017E0002A08A2002908A1002808A00083120313D8
:1017F0003D0A0319FC2BFD2B052C01308316031326
:10180000A800280883120313BD0783123D0A031999
:101810000A2C0B2C102C3D08031D0F2C102C222CF5
:10182000003083160313A3000030A2000030A10093
:101830000030A000831203133D08031D202C212C2F
:10184000222CBB013D1C252C262C2A2C831603138D
:10185000A217302C7F3083160313A8002808A20596
:10186000831203133D0883160313A8000310280CEA
:10187000A9002908A30083120313BB1F402C412C8D
:10188000442C83160313A31708008316031346087A
:101890008039CB004B08D0004608CB004B07CC006A
:1018A0004C08D600C51F552C562C572C56145608DC
:1018B00003195B2C5C2C6B2C560A031D602C612CCD
:1018C000692C0030C6000030C5000030C400003074
:1018D000C300C517732C0030C6000030C5000030AF
:1018E000C4000030C3004A088039CB004B08D00642
:1018F0004A08CB004B07CC004C08D100C91F812CF3
:10190000822C832C511451080319872C882C972C76
:10191000510A031D8C2C8D2C952C0030CA000030F0
:10192000C9000030C8000030C700C9179F2C003024
:10193000CA000030C9000030C8000030C70051089C
:101940000319A32CA42CA92C5608031DA82CA92CE0
:10195000B22C0030C6000030C5000030C40000309A
:10196000C300FF2F4308CB004B0883120313BB00B7
:101970008316031349080A168A15C9270A128A15FD
:10198000831203133C0883160313DC008312031332
:101990003B0883160313DB005B08CB00CC01CD01B1
:1019A000CE014E08D5004D08D4004C08D3004B089A
:1019B000D2005C08CB00CC01CD01CE014E08DA008C
:1019C0004D08D9004C08D8004B08D7004408CB007C
:1019D0004B0883120313BB008316031348080A162F
:1019E0008A15C9270A128A15831203133C08831625
:1019F0000313DC00831203133B0883160313DB007D
:101A00005B08CB00CC01CD01CE014B08D2074C08BE
:101A100003110318013E03190E2DD3074D080311BE
:101A20000318013E0319152DD4074E08031103189E
:101A3000013E03191C2DD5075C08CB00CC01CD015C
:101A4000CE014B08D7074C0803110318013E0319B8
:101A50002A2DD8074D0803110318013E0319312D13
:101A6000D9074E0803110318013E0319382DDA0770
:101A70004508CB004B0883120313BB0083160313E6
:101A800047080A168A15C9270A128A1583120313F2
:101A90003C0883160313DC00831203133B088316F0
:101AA0000313DB005B08CB00CC01CD01CE014B085A
:101AB000D2074C0803110318013E0319602DD30708
:101AC0004D0803110318013E0319672DD4074E0872
:101AD00003110318013E03196E2DD5075C08CB00D6
:101AE000CC01CD01CE014B08D7074C0803110318D8
:101AF000013E03197C2DD8074D0803110318013E40
:101B00000319832DD9074E0803110318013E031949
:101B10008A2DDA070830CB000310D20DD30DD40D77
:101B2000D50DCB0B8C2D4408CB004B08831203132F
:101B3000BB008316031347080A168A15C9270A1221
:101B40008A15831203133C0883160313DC008312E7
:101B500003133B0883160313DB005B08CB005C0810
:101B6000CC00CD01CE014B08D2074C08031103185D
:101B7000013E0319BC2DD3074D0803110318013E84
:101B80000319C32DD4074E0803110318013E03198E
:101B9000CA2DD5074308CB004B0883120313BB00A3
:101BA0008316031348080A168A15C9270A128A15CC
:101BB000831203133C0883160313DC008312031300
:101BC0003B0883160313DB005B08CB005C08CC00EA
:101BD000CD01CE014B08D2074C0803110318013E7A
:101BE0000319F32DD3074D0803110318013E031900
:101BF000FA2DD4074E0803110318013E0319012ED4
:101C0000D5070830CB000310D20DD30DD40DD50D60
:101C1000CB0B032E4308CB004B0883120313BB00EE
:101C20008316031347080A168A15C9270A128A154C
:101C3000831203133C0883160313DC00831203137F
:101C40003B0883160313DB005B08CB005C08CC0069
:101C5000CD01CE014B08D2074C0803110318013EF9
:101C60000319332ED3074D0803110318013E03193E
:101C70003A2ED4074E0803110318013E0319412ED2
:101C8000D5074408CB004B0883120313BB0083160F
:101C9000031349080A168A15C9270A128A158312DE
:101CA00003133C0883160313DC00831203133B0861
:101CB00083160313DB005B08CB005C08CC00CD016E
:101CC000CE014B08D7074C0803110318013E031936
:101CD0006A2ED8074D0803110318013E0319712E0F
:101CE000D9074E0803110318013E0319782EDA07AD
:101CF0004508CB004B0883120313BB008316031364
:101D000048080A168A15C9270A128A15831203136E
:101D10003C0883160313DC00831203133B0883166D
:101D20000313DB005B08CB005C08CC00CD01CE01C7
:101D30004B08D7074C0803110318013E0319A12EC5
:101D4000D8074D0803110318013E0319A82ED9071F
:101D50004E0803110318013E0319AF2EDA07450898
:101D6000CB004B0883120313BB00831603134908EF
:101D70000A168A15C9270A128A15831203133C080A
:101D800083160313DC00831203133B08831603132B
:101D9000DB005B08CB005C08CC00CD01CE01083035
:101DA0000310CB0DCC0DCD0DCE0DFF3E031DD02E5F
:101DB0004B08D7074C0803110318013E0319E12E05
:101DC000D8074D0803110318013E0319E82ED9075F
:101DD0004E0803110318013E0319EF2EDA075208CB
:101DE000CB005308CC005408CD005508CE00183065
:101DF0000310CE0CCD0CCC0CCB0CFF3E031DF82EEB
:101E00004B08D7074C0803110318013E0319092F8B
:101E1000D8074D0803110318013E0319102FD907E5
:101E20004E0803110318013E0319172FDA07083073
:101E3000CB000310D20DD30DD40DD50DCB0B192F24
:101E400056085107CB00CC01CC0D4B08823EDB007D
:101E50004C080318013EFF3EDC004B2F0130CB0045
:101E60000310D70DD80DD90DDA0DCB0B302FD51FA0
:101E70003A2F3B2F3C2F57140130CB000310D20DCB
:101E8000D30DD40DD50DCB0B3E2FFF30DB07031840
:101E9000DC0AFF30DC07D91F4E2F4F2F2E2FD10128
:101EA000D51F532F542F702FFF305205CB00FF301A
:101EB0005305CC00FF305405CD007F305505CE00D2
:101EC0004E084D044C044B040319672F682F6B2FE9
:101ED000D101D10A702F571C6E2F6F2F702F682FD2
:101EE00051080319742F752FA62F0130D707003022
:101EF00003180130D807003003180130D90700302B
:101F000003180130DA075A1C862F872FA62F57088F
:101F1000CB005808CC005908CD005A08CE0001303B
:101F2000CF004E0DCE0CCD0CCC0CCB0CCF0B912F8B
:101F30004E08DA004D08D9004C08D8004B08D700ED
:101F40000130DB070318DC0A0030DC075C08803A4C
:101F5000FF0080307F02031DAF2FFF305B02031CA8
:101F6000B22FB32FBE2F7F3083160313DA008030D9
:101F7000D9000030D8000030D700F32F83160313A8
:101F80005C08803AFF0080307F02031DC92F0130BA
:101F90005B020318CC2FCD2FD92F003083160313EB
:101FA000DA000030D9000030D8000030D700D0016E
:101FB000F32F831603135B08CB004B08D600FF30CA
:101FC000D705FF30D8057F30D9050030DA05561C1B
:101FD000EA2FEB2FEC2FD9175608CB0003104B0C30
:101FE000CC004C08DA005008CB004B08DA045A0841
:101FF000C6005908C5005808C4005708C3000800A7
:1020020083160313AB01AC01271C082809280F28EB
:102012002908AB070318AC0A2A08AC0701300310E1
:10202200A90DAA0DFF3E031D102801300310A80CB4
:10203200A70CFF3E031D172827082804031D22288A
:10204200232805282C08A8002B08A7000800033025
:102052008316031788008901033083160313850052
:102062008601870188018312031385018601870196
:102072008801831603130F178F160F160F148B1771
:102082000B170C17831203130C13831603139F17DA
:102092001F129F12831203139F17C3309F058430B0
:1020A20083120313BB00BB0B5428000083120313DB
:1020B2001F14843083120313BB00BB0B5E28000085
:1020C200080083160313A301A4019B28831603139C
:1020D2002308831203133E0783160313A1008312FE
:1020E20003133F0883160313A0000318A00AA31FBB
:1020F2007B28A003831603132008A2002208831260
:102102000313FF00831603132108840083120313B1
:102112000A168A1500200A168A110A168A157127CC
:102122000A168A11013083160313A3070318A40A9F
:102132000030A4072308831203133E0783160313F8
:10214200A100831203133F0883160313A000031890
:10215200A00AA31FAD28A003831603132008A20020
:10216200220883120313FF0083160313210884003D
:10217200831203130A168A1500200A168A11003ADE
:10218200031DC428C528672808000C1FC928CA28AF
:102192002C291F0CB400340C0F39003A031DD2282D
:1021A200D32829291E08B400B501B601B7013708A2
:1021B200F3003608F2003508F1003408F000003070
:1021C2000A168A115E220A168A11730883120313F1
:1021D200D1007208D0007108CF007008CE005108FB
:1021E200A3005008A2004F08A1004E08A0008316C9
:1021F20003131E0883120313B400B501B601B7011D
:102202003708F3003608F2003508F1003408F00010
:1022120001300A168A115E220A168A117308831285
:102222000313A7007208A6007108A5007008A40095
:102232000A168A1178250A168A11831203132308B3
:10224200D1002208D0002108CF002008CE002B297F
:102252001E0888000C133A08FF0039088A00380E5D
:102262008300FE0E7E0E090083160313A101831262
:102272000313BC1F3D293E294729BB09BC09BB0AE0
:102282000319BC0A83160313A101A10A8312BE1FFC
:102292004B294C295729BD09BE09BD0A0319BE0A9B
:1022A2000130BF003F0883160313A10683160313F0
:1022B200A201A301831203133B083C040319622900
:1022C2006329A92983160313A001A00A75290130E5
:1022D2000310BB0DBC0DFF3E031D69290130BF0079
:1022E2003F0883160313A00783120313BC1F7A2926
:1022F2007B2968290130831603130310A20DA30D55
:10230200FF3E031D7E29831203133C083E02031D78
:102312008C293B083D02031C8F29902999293B08EF
:10232200BD023C08031CBE03BE0283160313221423
:10233200013083120310BC0CBB0CFF3E031D9B2912
:10234200013083160313A002031DA829A9297B29A2
:102352008316031321080319AF29B029B529A2094D
:10236200A309A20A0319A30A230883120313BC00B8
:1023720083160313220883120313BB000800031001
:10238200831203133D0D3E0D83160313A000200894
:10239200A6002608031DCE29CF29DA290030831290
:1023A2000313BE000030BD000030BC000030BB0093
:1023B2005D2A831203133B0883160313A0008312C2
:1023C20003133C0883160313A100831203133D0871
:1023D20083160313A200831203133E08831603130A
:1023E200A3001F300310A30CA20CA10CA00CFF3EF3
:1023F200031DF3292008A4002408A5008312031357
:10240200BD17FF30BB05FF30BC05FF30BD050030F6
:10241200BE05963083160313A602A61F112A122A9E
:10242200302A2608803A973E0318182A192A1A2AAF
:10243200CF290130031083120313BE0CBD0CBC0C58
:10244200BB0CFF3E031D1B2A013083160313A000A1
:102452002008A607031D2E2A2F2A1A2A4B2A2030CB
:102462002602031C352A362A462ACF290130A0002B
:10247200031083120313BB0DBC0DBD0DBE0D8316DD
:102482000313A00B392A0130A6022608031D4A2A8B
:102492004B2A372A250803194F2A502A5D2A83120C
:1024A2000313BB09BC09BD09BE09BB0A0319BC0A57
:1024B2000319BD0A0319BE0A0800F80078080319B7
:1024C200632A642A782AF31F672A682A782A7009FD
:1024D200FA007109FB007209FC007309FD00FA0A97
:1024E2000319FB0A0319FC0A0319FD0A802A73085F
:1024F200FD007208FC007108FB007008FA00730806
:10250200720471047004031D872A882A912A0030FC
:10251200F3000030F2000030F1000030F000172B21
:102522009630F4007408F900A32A0130F40074080C
:10253200F90701300310FD0CFC0CFB0CFA0CFF3EFA
:10254200031D9B2AFE307D05031DA82AA92A962A6F
:10255200C52A0130F4007408F9070130FA07003087
:1025620003180130FB07003003180130FC0700306C
:1025720003180130FD0701300310FD0CFC0CFB0CAD
:10258200FA0CFF3E031DBD2AFF307D05031DCA2A3A
:10259200CB2AAA2AD72A0130F9020130F40003100B
:1025A200FA0DFB0DFC0DFD0DF40BD02AFC1BDA2AF3
:1025B200DB2AE12A023079020318E02AE12ACC2A36
:1025C2007918E42AE52AED2AFF30FA05FF30FB05E7
:1025D2007F30FC05FF30FD050310F90C7908F4008B
:1025E200F501F601F70118300310F40DF50DF60DA3
:1025F200F70DFF3E031DF52A7408FA047508FB0463
:102602007608FC047708FD0478080319092B0A2BC5
:102612000F2BF31F0D2B0E2B0F2BFD177D08F30035
:102622007C08F2007B08F1007A08F0000800003014
:1026320083160313200583120313BB000030831695
:102642000313210583120313BC0080308316031386
:10265200220583120313BD007F3083160313230563
:1026620083120313BE003E083D043C043B04031DD9
:102672003B2B3C2B462B003083160313A300003068
:10268200A2000030A1000030A00000308316031326
:10269200240583120313BB000030831603132505A0
:1026A20083120313BC0080308316031326058312A2
:1026B2000313BD007F308316031327058312031310
:1026C200BE003E083D043C043B04031D692B6A2BFB
:1026D200742B003083160313A7000030A6000030CD
:1026E200A5000030A40083160313A31F792B7A2BB5
:1026F200C22B003083120313BB000030BC00003039
:10270200BD008030BE00831603132008831203131A
:10271200BB02831603132108031C210F912B942B58
:1027220083120313BC02831603132208031C220F15
:102732009B2B9E2B83120313BD02831603132308C4
:10274200031C230FA52BA82B83120313BE0283168F
:102752000313831203133E0883160313A300831289
:1027620003133D0883160313A200831203133C08CC
:1027720083160313A100831203133B08831603136A
:10278200A000A71FC52BC62B0E2C003083120313EB
:10279200BB000030BC000030BD008030BE0083169C
:1027A2000313240883120313BB02831603132508A1
:1027B200031C250FDD2BE02B83120313BC028316AF
:1027C20003132608031C260FE72BEA2B831203139D
:1027D200BD02831603132708031C270FF12BF42BCA
:1027E20083120313BE0283160313831203133E08DC
:1027F20083160313A700831203133D0883160313E2
:10280200A600831203133C0883160313A500831248
:1028120003133B0883160313A4008030A306803001
:10282200A70627082302031D202C26082202031DC7
:10283200202C25082102031D202C24082002031825
:10284200232C242C262C0310272C031408000A16F0
:102852008A1128200A168A110A128A1500200A16DD
:102862008A110A168A1564270A168A11831203131B
:102872009F1483120313BF01BF0A01300A128A1187
:10288200CD270A168A11013083120313BE0080304D
:10289200BF000A168A1162200A168A1108308316AE
:1028A2000317B200320883120313BF0001300A1269
:1028B2008A11CD270A168A11063083120313BE002D
:1028C2008030BF000A168A1162200A168A110E3061
:1028D20083160317B200320883120313BF000130BC
:1028E2000A128A11CD270A168A110A30831203139B
:1028F200BE008030BF000A168A1162200A168A11B1
:10290200443083160313E0007F30DF00C030DE0066
:102912000030DD004030C600A030C5000030C400E9
:102922000030C30083120313510883160313CA0035
:1029320083120313500883160313C900831203136F
:102942004F0883160313C800831203134E0883161D
:102952000313C7000A128A1545240A168A11831620
:1029620003134608E4004508E3004408E200430874
:10297200E1000A128A112D250A168A118316031301
:102982006008EF005F08EE005E08ED005D08EC00F5
:102992004230C600C830C5000030C4000030C30059
:1029A2006F08CA006E08C9006D08C8006C08C7002D
:1029B2000A128A1545240A168A1183160313460839
:1029C20083160317C80083160313450883160317DB
:1029D200C70083160313440883160317C600831621
:1029E2000313430883160317C500831203139F18AA
:1029F200FB2CFC2C1C2D1F0C83160317B200320C6F
:102A02000F39003A031D062D072D0E2D83120313D5
:102A12001F08C33904389F00122DC33083120313D9
:102A22009F05843083160317B200B20B162D0000E7
:102A3200831203139F14BF01BF0A02300A128A11C4
:102A4200CD270A168A11C93083120313BE00013042
:102A5200BF000A168A1162200A168A1106308316EE
:102A62000317B200320883120313BF0002300A12A6
:102A72008A11CD270A168A110E3083120313BE0063
:102A82008030BF000A168A1162200A168A110030AD
:102A920083160317C4000030C3000030C2000030A8
:102AA200C1000030C0000030BF000030BE00003066
:102AB200BD004808C4004708C3004608C2004508D4
:102AC200C1004408A00043089F0042089E0041083C
:102AD2009D000230A1000030A200C9300A128A1102
:102AE2002F200A168A113A2C0A128A1110288312F0
:102AF200031323088039A8002808B0002308A8007F
:102B02002807A9002908B200A21F882D892D8A2D25
:102B12003214320803198E2D8F2D9F2D320A031D78
:102B2200932D942D9C2D0030A3000030A200003084
:102B3200A1000030A000A217A301A72D0030A3001E
:102B42000030A2000030A1000030A0002708803928
:102B5200A8002808B100310830060319B12DB22DA2
:102B6200B32D30172708A8002807A9002908B100AB
:102B7200A61FBC2DBD2DBE2D311431080319C22D47
:102B8200C32DD32D310A031DC72DC82DD02D0030E2
:102B9200A7000030A6000030A5000030A400A61750
:102BA200A701DB2D0030A7000030A6000030A500F1
:102BB2000030A400320831020318E02DE12D252E49
:102BC200301FE42DE52DE92D8030A8002808B0063D
:102BD2003208A8002808B3003108A8002808B2006B
:102BE2003308A8002808B1002008A8002808B3006C
:102BF2002408A8002808A0003308A8002808A40078
:102C02002108A8002808B3002508A8002808A10068
:102C12003308A8002808A5002208A8002808B30045
:102C22002608A8002808A2003308A8002808A60041
:102C32002308A8002808B3002708A8002808A30032
:102C42003308A8002808A700B3013108A800A90189
:102C52002908AB0032082802AA00031CAB032B0888
:102C6200803AFF0080307F02031D392E1A302A027B
:102C7200031C3C2E3D2E7A2E8312031323082204BA
:102C820021042004031D462E482E0130492E003017
:102C9200A8002808B3000030A3000030A2000030D2
:102CA200A1000030A0003108A8002808B200822E3E
:102CB200331C5C2E5D2E662E3308A8000310280CF0
:102CC2000138A9002908B300682E0310B30C201C98
:102CD2006B2E6C2E6D2EB3170130A800230DA30CA2
:102CE200A20CA10CA00CA80B6F2E0130A800280882
:102CF200B2078312031331083202031C812E822E83
:102D0200592E301B852E862ED12E3208031D8A2E77
:102D12008B2E942E0030A3000030A2000030A100C0
:102D22000030A000FF2F2408A00725080311031874
:102D3200013E03199D2EA107260803110318013E27
:102D42000319A42EA207270803110318013E031931
:102D5200AB2EA307231CAE2EAF2E852F331CB22E13
:102D6200B32EBC2E3308A8000310280C0138A9008A
:102D72002908B300BE2E0310B30C201CC12EC22E94
:102D8200C32EB3170130A800230DA30CA20CA10C73
:102D9200A00CA80BC52E0130A8002808B207852F69
:102DA2002308803AFF002708803A7F02031DE32EA2
:102DB20026082202031DE32E25082102031DE32E0D
:102DC200240820020318E62EE72E3F2FFF30A8002A
:102DD200FF30A900FF30AA00FF30AB002408AC008E
:102DE2002508AD002608AE002708AF002008AC0277
:102DF2002108031C210FFE2EFF2EAD022208031C08
:102E0200220F042F052FAE022308031C230F0A2FC3
:102E12000B2FAF022C08A8072D0803182D0F122F15
:102E2200132FA9072E0803182E0F182F192FAA07E0
:102E32002F0803182F0AAB072B08A3002A08A200A9
:102E42002908A1002808A0008030A8002808B006A0
:102E5200B309B30A3308031D2F2F302F4D2F013032
:102E6200A007003003180130A10700300318013019
:102E7200A207003003180130A3074D2F2408A00237
:102E82002508031C250FA1022608031C260FA202F7
:102E92002708031C270FA30223082204210420046D
:102EA200031D542F552F812F3308031D592F5A2FDD
:102EB200812F0030A3000030A2000030A1000030BA
:102EC200A000FF2F0130A8000310A00DA10DA20D3C
:102ED200A30DA80B652FB31F6F2F702F712F201416
:102EE200331C742F752F782F0314B30D7A2F031010
:102EF200B30D320803197E2F7F2F812F0130B202CA
:102F0200A21F842F852F632FB101B31F892F8A2F10
:102F1200982F33087F3903198F2F902F932FB101E8
:102F2200B10A982F201C962F972F982F902F310897
:102F320003199C2F9D2FD12F0130A00700300318B9
:102F42000130A107003003180130A2070030031836
:102F52000130A307231CAE2FAF2FD12F2008A800CA
:102F62002108A9002208AA002308AB000130AC0006
:102F72002B0DAB0CAA0CA90CA80CAC0BB92F2B086F
:102F8200A3002A08A2002908A1002808A000320AEA
:102F92000319CC2FCD2FD12F0130A8002808B2075A
:102FA200320A0319D52FD62FDB2F3208031DDA2F51
:102FB200DB2FE92F0030A3000030A2000030A10077
:102FC2000030A0003208031DE72FE82FE92FB001DF
:102FD200321CEC2FED2FEF2FA217F32F7F30A8001A
:102FE2002808A2053208A8000310280CA900290805
:102FF200A300B01FFD2FFE2FFF2FA3170800FF1BFA
:103002000A2883137F1883170008840A0319FF0A0A
:10301200080018308A000408840A820700345434F5
:1030220065346D3470340034533432343A340034FD
:0C303200533433343A3400344334003457
:103EAC0083120313BB003B088600080064008001EA
:103EBC00840A04060319003404065D2F00300A1628
:103ECC008A1589270A168A1501300A168A15892738
:103EDC000A168A15080083120313BD0007143D0847
:103EEC000A168A1556270A168A1583120313871485
:103EFC00023083120313BC00BC0B822F0000831210
:103F0C0003138710080083120313BE0007103E082A
:103F1C000A168A1556270A168A1583120313871454
:103F2C00063083120313BD002F30BC00BC0B9C2F3A
:103F3C00BD0B9C2FA12F8312031387100800803018
:103F4C0083160313BE064208A3004108A2004008D2
:103F5C00A1003F08A0003E08A7003D08A6003C08B1
:103F6C00A5003B08A4000A128A1507210A168A1517
:103F7C00831603132308BE002208BD002108BC00D1
:103F8C002008BB00080083160313A400A001A101A4
:103F9C00831203133B08BD00BE013D0883160313B7
:103FAC00A200831203133E0883160313A300241CE0
:103FBC00E02FE12FE72F2208A0070318A10A2308FE
:103FCC00A10701300310A20DA30DFF3E031DE82F26
:103FDC000310A40C2408031DF42FF52FDD2F21084A
:103FEC0083120313BC0083160313200883120313DC
:043FFC00BB000800FE
:04400E00D420FF3F7C
:00000001FF
