:020000040000FA
:060000000A128A1110280B
:10000800FE00030EF2000A08F300831203137F08B0
:10001800F4000A168A11772C0A128A111328F5019E
:10002800F601F701F8018313A0308400D5300A16D1
:100038008A11D3220A128A1183010A128A11832D86
:10004800831203135C088039E100610883160313E7
:10005800D500831203135C08E1006107E20062081F
:1000680083160313DB0083120313DB1F3C283D2890
:100078004028831603135B14831603135B080319C4
:100088004628472859285B0A031D4B284C28562820
:10009800003083120313DC000030DB000030DA008C
:1000A8000030D9008312DB17632800308312031352
:1000B800DC000030DB000030DA000030D9006008D6
:1000C8008039E100610883160313D50683120313F0
:1000D8006008E1006107E200620883160313D60096
:1000E80083120313DF1F79287A287D2883160313C8
:1000F8005614831603135608031983288428962850
:10010800560A031D88288928932800308312031370
:10011800E0000030DF000030DE000030DD00831238
:10012800DF17A028003083120313E0000030DF003F
:100138000030DE000030DD00831603135608031973
:10014800A628A728AC285B08031DAB28AC28B7282D
:10015800003083120313DC000030DB000030DA00CB
:100168000030D900822D831203135908E100610879
:10017800A0005F080A168A1175230A128A118312D1
:100188000313210883160313E100831203132008C5
:1001980083160313E000600883120313E100E201F1
:1001A800E301E401640883160313DA0083120313DE
:1001B800630883160313D900831203136208831696
:1001C8000313D80083120313610883160313D7009F
:1001D800610883120313E100E201E301E40164080A
:1001E80083160313DF0083120313630883160313B4
:1001F800DE0083120313620883160313DD008312E3
:100208000313610883160313DC00831203135A08CF
:10021800E1006108A0005E080A168A1175230A1217
:100228008A1183120313210883160313E100831232
:100238000313200883160313E000600883120313D6
:10024800E100E201E301E401610883160313D70723
:1002580083120313620803110318013E0319372997
:1002680083160313D80783120313630803110318B3
:10027800013E0319422983160313D9078312031376
:10028800640803110318013E03194D29831603134B
:10029800DA07831203138316031361088312031307
:1002A800E100E201E301E401610883160313DC07BE
:1002B80083120313620803110318013E0319672907
:1002C80083160313DD07831203136308031103184E
:1002D800013E0319722983160313DE0783120313E1
:1002E800640803110318013E03197D2983160313BB
:1002F800DF078312031383160313831203135B08A8
:10030800E1006108A0005D080A168A1175230A1227
:100318008A1183120313210883160313E100831241
:100328000313200883160313E000600883120313E5
:10033800E100E201E301E401610883160313D70732
:1003480083120313620803110318013E0319AF292E
:1003580083160313D80783120313630803110318C2
:10036800013E0319BA2983160313D907831203130D
:10037800640803110318013E0319C52983160313E2
:10038800DA07831203138316031361088312031316
:10039800E100E201E301E401610883160313DC07CD
:1003A80083120313620803110318013E0319DF299E
:1003B80083160313DD07831203136308031103185D
:1003C800013E0319EA2983160313DE078312031378
:1003D800640803110318013E0319F5298316031352
:1003E800DF078312031383160313083083120313E2
:1003F800E100031083160313D70DD80DD90DDA0DBC
:1004080083120313E10BFD295A08E1006108A000DB
:100418005D080A168A1175230A128A1183120313BA
:10042800210883160313E10083120313200883169F
:100438000313E000600883120313E100831603131B
:10044800610883120313E200E301E40161088316E3
:100458000313D70783120313620803110318013E1D
:100468000319392A83160313D80783120313630861
:1004780003110318013E0319442A83160313D907ED
:1004880083120313640803110318013E03194F2A4A
:1004980083160313DA0783120313831603138312D5
:1004A80003135908E1006108A0005E080A168A11C2
:1004B80075230A128A118312031321088316031362
:1004C800E10083120313200883160313E000600879
:1004D80083120313E10083160313610883120313C5
:1004E800E200E301E401610883160313D7078312CE
:1004F8000313620803110318013E0319862A8316A1
:100508000313D80783120313630803110318013E6A
:100518000319912A83160313D90783120313640856
:1005280003110318013E03199C2A83160313DA07E3
:100538008312031383160313083083120313E10095
:10054800031083160313D70DD80DD90DDA0D8312B6
:100558000313E10BA42A5908E1006108A0005D0813
:100568000A168A1175230A128A11831203132108A5
:1005780083160313E1008312031320088316031361
:10058800E000600883120313E10083160313610877
:1005980083120313E200E301E401610883160313E5
:1005A800D70783120313620803110318013E0319C6
:1005B800E02A83160313D807831203136308031171
:1005C8000318013E0319EB2A83160313D907831274
:1005D8000313640803110318013E0319F62A83164E
:1005E8000313DA0783120313831603138312031307
:1005F8005A08E1006108A0005F080A168A117523ED
:100608000A128A1183120313210883160313E100C7
:1006180083120313200883160313E0006008831273
:100628000313E10083160313610883120313E20026
:10063800E301E401610883160313DC078312031343
:10064800620803110318013E03192D2B83160313A7
:10065800DD0783120313630803110318013E03190E
:10066800382B83160313DE07831203136408031160
:100678000318013E0319432B83160313DF07831264
:10068800031383160313831203135B08E100610845
:10069800A0005E080A168A1175230A128A118312AD
:1006A8000313210883160313E100831203132008A0
:1006B80083160313E000600883120313E100831616
:1006C8000313610883120313E200E301E4016108E4
:1006D80083160313DC07831203136208031103183C
:1006E800013E03197A2B83160313DD0783120313C4
:1006F800630803110318013E0319852B831603139E
:10070800DE0783120313640803110318013E03195B
:10071800902B83160313DF07831203138316031327
:10072800831203135B08E1006108A0005F080A1642
:100738008A1175230A128A1183120313210883165A
:100748000313E10083120313200883160313E00048
:10075800600883120313E1008316031361088312F0
:100768000313E200E301E40108300310E10DE20D98
:10077800E30DE40DFF3E031DB92B61088316031337
:10078800DC0783120313620803110318013E0319DF
:10079800D02B83160313DD07831203136308031199
:1007A8000318013E0319DB2B83160313DE0783129C
:1007B8000313640803110318013E0319E62B83167B
:1007C8000313DF07831203138316031357088312D7
:1007D8000313E10083160313580883120313E2007E
:1007E80083160313590883120313E30083160313B4
:1007F8005A0883120313E40018300310E40CE30CC6
:10080800E20CE10CFF3E031D012C61088316031363
:10081800DC0783120313620803110318013E03194E
:10082800182C83160313DD078312031363080311BF
:100838000318013E0319232C83160313DE078312C2
:100848000313640803110318013E03192E2C8316A1
:100858000313DF078312031383160313083083126D
:100868000313E100031083160313D70DD80DD90D18
:10087800DA0D83120313E10B362C831603135B087E
:10088800560783120313E100E201E20D6108823E7C
:1008980083160313E0008312031362080318013E52
:1008A800FF3E83160313E100862C013083120313E5
:1008B800E100031083160313DC0DDD0DDE0DDF0DE3
:1008C80083120313E10B5D2C83160313DA1F6D2CBF
:1008D8006E2C6F2C5C14013083120313E10003109B
:1008E80083160313D70DD80DD90DDA0D8312031310
:1008F800E10B732CFF3083160313E0070318E10A9A
:10090800FF30E107DE1F892C8A2C592CD601DA1F0B
:100918008E2C8F2CBD2CFF30570583120313E1005A
:10092800FF3083160313580583120313E200FF30C8
:1009380083160313590583120313E3007F308316CC
:1009480003135A0583120313E40064086304620462
:1009580061040319B02CB12CB62C83160313D601ED
:10096800D60ABD2C831603135C1CBB2CBC2CBD2CD7
:10097800B12C56080319C12CC22C0F2D0130DC07ED
:10098800003003180130DD07003003180130DE079E
:10099800003003180130DF075F1CD32CD42C0F2D37
:1009A8005C0883120313E100831603135D088312A6
:1009B8000313E200831603135E0883120313E30094
:1009C800831603135F0883120313E4000130E50064
:1009D800640DE40CE30CE20CE10CE50BEC2C640870
:1009E80083160313DF0083120313630883160313AC
:1009F800DE0083120313620883160313DD008312DB
:100A08000313610883160313DC000130E0070318A1
:100A1800E10A0030E1076108803AFF0080307F0278
:100A2800031D182DFF306002031C1B2D1C2D272DC4
:100A38007F3083160313DF008030DE000030DD00D6
:100A48000030DC00642D831603136108803AFF0030
:100A580080307F02031D322D013060020318352DCE
:100A6800362D422D003083160313DF000030DE00E0
:100A78000030DD000030DC00D501642D831603133F
:100A8800600883120313E100610883160313DB0077
:100A9800FF30DC05FF30DD057F30DE050030DF0587
:100AA8005B1C572D582D592DDE175B088312031335
:100AB800E1000310610CE200620883160313DF00F3
:100AC800550883120313E100610883160313DF043A
:100AD8005F0883120313DC00831603135E08831276
:100AE8000313DB00831603135D0883120313DA0074
:100AF800831603135C0883120313D90008000A162F
:100B08008A11E4230A128A110A168A112C240A125D
:100B18008A110A168A11DB220A128A118312031318
:100B28009F148312A401A40A01300A168A112823EB
:100B38000A128A11013083120313A3008030A40023
:100B48000A168A119E230A128A1108308312031387
:100B5800E8006808A40001300A168A1128230A123E
:100B68008A11063083120313A3008030A4000A16EA
:100B78008A119E230A128A110E3083120313E80089
:100B88006808A40001300A168A1128230A128A115B
:100B98000A3083120313A3008030A4000A168A11B6
:100BA8009E230A128A11403083120313DC00A030FE
:100BB800DB000030DA000030D9004430C2007F305A
:100BC800C100C030C0000030BF00831603134808BE
:100BD80083120313B1008316031349088312031306
:100BE800B200B301B40100300A168A1167250A124F
:100BF8008A11831203133408C6003308C50032086B
:100C0800C4003108C3000A168A1123260A128A1161
:100C1800831203134208E0004108DF004008DE00A9
:100C28003F08DD000A128A1124200A128A11831251
:100C380003135C0883160313C700831203135B08AE
:100C480083160313C600831203135A08831603136B
:100C5800C50083120313590883160313C4004230D6
:100C680083120313DC00C830DB000030DA000030E8
:100C7800D90083160313470883120313E000831671
:100C88000313460883120313DF0083160313450872
:100C980083120313DE00831603134408831203131D
:100CA800DD000A128A1124200A128A118312031302
:100CB8005C0883160313C300831203135B088316AF
:100CC8000313C200831203135A0883160313C100C7
:100CD80083120313590883160313C00083120313E6
:100CE8009F18772E782E922E1F0CE800680C0F396B
:100CF800003A031D802E812E862E1F08C339043822
:100D08009F00882EC3309F05843083120313E800A8
:100D1800E80B8C2E0000831203139F14A401A40A6D
:100D280002300A168A1128230A128A11CB3083123C
:100D38000313A3000030A4000A168A119E230A1286
:100D48008A11063083120313E8006808A4000230F1
:100D58000A168A1128230A128A110E3083120313E5
:100D6800A3008030A4000A168A119E230A128A1151
:100D7800003083160313BF000030BE000030BD00F2
:100D88000030BC000030BB000030BA000030B900B1
:100D98000030B8004308BF004208BE004108BD004B
:100DA8004008BC003F08E5003E08E4003D08E300B9
:100DB8003C08E2000230E6000030E700CB300A12BF
:100DC8008A15F6220A128A11831603134808490461
:100DD8000319EF2EF02E022F00304902323003198A
:100DE80048020318F82EF92E022FFF30831203133E
:100DF800E800680883160313CA00952D00304902DD
:100E0800333003194802031C0A2F0B2F1D2F003003
:100E180049027D30031948020318132F142F1D2F80
:100E2800B43083120313E800680883160313CA005A
:100E3800952D003049027E3003194802031C252FE6
:100E4800262F382F00304902C830031948020318EA
:100E58002E2F2F2F382F783083120313E8006808BD
:100E680083160313CA00952D00304902C9300319AF
:100E78004802031C402F412F532F013049022C30C8
:100E8800031948020318492F4A2F532F5030831251
:100E98000313E800680883160313CA00952D013070
:100EA80049022D3003194802031C5B2F5C2F652F64
:100EB800143083120313E800680883160313CA006A
:100EC800952D952D0A128A111028031083120313E9
:100ED800220D230DA4002408AA002A08031D752F3B
:100EE800762F7F2F0030A3000030A2000030A10031
:100EF8000030A000E42F2008A4002108A500220843
:100F0800A6002308A7001F300310A70CA60CA50CE9
:100F1800A40CFF3E031D882F2408A8002808A90058
:100F2800A217FF30A005FF30A105FF30A205003051
:100F3800A3059630AA02AA1FA22FA32FBD2F2A0805
:100F4800803A973E0318A92FAA2FAB2F762F01308E
:100F58000310A30CA20CA10CA00CFF3E031DAC2F88
:100F68000130A4002408AA07031DBB2FBC2FAB2FF8
:100F7800D42F20302A02031CC22FC32FCF2F762F45
:100F88000130A4000310A00DA10DA20DA30DA40B08
:100F9800C62F0130AA022A08031DD32FD42FC42F2D
:100FA80029080319D82FD92FE42FA009A109A209CC
:100FB800A309A00A0319A10A0319A20A0319A30A7B
:100FC800080083120313A200071422080A168A11C4
:100FD800CD220A128A118312031387140230831256
:100FE8000313A100A10BF62F00008312031387102F
:020FF8000800EF
:10100A0083120313A601A11F0B280C281328A00979
:10101A00A109A00A0319A10AA601A60AA31F162854
:10102A0017282028A209A309A20A0319A30A013032
:10103A00A4002408A606A701A80120082104031970
:10104A00272828285F28A501A50A36280130031079
:10105A00A00DA10DFF3E031D2C280130A400240879
:10106A00A507A11F39283A282B2801300310A70DFC
:10107A00A80DFF3E031D3B2821082302031D472814
:10108A0020082202031C4A284B2852282008A202C0
:10109A002108031CA303A302271401300310A10C87
:1010AA00A00CFF3E031D53280130A502031D5E2834
:1010BA005F283A2826080319632864286928A7099B
:1010CA00A809A70A0319A80A2808A1002708A00046
:1010DA0008008312031323088039A8002808B000E7
:1010EA002308A8002807A9002908B200A21F7E2801
:1010FA007F288028321432080319842885289528E5
:10110A00320A031D89288A2892280030A300003059
:10111A00A2000030A1000030A000A217A3019D2860
:10112A000030A3000030A2000030A1000030A0006F
:10113A0027088039A8002808B100310830060319A9
:10114A00A728A828A92830172708A8002807A9002F
:10115A002908B100A61FB228B328B42831143108CF
:10116A000319B828B928C928310A031DBD28BE2881
:10117A00C6280030A7000030A6000030A5000030C5
:10118A00A400A617A701D1280030A7000030A600A6
:10119A000030A5000030A400320831020318D62816
:1011AA00D7281B29301FDA28DB28DF288030A8003F
:1011BA002808B0063208A8002808B3003108A80099
:1011CA002808B2003308A8002808B1002008A8009F
:1011DA002808B3002408A8002808A0003308A8009B
:1011EA002808A4002108A8002808B3002508A80098
:1011FA002808A1003308A8002808A5002208A8008A
:10120A002808B3002608A8002808A2003308A80066
:10121A002808A6002308A8002808B3002708A80061
:10122A002808A3003308A8002808A700B30131083A
:10123A00A800A9012908AB0032082802AA00031C49
:10124A00AB032B08803AFF0080307F02031D2F2951
:10125A001A302A02031C32293329702983120313F4
:10126A002308220421042004031D3C293E290130BD
:10127A003F290030A8002808B3000030A30000303E
:10128A00A2000030A1000030A0003108A800280800
:10129A00B2007829331C522953295C293308A80043
:1012AA000310280C0138A9002908B3005E2903108D
:1012BA00B30C201C612962296329B3170130A800E5
:1012CA00230DA30CA20CA10CA00CA80B65290130BC
:1012DA00A8002808B2078312031331083202031C3C
:1012EA00772978294F29301B7B297C29C72932087D
:1012FA00031D802981298A290030A3000030A20019
:10130A000030A1000030A000F52A2408A007250813
:10131A0003110318013E03199329A1072608031193
:10132A000318013E03199A29A20727080311031873
:10133A00013E0319A129A307231CA429A5297B2A55
:10134A00331CA829A929B2293308A8000310280C9C
:10135A000138A9002908B300B4290310B30C201CD2
:10136A00B729B829B929B3170130A800230DA30C4E
:10137A00A20CA10CA00CA80BBB290130A8002808BC
:10138A00B2077B2A2308803AFF002708803A7F02A7
:10139A00031DD92926082202031DD929250821025D
:1013AA00031DD929240820020318DC29DD29352A3E
:1013BA00FF30A800FF30A900FF30AA00FF30AB00C1
:1013CA002408AC002508AD002608AE002708AF00A7
:1013DA002008AC022108031C210FF429F529AD02CB
:1013EA002208031C220FFA29FB29AE022308031C38
:1013FA00230F002A012AAF022C08A8072D08031878
:10140A002D0F082A092AA9072E0803182E0F0E2ABB
:10141A000F2AAA072F0803182F0AAB072B08A300C5
:10142A002A08A2002908A1002808A0008030A800E4
:10143A002808B006B309B30A3308031D252A262A49
:10144A00432A0130A007003003180130A1070030F9
:10145A0003180130A207003003180130A307432AFA
:10146A002408A0022508031C250FA1022608031C34
:10147A00260FA2022708031C270FA302230822040F
:10148A0021042004031D4A2A4B2A772A3308031D04
:10149A004F2A502A772A0030A3000030A2000030D9
:1014AA00A1000030A000F52A0130A8000310A00D09
:1014BA00A10DA20DA30DA80B5B2AB31F652A662AEC
:1014CA00672A2014331C6A2A6B2A6E2A0314B30D66
:1014DA00702A0310B30D32080319742A752A772A61
:1014EA000130B202A21F7A2A7B2A592AB101B31FFC
:1014FA007F2A802A8E2A33087F390319852A862A69
:10150A00892AB101B10A8E2A201C8C2A8D2A8E2A98
:10151A00862A31080319922A932AC72A0130A0077A
:10152A00003003180130A107003003180130A20768
:10153A00003003180130A307231CA42AA52AC72AAE
:10154A002008A8002108A9002208AA002308AB0045
:10155A000130AC002B0DAB0CAA0CA90CA80CAC0BDF
:10156A00AF2A2B08A3002A08A2002908A1002808EC
:10157A00A000320A0319C22AC32AC72A0130A800C6
:10158A002808B207320A0319CB2ACC2AD12A3208F0
:10159A00031DD02AD12ADF2A0030A3000030A2007E
:1015AA000030A1000030A0003208031DDD2ADE2A27
:1015BA00DF2AB001321CE22AE32AE52AA217E92A25
:1015CA007F30A8002808A2053208A8000310280CBA
:1015DA00A9002908A300B01FF32AF42AF52AA317A1
:1015EA0008008316031794008316031365088312F1
:1015FA000313A30083160313640883120313A200C0
:10160A0083160313630883120313A10083160313BB
:10161A00620883120313A0000A128A1169270A12A8
:10162A008A15831203132108831603179100831264
:10163A00031320088316031790009B019C0199014C
:10164A009A0101309D0000309E008316031365083D
:10165A0083120313A300831603136408831203136C
:10166A00A20083160313630883120313A1008316CF
:10167A000313620883120313A0000030A70000308E
:10168A00A6000030A5000030A4000A168A11C3245F
:10169A000A128A150318522B532BD12BBF308312EF
:1016AA000313DC008030DB000030DA000030D900A0
:1016BA0083160313650883120313E00083160313CA
:1016CA00640883120313DF0083160313630883126B
:1016DA000313DE0083160313620883120313DD006B
:1016EA000A128A1124200A128A15831203135C082B
:1016FA0083160313E500831203135B08831603138F
:10170A00E400831203135A0883160313E3008312B7
:10171A000313590883160313E2002D3083120313AF
:10172A00E60083160317140884008312031366085D
:10173A0083138000013083160317990703189A0A46
:10174A0000309A07D12B0A3083120313A00000300D
:10175A00A10083160317110883120313A30083162B
:10176A000317100883120313A2000A128A15052010
:10177A000A128A158312031321088316031791008C
:10178A0083120313200883160317900001309B0766
:10179A0003189C0A00309C078316031710081104CB
:1017AA00031DD82BD92BA82B3F2D1B031C04031D6B
:1017BA00DF2BE02BE52B01309D0000309E00272C0B
:1017CA000230920000309300112C831603171E0872
:1017DA0083120313AC00831603171D088312031325
:1017EA00AB000A30AD000030AE000A168A114E2353
:1017FA000A128A15831203132C08831603179E00F4
:10180A00831203132B08831603179D0001309207D6
:10181A000318930A003093071C08803A83120313B3
:10182A00E600831603171308803A8312031366022D
:10183A00031D232C8316031712081B020318262CD8
:10184A00272CEA2B831603171D0883120313B100F2
:10185A00831603171E0883120313B2000030B21B4B
:10186A00FF30B300B40001300A168A1167250A1244
:10187A008A15831203133408C2003308C1003208E0
:10188A00C0003108BF0083160313650883120313CF
:10189A00C60083160313640883120313C500831654
:1018AA000313630883120313C40083160313620825
:1018BA0083120313C3000A168A1123260A128A15F1
:1018CA008312031342088316031798008312031323
:1018DA0041088316031797008312031340088316DF
:1018EA0003179600831203133F0883160317950004
:1018FA001E0883120313AE00831603171D088312F2
:10190A000313AD0083160317180883120313A300E9
:10191A0083160317170883120313A20083160317EB
:10192A00160883120313A1008316031715088312DE
:10193A000313A0000A128A1169270A128A15831250
:10194A0003132108AC002008AB000A168A114E23A3
:10195A000A128A15831203132B08B1002C08B2004D
:10196A000030B21BFF30B300B40001300A168A11EE
:10197A0067250A128A15831203133408C200330832
:10198A00C1003208C0003108BF008316031365087E
:10199A0083120313C6008316031364088312031306
:1019AA00C50083160313630883120313C400831646
:1019BA000313620883120313C3000A168A1104234D
:1019CA000A128A1583120313420883160313E500C9
:1019DA0083120313410883160313E40083120313CB
:1019EA00400883160313E300831203133F08831688
:1019FA000313E20083160317180883120313A300C4
:101A0A0083160317170883120313A20083160317FA
:101A1A00160883120313A1008316031715088312ED
:101A2A000313A0000A128A1169270A128A1583125F
:101A3A0003132008303EE60083160317190814071B
:101A4A0083120313E7006708840066088313800083
:101A5A00013083160317990703189A0A00309A0768
:101A6A00FF309B0703189C0AFF309C0701309D003A
:101A7A0000309E001B081C04031D442D452DDA2B43
:101A8A002E3083120313E60083160317190814076E
:101A9A0083120313E7006708840066088313800033
:101AAA00013083160317990703189A0A00309A0718
:101ABA000130920000309300892D831603171E0807
:101ACA0083120313AC00831603171D088312031332
:101ADA00AB000A30AD000030AE000A168A114E2360
:101AEA000A128A15831203132C08831603179E0001
:101AFA00831203132B08831603179D0001309207E4
:101B0A000318930A00309307831603136708803A71
:101B1A0083120313E600831603171308803A83120D
:101B2A0003136602031D9F2D8316031712088316DB
:101B3A00031366020318A22DA32D622D8316031721
:101B4A001D0883120313B100831603171E0883129C
:101B5A000313B2000030B21BFF30B300B4000130EF
:101B6A000A168A1167250A128A1583120313340882
:101B7A00DC003308DB003208DA003108D9008316AA
:101B8A000313650883120313A3008316031364085F
:101B9A0083120313A2008316031363088312031329
:101BAA00A10083160313620883120313A0000A120A
:101BBA008A1169270A128A15831203132008B100B1
:101BCA002108B2000030B21BFF30B300B40001306C
:101BDA000A168A1167250A128A1583120313340812
:101BEA00C2003308C1003208C0003108BF008316A2
:101BFA000313650883120313C600831603136408CC
:101C0A0083120313C5008316031363088312031395
:101C1A00C40083160313620883120313C3000A164F
:101C2A008A1104230A128A15831203134208E00058
:101C3A004108DF004008DE003F08DD000A128A1171
:101C4A0024200A128A15831203135C0883160317C9
:101C5A009800831203135B088316031797008312F5
:101C6A0003135A088316031796008312031359089D
:101C7A00831603179500180883160313E5008316C5
:101C8A000317170883160313E400831603171608AD
:101C9A0083160313E3008316031715088316031329
:101CAA00E200650883120313A30083160313640872
:101CBA0083120313A2008316031363088312031308
:101CCA00A10083160313620883120313A0000A12E9
:101CDA008A1169270A128A150130831603179D0093
:101CEA0000309E00831603136708831603179C00AF
:101CFA00831603136608831603179B00E92F1B0339
:101D0A001C04031D892E8A2E8F2E01309D0000305F
:101D1A009E00D12E0230920000309300BB2E831613
:101D2A0003171E0883120313AC00831603171D083A
:101D3A0083120313AB000A30AD000030AE000A165E
:101D4A008A114E230A128A15831203132C0883164A
:101D5A0003179E00831203132B08831603179D0093
:101D6A00013092070318930A003093071C08803A3F
:101D7A0083120313E600831603171308803A8312AB
:101D8A0003136602031DCD2E8316031712081B02C6
:101D9A000318D02ED12E942E831603171D088312F2
:101DAA000313B100831603171E0883120313B2002C
:101DBA000030B21BFF30B300B40001300A168A119A
:101DCA0067250A128A15831203133408C2003308DE
:101DDA00C1003208C0003108BF008316031365082A
:101DEA0083120313C60083160313640883120313B2
:101DFA00C50083160313630883120313C4008316F2
:101E0A000313620883120313C3000A168A112326D6
:101E1A000A128A15831203134208831603179800BD
:101E2A0083120313410883160317970083120313BF
:101E3A004008831603179600831203133F0883167C
:101E4A00031795001E0883120313AE0083160317A7
:101E5A001D0883120313AD00831603171808831293
:101E6A000313A30083160317170883120313A20090
:101E7A0083160317160883120313A1008316031788
:101E8A00150883120313A0000A128A1169270A127D
:101E9A008A15831203132108AC002008AB000A1626
:101EAA008A114E230A128A15831203132B08B100D2
:101EBA002C08B2000030B21BFF30B300B40001306E
:101ECA000A168A1167250A128A158312031334081F
:101EDA00C2003308C1003208C0003108BF008316AF
:101EEA000313650883120313C600831603136408D9
:101EFA0083120313C50083160313630883120313A3
:101F0A00C40083160313620883120313C3000A165C
:101F1A008A1104230A128A158312031342088316AC
:101F2A000313E50083120313410883160313E40025
:101F3A0083120313400883160313E3008312031367
:101F4A003F0883160313E200831603171808831247
:101F5A000313A30083160317170883120313A2009F
:101F6A0083160317160883120313A1008316031797
:101F7A00150883120313A0000A128A1169270A128C
:101F8A008A15831203132008303EE60083160317CE
:101F9A001908140783120313E70067088400660808
:101FAA0083138000013083160317990703189A0ACE
:101FBA0000309A07FF309B0703189C0AFF309C07E2
:101FCA0001309D0000309E001B081C04031DEE2FEB
:101FDA00EF2F842E0A3083120313E60083160317A9
:101FEA001908140783120313E700670884006608B8
:101FFA00831380000800FF1B0A2883137F188317A6
:10200A000008840A0319FF0A080010308A0004082D
:10201A00840A82070034543465346D3470340034D1
:10202A00533432343A340034533433343A34003487
:04203A0043340034F7
:10259A0083120313A000200886000800640080014B
:1025AA00840A0406031900340406D42A00300A16E1
:1025BA008A11E8220A168A1101300A168A11E822BB
:1025CA000A168A11080083120313A30007102308AE
:1025DA000A168A11CD220A168A1183120313871446
:1025EA00063083120313A2002F30A100A10BFB2A8D
:1025FA00A20BFB2A002B83120313871008008030DA
:10260A0083120313C2064608A3004508A200440821
:10261A00A1004308A0004208A7004108A6004008FC
:10262A00A5003F08A4000A128A156E200A168A110C
:10263A00831203132308C2002208C1002108C00024
:10264A002008BF00080083120313A6002603031DF7
:10265A002F2B302B3C2B24087F3EA5002508A700F2
:10266A0027080A168A11E8220A168A114D2B023007
:10267A002606031D412B422B4D2B2408BF3EA500E5
:10268A002508A70027080A168A11E8220A168A11BD
:10269A00080083120313AF01B0012B1C552B562BD4
:1026AA005C2B2D08AF070318B00A2E08B0070130BB
:1026BA000310AD0DAE0DFF3E031D5D2B013003105F
:1026CA00AC0CAB0CFF3E031D642B2B082C04031D22
:1026DA006F2B702B522B3008AC002F08AB00080070
:1026EA0083120313A800A401A5012008A200A301D4
:1026FA002208A6002308A700281C842B852B8B2BD5
:10270A002608A4070318A50A2708A50701300310FD
:10271A00A60DA70DFF3E031D8C2B0310A80C28083D
:10272A00031D982B992B812B2508A1002408A000B2
:10273A00080083120313A801A901C72B280823073D
:10274A00A6002408A5000318A50AA81FAD2BA503F7
:10275A00831203132508A7002708FF002608840010
:10276A000A168A1100200A168A110A128A11E52706
:10277A000A168A11013083120313A8070318A90A3B
:10278A000030A90728082307A6002408A500031873
:10279A00A50AA81FD12BA503831203132508A70096
:1027AA002708FF00260884000A168A1100200A1644
:1027BA008A11003A031DE22BE32BA32B08000330F6
:1027CA0083160317880089010330831603138500D3
:1027DA008601870188018312031385018601870117
:1027EA008801831603130F178F160F160F148B17F2
:1027FA000B170C178B16831203130C130B1183166A
:10280A0003139F171F129F12831203139F17C330BC
:10281A009F05843083120313A000A00B122C000022
:10282A00831203131F14843083120313A000A00B16
:10283A001C2C000083160313811201128111011549
:10284A0081100114833083120313810008000030C1
:10285A000A168A11CD220A168A111A308312031314
:10286A00A500F730A400A40B382CA50B382C3D2C5E
:10287A0030300A168A11E8220A168A1107308312A2
:10288A000313A5007C30A400A40B492CA50B492CEA
:10289A00000030300A168A11E8220A168A110F300F
:1028AA0083120313A5004730A400A40B5A2CA50BCE
:1028BA005A2C30300A168A11E8220A168A11383040
:1028CA000A168A11E8220A168A110C300A168A1187
:1028DA00E8220A168A1106300A168A11E8220A160E
:1028EA008A1108000C1F7A2C7B2CA02C1F0CF000DC
:1028FA00700C0F39003A031D832C842C9C2C1E0863
:10290A00F000F1017008F100F0017008831603135A
:10291A00C8007108C9001E084807F00049080318D2
:10292A00490AF1007008C8007108C9009E2C1E08E7
:10293A00880083120C130B1DA32CA42CBA2C013073
:10294A00F0007008F8070B11833081008316031317
:10295A004A087802031CB22CB32CB72C8312031337
:10296A000810BA2C8312031308147408FF007308A2
:10297A008A00720E8300FE0E7E0E0900003083125A
:10298A0003132005A80000302105A9008030220584
:10299A00AA007F302305AB002B082A042904280447
:1029AA00031DD82CD92CE12C0030A3000030A20042
:1029BA000030A1000030A00000302405A80000303B
:1029CA002505A90080302605AA007F302705AB001F
:1029DA002B082A0429042804031DF42CF52CFD2CA9
:1029EA000030A7000030A6000030A5000030A40087
:1029FA00A31F002D012D252D0030A8000030A900AD
:102A0A000030AA008030AB002008A8022108031C6D
:102A1A00210F102D112DA9022208031C220F162D99
:102A2A00172DAA022308031C230F1C2D1D2DAB02F0
:102A3A002B08A3002A08A2002908A1002808A00040
:102A4A00A71F282D292D4D2D0030A8000030A900E0
:102A5A000030AA008030AB002408A8022508031C15
:102A6A00250F382D392DA9022608031C260F3E2DC5
:102A7A003F2DAA022708031C270F442D452DAB0220
:102A8A002B08A7002A08A6002908A5002808A400E0
:102A9A008030A3068030A70627082302031D5F2D76
:102AAA0026082202031D5F2D25082102031D5F2D22
:102ABA00240820020318622D632D652D0310662D4C
:102ACA000314080083120313B900390803196E2D81
:102ADA006F2D832DB41F722D732D832D3109BB00E9
:102AEA003209BC003309BD003409BE00BB0A031910
:102AFA00BC0A0319BD0A0319BE0A8B2D3408BE008D
:102B0A003308BD003208BC003108BB003408330466
:102B1A0032043104031D922D932D9C2D0030B400F4
:102B2A000030B3000030B2000030B100222E9630DF
:102B3A00B5003508BA00AE2D0130B5003508BA0720
:102B4A0001300310BE0CBD0CBC0CBB0CFF3E031DB8
:102B5A00A62DFE303E05031DB32DB42DA12DD02D7B
:102B6A000130B5003508BA070130BB070030031839
:102B7A000130BC07003003180130BD0700300318CC
:102B8A000130BE0701300310BE0CBD0CBC0CBB0CDF
:102B9A00FF3E031DC82DFF303E05031DD52DD62D42
:102BAA00B52DE22D0130BA020130B5000310BB0D7C
:102BBA00BC0DBD0DBE0DB50BDB2DBD1BE52DE62DE8
:102BCA00EC2D02303A020318EB2DEC2DD72D3A18D2
:102BDA00EF2DF02DF82DFF30BB05FF30BC057F30FF
:102BEA00BD05FF30BE050310BA0C3A08B500B601A0
:102BFA00B701B80118300310B50DB60DB70DB80DF1
:102C0A00FF3E031D002E3508BB043608BC043708F6
:102C1A00BD043808BE0439080319142E152E1A2EBD
:102C2A00B41F182E192E1A2EBE173E08B4003D08DE
:102C3A00B3003C08B2003B08B1000800831203133A
:102C4A0046088039C7004708D0004608C70047072A
:102C5A00C8004808D700C51F332E342E352E571406
:102C6A0057080319392E3A2E4A2E570A031D3E2EAB
:102C7A003F2E472E0030C6000030C5000030C40089
:102C8A000030C300C517C601522E0030C6000030FE
:102C9A00C5000030C4000030C30042088039C700B4
:102CAA004708D0064208C7004707C8004808D800A6
:102CBA00C11F602E612E622E581458080319662E01
:102CCA00672E772E580A031D6B2E6C2E742E003039
:102CDA00C2000030C1000030C0000030BF00C11780
:102CEA00C2017F2E0030C2000030C1000030C00097
:102CFA000030BF004208410440043F04031D862EF1
:102D0A00872EA02E0030C6000030C5000030C40057
:102D1A000030C3008030C5047F30C6045008C700A5
:102D2A004708C6044608C2004508C1004408C00056
:102D3A004308BF00FF2F5708031DA42EA52EAE2E51
:102D4A000030C2000030C1000030C0000030BF00B7
:102D5A00FF2F5708C700C8014808CA005808470289
:102D6A00C900031CCA0349087F3ED1004A08031858
:102D7A00013E003ED2004608CF004508CE00440876
:102D8A00CD004308CC000030C6000030C50000303A
:102D9A00C4000030C3000030D6000030D500003037
:102DAA00D4000030D300D801242F58080319DE2E8E
:102DBA00DF2EFF2E0130C7000310CC0DCD0DCE0D36
:102DCA00CF0DC70BE12E0130C7000310C30DC40D90
:102DDA00C50DC60DC70BEA2ED61FF42EF52EF62EFC
:102DEA0043140130C7000310D30DD40DD50DD60DF1
:102DFA00C70BF82E42084F02031D0D2F41084E0241
:102E0A00031D0D2F40084D02031D0D2F3F084C02D4
:102E1A00031C102F112F202F56173F08CC024008F1
:102E2A00031C400FCD024108031C410FCE02420889
:102E3A00031C420FCF020130C7004708D8071A30D7
:102E4A005802031C292F2A2FDA2E4F084E044D044C
:102E5A004C040319312F322F512F5314512F0130A3
:102E6A00C7000310C30DC40DC50DC60DC70B362F01
:102E7A00D61F402F412F422F43140130C7000310A1
:102E8A00D30DD40DD50DD60DC70B442FFF30D10766
:102E9A000318D20AFF30D207C51F542F552F342FDB
:102EAA00D801D61F592F5A2F762FFF305305C70046
:102EBA00FF305405C800FF305505C9007F3056055C
:102ECA00CA004A0849044804470403196D2F6E2FA3
:102EDA00712FD801D80A762F431C742F752F762F9D
:102EEA006E2F580803197A2F7B2FAC2F0130C30796
:102EFA00003003180130C407003003180130C50739
:102F0A00003003180130C607461C8C2F8D2FAC2FBA
:102F1A004308C7004408C8004508C9004608CA0053
:102F2A000130CB004A0DCA0CC90CC80CC70CCB0B1C
:102F3A00972F4A08C6004908C5004808C400470830
:102F4A00C3000130D1070318D20A0030D207520851
:102F5A00803AFF0080307F02031DB52FFF305102F7
:102F6A00031CB82FB92FC72FFF3083120313D100C8
:102F7A000030D2000030C6000030C5000030C40066
:102F8A000030C300831203135208803AFF008030D6
:102F9A007F02031DD22F013051020318D52FD62FDD
:102FAA00E32F83120313D101D2010030C60000308F
:102FBA00C5000030C4000030C300D00183120313DF
:102FCA005108C7004708D700571CEC2FED2FEF2FE9
:102FDA00C517F32F7F30C7004708C5055708C70034
:102FEA000310470CC8004808C6005008C700470825
:062FFA00C604972E08003A
:04400E00D420FF3F7C
:00000001FF
