:020000040000FA
:060000000A128A110E280D
:10000800FE00030EF2000408F3000A08F4000A12C6
:100018008A1119280A128A111128F601F701F80124
:10002800F90183010A128A11C928831203138C1D4E
:100038001E281F2887281412141B23282428282840
:10004800941F272828282F281308F0007008F90083
:1000580014139413141683160313941A342835288A
:1000680053281419382839285328831203131308DE
:10007800F0007008F9008C11141683160313141C71
:10008800462847284128831203131308F0007008F4
:10009800F600A630F000F00B4F2800008428941AD0
:1000A800562857288428141D5A285B288428831228
:1000B80003131308F0007008F90068282030930033
:1000C80078281030930078287608F000F10171083C
:1000D800003A0319702878287008013A0319622831
:1000E800033A0319652878281416A630F000F00B97
:1000F8007B280000831603131418832884287E287D
:10010800831203138C1174088A0073088400720E1A
:100118008300FE0E7E0E0900013083160317880047
:100128008901013083160313850086018801831233
:10013800031385018601880150300A128A11AF2005
:100148000A128A11831603130F178F160F160F142E
:100158008B170B170800F500750883160313930017
:1001680036308312031394008030831603139400EF
:1001780001309100871507168B170B17831203138D
:100188008C11831603138C1508000A128A1190200B
:0C0198000A128A11CE280A128A110E28C1
:04400E00D420FF3F7C
:00000001FF
