:020000040000FA
:060000000A128A110E280D
:10000800FE00030EF7000408F8000A08F9000A12B7
:100018008A11E9280A128A111128F001F101F20166
:10002800F301F40183120313A001A101A201A301AA
:10003800A401A501A60183010A128A1123280A1224
:100048008A1171210A128A11831203139F149F18AF
:100058002E282F283928843083120313A900A90BCE
:1000680033280000831203139F147408A900AA01FF
:100078002908AA00A9012908F0002A08F100210886
:100088007007F00071080318710AF1000030851834
:100098000130A2002203031D52285328AB28FF3049
:1000A800A9002908F20000307102333003197002E8
:1000B800031C5F2860286E28003071027D30031908
:1000C80070020318682869286E28B430A900290826
:1000D800F300AD28003071027E3003197002031C52
:1000E80076287728852800307102C83003197002F5
:1000F80003187F28802885287830A9002908F3006C
:10010800AD2800307102C93003197002031C8D2814
:100118008E289C28013071022C30031970020318B4
:10012800962897289C285030A9002908F300AD2864
:10013800013071022D3003197002031CA428A52870
:10014800AA281430A9002908F300AD28AD28F20127
:10015800F3017308950073080139A900A90EA90DC8
:1001680017082906DF39290697007308A900073000
:100178000310A90CFF3E031DBC282908AA00AA0EDB
:1001880017082A06EF392A06970072089B0072089A
:100198000139A900A90EA90D1D082906DF3929066C
:1001A8009D007208A90007300310A90CFF3E031D2B
:1001B800D8282908AA00AA0E1D082A06EF392A06F7
:1001C8009D002B280A128A110E28831203138C1DF6
:1001D800EE28EF2857291412141BF328F428F828BE
:1001E800941FF728F828FF281308F5007508A600BB
:1001F80014139413141683160313941A0429052947
:1002080023291419082909292329831203131308F8
:10021800F5007508A6008C11141683160313141C18
:10022800162917291129831203131308F5007508D5
:10023800A300A630F500F50B1F2900005429941AD5
:10024800262927295429141D2A292B2954298312A0
:1002580003131308F5007508A60038292108930030
:1002680048297408930048292308F500F601760800
:10027800003A0319402948297508013A0319322917
:10028800033A0319352948291416A630F500F50B49
:100298004B290000831603131418532954294E2997
:1002A800831203138C110C1F5A295B2968291E0815
:1002B800F5007508F400831603131E08F500750889
:1002C80083120313A1000C1379088A0078088400AC
:1002D800770E8300FE0E7E0E090001308316031789
:1002E800880089010330831603138500860188017D
:1002F8008312031385018601880150300A128A117E
:10030800D6210A128A11831603130F178F160F1698
:100318000F148B170B170C17831203130C13831668
:1003280003139F171F129F12831203139F17C330C3
:100338009F05843083120313A800A80BA12900008D
:10034800831203131F14843083120313A800A80B0D
:10035800AB2900008316031307158714FA3092009F
:100368003F308312031397051708F0390C389700AC
:100378001D08F0390C389D000F3095000F309B0098
:10038800CF3097051D129D128C1003309204121560
:100398008C1CCF29D029CC298C1083160313071164
:1003A8008710080083120313A70027088316031376
:1003B800930036308312031394008030831603139E
:1003C800940001309100871507168B170B178312BD
:0C03D80003138C11831603138C1508000E
:04400E00D420FF3F7C
:00000001FF
