:020000040000FA
:060000000A128A110E280D
:10000800FE00030EF7000408F8000A08F9000A12B7
:100018008A11D6280A128A111128F001F101F20179
:10002800F301F40183120313A001A101A201A301AA
:10003800A401A50183010A128A1122280A128A1131
:100048006A210A128A11831203139F149F182D28FC
:100058002E2848281F0CA800280C0F39003A031D29
:10006800362837283C281F08C33904389F003E2803
:10007800C3309F05843083120313A800A80B4228BD
:100088000000831203139F147408A800A90128080C
:10009800A900A8012808F0002908F1002108700724
:1000A800F00071080318710AF10000307102333052
:1000B80003197002031C612862287028003071023D
:1000C8007D300319700203186A286B287028B43031
:1000D800A8002808F300AC28003071027E3003190C
:1000E8007002031C78287928872800307102C830EC
:1000F8000319700203188128822887287830A800FD
:100108002808F300AC2800307102C93003197002C6
:10011800031C8F2890289E28013071022C30031967
:1001280070020318982899289E285030A80028089B
:10013800F300AC28013071022D3003197002031C42
:10014800A628A728AC281430A8002808F300AC2853
:10015800FF30A8002808F20073088600730895008D
:1001680073080139A800A80EA80D17082806DF395A
:10017800280697007308A80007300310A80CFF3E54
:10018800031DC1282808A900A90E17082906EF3958
:1001980029069700FF309B009D161D162A280A1273
:1001A8008A110E28831203138C1DDB28DC284429AE
:1001B8001412141BE028E128E528941FE428E528F8
:1001C800EC281308F5007508A500141394131416E9
:1001D80083160313941AF128F22810291419F52804
:1001E800F6281029831203131308F5007508A500D3
:1001F8008C11141683160313141C03290429FE28D2
:10020800831203131308F5007508A200A630F50041
:10021800F50B0C2900004129941A132914294129A6
:10022800141D172918294129831203131308F500EF
:100238007508A5002529210893003529740893001D
:1002480035292208F500F6017608003A03192D2908
:1002580035297508013A03191F29033A0319222978
:1002680035291416A630F500F50B38290000831639
:1002780003131418402941293B29831203138C11B5
:100288000C1F4729482961291F0CF500750C0F39E7
:10029800003A031D502951295E291E08F5007508EA
:1002A800F400831603131E08F50075088312031360
:1002B800A10060291E0888000C1379088A007808B4
:1002C8008400770E8300FE0E7E0E0900033083162D
:1002D80003178800890103308316031385008601FC
:1002E80088018312031385018601880150300A12A0
:1002F8008A11CF210A128A11831603130F178F163A
:100308000F160F148B170B170C17831203130C13EC
:10031800831603139F171F129F12831203139F172D
:10032800C3309F05843083120313A700A70B9A29B3
:100338000000831203131F14843083120313A700D1
:10034800A70BA42900008316031307158714FA3096
:1003580092003F308312031397051708F0390C38C1
:1003680097001D08F0390C389D000F3095000F30AC
:100378009B00CF3097051D129D128C1003309204FC
:1003880012158C1CC829C929C5298C10831603137A
:1003980007118710080083120313A6002608831686
:1003A80003139300363083120313940080308316AE
:1003B8000313940001309100871507168B170B174C
:0E03C800831203138C11831603138C15080087
:04400E00D420FF3F7C
:00000001FF
