:060000000A128A110C280F
:10000800FE00030EF1000A08F2000A168A11782D84
:100018000A128A110F288313E630FD001430FE00FF
:10002800A830FF00DE3084000A168A11CC240A1298
:100038008A11831790308400A9300A168A11A024E7
:100048000A128A118313A0308400DE300A168A113E
:10005800A0240A128A1183010A128A15652D8312B7
:10006800031328088039AD002D08B2002808AD0018
:100078002D07AE002E08B800A71F4328442845289E
:1000880038143808031949284A285928380A031DFA
:100098004E284F2857280030A8000030A70000300D
:1000A800A6000030A500A71761280030A80000307E
:1000B800A7000030A6000030A5002C088039AD004C
:1000C8002D08B2062C08AD002D07AE002E08B7008B
:1000D800AB1F6F2870287128371437080319752843
:1000E80076288528370A031D7A287B28832800303C
:1000F800AC000030AB000030AA000030A900AB17FC
:100108008D280030AC000030AB000030AA00003071
:10011800A900370803199128922897283808031D41
:1001280096289728A0280030A8000030A7000030A3
:10013800A6000030A500932B2508AD002D08F3007C
:100148002B080A168A11A0250A128A11740883122C
:100158000313BE007308BD003D08AD00AE01AF013A
:10016800B0013008B6002F08B5002E08B4002D08DD
:10017800B3003E08AD00AE01AF01B0013008BC00CD
:100188002F08BB002E08BA002D08B9002608AD00BC
:100198002D08F3002A080A168A11A0250A128A11C6
:1001A800740883120313BE007308BD003D08AD0038
:1001B800AE01AF01B0012D08B3072E0803110318D3
:1001C800013E0319E828B4072F0803110318013E5C
:1001D8000319EF28B507300803110318013E031966
:1001E800F628B6073E08AD00AE01AF01B0012D08F4
:1001F800B9072E0803110318013E03190429BA0789
:100208002F0803110318013E03190B29BB073008F7
:1002180003110318013E03191229BC072708AD0072
:100228002D08F30029080A168A11A0250A128A1136
:10023800740883120313BE007308BD003D08AD00A7
:10024800AE01AF01B0012D08B3072E080311031842
:10025800013E03193029B4072F0803110318013E82
:1002680003193729B507300803110318013E03198C
:100278003E29B6073E08AD00AE01AF01B0012D081A
:10028800B9072E0803110318013E03194C29BA07B0
:100298002F0803110318013E03195329BB0730081F
:1002A80003110318013E03195A29BC070830AD0091
:1002B8000310B30DB40DB50DB60DAD0B5C292608B2
:1002C800AD002D08F30029080A168A11A0250A1284
:1002D8008A11740883120313BE007308BD003D0819
:1002E800AD003E08AE00AF01B0012D08B3072E08DF
:1002F80003110318013E03198229B4072F080311BB
:100308000318013E03198929B5073008031103189A
:10031800013E03199029B6072508AD002D08F30002
:100328002A080A168A11A0250A128A11740883124B
:100338000313BE007308BD003D08AD003E08AE00C3
:10034800AF01B0012D08B3072E0803110318013EB1
:100358000319AF29B4072F0803110318013E031925
:10036800B629B507300803110318013E0319BD2942
:10037800B6070830AD000310B30DB40DB50DB60DBA
:10038800AD0BBF292508AD002D08F30029080A1672
:100398008A11A0250A128A11740883120313BE0059
:1003A8007308BD003D08AD003E08AE00AF01B001C6
:1003B8002D08B3072E0803110318013E0319E52978
:1003C800B4072F0803110318013E0319EC29B507D8
:1003D800300803110318013E0319F329B60726084C
:1003E800AD002D08F3002B080A168A11A0250A1261
:1003F8008A11740883120313BE007308BD003D08F8
:10040800AD003E08AE00AF01B0012D08B9072E08B7
:1004180003110318013E0319122ABA072F08031102
:100428000318013E0319192ABB07300803110318E2
:10043800013E0319202ABC072708AD002D08F30048
:100448002A080A168A11A0250A128A11740883122A
:100458000313BE007308BD003D08AD003E08AE00A2
:10046800AF01B0012D08B9072E0803110318013E8A
:1004780003193F2ABA072F0803110318013E03196D
:10048800462ABB07300803110318013E03194D2AF9
:10049800BC072708AD002D08F3002B080A168A119F
:1004A800A0250A128A11740883120313BE00730868
:1004B800BD003D08AD003E08AE00AF01B0010830F8
:1004C8000310AD0DAE0DAF0DB00DFF3E031D642A38
:1004D8002D08B9072E0803110318013E0319752AC0
:1004E800BA072F0803110318013E03197C2ABB071A
:1004F800300803110318013E0319832ABC07330887
:10050800AD003408AE003508AF003608B00018302A
:100518000310B00CAF0CAE0CAD0CFF3E031D8C2AC3
:100528002D08B9072E0803110318013E03199D2A47
:10053800BA072F0803110318013E0319A42ABB07A1
:10054800300803110318013E0319AB2ABC07083011
:10055800AD000310B30DB40DB50DB60DAD0BAD2A3E
:1005680038083707AD00AE01AE0D2D08823EBD003C
:100578002E080318013EFF3EBE00DF2A0130AD0001
:100588000310B90DBA0DBB0DBC0DAD0BC42AB61FB7
:10059800CE2ACF2AD02A39140130AD000310B30D6A
:1005A800B40DB50DB60DAD0BD22AFF30BD0703183B
:1005B800BE0AFF30BE07BB1FE22AE32AC22AB701E0
:1005C800B61FE72AE82A042BFF303305AD00FF30B9
:1005D8003405AE00FF303505AF007F303605B0007A
:1005E80030082F042E042D040319FB2AFC2AFF2AA5
:1005F800B701B70A042B391C022B032B042BFC2A46
:1006080037080319082B092B3A2B0130B90700309A
:1006180003180130BA07003003180130BB07003057
:1006280003180130BC073C1C1A2B1B2B3A2B39082A
:10063800AD003A08AE003B08AF003C08B0000130FE
:10064800B100300DB00CAF0CAE0CAD0CB10B252BBE
:100658003008BC002F08BB002E08BA002D08B900CE
:100668000130BD070318BE0A0030BE073E08803AB5
:10067800FF0080307F02031D432BFF303D02031C27
:10068800462B472B522B7F3083120313BC0080303C
:10069800BB000030BA000030B900872B8312031367
:1006A8003E08803AFF0080307F02031D5D2B013039
:1006B8003D020318602B612B6D2B0030831203134E
:1006C800BC000030BB000030BA000030B900B201F5
:1006D800872B831203133D08AD002D08B800FF30A7
:1006E800B905FF30BA057F30BB050030BC05381CA2
:1006F8007E2B7F2B802BBB173808AD0003102D0CE9
:10070800AE002E08BC003208AD002D08BC043C0821
:10071800A8003B08A7003A08A6003908A500080069
:10072800831203135908013EE10000300318013019
:10073800E200E501E6015608F6005508F500540800
:10074800F4005308F3000030FA000030F9000030DC
:10075800F8000030F7000A128A1556200A128A118A
:100768000318B72BB82BE02B2D3083120313DA00B4
:10077800570884008317581C83135A0880000130D7
:10078800D7070318D80A0030D8075608F6005508C6
:10079800F5005408F4005308F3000A168A11B0242F
:1007A8000A128A11760883120313D6007508D50039
:1007B8007408D4007308D3000030F6000030F50048
:1007C8000030F4000030F300831203135608FA00D7
:1007D8005508F9005408F8005308F7000A128A155A
:1007E80056200A128A110318FA2BFB2B662C232C8D
:1007F800413083120313A8002030A7000030A60060
:100808000030A5005608AC005508AB005408AA00F3
:100818005308A9000A128A1133200A128A11831276
:1008280003132808D6002708D5002608D400250871
:10083800D300FF30E5070318E60AFF30E607831206
:1008480003135608F6005508F5005408F400530839
:10085800F3003F30FA008030F9000030F800003033
:10086800F7000A128A1556200A128A11031C3D2C19
:100878003E2CFC2B662C4130F6002030F500003071
:10088800F4000030F300831203135608FA005508E9
:10089800F9005408F8005308F7000A128A15FA20DC
:1008A8000A128A11760883120313D6007508D50038
:1008B8007408D4007308D3000130E5070318E60A6A
:1008C8000030E607831203135608F6005508F500B2
:1008D8005408F4005308F3004130FA002030F900BE
:1008E8000030F8000030F7000A128A1556200A1264
:1008F8008A110318802C812C3F2C8312031365085E
:100908006107E10066080318660A6207E200013021
:10091800E3000030E4006308BD006408BE00003056
:10092800BE1BFF30BF00C00001300A128A112B27FE
:100938000A128A11831203134008E0003F08DF00FF
:100948003E08DE003D08DD00D02C4130F6002030A6
:10095800F5000030F4000030F30083120313600840
:10096800FA005F08F9005E08F8005D08F7000A124F
:100978008A15FA200A128A11760883120313E000F6
:100988007508DF007408DE007308DD000130E30736
:100998000318E40A0030E4076408803ADA006208C1
:1009A800803A5A02031DDA2C61086302031CDD2C0D
:1009B800DE2CA92C831203136008FA005F08F900E3
:1009C8005E08F8005D08F7004030F6000030F500DA
:1009D8000030F4000030F3000A128A15FA200A12D7
:1009E8008A11760883120313B5007508B4007408D9
:1009F800B3007308B2005608B9005508B800540887
:100A0800B7005308B6000A128A15DD220A128A11A5
:100A1800831203133508D6003408D5003308D400F0
:100A28003208D3005608F6005508F5005408F400BB
:100A38005308F3004130FA002030F9000030F80084
:100A48000030F7000A128A1556200A128A11031C70
:100A58002E2D2F2D3F2D3F3083120313D6008030CB
:100A6800D5000030D4000030D3000130E50703186A
:100A7800E60A0030E60783120313E61F442D452DCE
:100A8800992D3030DA00570884008317581C8313D7
:100A98005A0880000130D7070318D80A0030D80751
:100AA8002E30DA00570884008317581C83135A081D
:100AB80080000130D7070318D80A0030D807E21F92
:100AC800662D672D6F2D61086502E5006208031C1D
:100AD800620A6602E600FF30E300FF30E4008B2D77
:100AE800303083120313DA00570884008317581C28
:100AF80083135A0880000130D7070318D80A00303A
:100B0800D807FF30E3070318E40AFF30E407660854
:100B1800803ADA006408803A5A02031D952D63086A
:100B28006502031C982D992D742D83120313E3017C
:100B3800E401392E831203135608F6005508F50010
:100B48005408F4005308F3000A168A11E7260A121B
:100B58008A11740883120313DC007308DB005B0836
:100B6800303EDA00570884008317581C83135A084C
:100B780080000130D7070318D80A0030D807660864
:100B88006406031DC92D65086306031DCC2DCD2DF4
:100B9800DC2D2E30DA00570884008317581C831385
:100BA8005A0880000130D7070318D80A0030D80740
:100BB8005B08BD005C08BE000030BE1BFF30BF00F4
:100BC800C00001300A128A112B270A128A118312D7
:100BD80003134008E0003F08DF003E08DE003D0840
:100BE800DD006008CE005F08CD005E08CC005D081F
:100BF800CB005608D2005508D1005408D00053083D
:100C0800CF000A168A112E250A128A11831203139D
:100C18004E08D6004D08D5004C08D4004B08D30028
:100C28004130A8002030A7000030A6000030A50001
:100C38005608AC005508AB005408AA005308A90090
:100C48000A128A1133200A128A1183120313280800
:100C5800D6002708D5002608D4002508D30001307F
:100C6800E3070318E40A0030E4076408803ADA006E
:100C78006208803A5A02031D432E61086302031C6E
:100C8800462E472E9E2D8312031357088400831780
:100C9800581C83138001080083120313A800003036
:100CA800AE000030AD000030AC000030AB00081BD7
:100CB8005E2E5F2E5B2E1730A9000030AA00AA1FF7
:100CC800662E672E682EB12E0A128A1502200A1285
:100CD8008A11013A031D712E722EA82E8312031356
:100CE8002B08A0002C08A1002D08A2002E08A300A4
:100CF8000130A4000030A5000030A6000030A70095
:100D0800290A8B2E0310A40DA50DA60DA70DFF3ED5
:100D1800031D862E2408A00725080318250F952EE5
:100D2800962EA10726080318260F9B2E9C2EA20795
:100D380027080318270AA3072308AE002208AD00D6
:100D48002108AC002008AB00FF3083120313A90769
:100D58000318AA0AFF30AA07632E4130831203132F
:100D6800A000A00BB52EB82E8030831203132806DE
:100D7800031DBF2EC02EC62E0A128A1502200A1283
:100D88008A11F82E20302806031DCB2ECC2ED92E02
:100D98000A128A1502200A128A114130831203139B
:100DA800A000A00BD52ED82EC02E40302806031D3B
:100DB800DE2EDF2EF82E0A128A1502200A128A1158
:100DC800413083120313A000A00BE82EEB2E0A1269
:100DD8008A1502200A128A11413083120313A000D7
:100DE800A00BF42EF72EC02E83120313AD1FFD2E79
:100DF800FE2E222F00302B04A00000302C04A1006E
:100E080000302D04A200FF302E04A3002308AE00FA
:100E18002208AD002108AC002008AB002B09F40023
:100E28002C09F5002D09F6002E09F700F40A03191C
:100E3800F50A0319F60A0319F70A2A2F2E08F700EC
:100E48002D08F6002C08F5002B08F4000800831282
:100E58000313C50045080319322F332F472FC01F2E
:100E6800362F372F472F3D09C7003E09C8003F09D5
:100E7800C9004009CA00C70A0319C80A0319C90AE0
:100E88000319CA0A4F2F4008CA003F08C9003E0884
:100E9800C8003D08C70040083F043E043D04031D48
:100EA800562F572F602F0030C0000030BF00003091
:100EB800BE000030BD00E62F9630C1004108C600D4
:100EC800722F0130C1004108C60701300310CA0C57
:100ED800C90CC80CC70CFF3E031D6A2FFE304A051B
:100EE800031D772F782F652F942F0130C1004108FB
:100EF800C6070130C707003003180130C8070030A3
:100F080003180130C907003003180130CA0701303F
:100F18000310CA0CC90CC80CC70CFF3E031D8C2F4C
:100F2800FF304A05031D992F9A2F792FA62F0130DC
:100F3800C6020130C1000310C70DC80DC90DCA0D86
:100F4800C10B9F2FC91BA92FAA2FB02F0230460211
:100F58000318AF2FB02F9B2F4618B32FB42FBC2FD9
:100F6800FF30C705FF30C8057F30C905FF30CA0507
:100F78000310C60C4608C100C201C301C4011830E1
:100F88000310C10DC20DC30DC40DFF3E031DC42FB8
:100F98004108C7044208C8044308C9044408CA04ED
:100FA80045080319D82FD92FDE2FC01FDC2FDD2FBE
:100FB800DE2FCA174A08C0004908BF004808BE000B
:100FC8004708BD000800F5008312031309147508CB
:100FD8000A168A119A240A128A1183120313091510
:100FE8000630F400F40BF62F0000831203130911E6
:020FF8000800EF
:101004008312031388170628003083120313081B66
:101014000130F30088130E287308080083120313A9
:10102400A001A101392820087607F9007708F80003
:101034000318F80AA01F1F28F8037808FA007A0892
:1010440083120313FF00790884000A168A11002012
:101054000A128A150A128A11E7270A128A15013020
:1010640083120313A0070318A10A0030A107200864
:101074007607F9007708F8000318F80AA01F432838
:10108400F8037808FA007A0883120313FF0079083A
:1010940084000A168A1100200A128A15003A031DD8
:1010A40054285528152808000030730583120313AB
:1010B400A00000307405A10080307505A2007F30C7
:1010C4007605A3002308220421042004031D6B28B1
:1010D4006C2874280030F6000030F5000030F4006D
:1010E4000030F30000307705A00000307805A1003F
:1010F40080307905A2007F307A05A30023082204FA
:1011040021042004031D8728882890280030FA0031
:101114000030F9000030F8000030F700F61F932883
:101124009428B8280030A0000030A1000030A200AC
:101134008030A3007308A0027408031C740FA32852
:10114400A428A1027508031C750FA928AA28A202C5
:101154007608031C760FAF28B028A3022308F600F4
:101164002208F5002108F4002008F300FA1FBB2828
:10117400BC28E0280030A0000030A1000030A2000C
:101184008030A3007708A0027808031C780FCB28CE
:10119400CC28A1027908031C790FD128D228A202F5
:1011A4007A08031C7A0FD728D828A3022308FA0048
:1011B4002208F9002108F8002008F7008030F6061C
:1011C4008030FA067A087602031DF228790875023F
:1011D400031DF22878087402031DF22877087302AD
:1011E4000318F528F628F8280310F9280314080032
:1011F4007A08803983120313A0002008A9007A0812
:10120400A0002007A1002108B000F91F0A290B291A
:101214000C29301430080319102911292129300A06
:10122400031D152916291E290030FA000030F90083
:101234000030F8000030F700F917FA0129290030CE
:10124400FA000030F9000030F8000030F7007608AA
:101254008039A0002008A9067608A0002007A10074
:101264002108B100F51F37293829392931143108EB
:1012740003193D293E294E29310A031D42294329D8
:101284004B290030F6000030F5000030F400003047
:10129400F300F517F60156290030F6000030F5008A
:1012A4000030F4000030F30076087504740473040D
:1012B400031D5D295E2977290030FA000030F9000A
:1012C4000030F8000030F7008030F9047F30FA0471
:1012D4002908A0002008FA047A08F6007908F50025
:1012E4007808F4007708F300DC2A3008031D7B2912
:1012F4007C2985290030F6000030F5000030F40028
:101304000030F300DC2A3008A000A1012108A3006A
:1013140031082002A200031CA30322087F3EAA0076
:1013240023080318013E003EAB007A08A8007908A0
:10133400A7007808A6007708A5000030FA0000305E
:10134400F9000030F8000030F7000030AF00003042
:10135400AE000030AD000030AC00B101012A31080C
:101364000319B529B629D6290130A0000310A50D0B
:10137400A60DA70DA80DA00BB8290130A0000310DD
:10138400F70DF80DF90DFA0DA00BC129AF1FCB29EC
:10139400CC29CD2977140130A0000310AC0DAD0D7C
:1013A400AE0DAF0DA00BCF2976082802031DE4294A
:1013B40075082702031DE42974082602031DE42985
:1013C40073082502031CE729E829FD292F17730850
:1013D400A5027408031C740FF029F129A6027508EC
:1013E400031C750FF629F729A7027608031C760F4C
:1013F400FC29FD29A8020130A0002008B1071A30F9
:101404003102031C062A072AB129280827042604C6
:10141400250403190E2A0F2A2E2A2C142E2A0130F1
:10142400A0000310F70DF80DF90DFA0DA00B132A07
:10143400AF1F1D2A1E2A1F2A77140130A000031093
:10144400AC0DAD0DAE0DAF0DA00B212AFF30AA07D8
:101454000318AB0AFF30AB07F91F312A322A112ACD
:10146400B101AF1F362A372A532AFF302C05A000BA
:10147400FF302D05A100FF302E05A2007F302F057F
:10148400A300230822042104200403194A2A4B2A16
:101494004E2AB101B10A532A771C512A522A532ADF
:1014A4004B2A31080319572A582A892A0130F70789
:1014B400003003180130F807003003180130F90731
:1014C400003003180130FA077A1C692A6A2A892A2B
:1014D4007708A0007808A1007908A2007A08A30080
:1014E4000130A400230DA30CA20CA10CA00CA40B8E
:1014F400742A2308FA002208F9002108F8002008B9
:10150400F7000130AA070318AB0A0030AB072B0819
:10151400803AFF0080307F02031D922AFF302A02A6
:10152400031C952A962AA42AFF3083120313AA00C7
:101534000030AB000030FA000030F9000030F80051
:101544000030F700831203132B08803AFF00803029
:101554007F02031DAF2A01302A020318B22AB32ADC
:10156400C02A83120313AA01AB010030FA00003031
:10157400F9000030F8000030F700A90183120313CA
:101584002A08A0002008B000301CC92ACA2ACC2A84
:10159400F917D02A7F30A0002008F9053008A000F0
:1015A4000310200CA1002108FA002908A00020083B
:1015B400FA046E2908008312031335088039BA002F
:1015C4003A08C2003508BA003A07BB003B08C40019
:1015D400B41FED2AEE2AEF2A441444080319F32A0F
:1015E400F42A042B440A031DF82AF92A012B00309B
:1015F400B5000030B4000030B3000030B200B417BE
:10160400B5010C2B0030B5000030B4000030B3003D
:101614000030B20039088039BA003A08C3004308E0
:1016240042060319162B172B182B42173908BA0038
:101634003A07BB003B08C300B81F212B222B232BE6
:10164400431443080319272B282B382B430A031D63
:101654002C2B2D2B352B0030B9000030B800003076
:10166400B7000030B600B817B901402B0030B900FC
:101674000030B8000030B7000030B6004408430220
:101684000318452B462B8A2B421F492B4A2B4E2BE2
:101694008030BA003A08C2064408BA003A08C500C5
:1016A4004308BA003A08C4004508BA003A08C3001F
:1016B4003208BA003A08C5003608BA003A08B2003F
:1016C4004508BA003A08B6003308BA003A08C5001B
:1016D4003708BA003A08B3004508BA003A08B70018
:1016E4003408BA003A08C5003808BA003A08B40009
:1016F4004508BA003A08B8003508BA003A08C500E7
:101704003908BA003A08B5004508BA003A08B900E1
:10171400C5014308BA00BB013B08BD0044083A02B6
:10172400BC00031CBD033D08803AFF0080307F02EB
:10173400031D9E2B1A303C02031CA12BA22BDF2B72
:10174400831203133508340433043204031DAB2B12
:10175400AD2B0130AE2B0030BA003A08C500003082
:10176400B5000030B4000030B3000030B2004308CC
:10177400BA003A08C400E72B451CC12BC22BCB2B63
:101784004508BA0003103A0C0138BB003B08C500F9
:10179400CD2B0310C50C321CD02BD12BD22BC5174B
:1017A4000130BA00350DB50CB40CB30CB20CBA0B45
:1017B400D42B0130BA003A08C40783120313430838
:1017C4004402031CE62BE72BBE2B421BEA2BEB2B1C
:1017D400362C4408031DEF2BF02BF92B0030B500F9
:1017E4000030B4000030B3000030B200642D36087D
:1017F400B207370803110318013E0319022CB3077B
:10180400380803110318013E0319092CB4073908D9
:1018140003110318013E0319102CB507351C132CB2
:10182400142CEA2C451C172C182C212C4508BA0022
:1018340003103A0C0138BB003B08C500232C0310ED
:10184400C50C321C262C272C282CC5170130BA00B5
:10185400350DB50CB40CB30CB20CBA0B2A2C0130F8
:10186400BA003A08C407EA2C3508803AFF00390860
:10187400803A7F02031D482C38083402031D482C8B
:1018840037083302031D482C3608320203184B2C48
:101894004C2CA42CFF30BA00FF30BB00FF30BC003E
:1018A400FF30BD003608BE003708BF003808C0004E
:1018B4003908C1003208BE023308031C330F632CFD
:1018C400642CBF023408031C340F692C6A2CC00238
:1018D4003508031C350F6F2C702CC1023E08BA0763
:1018E4003F0803183F0F772C782CBB0740080318D8
:1018F400400F7D2C7E2CBC0741080318410ABD070C
:101904003D08B5003C08B4003B08B3003A08B200F7
:101914008030BA003A08C206C509C50A4508031D45
:10192400942C952CB22C0130B207003003180130EE
:10193400B307003003180130B40700300318013036
:10194400B507B22C3608B2023708031C370FB302AE
:101954003808031C380FB4023908031C390FB502C8
:101964003508340433043204031DB92CBA2CE62C94
:101974004508031DBE2CBF2CE62C0030B5000030FA
:10198400B4000030B3000030B200642D0130BA005E
:101994000310B20DB30DB40DB50DBA0BCA2CC51F8F
:1019A400D42CD52CD62C3214451CD92CDA2CDD2C75
:1019B4000314C50DDF2C0310C50D44080319E32CD3
:1019C400E42CE62C0130C402B41FE92CEA2CC82C08
:1019D400C301C51FEE2CEF2CFD2C45087F390319DC
:1019E400F42CF52CF82CC301C30AFD2C321CFB2C5F
:1019F400FC2CFD2CF52C43080319012D022D362D4A
:101A04000130B207003003180130B3070030031867
:101A14000130B407003003180130B507351C132D0D
:101A2400142D362D3208BA003308BB003408BC002C
:101A34003508BD000130BE003D0DBD0CBC0CBB0C17
:101A4400BA0CBE0B1E2D3D08B5003C08B4003B0883
:101A5400B3003A08B200440A0319312D322D362D51
:101A64000130BA003A08C407440A03193A2D3B2D41
:101A7400402D4408031D3F2D402D4E2D0030B50050
:101A84000030B4000030B3000030B2004408031D3D
:101A94004C2D4D2D4E2DC201441C512D522D542D33
:101AA400B417582D7F30BA003A08B4054408BA0078
:101AB40003103A0CBB003B08B500C21F622D632D16
:101AC400642DB51708000A168A110E260A128A1503
:101AD4000A168A11DB240A128A1583160313610875
:101AE40083120313C00083160313600883120313C5
:101AF400BF00831603135F0883120313BE0083160B
:101B040003135E0883120313BD0001300A128A1105
:101B14002B270A128A15831203134008EF003F088B
:101B2400EE003E08ED003D08EC006F08D6006E089C
:101B3400D5006D08D4006C08D300A830D70000305D
:101B4400D800D901D90A0A128A1194230A128A15D3
:101B54000A168A11C9250A128A150A168A11BB2483
:101B64000A128A15083083120313E7006708F70086
:101B740001300A168A110A250A128A151330F60052
:101B84008030F7000A128A1510200A128A150830CC
:101B940083120313E7006708F70002300A168A115C
:101BA4000A250A128A15A830F6000030F7000A1236
:101BB4008A1510200A128A15831203139F148312A4
:101BC4009F18E52DE62D002E1F0CE700670C0F393A
:101BD400003A031DEE2DEF2DF42D1F08C3390438F0
:101BE4009F00F62DC3309F05843083120313E70052
:101BF400E70BFA2D0000831203139F148030E700D3
:101C04006708AF000A300A168A116F260A128A156D
:101C1400831203132F08E8003008E9003108EA00B2
:101C24003208EB00831603135E0883120313E802E1
:101C3400831603135F08031C5F0F212E242E8312C7
:101C44000313E902831603136008031C600F2B2E91
:101C54002E2E83120313EA02831603136108031C56
:101C6400610F352E382E83120313EB0283160313F0
:101C7400831203136B08C0006A08BF006908BE0022
:101C84006808BD0001300A128A112B270A128A152E
:101C940083120313400883160313A3008312031350
:101CA4003F0883160313A200831203133E0883160E
:101CB4000313A100831203133D0883160313A0002A
:101CC400650883120313A8008316031364088312A0
:101CD4000313A70083160313630883120313A600D8
:101CE40083160313620883120313A50083160313D8
:101CF400230883120313AC008316031322088312F0
:101D04000313AB0083160313210883120313AA00E1
:101D140083160313200883120313A9000A128A11DD
:101D240033200A128A158312031328088316031317
:101D3400A30083120313270883160313A20083123C
:101D44000313260883160313A10083120313250823
:101D540083160313A0000030F6000030F5000030B5
:101D6400F4000030F3002308FA002208F9002108E7
:101D7400F8002008F7000A128A1556200A128A155C
:101D8400031CC52EC62ED02E003083160313A300C9
:101D94000030A2000030A1000030A000831603131D
:101DA400230883120313D600831603132208831215
:101DB4000313D50083160313210883120313D400DD
:101DC40083160313200883120313D300C130D700F2
:101DD4000030D800D901D90A0A128A1194230A12B0
:101DE4008A15F701F70A01300A168A110A250A1220
:101DF4008A150D30F6008030F7000A128A1510207B
:101E04000A128A15F701F70A02300A168A110A25FE
:101E14000A128A15C130F6000030F7000A128A153A
:101E240010200A128A1583120313881E1A2F1B2FDF
:101E3400752F8030E7006708BD000A300A168A1142
:101E440052250A128A158316031361088312031399
:101E5400C00083160313600883120313BF008316A4
:101E640003135F0883120313BE00831603135E0873
:101E740083120313BD0001300A128A112B270A12A0
:101E84008A15831203134008EF003F08EE003E0852
:101E9400ED003D08EC006F08D6006E08D5006D0813
:101EA400D4006C08D3009030D7000130D800D90199
:101EB400D90A0A128A1194230A128A150830831245
:101EC4000313E7006708F70002300A168A110A258F
:101ED4000A128A159030F6000130F7000A128A15AA
:101EE40010200A128A1583120313081E7A2F7B2FDF
:101EF400E12D8030E7006708AF0032300A168A11FE
:101F04006F260A128A15831203132F08E80030087B
:101F1400E9003108EA003208EB00831603135E0877
:101F240083120313E802831603135F08031C5F0F75
:101F34009C2F9F2F83120313E90283160313600857
:101F4400031C600FA62FA92F83120313EA02831622
:101F540003136108031C610FB02FB32F8312031303
:101F6400EB0283160313831203136B08C0006A0881
:101F7400BF006908BE006808BD0001300A128A115A
:101F84002B270A128A15831203134008831603139E
:101F9400DD00831203133F0883160313DC0083124E
:101FA40003133E0883160313DB00831203133D0857
:101FB40083160313DA005D08F6005C08F5005B087D
:101FC400F4005A08F3004430FA007A30F900003083
:101FD400F8000030F7000A128A15FA200A128A154E
:101FE400760883160313E5007508E4007408E3001B
:101FF4007308E200E12D0A128A110C28FF1B0A283B
:1020040083137F1883170008840A0319FF0A080042
:1020140010308A000408840A82070034BD34D234A4
:10202400A3344834003400347A3444348034D23411
:10203400A33447345034453453344F343A340034A1
:0A2044004F34663466343A34003439
:10293400F300730883120313860008006400800107
:10294400840A0406031900340406A12CA534473470
:10295400013400342134553443343B34760875044F
:10296400740473040319B72CB82CBA2C8030F606FF
:10297400080000300A168A11F0240A168A11013060
:102984000A168A11F0240A168A1108007E088A00A1
:102994007F0882000A168A11C8240A168A11800048
:1029A400840A04087D0603190034FF0A0319FE0A89
:1029B400CC2C83160313881308178312031388136C
:1029C4000630F5001330F400AD30F300F30BE82CBF
:1029D400F40BE82CF50BE82CEF2C0800F60083121E
:1029E4000313091076080A168A119A240A168A1102
:1029F4008312031309150B30F5006230F400F40B55
:102A0400012DF50B012D0000831203130911080099
:102A1400F9007903031D0F2D102D1C2D77087F3E1F
:102A2400F8007808FA007A080A168A11F0240A16BF
:102A34008A112D2D02307906031D212D222D2D2DD5
:102A44007708BF3EF8007808FA007A080A168A1157
:102A5400F0240A168A110800803083120313CE066C
:102A64005208B5005108B4005008B3004F08B20032
:102A74004E08B9004D08B8004C08B7004B08B60022
:102A84000A128A15DD220A168A11831203133508E5
:102A9400CE003408CD003308CC003208CB00080047
:102AA40083120313BF003D08BE003E08AF003F0879
:102AB4000A168A116F260A168A1183120313320822
:102AC40083160313E10083120313310883160313DF
:102AD400E00083120313300883160313DF0083120C
:102AE40003132F0883160313DE0008008312031355
:102AF4000C1F7D2D7E2D992D1F0CF000700C0F39AD
:102B0400003A031D862D872D922D1E08F000031018
:102B1400700C7D3E95000130F00070088707982DF9
:102B24001E08F0000310700C7D3E9B000C1372080D
:102B34008A00710E8300FE0E7E0E090083120313B9
:102B4400A400A001A1017308F500F6017508A20014
:102B54007608A300241CAF2DB02DB62D2208A007A3
:102B64000318A10A2308A10701300310A20DA30D25
:102B7400FF3E031DB72D0310A40C2408031DC32D11
:102B8400C42DAC2D2108F4002008F3000800003007
:102B94000A168A119A240A168A113430F800F13080
:102BA400F700F70BD32DF80BD32DD82D30300A16A0
:102BB4008A11F0240A168A110D30F800FB30F70050
:102BC400F70BE22DF80BE22DE72D30300A168A11AF
:102BD400F0240A168A111D30F8009130F700F70B23
:102BE400F12DF80BF12D30300A168A11F0240A1653
:102BF4008A1138300A168A11F0240A168A110C3008
:102C04000A168A11F0240A168A1106300A168A1145
:102C1400F0240A168A11080003308316031788006B
:102C240089010330831603138500081688160817D4
:102C3400881786018901831203138501860188019F
:102C44008901831603130F178F160F160F149F1382
:102C54001F129F12831203131F083F3980389F00ED
:102C6400C3309F058530F300F30B362E8312031314
:102C74001F148530F300F30B3D2E83160313071541
:102C84008714FA3092003F308312031397051D080E
:102C9400F0390C389D001708F0390C3897000F30C4
:102CA40095000F309B00CF3097051D129D128C109C
:102CB4000330920412158C1C602E612E5D2E8C1034
:102CC4008316031307118710831203130C1383163F
:102CD40003130C170B178B17080083120313B70089
:102CE4000030BB000030BA000030B9000030B8003A
:102CF400BC01BC2E2F080A128A1150260A168A110A
:102D04007408831203133807B3000030031801302A
:102D14007507B5010318B50A3907B4000318B50AD5
:102D240076083507B6010318B60A3A07B500031842
:102D3400B60A770836073B07B6003608BB003508E5
:102D4400BA003408B9003308B80002308312031300
:102D5400B5000430B400B930B300B30BAF2EB40BDC
:102D6400AF2EB50BAF2EB62E013083120313B30072
:102D74003308BC0737083C02031CC12EC22E7C2E2C
:102D84003C08B300B401B501B6013608F6003508B5
:102D9400F5003408F4003308F3003B08FA003A085D
:102DA400F9003908F8003808F7000A168A11632771
:102DB4000A168A11760883120313B2007508B1004B
:102DC4007408B0007308AF0008000310750D760D89
:102DD40083120313A0002008F8007808031DF32EC3
:102DE400F42EFD2E0030F6000030F5000030F40023
:102DF4000030F300622F7308A0007408A100750866
:102E0400A2007608A3001F300310A30CA20CA10C8F
:102E1400A00CFF3E031D062F2008A4002408F70081
:102E2400F517FF30F305FF30F405FF30F5050030EA
:102E3400F6059630F802F81F202F212F3B2F780833
:102E4400803A973E0318272F282F292FF42E01307C
:102E54000310F60CF50CF40CF30CFF3E031D2A2FA3
:102E64000130A0002008F807031D392F3A2F292F1D
:102E7400522F20307802031C402F412F4D2FF42E67
:102E84000130A0000310F30DF40DF50DF60DA00BA9
:102E9400442F0130F8027808031D512F522F422F7E
:102EA40077080319562F572F622FF309F409F509F0
:102EB400F609F30A0319F40A0319F50A0319F60AC1
:102EC400080083120313A201F61F692F6A2F772FBC
:102ED400F309F409F509F609F30A0319F40A0319C5
:102EE400F50A0319F60AA201A20AFA1F7A2F7B2F08
:102EF4008A2FF709F809F909FA09F70A0319F80AF0
:102F04000319F90A0319FA0A0130A0002008A206DD
:102F14000030A6000030A5000030A4000030A3005B
:102F240076087504740473040319992F9A2FE72FF4
:102F3400A101A10AAA2F0130A0000310F30DF40D82
:102F4400F50DF60DA00B9F2F0130A0002008A1075E
:102F5400F61FAD2FAE2F9D2F0130A0000310A30D3F
:102F6400A40DA50DA60DA00BB02F76087A02031DA3
:102F7400C52F75087902031DC52F74087802031D37
:102F8400C52F73087702031CC82FC92FD82F7308C5
:102F9400F7027408031C740FF8027508031C750FFC
:102FA400F9027608031C760FFA0223140130031089
:102FB400F60CF50CF40CF30CFF3E031DD92F013075
:102FC400A102031DE62FE72FAE2F22080319EB2FD2
:102FD400EC2FF72FA309A409A509A609A30A03192D
:102FE400A40A0319A50A0319A60A2608F600250847
:0C2FF400F5002408F4002308F300080096
:04400E00C420FF3F8C
:00000001FF
