:020000040000FA
:060000000A128A110C280F
:10000800FE00030EF1000A08F2000A168A11312ECA
:100018000A128A110F288313DB30FD000830FE0016
:100028000030FF00D33084000A168A1124230A12F4
:100038008A11831790308400C2300A168A11F2227E
:100048000A128A118313A0308400D3300A168A1149
:10005800F2220A128A11EC01F801F901FA0183016E
:100068000A128A11982B8312031328088039AD00CD
:100078002D08B2002808AD002D07AE002E08B800E4
:10008800A71F4728482849283814380803194D2835
:100098004E285D28380A031D522853285B28003053
:1000A800A8000030A7000030A6000030A500A71760
:1000B80065280030A8000030A7000030A6000030F6
:1000C800A5002C088039AD002D08B2062C08AD001B
:1000D8002D07AE002E08B300AB1F732874287528AF
:1000E80033143308031979287A288928330A031D19
:1000F8007E287F2887280030AC000030AB00003015
:10010800AA000030A900AB1791280030AC000030DD
:10011800AB000030AA000030A90033080319952865
:1001280096289B283808031D9A289B28A428003065
:10013800A8000030A7000030A6000030A500972BCB
:100148002508AD002D08F3002B080A168A11022491
:100158000A128A11740883120313BE007308BD00C3
:100168003D08AD00AE01AF01B0013008B7002F085F
:10017800B6002E08B5002D08B4003E08AD00AE014B
:10018800AF01B0013008BC002F08BB002E08BA0030
:100198002D08B9002608AD002D08F3002A080A1614
:1001A8008A1102240A128A11740883120313BE00EA
:1001B8007308BD003D08AD00AE01AF01B0012D08C8
:1001C800B4072E0803110318013E0319EC28B507DC
:1001D8002F0803110318013E0319F328B607300846
:1001E80003110318013E0319FA28B7073E08AD00AA
:1001F800AE01AF01B0012D08B9072E08031103188D
:10020800013E03190829BA072F0803110318013EF4
:1002180003190F29BB07300803110318013E0319FE
:100228001629BC072708AD002D08F30029080A166F
:100238008A1102240A128A11740883120313BE0059
:100248007308BD003D08AD00AE01AF01B0012D0837
:10025800B4072E0803110318013E03193429B50702
:100268002F0803110318013E03193B29B60730086C
:1002780003110318013E03194229B7073E08AD00D0
:10028800AE01AF01B0012D08B9072E0803110318FC
:10029800013E03195029BA072F0803110318013E1C
:1002A80003195729BB07300803110318013E031926
:1002B8005E29BC070830AD000310B40DB50DB60DAE
:1002C800B70DAD0B60292608AD002D08F3002908ED
:1002D8000A168A1102240A128A1174088312031357
:1002E800BE007308BD003D08AD003E08AE00AF017A
:1002F800B0012D08B4072E0803110318013E031995
:100308008629B5072F0803110318013E03198D2903
:10031800B607300803110318013E03199429B707DB
:100328002508AD002D08F3002A080A168A110224B0
:100338000A128A11740883120313BE007308BD00E1
:100348003D08AD003E08AE00AF01B0012D08B4076E
:100358002E0803110318013E0319B329B5072F0806
:1003680003110318013E0319BA29B607300803110F
:100378000318013E0319C129B7070830AD0003105F
:10038800B40DB50DB60DB70DAD0BC3292508AD00DD
:100398002D08F30029080A168A1102240A128A1164
:1003A800740883120313BE007308BD003D08AD0036
:1003B8003E08AE00AF01B0012D08B4072E080311A6
:1003C8000318013E0319E929B5072F08031103187B
:1003D800013E0319F029B607300803110318013E3E
:1003E8000319F729B7072608AD002D08F3002B08D5
:1003F8000A168A1102240A128A1174088312031336
:10040800BE007308BD003D08AD003E08AE00AF0158
:10041800B0012D08B9072E0803110318013E03196E
:10042800162ABA072F0803110318013E03191D2ABB
:10043800BB07300803110318013E0319242ABC071F
:100448002708AD002D08F3002A080A168A1102248D
:100458000A128A11740883120313BE007308BD00C0
:100468003D08AD003E08AE00AF01B0012D08B90748
:100478002E0803110318013E0319432ABA072F084F
:1004880003110318013E03194A2ABB073008031158
:100498000318013E0319512ABC072708AD002D088F
:1004A800F3002B080A168A1102240A128A1174080A
:1004B80083120313BE007308BD003D08AD003E085B
:1004C800AE00AF01B00108300310AD0DAE0DAF0D99
:1004D800B00DFF3E031D682A2D08B9072E08031129
:1004E8000318013E0319792ABA072F0803110318C4
:1004F800013E0319802ABB07300803110318013E87
:100508000319872ABC073408AD003508AE00360841
:10051800AF003708B00018300310B00CAF0CAE0CA9
:10052800AD0CFF3E031D902A2D08B9072E080311B4
:100538000318013E0319A12ABA072F08031103184B
:10054800013E0319A82ABB07300803110318013E0E
:100558000319AF2ABC070830AD000310B40DB50D60
:10056800B60DB70DAD0BB12A38083307AD00AE0193
:10057800AE0D2D08823EBD002E080318013EFF3E39
:10058800BE00E32A0130AD000310B90DBA0DBB0D52
:10059800BC0DAD0BC82AB71FD22AD32AD42A3914C6
:1005A8000130AD000310B40DB50DB60DB70DAD0B90
:1005B800D62AFF30BD070318BE0AFF30BE07BB1F8F
:1005C800E62AE72AC62AB301B71FEB2AEC2A082B2A
:1005D800FF303405AD00FF303505AE00FF3036057D
:1005E800AF007F303705B00030082F042E042D04EB
:1005F8000319FF2A002B032BB301B30A082B391C5C
:10060800062B072B082B002B330803190C2B0D2B5B
:100618003E2B0130B907003003180130BA0700300B
:1006280003180130BB07003003180130BC073C1C1D
:100638001E2B1F2B3E2B3908AD003A08AE003B0895
:10064800AF003C08B0000130B100300DB00CAF0C69
:10065800AE0CAD0CB10B292B3008BC002F08BB0029
:100668002E08BA002D08B9000130BD070318BE0ACC
:100678000030BE073E08803AFF0080307F02031D2D
:10068800472BFF303D02031C4A2B4B2B562B7F3048
:1006980083120313BC008030BB000030BA00003066
:1006A800B9008B2B831203133E08803AFF00803079
:1006B8007F02031D612B01303D020318642B652B5B
:1006C800712B003083120313BC000030BB000030D4
:1006D800BA000030B900B2018B2B831203133D0816
:1006E800AD002D08B800FF30B905FF30BA057F30DE
:1006F800BB050030BC05381C822B832B842BBB1711
:100708003808AD0003102D0CAE002E08BC003208CE
:10071800AD002D08BC043C08A8003B08A7003A0817
:10072800A6003908A50008000A168A11D2240A1260
:100738008A110A168A1133230A128A11831603139F
:10074800560883120313C000831603135508831237
:100758000313BF0083160313540883120313BE0048
:1007680083160313530883120313BD0001300A12C2
:100778008A1523200A128A1183120313400883164C
:100788000313DE00831203133F0883160313DD00EF
:10079800831203133E0883160313DC00831203132A
:1007A8003D0883160313DB005E0883120313D6008B
:1007B800831603135D0883120313D50083160313EE
:1007C8005C0883120313D400831603135B08831297
:1007D8000313D300A930D7000130D800D901D90AB2
:1007E8000A128A1544250A128A110A128A11B02798
:1007F8000A128A110A168A1105230A128A11083068
:1008080083120313E7006708F70001300A168A11FC
:10081800B6230A128A111330F6008030F7000A1640
:100828008A118C240A128A11083083120313E700F4
:100838006708F70002300A168A11B6230A128A11CD
:10084800A930F6000130F7000A168A118C240A1222
:100858008A11831203139F140A128A1508200A1298
:100868008A110A168A112B240A128A11003A0319CE
:100878003E2C3F2C5D2C6C300A168A1157240A1224
:100888008A1178300A168A1157240A128A117A3086
:100898000A168A1157240A128A1179300A168A11FF
:1008A80057240A128A11D2300A168A1157240A12BA
:1008B8008A11063083120313E9001330E800AD30C3
:1008C800E700E70B652CE80B652CE90B652C831218
:1008D80003139F18702C712C8B2C1F0CE700670CCE
:1008E8000F39003A031D792C7A2C7F2C1F08C33945
:1008F80004389F00812CC3309F0584308312031372
:10090800E700E70B852C0000831203139F14803047
:10091800E7006708AF000A300A168A113D250A1257
:100928008A11831203132F08E8003008E900310800
:10093800EA003208EB0083160313530883120313EB
:10094800E802831603135408031C540FAC2CAF2C75
:1009580083120313E902831603135508031C550F6A
:10096800B62CB92C83120313EA0283160313560814
:10097800031C560FC02CC32C83120313EB028316DF
:100988000313831203136B08C0006A08BF006908C9
:10099800BE006808BD0001300A128A1523200A1219
:1009A8008A1183120313400883160313AD008312C0
:1009B80003133F0883160313AC00831203133E0886
:1009C80083160313AB00831203133D088316031326
:1009D800AA005A0883120313A800831603135908A0
:1009E80083120313A70083160313580883120313F3
:1009F800A60083160313570883120313A500831652
:100A080003132D0883120313AC00831603132C0859
:100A180083120313AB00831603132B0883120313EB
:100A2800AA00831603132A0883120313A9000A12C3
:100A38008A1137200A128A11831203132808831691
:100A48000313AD0083120313270883160313AC00A6
:100A580083120313260883160313AB0083120313B0
:100A6800250883160313AA00003083120313A3007A
:100A78000030A2000030A1000030A000831603134C
:100A88002D0883120313A700831603132C0883125F
:100A98000313A600831603132B0883120313A50060
:100AA800831603132A0883120313A4000A168A1153
:100AB8005C270A128A11031C622D632D6D2D0030EC
:100AC80083160313AD000030AC000030AB000030DB
:100AD800AA00831603132D0883120313D600831666
:100AE80003132C0883120313D500831603132B0852
:100AF80083120313D400831603132A0883120313E3
:100B0800D300B530D7000030D800D901D90A0A126D
:100B18008A1544250A128A11F701F70A01300A16C4
:100B28008A11B6230A128A110D30F6008030F700B8
:100B38000A168A118C240A128A11F701F70A023060
:100B48000A168A11B6230A128A11B530F600003047
:100B5800F7000A168A118C240A128A1183120313C9
:100B6800881EB72DB82D2E2E8030E7006708BD00EF
:100B78000A300A168A11DC230A128A118316031313
:100B8800560883120313C0008316031355088312F3
:100B98000313BF0083160313540883120313BE0004
:100BA80083160313530883120313BD0001300A127E
:100BB8008A1523200A128A11831203134008831608
:100BC8000313DE00831203133F0883160313DD00AB
:100BD800831203133E0883160313DC0083120313E6
:100BE8003D0883160313DB005E0883120313D60047
:100BF800831603135D0883120313D50083160313AA
:100C08005C0883120313D400831603135B08831252
:100C18000313D3009030D7000130D800D901D90A86
:100C28000A128A1544250A128A11083083120313FE
:100C3800E7006708F70002300A168A11B6230A127D
:100C48008A119030F6000130F7000A168A118C24B8
:100C58000A128A1183120313081E332E342E302CE5
:100C68008030E7006708AF0032300A168A113D2548
:100C78000A128A11831203132F08E8003008E900CA
:100C88003108EA003208EB00831603135308831275
:100C98000313E802831603135408031C540F552E3C
:100CA800582E83120313E902831603135508031CF5
:100CB800550F5F2E622E83120313EA028316031365
:100CC8005608031C560F692E6C2E83120313EB0271
:100CD80083160313831203136B08C0006A08BF004E
:100CE8006908BE006808BD0001300A128A15232071
:100CF8000A128A1183120313400883160313D100C2
:100D0800831203133F0883160313D00083120313BF
:100D18003E0883160313CF00831203133D0883167E
:100D28000313CE00510883120313A3008316031381
:100D3800500883120313A200831603134F0883126B
:100D48000313A100831603134E0883120313A00094
:100D58004430A7007A30A6000030A5000030A40077
:100D68000A128A15DF200A128A1183120313230834
:100D780083160313DA00831203132208831603135E
:100D8800D90083120313210883160313D800831292
:100D98000313200883160313D700302C0A128A1174
:100DA8000C2883120313A8000030AE000030AD00F9
:100DB8000030AC000030AB00081BE32EE42EE02E20
:100DC8001730A9000030AA00AA1FEB2EEC2EED2E3A
:100DD800362F0A168A1112230A128A11013A031DA4
:100DE800F62EF72E2D2F831203132B08A0002C08A4
:100DF800A1002D08A2002E08A3000130A400003095
:100E0800A5000030A6000030A700290A102F031003
:100E1800A40DA50DA60DA70DFF3E031D0B2F24083D
:100E2800A00725080318250F1A2F1B2FA10726082E
:100E38000318260F202F212FA20727080318270A97
:100E4800A3072308AE002208AD002108AC00200843
:100E5800AB00FF3083120313A9070318AA0AFF3057
:100E6800AA07E82E413083120313A000A00B3A2FE3
:100E78003D2F8030831203132806031D442F452F6E
:100E88004B2F0A168A1112230A128A117D2F20303D
:100E98002806031D502F512F5E2F0A168A11122380
:100EA8000A128A11413083120313A000A00B5A2F93
:100EB8005D2F452F40302806031D632F642F7D2F9B
:100EC8000A168A1112230A128A1141308312031357
:100ED800A000A00B6D2F702F0A168A1112230A1278
:100EE8008A11413083120313A000A00B792F7C2FA5
:100EF800452F83120313AD1F822F832FA72F003096
:100F08002B04A00000302C04A10000302D04A20006
:100F1800FF302E04A3002308AE002208AD002108EC
:100F2800AC002008AB002B09F4002C09F5002D09B2
:100F3800F6002E09F700F40A0319F50A0319F60A50
:100F48000319F70AAF2F2E08F7002D08F6002C0812
:100F5800F5002B08F400080000300A128A11FA275D
:100F68000A128A11343083120313A100F130A00051
:100F7800A00BBC2FA10BBC2F30300A168A115E23A0
:100F88000A128A110D3083120313A100FB30A0004E
:100F9800A00BCC2FA10BCC2F30300A168A115E2360
:100FA8000A128A111D3083120313A1009030A00089
:100FB800A00BDC2FA10BDC2F000030300A168A11A1
:100FC8005E230A128A1138300A168A115E230A1221
:100FD8008A110C300A168A115E230A128A11063009
:100FE8000A168A115E230A128A110800F300730890
:100FF8008312031386000800A534473401340034F3
:101008002134553443343B3483160313851083123B
:10101800031385104130F400EE30F300F30B12286F
:10102800F40B122800008312031385141030F30008
:10103800F30B1C2800008316031385140800831281
:101048000313C500450803192A282B283F28C01F69
:101058002E282F283F283D09C7003E09C8003F0910
:10106800C9004009CA00C70A0319C80A0319C90AEE
:101078000319CA0A47284008CA003F08C9003E08A1
:10108800C8003D08C70040083F043E043D04031D56
:101098004E284F2858280030C0000030BF000030CC
:1010A800BE000030BD00DE289630C1004108C600F1
:1010B8006A280130C1004108C60701300310CA0C74
:1010C800C90CC80CC70CFF3E031D6228FE304A0538
:1010D800031D6F2870285D288C280130C100410845
:1010E800C6070130C707003003180130C8070030B1
:1010F80003180130C907003003180130CA0701304E
:101108000310CA0CC90CC80CC70CFF3E031D842869
:10111800FF304A05031D9128922871289E28013026
:10112800C6020130C1000310C70DC80DC90DCA0D94
:10113800C10B9728C91BA128A228A828023046025B
:101148000318A728A82893284618AB28AC28B42841
:10115800FF30C705FF30C8057F30C905FF30CA0515
:101168000310C60C4608C100C201C301C4011830EF
:101178000310C10DC20DC30DC40DFF3E031DBC28D5
:101188004108C7044208C8044308C9044408CA04FB
:1011980045080319D028D128D628C01FD428D52817
:1011A800D628CA174A08C0004908BF004808BE0028
:1011B8004708BD0008008312031327088039F3008D
:1011C8007308AC002708F3007307F4007408B30031
:1011D800A61FEF28F028F128331433080319F5283F
:1011E800F6280629330A031DFA28FB2803290030AC
:1011F800A7000030A6000030A5000030A400A61704
:10120800A7010E290030A7000030A6000030A50075
:101218000030A40023088039F3007308AC062308C3
:10122800F3007307F4007408B400A21F1C291D29D9
:101238001E29341434080319222923293329340A8E
:10124800031D2729282930290030A3000030A200D7
:101258000030A1000030A000A217A3013B290030F4
:10126800A3000030A2000030A1000030A000230835
:10127800220421042004031D422943295C2900304B
:10128800A7000030A6000030A5000030A400803080
:10129800A6047F30A7042C08F3007308A7042708C6
:1012A800A3002608A2002508A1002408A000BB2A44
:1012B8003308031D602961296A290030A300003022
:1012C800A2000030A1000030A000BB2A3308F300C0
:1012D800F4017408F60034087302F500031CF603E1
:1012E80075087F3EAD0076080318013E003EAE004B
:1012F8002708AB002608AA002508A9002408A8008A
:101308000030A7000030A6000030A5000030A4007F
:101318000030B2000030B1000030B0000030AF0043
:10132800B401E029340803199A299B29BB29013003
:10133800F3000310A80DA90DAA0DAB0DF30B9D2901
:101348000130F3000310A40DA50DA60DA70DF30B96
:10135800A629B21FB029B129B22924140130F300FB
:101368000310AF0DB00DB10DB20DF30BB429230866
:101378002B02031DC92922082A02031DC929210895
:101388002902031DC92920082802031CCC29CD29BC
:10139800DC2932172008A8022108031C210FA90202
:1013A8002208031C220FAA022308031C230FAB02E6
:1013B8000130F3007308B4071A303402031CE5291E
:1013C800E62996292B082A04290428040319ED295B
:1013D800EE290D2A2F140D2A0130F3000310A40D55
:1013E800A50DA60DA70DF30BF229B21FFC29FD29A7
:1013F800FE2924140130F3000310AF0DB00DB10D18
:10140800B20DF30B002AFF30AD070318AE0AFF3008
:10141800AE07A61F102A112AF029B401B21F152AF7
:10142800162A322AFF302F05F300FF303005F4006A
:10143800FF303105F5007F303205F6007608750477
:10144800740473040319292A2A2A2D2AB401B40A18
:10145800322A241C302A312A322A2A2A340803192B
:10146800362A372A682A0130A407003003180130C9
:10147800A507003003180130A60700300318013013
:10148800A707271C482A492A682A2408F3002508A0
:10149800F4002608F5002708F6000130F700760D5D
:1014A800F60CF50CF40CF30CF70B532A7608A7008E
:1014B8007508A6007408A5007308A4000130AD07DC
:1014C8000318AE0A0030AE072E08803AFF008030BD
:1014D8007F02031D712AFF302D02031C742A752A0E
:1014E800832AFF3083120313AD000030AE000030B2
:1014F800A7000030A6000030A5000030A400831229
:1015080003132E08803AFF0080307F02031D8E2AC5
:1015180001302D020318912A922A9F2A831203135D
:10152800AD01AE010030A7000030A6000030A500D4
:101538000030A400AC01831203132D08F3007308D4
:10154800B300331CA82AA92AAB2AA617AF2A7F30D2
:10155800F3007308A6053308F3000310730CF400B6
:101568007408A7002C08F3007308A704532908007F
:101578008312031338088039BD003D08C5003808B8
:10158800BD003D07BE003E08C700B71FCC2ACD2AC4
:10159800CE2A471447080319D22AD32AE32A470A2E
:1015A800031DD72AD82AE02A0030B8000030B70037
:1015B8000030B6000030B500B717B801EB2A00308C
:1015C800B8000030B7000030B6000030B5003C0865
:1015D8008039BD003D08C600460845060319F52AAE
:1015E800F62AF72A45173C08BD003D07BE003E080D
:1015F800C600BB1F002B012B022B461446080319FB
:10160800062B072B172B460A031D0B2B0C2B142B11
:101618000030BC000030BB000030BA000030B90018
:10162800BB17BC011F2B0030BC000030BB000030D2
:10163800BA000030B900470846020318242B252BAE
:10164800692B451F282B292B2D2B8030BD003D08E9
:10165800C5064708BD003D08C8004608BD003D084E
:10166800C7004808BD003D08C6003508BD003D0854
:10167800C8003908BD003D08B5004808BD003D0850
:10168800B9003608BD003D08C8003A08BD003D084D
:10169800B6004808BD003D08BA003708BD003D083F
:1016A800C8003B08BD003D08B7004808BD003D081C
:1016B800BB003808BD003D08C8003C08BD003D0817
:1016C800B8004808BD003D08BC00C8014608BD0078
:1016D800BE013E08C00047083D02BF00031CC0030E
:1016E8004008803AFF0080307F02031D7D2B1A30AE
:1016F8003F02031C802B812BBE2B83120313380857
:10170800370436043504031D8A2B8C2B01308D2BAE
:101718000030BD003D08C8000030B8000030B700F8
:101728000030B6000030B5004608BD003D08C700CF
:10173800C62B481CA02BA12BAA2B4808BD000310C0
:101748003D0C0138BE003E08C800AC2B0310C80C85
:10175800351CAF2BB02BB12BC8170130BD00380D8D
:10176800B80CB70CB60CB50CBD0BB32B0130BD00D3
:101778003D08C7078312031346084702031CC52BFD
:10178800C62B9D2B451BC92BCA2B152C4708031D9F
:10179800CE2BCF2BD82B0030B8000030B70000304C
:1017A800B6000030B500432D3908B5073A080311D3
:1017B8000318013E0319E12BB6073B080311031870
:1017C800013E0319E82BB7073C0803110318013E33
:1017D8000319EF2BB807381CF22BF32BC92C481C24
:1017E800F62BF72B002C4808BD0003103D0C0138E0
:1017F800BE003E08C800022C0310C80C351C052C7E
:10180800062C072CC8170130BD00380DB80CB70CD2
:10181800B60CB50CBD0B092C0130BD003D08C7073F
:10182800C92C3808803AFF003C08803A7F02031D23
:10183800272C3B083702031D272C3A083602031DC4
:10184800272C3908350203182A2C2B2C832CFF301F
:10185800BD00FF30BE00FF30BF00FF30C0003908B8
:10186800C1003A08C2003B08C3003C08C400350860
:10187800C1023608031C360F422C432CC20237081B
:10188800031C370F482C492CC3023808031C380F97
:101898004E2C4F2CC4024108BD0742080318420FC2
:1018A800562C572CBE0743080318430F5C2C5D2C9D
:1018B800BF0744080318440AC0074008B8003F0897
:1018C800B7003E08B6003D08B5008030BD003D08B1
:1018D800C506C809C80A4808031D732C742C912C26
:1018E8000130B507003003180130B607003003187F
:1018F8000130B707003003180130B807912C3908B8
:10190800B5023A08031C3A0FB6023B08031C3B0F0A
:10191800B7023C08031C3C0FB802380837043604E9
:101928003504031D982C992CC52C4808031D9D2CA3
:101938009E2CC52C0030B8000030B7000030B6002F
:101948000030B500432D0130BD000310B50DB60DB4
:10195800B70DB80DBD0BA92CC81FB32CB42CB52CD2
:101968003514481CB82CB92CBC2C0314C80DBE2C3B
:101978000310C80D47080319C22CC32CC52C01300D
:10198800C702B71FC82CC92CA72CC601C81FCD2C4D
:10199800CE2CDC2C48087F390319D32CD42CD72C17
:1019A800C601C60ADC2C351CDA2CDB2CDC2CD42C2A
:1019B80046080319E02CE12C152D0130B50700303D
:1019C80003180130B607003003180130B70700309C
:1019D80003180130B807381CF22CF32C152D3508E4
:1019E800BD003608BE003708BF003808C000013007
:1019F800C100400DC00CBF0CBE0CBD0CC10BFD2CB2
:101A08004008B8003F08B7003E08B6003D08B500DA
:101A1800470A0319102D112D152D0130BD003D0861
:101A2800C707470A0319192D1A2D1F2D4708031D2B
:101A38001E2D1F2D2D2D0030B8000030B7000030AE
:101A4800B6000030B5004708031D2B2D2C2D2D2D79
:101A5800C501471C302D312D332DB717372D7F3059
:101A6800BD003D08B7054708BD0003103D0CBE008A
:101A78003E08B800C51F412D422D432DB817080058
:101A8800831203135908013EE100003003180130A6
:101A9800E200E501E6015608A3005508A200540833
:101AA800A1005308A0000030A7000030A6000030B5
:101AB800A5000030A4000A168A115C270A128A15AC
:101AC8000318672D682D902D2D3083120313DA002B
:101AD800570884008317581C83135A088000013064
:101AE800D7070318D80A0030D8075608F600550853
:101AF800F5005408F4005308F3000A168A11FA2274
:101B08000A128A15760883120313D6007508D500C1
:101B18007408D4007308D300003083120313A300A1
:101B28000030A2000030A1000030A0005608A70035
:101B38005508A6005408A5005308A4000A168A11DF
:101B48005C270A128A150318AA2DAB2D162ED32D41
:101B5800413083120313A8002030A7000030A600EC
:101B68000030A5005608AC005508AB005408AA0080
:101B78005308A9000A128A1137200A128A158312FB
:101B880003132808D6002708D5002608D4002508FE
:101B9800D300FF30E5070318E60AFF30E607831293
:101BA80003135608A3005508A2005408A1005308BF
:101BB800A0003F30A7008030A6000030A50000300C
:101BC800A4000A168A115C270A128A15031CED2D37
:101BD800EE2DAC2D162E413083120313A3002030B6
:101BE800A2000030A1000030A0005608A700550848
:101BF800A6005408A5005308A4000A128A15DF207D
:101C08000A128A15831203132308D6002208D50066
:101C18002108D4002008D3000130E5070318E60A9C
:101C28000030E607831203135608A3005508A200E4
:101C38005408A1005308A0004130A7002030A60096
:101C48000030A5000030A4000A168A115C270A1289
:101C58008A150318302E312EEF2D831203136508D1
:101C68006107E10066080318660A6207E2000130AE
:101C7800E3000030E4006308BD006408BE000030E3
:101C8800BE1BFF30BF00C00001300A128A15232096
:101C98000A128A15831203134008E0003F08DF0088
:101CA8003E08DE003D08DD00802E4130831203131C
:101CB800A3002030A2000030A1000030A00060087E
:101CC800A7005F08A6005E08A5005D08A4000A1228
:101CD8008A15DF200A128A15831203132308E000ED
:101CE8002208DF002108DE002008DD000130E307BC
:101CF8000318E40A0030E4076408803ADA0062084E
:101D0800803A5A02031D8A2E61086302031C8D2E35
:101D18008E2E592E831203136008A7005F08A600B1
:101D28005E08A5005D08A4004030A3000030A200B2
:101D38000030A1000030A0000A128A15DF200A1224
:101D48008A15831203132308B8002208B700210854
:101D5800B6002008B5005608BC005508BB0054085A
:101D6800BA005308B9000A128A15BC220A128A1549
:101D7800831203133808D6003708D5003608D40074
:101D88003508D3005608A3005508A2005408A1003E
:101D98005308A0004130A7002030A6000030A5005D
:101DA8000030A4000A168A115C270A128A15031C3F
:101DB800DE2EDF2EEF2E3F3083120313D600803045
:101DC800D5000030D4000030D3000130E5070318F7
:101DD800E60A0030E60783120313E61FF42EF52EF9
:101DE800492F3030DA00570884008317581C8313B2
:101DF8005A0880000130D7070318D80A0030D807DE
:101E08002E30DA00570884008317581C83135A08A9
:101E180080000130D7070318D80A0030D807E21F1E
:101E2800162F172F1F2F61086502E5006208031C93
:101E3800620A6602E600FF30E300FF30E4003B2F51
:101E4800303083120313DA00570884008317581CB4
:101E580083135A0880000130D7070318D80A0030C6
:101E6800D807FF30E3070318E40AFF30E4076608E1
:101E7800803ADA006408803A5A02031D452F630845
:101E88006502031C482F492F242F83120313E301F3
:101E9800E401E92F831203135608F6005508F500EC
:101EA8005408F4005308F3000A168A11B5250A12DB
:101EB8008A15740883120313DC007308DB005B08BF
:101EC800303EDA00570884008317581C83135A08D9
:101ED80080000130D7070318D80A0030D8076608F1
:101EE8006406031D792F65086306031D7C2F7D2F6B
:101EF8008C2F2E30DA00570884008317581C831360
:101F08005A0880000130D7070318D80A0030D807CC
:101F18005B08BD005C08BE000030BE1BFF30BF0080
:101F2800C00001300A128A1523200A128A1583126A
:101F380003134008E0003F08DF003E08DE003D08CC
:101F4800DD006008CE005F08CD005E08CC005D08AB
:101F5800CB005608D2005508D1005408D0005308C9
:101F6800CF000A168A1192230A128A1583120313C4
:101F78004E08D6004D08D5004C08D4004B08D300B5
:101F88004130A8002030A7000030A6000030A5008E
:101F98005608AC005508AB005408AA005308A9001D
:101FA8000A128A1137200A128A1583120313280885
:101FB800D6002708D5002608D4002508D30001300C
:101FC800E3070318E40A0030E4076408803ADA00FB
:101FD8006208803A5A02031DF32F61086302031C4A
:101FE800F62FF72F4E2F83120313570884008317F9
:101FF800581C831380010800FF1B0A2883137F18CD
:1020080083170008840A0319FF0A080010308A00A1
:102018000408840A82070034BD34D234A334483417
:10202800003400347A3444348034D234A33447340E
:102038005034453453344F343A3400344F346634D2
:0620480066343A34003456
:1025E40064008001840A0406031900340406F32AF3
:1025F40076087504740473040319012B022B042B4D
:102604008030F606080000300A168A115E230A1686
:102614008A1101300A168A115E230A168A110800EB
:10262400831203138817162B003083120313081B1D
:102634000130F30088131E2B730808007E088A00FB
:102644007F0882000A168A1120230A168A11800044
:10265400840A04087D0603190034FF0A0319FE0ADC
:10266400242B831603138813081783120313881368
:102674000630F5001330F400AD30F300F30B402BBB
:10268400F40B402BF50B402B472B0800F50083126D
:102694000313091475080A128A11FA270A168A11F3
:1026A4008312031309150630F400F40B572B0000B2
:1026B4008312031309110800F6008312031309108F
:1026C40076080A128A11FA270A168A11831203134A
:1026D40009150B30F5006230F400F40B6F2BF50B89
:1026E4006F2B00008312031309110800F300730811
:1026F400831603139300363083120313940080303F
:1027040083160313940001309100871507168B1765
:102714000B17831203138C11831603138C150800F3
:10272400803083120313CE065208B8005108B70054
:102734005008B6004F08B5004E08BC004D08BB0059
:102744004C08BA004B08B9000A128A15BC220A16B2
:102754008A11831203133808CE003708CD003608D7
:10276400CC003508CB00080083120313A100210319
:10277400031DBD2BBE2BCA2B77087F3EA00020086B
:10278400A20022080A168A115E230A168A11DB2B7C
:1027940002302106031DCF2BD02BDB2B7708BF3E45
:1027A400A0002008A20022080A168A115E230A1635
:1027B4008A11080083120313BF003D08BE003E08BF
:1027C400AF003F080A168A113D250A168A118312A2
:1027D4000313320883160313D6008312031331083C
:1027E40083160313D50083120313300883160313CF
:1027F400D400831203132F0883160313D300080095
:1028040083120313A400A001A1017308F500F601CB
:102814007508A2007608A300241C112C122C182C75
:102824002208A0070318A10A2308A10701300310F6
:10283400A20DA30DFF3E031D192C0310A40C2408A4
:10284400031D252C262C0E2C2108F4002008F3004F
:102854000800831203138F018E0110148518332C82
:10286400342C3A2C64300E02031C392C3A2C302CB4
:1028740064300E02031C3F2C402C422C0030562C9A
:102884008F018E01851C472C482C4E2C64300E027F
:10289400031C4D2C4E2C442C64300E02031C532C70
:1028A400542C552C402C01300800F5007508840088
:1028B40083138001F60183120313851C622C632C9D
:1028C4005D2C8F018E018518682C692C652C3330A2
:1028D4000E02031C6E2C6F2C812C0130F300760841
:1028E400073C013E772C0310F30DFF3E031D752CAE
:1028F4007308F4007508840074088313800401309D
:10290400F3007308F60708307602031C8A2C8B2C1C
:102914005D2C080083120313A301A401B52C230822
:102924007607A1007708A0000318A00AA31F9B2C18
:10293400A003831203132008A2002208FF00210829
:1029440084000A168A1100200A168A110A168A11AE
:1029540048230A168A11013083120313A3070318AC
:10296400A40A0030A40723087607A1007708A00072
:102974000318A00AA31FBF2CA0038312031320086B
:10298400A2002208FF00210884000A168A110020F0
:102994000A168A11003A031DD02CD12C912C080060
:1029A4000330831603178800890103308316031349
:1029B400850008168816081788178601890183126E
:1029C4000313850186018801890110300A168A11D2
:1029D40078230A168A11831603130F178F160F16FE
:1029E4000F149F131F129F12831203131F083F39E2
:1029F40080389F00C3309F058530F400F40B002D10
:102A0400831203131F148530F400F40B072D83166F
:102A1400031307158714FA3092003F30831203130F
:102A240097051D08F0390C389D001708F0390C384B
:102A340097000F3095000F309B00CF3097051D1283
:102A44009D128C10033092041215103090008F01E7
:102A54008E018C1C2E2D2F2D2B2D8C1083160313E1
:102A640007118710831203130C13831603130C1717
:102A74000B178B17080083120313B7000030BB0039
:102A84000030BA000030B9000030B800BC018A2D13
:102A94002F080A128A11D5260A168A11740883127D
:102AA40003133807B3000030031801307507B5016C
:102AB4000318B50A3907B4000318B50A76083507B0
:102AC400B6010318B60A3A07B5000318B60A770820
:102AD40036073B07B6003608BB003508BA00340891
:102AE400B9003308B800023083120313B500043070
:102AF400B400B930B300B30B7D2DB40B7D2DB50BF1
:102B04007D2D842D013083120313B3003308BC07D9
:102B140037083C02031C8F2D902D4A2D3C08B3002E
:102B2400B401B501B6013608A3003508A200340883
:102B3400A1003308A0003B08A7003A08A600390802
:102B4400A5003808A4000A168A11BF260A168A119D
:102B5400831203132308B2002208B1002108B00035
:102B64002008AF0008000310750D760D83120313BF
:102B7400A0002008A6002608031DC12DC22DCB2DC0
:102B84000030F6000030F5000030F4000030F300AF
:102B9400302E7308A0007408A1007508A2007608FE
:102BA400A3001F300310A30CA20CA10CA00CFF3E29
:102BB400031DD42D2008A4002408A500F517FF3018
:102BC400F305FF30F405FF30F5050030F6059630C7
:102BD400A602A61FEE2DEF2D092E2608803A973E59
:102BE4000318F52DF62DF72DC22D01300310F60C28
:102BF400F50CF40CF30CFF3E031DF82D0130A0007E
:102C04002008A607031D072E082EF72D202E20309E
:102C14002602031C0E2E0F2E1B2EC22D0130A000E7
:102C24000310F30DF40DF50DF60DA00B122E01306B
:102C3400A6022608031D1F2E202E102E2508031978
:102C4400242E252E302EF309F409F509F609F30A8A
:102C54000319F40A0319F50A0319F60A0800831282
:102C640003130C1F362E372E522E1F0CF000700C3F
:102C74000F39003A031D3F2E402E4B2E1E08F00044
:102C84000310700C7D3E95000130F000700887073A
:102C9400512E1E08F0000310700C7D3E9B000C1397
:102CA4008C1D552E562EB82E1412141B5A2E5B2E24
:102CB4005F2E941F5E2E5F2E6A2E1308F00070089C
:102CC40083160313B30083120313141394131416FB
:102CD40083160313941A6F2E702E942E1419732EC8
:102CE400742E942E831203131308F00070088316B5
:102CF4000313B300831203138C11141683160313E6
:102D0400141C852E862E802E831203131308F000C4
:102D1400700883160313B200A630F000F00B902E57
:102D24000000B52E941A972E982EB52E141D9B2EA6
:102D34009C2EB52E831203131308F000700883161B
:102D44000313B3001410831203136C0893001416B6
:102D5400A630F000F00BAC2E0000831603131418F9
:102D6400B42EB52EAF2E831203138C1172088A0071
:102D7400710E8300FE0E7E0E090083120313A90157
:102D8400A31FC52EC62ED32EA009A109A209A309EB
:102D9400A00A0319A10A0319A20A0319A30AA90183
:102DA400A90AA71FD62ED72EE62EA409A509A6097F
:102DB400A709A40A0319A50A0319A60A0319A70A4D
:102DC4000130F3007308A9060030AD000030AC00F8
:102DD4000030AB000030AA002308220421042004A0
:102DE4000319F52EF62E432FA801A80A062F013049
:102DF400F3000310A00DA10DA20DA30DF30BFB2EE8
:102E04000130F3007308A807A31F092F0A2FF92E16
:102E14000130F3000310AA0DAB0DAC0DAD0DF30B97
:102E24000C2F23082702031D212F22082602031D2D
:102E3400212F21082502031D212F20082402031C11
:102E4400242F252F342F2008A4022108031C210F2E
:102E5400A5022208031C220FA6022308031C230F29
:102E6400A7022A1401300310A30CA20CA10CA00C7D
:102E7400FF3E031D352F0130A802031D422F432FAF
:102E84000A2F29080319472F482F532FAA09AB09E2
:102E9400AC09AD09AA0A0319AB0A0319AC0A031950
:102EA400AD0A2D08A3002C08A2002B08A1002A08B3
:102EB400A00008000030831203132005F300003043
:102EC4002105F40080302205F5007F302305F6004B
:102ED4007608750474047304031D712F722F7A2FFE
:102EE4000030A3000030A2000030A1000030A00098
:102EF40000302405F30000302505F4008030260559
:102F0400F5007F302705F600760875047404730411
:102F1400031D8D2F8E2F962F0030A7000030A600A2
:102F24000030A5000030A400A31F992F9A2FBE2FB4
:102F34000030F3000030F4000030F5008030F6007B
:102F44002008F3022108031C210FA92FAA2FF40241
:102F54002208031C220FAF2FB02FF5022308031CF5
:102F6400230FB52FB62FF6027608A3007508A2002A
:102F74007408A1007308A000A71FC12FC22FE62F59
:102F84000030F3000030F4000030F5008030F6002B
:102F94002408F3022508031C250FD12FD22FF40295
:102FA4002608031C260FD72FD82FF5022708031C49
:102FB400270FDD2FDE2FF6027608A7007508A6007E
:102FC4007408A5007308A4008030A3068030A70607
:102FD40027082302031DF82F26082202031DF82FB9
:102FE40025082102031DF82F240820020318FB2FB3
:0C2FF400FC2FFE2F0310FF2F0314080019
:04400E00C420FF3F8C
:00000001FF
