:060000000A128A11B22F62
:10000C0083120313BD003D0803190D280E28222866
:10001C00B81F1128122822283509BF003609C00044
:10002C003709C1003809C200BF0A0319C00A0319F5
:10003C00C10A0319C20A2A283808C2003708C100AD
:10004C003608C0003508BF003808370436043504BC
:10005C00031D312832283B280030B8000030B7008F
:10006C000030B6000030B500C1289630B900390810
:10007C00BE004D280130B9003908BE07013003100D
:10008C00C20CC10CC00CBF0CFF3E031D4528FE303A
:10009C004205031D5228532840286F280130B9000F
:1000AC003908BE070130BF07003003180130C00704
:1000BC00003003180130C107003003180130C207AB
:1000CC0001300310C20CC10CC00CBF0CFF3E031D51
:1000DC006728FF304205031D742875285428812891
:1000EC000130BE020130B9000310BF0DC00DC10DAF
:1000FC00C20DB90B7A28C11B842885288B280230A5
:10010C003E0203188A288B2876283E188E288F28C2
:10011C009728FF30BF05FF30C0057F30C105FF3089
:10012C00C2050310BE0C3E08B900BA01BB01BC01EC
:10013C0018300310B90DBA0DBB0DBC0DFF3E031DDD
:10014C009F283908BF043A08C0043B08C1043C0886
:10015C00C2043D080319B328B428B928B81FB7281E
:10016C00B828B928C2174208B8004108B70040089F
:10017C00B6003F08B500080083120313A00000303E
:10018C00A6000030A5000030A4000030A300081B1E
:10019C00D028D128CD281730A1000030A200A21FF2
:1001AC00D828D928DA2823290A128A1504200A12F9
:1001BC008A11013A031DE328E4281A298312031338
:1001CC002308F5002408F6002508F7002608F80097
:1001DC000130F9000030FA000030FB000030FC0068
:1001EC00210AFD280310F90DFA0DFB0DFC0DFF3E45
:1001FC00031DF8287908F5077A0803187A0F0729E0
:10020C000829F6077B0803187B0F0D290E29F70721
:10021C007C0803187C0AF8077808A6007708A50064
:10022C007608A4007508A300FF3083120313A107FE
:10023C000318A20AFF30A207D5284230F500F50BAF
:10024C00252900008030831203132006031D2F295B
:10025C00302936290A128A1504200A128A116229B9
:10026C0020302006031D3B293C2947290A128A15F8
:10027C0004200A128A114230F500F50B43290000C4
:10028C00302940302006031D4C294D2962290A12C1
:10029C008A1504200A128A114230F500F50B5429F4
:1002AC0000000A128A1504200A128A114230F50045
:1002BC00F50B5E290000302983120313A51F672953
:1002CC0068298C2900302304F50000302404F60042
:1002DC0000302504F700FF302604F8007808A6004B
:1002EC007708A5007608A4007508A3002309F1007F
:1002FC002409F2002509F3002609F400F10A031978
:10030C00F20A0319F30A0319F40A94292608F400D3
:10031C002508F3002408F2002308F10008008312DA
:10032C0003135108013ED900003003180130DA00E4
:10033C00DD01DE014E08F3004D08F2004C08F1001F
:10034C004B08F0000030F7000030F6000030F500EC
:10035C000030F4000A128A15F4200A128A110318CC
:10036C00B829B929E1292D3083120313D2004F0883
:10037C0084008317501C8313520880000130CF0770
:10038C000318D00A0030D0074E08F3004D08F200D5
:10039C004C08F1004B08F0000A168A11CF250A12FE
:1003AC008A11730883120313CE007208CD007108F2
:1003BC00CC007008CB000030F3000030F2000030AD
:1003CC00F1000030F000831203134E08F7004D08C3
:1003DC00F6004C08F5004B08F4000A128A15F420BC
:1003EC000A128A110318FB29FC29672A242A413096
:1003FC0083120313A3002030A2000030A1000030B0
:10040C00A0004E08A7004D08A6004C08A5004B08FC
:10041C00A4000A128A1151240A128A11831203139E
:10042C002308CE002208CD002108CC002008CB00E8
:10043C00FF30DD070318DE0AFF30DE0783120313DB
:10044C004E08F3004D08F2004C08F1004B08F00088
:10045C003F30F7008030F6000030F5000030F4003B
:10046C000A128A15F4200A128A11031C3E2A3F2A0A
:10047C00FD29672A4130F3002030F2000030F100F2
:10048C000030F000831203134E08F7004D08F600FD
:10049C004C08F5004B08F4000A128A1596210A1232
:1004AC008A11730883120313CE007208CD007108F1
:1004BC00CC007008CB000130DD070318DE0A0030D9
:1004CC00DE07831203134E08F3004D08F2004C08AC
:1004DC00F1004B08F0004130F7002030F6000030FE
:1004EC00F5000030F4000A128A15F4200A128A1161
:1004FC000318812A822A402A831203135D085907A4
:10050C00D9005E0803185E0A5A07DA000130DB00D6
:10051C000030DC005B08B5005C08B6000030B61B90
:10052C00FF30B700B80001300A128A1106200A12F7
:10053C008A11831203133808D8003708D7003608FD
:10054C00D6003508D500D12A4130F3002030F20016
:10055C000030F1000030F000831203135808F7004C
:10056C005708F6005608F5005508F4000A128A15CB
:10057C0096210A128A11730883120313D800720889
:10058C00D7007108D6007008D5000130DB070318BE
:10059C00DC0A0030DC075C08803AD2005A08803A4A
:1005AC005202031DDB2A59085B02031CDE2ADF2AD8
:1005BC00AA2A831203135808F7005708F6005608A6
:1005CC00F5005508F4004030F3000030F200003024
:1005DC00F1000030F0000A128A1596210A128A11D5
:1005EC00730883120313B0007208AF007108AE00D9
:1005FC007008AD004E08B4004D08B3004C08B200B2
:10060C004B08B1000A128A1578250A128A11831236
:10061C0003133008CE002F08CD002E08CC002D0877
:10062C00CB004E08F3004D08F2004C08F1004B08CB
:10063C00F0004130F7002030F6000030F5000030BB
:10064C00F4000A128A15F4200A128A11031C2F2BAB
:10065C00302B402B3F3083120313CE008030CD0063
:10066C000030CC000030CB000130DD070318DE0A6F
:10067C000030DE0783120313DE1F452B462B9A2B0B
:10068C003030D2004F0884008317501C831352085B
:10069C0080000130CF070318D00A0030D0072E306D
:1006AC00D2004F0884008317501C8313520880001B
:1006BC000130CF070318D00A0030D007DA1F672BA0
:1006CC00682B702B59085D02DD005A08031C5A0A6E
:1006DC005E02DE00FF30DB00FF30DC008C2B3030A4
:1006EC0083120313D2004F0884008317501C83130A
:1006FC00520880000130CF070318D00A0030D00711
:10070C00FF30DB070318DC0AFF30DC075E08803A99
:10071C00D2005C08803A5202031D962B5B085D02E6
:10072C00031C992B9A2B752B83120313DB01DC0111
:10073C003A2C831203134E08F3004D08F2004C08B8
:10074C00F1004B08F0000A168A1186270A128A114A
:10075C00710883120313D4007008D3005308303E81
:10076C00D2004F0884008317501C8313520880005A
:10077C000130CF070318D00A0030D0075E085C06A2
:10078C00031DCA2B5D085B06031DCD2BCE2BDD2B69
:10079C002E30D2004F0884008317501C831352084C
:1007AC0080000130CF070318D00A0030D00753085F
:1007BC00B5005408B6000030B61BFF30B700B800C7
:1007CC0001300A128A1106200A128A1183120313AD
:1007DC003808D8003708D7003608D6003508D500B9
:1007EC005808C6005708C5005608C4005508C30071
:1007FC004E08CA004D08C9004C08C8004B08C70079
:10080C000A168A1181260A128A11831203134608CA
:10081C00CE004508CD004408CC004308CB00413045
:10082C00A3002030A2000030A1000030A0004E0830
:10083C00A7004D08A6004C08A5004B08A4000A12FE
:10084C008A1151240A128A11831203132308CE0031
:10085C002208CD002108CC002008CB000130DB079A
:10086C000318DC0A0030DC075C08803AD2005A0816
:10087C00803A5202031D442C59085B02031C472C7E
:10088C00482C9F2B831203134F0884008317501C92
:10089C008313800108008312031323088039F900A5
:1008AC007908A8002308F9007907FA007A08AE0045
:1008BC00A21F612C622C632C2E142E080319672C9A
:1008CC00682C772C2E0A031D6C2C6D2C752C00308B
:1008DC00A3000030A2000030A1000030A000A2173D
:1008EC007F2C0030A3000030A2000030A1000030AB
:1008FC00A00027088039F9007908A8062708F90014
:10090C007907FA007A08AD00A61F8D2C8E2C8F2C3F
:10091C002D142D080319932C942CA32C2D0A031D94
:10092C00982C992CA12C0030A7000030A600003088
:10093C00A5000030A400A617AB2C0030A700003097
:10094C00A6000030A5000030A4002D080319AF2C20
:10095C00B02CB52C2E08031DB42CB52CBE2C00309D
:10096C00A3000030A2000030A1000030A000B12F85
:10097C002008F9007908F00026080A168A11A52625
:10098C000A128A11710883120313B4007008B300A1
:10099C003308F900FA01FB01FC017C08AC007B0870
:1009AC00AB007A08AA007908A9003408F900FA010A
:1009BC00FB01FC017C08B2007B08B1007A08B00096
:1009CC007908AF002108F9007908F00025080A160B
:1009DC008A11A5260A128A11710883120313B40016
:1009EC007008B3003308F900FA01FB01FC01790827
:1009FC00A9077A0803110318013E0319062DAA074B
:100A0C007B0803110318013E03190D2DAB077C085D
:100A1C0003110318013E0319142DAC073408F90017
:100A2C00FA01FB01FC017908AF077A0803110318DE
:100A3C00013E0319222DB0077B0803110318013E58
:100A4C000319292DB1077C0803110318013E031962
:100A5C00302DB2072208F9007908F00024080A1694
:100A6C008A11A5260A128A11710883120313B40085
:100A7C007008B3003308F900FA01FB01FC01790896
:100A8C00A9077A0803110318013E03194E2DAA0772
:100A9C007B0803110318013E0319552DAB077C0885
:100AAC0003110318013E03195C2DAC073408F9003F
:100ABC00FA01FB01FC017908AF077A08031103184E
:100ACC00013E03196A2DB0077B0803110318013E80
:100ADC000319712DB1077C0803110318013E03198A
:100AEC00782DB2070830F9000310A90DAA0DAB0D33
:100AFC00AC0DF90B7A2D2108F9007908F0002408C7
:100B0C000A168A11A5260A128A1171088312031378
:100B1C00B4007008B3003308F9003408FA00FB0184
:100B2C00FC017908A9077A0803110318013E03197F
:100B3C00A02DAA077B0803110318013E0319A72D4A
:100B4C00AB077C0803110318013E0319AE2DAC074B
:100B5C002008F9007908F00025080A168A11A52644
:100B6C000A128A11710883120313B4007008B300BF
:100B7C003308F9003408FA00FB01FC017908A907D5
:100B8C007A0803110318013E0319CD2DAA077B081F
:100B9C0003110318013E0319D42DAB077C08031174
:100BAC000318013E0319DB2DAC070830F9000310C4
:100BBC00A90DAA0DAB0DAC0DF90BDD2D2008F9001C
:100BCC007908F00024080A168A11A5260A128A113F
:100BDC00710883120313B4007008B3003308F900D2
:100BEC003408FA00FB01FC017908A9077A08031103
:100BFC000318013E0319032EAA077B0803110318DF
:100C0C00013E03190A2EAB077C0803110318013EA1
:100C1C000319112EAC072108F9007908F0002608F9
:100C2C000A168A11A5260A128A1171088312031357
:100C3C00B4007008B3003308F9003408FA00FB0163
:100C4C00FC017908AF077A0803110318013E031958
:100C5C00302EB0077B0803110318013E0319372E01
:100C6C00B1077C0803110318013E03193E2EB2078D
:100C7C002208F9007908F00025080A168A11A52621
:100C8C000A128A11710883120313B4007008B3009E
:100C9C003308F9003408FA00FB01FC017908AF07AE
:100CAC007A0803110318013E03195D2EB0077B0867
:100CBC0003110318013E0319642EB1077C080311BC
:100CCC000318013E03196B2EB2072208F9007908AC
:100CDC00F00026080A168A11A5260A128A11710834
:100CEC0083120313B4007008B3003308F9003408FE
:100CFC00FA00FB01FC0108300310F90DFA0DFB0D95
:100D0C00FC0DFF3E031D822E7908AF077A080311F4
:100D1C000318013E0319932EB0077B080311031827
:100D2C00013E03199A2EB1077C0803110318013EEA
:100D3C000319A12EB2072908F9002A08FA002B087A
:100D4C00FB002C08FC0018300310FC0CFB0CFA0CFC
:100D5C00F90CFF3E031DAA2E7908AF077A08031180
:100D6C000318013E0319BB2EB0077B0803110318AF
:100D7C00013E0319C22EB1077C0803110318013E72
:100D8C000319C92EB2070830F9000310A90DAA0DDA
:100D9C00AB0DAC0DF90BCB2E2E082D07F900FA017B
:100DAC00FA0D7908823EB3007A080318013EFF3E23
:100DBC00B400FD2E0130F9000310AF0DB00DB10DD4
:100DCC00B20DF90BE22EAC1FEC2EED2EEE2E2F14E5
:100DDC000130F9000310A90DAA0DAB0DAC0DF90BE8
:100DEC00F02EFF30B3070318B40AFF30B407B11F5D
:100DFC00002F012FE02EAD01AC1F052F062F222F47
:100E0C00FF302905F900FF302A05FA00FF302B05C9
:100E1C00FB007F302C05FC007C087B047A047904F1
:100E2C000319192F1A2F1D2FAD01AD0A222F2F1CBC
:100E3C00202F212F222F1A2F2D080319262F272F71
:100E4C00582F0130AF07003003180130B0070030C5
:100E5C0003180130B107003003180130B207321CFF
:100E6C00382F392F582F2F08F9003008FA00310885
:100E7C00FB003208FC000130FD007C0DFC0CFB0C6F
:100E8C00FA0CF90CFD0B432F7C08B2007B08B10067
:100E9C007A08B0007908AF000130B3070318B40A20
:100EAC000030B4073408803AFF0080307F02031D05
:100EBC00612FFF303302031C642F652F702F7F309E
:100ECC0083120313B2008030B1000030B000003048
:100EDC00AF00A52F831203133408803AFF00803033
:100EEC007F02031D7B2F0130330203187E2F7F2FCF
:100EFC008B2F003083120313B2000030B10000308E
:100F0C00B0000030AF00A801A52F831203133308E3
:100F1C00F9007908AE00FF30AF05FF30B0057F3027
:100F2C00B1050030B2052E1C9C2F9D2F9E2FB117A2
:100F3C002E08F9000310790CFA007A08B200280880
:100F4C00F9007908B2043208A3003108A200300875
:100F5C00A1002F08A0000800831603130A168A119B
:100F6C00BD250A128A11DA000A168A11BE250A1248
:100F7C008A11DB000A168A11BF250A128A11DC00BD
:100F8C000A168A11C0250A128A11DD008312031376
:100F9C000A128A1500200A128A11EC000A128A150C
:100FAC0001200A128A11ED000A128A1502200A1277
:100FBC008A11EE000A128A1503200A128A11EF0018
:100FCC00831790308400A9300A168A11C7250A129B
:100FDC008A118313A0308400DA300A168A11C725CF
:100FEC000A128A11E801E901EA01EB0183010A12F4
:100FFC008A15792BA534473401340034831203133A
:10100C0088170828003083120313081B0130F000E6
:10101C00881310287008080000300A168A11C125A0
:10102C000A128A153430F500F130F400F40B1C2848
:10103C00F50B1C28212830300A168A1143260A1277
:10104C008A150D30F500FB30F400F40B2B28F50B52
:10105C002B28302830300A168A1143260A128A159A
:10106C001D30F5009130F400F40B3A28F50B3A28BA
:10107C0030300A168A1143260A128A1538300A169D
:10108C008A1143260A128A150C300A168A11432635
:10109C000A128A1506300A168A1143260A128A1574
:1010AC00080083120313A101F31F5D285E286B282F
:1010BC00F009F109F209F309F00A0319F10A03190D
:1010CC00F20A0319F30AA101A10AF71F6E286F286F
:1010DC007E28F409F509F609F709F40A0319F50A4B
:1010EC000319F60A0319F70A0130F8007808A1066B
:1010FC000030A5000030A4000030A3000030A20096
:10110C00730872047104700403198D288E28DB286F
:10111C00A001A00A9E280130F8000310F00DF10D7B
:10112C00F20DF30DF80B93280130F8007808A007A6
:10113C00F31FA128A22891280130F8000310A20D5A
:10114C00A30DA40DA50DF80BA42873087702031D9D
:10115C00B92872087602031DB92871087502031D9F
:10116C00B92870087402031CBC28BD28CC28700850
:10117C00F4027108031C710FF5027208031C720F44
:10118C00F6027308031C730FF702221401300310CC
:10119C00F30CF20CF10CF00CFF3E031DCD280130CA
:1011AC00A002031DDA28DB28A22821080319DF2856
:1011BC00E028EB28A209A309A409A509A20A03198E
:1011CC00A30A0319A40A0319A50A2508F300240885
:1011DC00F2002308F1002208F0000800003070052E
:1011EC00F80000307105F90080307205FA007F308C
:1011FC007305FB007B087A0479047804031D072926
:10120C00082910290030F3000030F2000030F10002
:10121C000030F00000307405F80000307505F9005E
:10122C0080307605FA007F307705FB007B087A0466
:10123C0079047804031D232924292C290030F70074
:10124C000030F6000030F5000030F400F31F2F29B9
:10125C00302954290030F8000030F9000030FA0031
:10126C008030FB007008F8027108031C710F3F29D5
:10127C004029F9027208031C720F45294629FA020B
:10128C007308031C730F4B294C29FB027B08F300DA
:10129C007A08F2007908F1007808F000F71F572956
:1012AC0058297C290030F8000030F9000030FA0091
:1012BC008030FB007408F8027508031C750F672951
:1012CC006829F9027608031C760F6D296E29FA023B
:1012DC007708031C770F73297429FB027B08F7002E
:1012EC007A08F6007908F5007808F4008030F306E7
:1012FC008030F70677087302031D8E297608720278
:10130C00031D8E2975087102031D8E297408700245
:10131C000318912992299429031095290314080084
:10132C0077088039F800780883120313A400770833
:10133C00F8007807F9007908AB00F61FA629A72951
:10134C00A8292B142B080319AC29AD29BD292B0A6C
:10135C00031DB129B229BA290030F7000030F6007C
:10136C000030F5000030F400F617F701C529003005
:10137C00F7000030F6000030F5000030F400730880
:10138C008039F8007808A4067308F8007807F9008B
:10139C007908AC00F21FD329D429D5292C142C0898
:1013AC000319D929DA29EA292C0A031DDE29DF2998
:1013BC00E7290030F3000030F2000030F10000307B
:1013CC00F000F217F301F2290030F3000030F200C4
:1013DC000030F1000030F0007308720471047004E6
:1013EC00031DF929FA29132A0030F7000030F60002
:1013FC000030F5000030F4008030F6047F30F70444
:10140C002408F8007808F7047708F3007608F2004F
:10141C007508F1007408F000782B2B08031D172AAF
:10142C00182A212A0030F3000030F2000030F100BD
:10143C000030F000782B2B08F800F9017908FB003C
:10144C002C087802FA00031CFB037A087F3EA500E7
:10145C007B080318013E003EA6007708A30076081F
:10146C00A2007508A1007408A0000030F70000303D
:10147C00F6000030F5000030F4000030AA00003017
:10148C00A9000030A8000030A700AC019D2A2C0850
:10149C000319512A522A722A0130F8000310A00DA8
:1014AC00A10DA20DA30DF80B542A0130F800031066
:1014BC00F40DF50DF60DF70DF80B5D2AAA1F672A32
:1014CC00682A692A74140130F8000310A70DA80DBE
:1014DC00A90DAA0DF80B6B2A73082302031D802A91
:1014EC0072082202031D802A71082102031D802A22
:1014FC0070082002031C832A842A992A2A17700850
:10150C00A0027108031C710F8C2A8D2AA10272088B
:10151C00031C720F922A932AA2027308031C730FE6
:10152C00982A992AA3020130F8007808AC071A30DF
:10153C002C02031CA22AA32A4D2A230822042104CC
:10154C0020040319AA2AAB2ACA2A2714CA2A013052
:10155C00F8000310F40DF50DF60DF70DF80BAF2A8E
:10156C00AA1FB92ABA2ABB2A74140130F800031036
:10157C00A70DA80DA90DAA0DF80BBD2AFF30A507C4
:10158C000318A60AFF30A607F61FCD2ACE2AAD2ACD
:10159C00AC01AA1FD22AD32AEF2AFF302705F80064
:1015AC00FF302805F900FF302905FA007F302A05A5
:1015BC00FB007B087A04790478040319E62AE72AED
:1015CC00EA2AAC01AC0AEF2A741CED2AEE2AEF2AA7
:1015DC00E72A2C080319F32AF42A252B0130F407E7
:1015EC00003003180130F507003003180130F607FE
:1015FC00003003180130F707771C052B062B252B21
:10160C007408F8007508F9007608FA007708FB00F2
:10161C000130FC007B0DFB0CFA0CF90CF80CFC0BEC
:10162C00102B7B08F7007A08F6007908F50078088B
:10163C00F4000130A5070318A60A0030A6072608F7
:10164C00803AFF0080307F02031D2E2BFF302502D5
:10165C00031C312B322B402BFF3083120313A500BC
:10166C000030A6000030F7000030F6000030F50026
:10167C000030F400831203132608803AFF008030F8
:10168C007F02031D4B2B0130250203184E2B4F2BD1
:10169C005C2B83120313A501A6010030F700003068
:1016AC00F6000030F5000030F400A401831203139F
:1016BC002508F8007808AB002B1C652B662B682BD3
:1016CC00F6176C2B7F30F8007808F6052B08F8001D
:1016DC000310780CF9007908F7002408F800780852
:1016EC00F7040A2A08000A168A112A260A128A15F1
:1016FC000A168A11E7250A128A15831203136F083A
:10170C00B8006E08B7006D08B6006C08B500013063
:10171C000A128A1106200A128A158312031338083A
:10172C00E7003708E6003608E5003508E4006708EE
:10173C00CE006608CD006508CC006408CB00A43050
:10174C00CF000030D000D101D10A0A128A119521A4
:10175C000A128A150A128A1512200A128A150A16FA
:10176C008A11DA250A128A15083083120313DF0056
:10177C005F08F40001300A168A115D260A128A15D8
:10178C001330F3008030F4000A168A11CC260A12AA
:10179C008A15083083120313DF005F08F40002304F
:1017AC000A168A115D260A128A15A430F30000303D
:1017BC00F4000A168A11CC260A128A15803083127C
:1017CC000313DF005F08A7000A300A168A110E27E0
:1017DC000A128A15831203132708E0002808E10077
:1017EC002908E2002A08E3006C08E0026D08031CDB
:1017FC006D0F012C022CE1026E08031C6E0F072CDE
:10180C00082CE2026F08031C6F0F0D2C0E2CE30248
:10181C006308B8006208B7006108B6006008B5003C
:10182C0001300A128A1106200A128A158312031338
:10183C003808EB003708EA003608E9003508E800FC
:10184C00831603135D0883120313A300831603137B
:10185C005C0883120313A200831603135B08831224
:10186C000313A100831603135A0883120313A00059
:10187C006B08A7006A08A6006908A5006808A40000
:10188C000A128A1151240A128A158312031323088F
:10189C00EB002208EA002108E9002008E8000030EB
:1018AC00F3000030F2000030F1000030F0006B0863
:1018BC00F7006A08F6006908F5006808F4000A12D7
:1018CC008A15F4200A128A15031C6D2C6E2C782CA8
:1018DC00003083120313EB000030EA000030E90003
:1018EC000030E800831203136B08CE006A08CD00A9
:1018FC006908CC006808CB00BD30CF000030D000A8
:10190C00D101D10A0A128A1195210A128A15F40101
:10191C00F40A01300A168A115D260A128A150D3056
:10192C00F3008030F4000A168A11CC260A128A15AC
:10193C00F401F40A02300A168A115D260A128A157D
:10194C00BD30F3000030F4000A168A11CC260A12BE
:10195C008A1583120313881EB42CB52C012D8030EC
:10196C00DF005F08B5000A300A168A1112260A1227
:10197C008A15831203136F08B8006E08B7006D0840
:10198C00B6006C08B50001300A128A1106200A1242
:10199C008A15831203133808E7003708E600360867
:1019AC00E5003508E4006708CE006608CD00650840
:1019BC00CC006408CB009030CF000130D000D101B6
:1019CC00D10A0A128A1195210A128A15083083123B
:1019DC000313DF005F08F40002300A168A115D263B
:1019EC000A128A159030F3000130F4000A168A119D
:1019FC00CC260A128A1583120313081E062D072DF6
:101A0C00E42B8030DF005F08A70032300A168A1101
:101A1C000E270A128A15831203132708E0002808E0
:101A2C00E1002908E2002A08E3006C08E0026D08D6
:101A3C00031C6D0F222D232DE1026E08031C6E0F6B
:101A4C00282D292DE2026F08031C6F0F2E2D2F2D30
:101A5C00E3026308B8006208B7006108B6006008CA
:101A6C00B50001300A128A1106200A128A15831257
:101A7C000313380883160313D90083120313370892
:101A8C0083160313D800831203133608831603132B
:101A9C00D70083120313350883160313D600590895
:101AAC00F3005808F2005708F1005608F0004430D3
:101ABC00F7007A30F6000030F5000030F4000A121E
:101ACC008A1596210A128A15730883160313DD00F2
:101ADC007208DC007108DB007008DA00E42B0A12D3
:101AEC008A1100288312031330088039B500350899
:101AFC00BD003008B5003507B6003608BF00AF1F73
:101B0C00882D892D8A2D3F143F0803198E2D8F2D7A
:101B1C009F2D3F0A031D932D942D9C2D0030B0005A
:101B2C000030AF000030AE000030AD00AF17B00198
:101B3C00A72D0030B0000030AF000030AE000030F8
:101B4C00AD0034088039B5003508BE003E083D06AE
:101B5C000319B12DB22DB32D3D173408B50035073F
:101B6C00B6003608BE00B31FBC2DBD2DBE2D3E14D5
:101B7C003E080319C22DC32DD32D3E0A031DC72DBC
:101B8C00C82DD02D0030B4000030B3000030B200AE
:101B9C000030B100B317B401DB2D0030B4000030BD
:101BAC00B3000030B2000030B1003F083E02031811
:101BBC00E02DE12D252E3D1FE42DE52DE92D803066
:101BCC00B5003508BD063F08B5003508C0003E0815
:101BDC00B5003508BF004008B5003508BE002D081B
:101BEC00B5003508C0003108B5003508AD00400817
:101BFC00B5003508B1002E08B5003508C000320814
:101C0C00B5003508AE004008B5003508B2002F0805
:101C1C00B5003508C0003308B5003508AF004008E2
:101C2C00B5003508B3003008B5003508C0003408DD
:101C3C00B5003508B0004008B5003508B400C00147
:101C4C003E08B500B6013608B8003F083502B700AB
:101C5C00031CB8033808803AFF0080307F02031D54
:101C6C00392E1A303702031C3C2E3D2E7A2E83124D
:101C7C00031330082F042E042D04031D462E482E6A
:101C8C000130492E0030B5003508C0000030B000DE
:101C9C000030AF000030AE000030AD003E08B500A3
:101CAC003508BF00822E401C5C2E5D2E662E40082F
:101CBC00B5000310350C0138B6003608C000682E8C
:101CCC000310C00C2D1C6B2E6C2E6D2EC01701300A
:101CDC00B500300DB00CAF0CAE0CAD0CB50B6F2EBF
:101CEC000130B5003508BF07831203133E083F02CD
:101CFC00031C812E822E592E3D1B852E862ED12E15
:101D0C003F08031D8A2E8B2E942E0030B00000301D
:101D1C00AF000030AE000030AD00FF2F3108AD0732
:101D2C00320803110318013E03199D2EAE07330828
:101D3C0003110318013E0319A42EAF073408031135
:101D4C000318013E0319AB2EB007301CAE2EAF2E7C
:101D5C00852F401CB22EB32EBC2E4008B5000310AC
:101D6C00350C0138B6003608C000BE2E0310C00C6E
:101D7C002D1CC12EC22EC32EC0170130B500300D44
:101D8C00B00CAF0CAE0CAD0CB50BC52E0130B500C4
:101D9C003508BF07852F3008803AFF003408803A99
:101DAC007F02031DE32E33082F02031DE32E32089E
:101DBC002E02031DE32E31082D020318E62EE72E0A
:101DCC003F2FFF30B500FF30B600FF30B700FF30BB
:101DDC00B8003108B9003208BA003308BB00340827
:101DEC00BC002D08B9022E08031C2E0FFE2EFF2E50
:101DFC00BA022F08031C2F0F042F052FBB0230082B
:101E0C00031C300F0A2F0B2FBC023908B5073A08F8
:101E1C0003183A0F122F132FB6073B0803183B0F6A
:101E2C00182F192FB7073C0803183C0AB8073808B5
:101E3C00B0003708AF003608AE003508AD00803072
:101E4C00B5003508BD06C009C00A4008031D2F2F78
:101E5C00302F4D2F0130AD07003003180130AE0785
:101E6C00003003180130AF07003003180130B00701
:101E7C004D2F3108AD023208031C320FAE0233086D
:101E8C00031C330FAF023408031C340FB0023008AC
:101E9C002F042E042D04031D542F552F812F400881
:101EAC00031D592F5A2F812F0030B0000030AF0086
:101EBC000030AE000030AD00FF2F0130B500031034
:101ECC00AD0DAE0DAF0DB00DB50B652FC01F6F2F47
:101EDC00702F712F2D14401C742F752F782F031415
:101EEC00C00D7A2F0310C00D3F0803197E2F7F2FD2
:101EFC00812F0130BF02AF1F842F852F632FBE01AE
:101F0C00C01F892F8A2F982F40087F3903198F2FD4
:101F1C00902F932FBE01BE0A982F2D1C962F972F12
:101F2C00982F902F3E0803199C2F9D2FD12F0130F5
:101F3C00AD07003003180130AE0700300318013034
:101F4C00AF07003003180130B007301CAE2FAF2F95
:101F5C00D12F2D08B5002E08B6002F08B700300879
:101F6C00B8000130B900380DB80CB70CB60CB50C74
:101F7C00B90BB92F3808B0003708AF003608AE00DF
:101F8C003508AD003F0A0319CC2FCD2FD12F0130CE
:101F9C00B5003508BF073F0A0319D52FD62FDB2F05
:101FAC003F08031DDA2FDB2FE92F0030B000003083
:101FBC00AF000030AE000030AD003F08031DE72F2E
:101FCC00E82FE92FBD013F1CEC2FED2FEF2FAF17A2
:101FDC00F32F7F30B5003508AF053F08B50003106F
:101FEC00350CB6003608B000BD1FFD2FFE2FFF2F9D
:101FFC00B0170800FF1B0A2883137F1883170008EB
:10200C00840A0319FF0A080010308A000408840AA5
:10201C0082070034BD34D234A33448340034003445
:10202C007A3444348034D234A33447345034453475
:10203C0053344F343A3400344F34663466343A34C3
:02204C0000345E
:102B7A002134553443343B34F00070088312031374
:102B8A008600080064008001840A040603190034E0
:102B9A000406C82D73087204710470040319D62D33
:102BAA00D72DD92D8030F306080000300A168A1175
:102BBA0043260A168A1101300A168A1143260A1672
:102BCA008A11080083160313881308178312031344
:102BDA0088130630F2001330F100AD30F000F00B2C
:102BEA00F42DF10BF42DF20BF42DFB2D0800F2005D
:102BFA0083120313091472080A168A11C1250A16C8
:102C0A008A118312031309150630F100F10B0B2EFA
:102C1A000000831203130911080083120313B6007C
:102C2A003508FD007D08A70036080A168A110E2706
:102C3A000A168A11831203132A08EF002908EE00E4
:102C4A002808ED002708EC000800831603178801FE
:102C5A008901831603130816881608178817860130
:102C6A00890183120313850186018801890183166C
:102C7A0003130F178F160F160F140800F300831291
:102C8A000313091073080A168A11C1250A168A1134
:102C9A008312031309150B30F2006230F100F10BB5
:102CAA00542EF20B542E000083120313091108004C
:102CBA00F6007603031D622E632E6F2E74087F3E84
:102CCA00F5007508F70077080A168A1143260A16CE
:102CDA008A11802E02307606031D742E752E802EE0
:102CEA007408BF3EF5007508F70077080A168A11BE
:102CFA0043260A168A110800803083120313C60677
:102D0A004A08B0004908AF004808AE004708AD00BD
:102D1A004608B4004508B3004408B2004308B100AD
:102D2A000A128A1578250A168A11831203133008A3
:102D3A00C6002F08C5002E08C4002D08C3000800CD
:102D4A00F800F401F5017008F200F3017208F600C8
:102D5A007308F700781CB22EB32EB92E7608F40742
:102D6A000318F50A7708F50701300310F60DF70D79
:102D7A00FF3E031DBA2E0310F80C7808031DC62E59
:102D8A00C72EAF2E7508F1007408F0000800F8018C
:102D9A00F901F12E78087307F6007408F500031894
:102DAA00F50AF81FD92EF5037508F700770883127C
:102DBA000313FF00760884000A168A1100200A16F7
:102DCA008A110A168A11FC250A168A110130F80797
:102DDA000318F90A0030F90778087307F60074082F
:102DEA00F5000318F50AF81FFB2EF5037508F7001E
:102DFA00770883120313FF00760884000A168A11E3
:102E0A0000200A168A11003A031D0C2F0D2FCF2E0F
:102E1A00080083120313AF000030B3000030B20081
:102E2A000030B1000030B000B4015B2F27080A124D
:102E3A008A11C2200A168A117108831203133007F5
:102E4A00AB000030031801307207AD010318AD0A58
:102E5A003107AC000318AD0A73082D07AE01031839
:102E6A00AE0A3207AD000318AE0A74082E073307FC
:102E7A00AE002E08B3002D08B2002C08B1002B08B2
:102E8A00B000023083120313AD000430AC00B93035
:102E9A00AB00AB0B4E2FAC0B4E2FAD0B4E2F552F5D
:102EAA00013083120313AB002B08B4072F08340236
:102EBA00031C602F612F1B2F3408AB00AC01AD013E
:102ECA00AE012E08F3002D08F2002C08F1002B08A1
:102EDA00F0003308F7003208F6003108F500300830
:102EEA00F4000A128A1557200A168A1173088312E7
:102EFA000313AA007208A9007108A8007008A700A5
:102F0A0008000310720D730DF4007408FA007A08B1
:102F1A00031D902F912F9A2F0030F3000030F200FA
:102F2A000030F1000030F000FF2F7008F400710843
:102F3A00F5007208F6007308F7001F300310F70C4B
:102F4A00F60CF50CF40CFF3E031DA32F7408F800D1
:102F5A007808F900F217FF30F005FF30F105FF306D
:102F6A00F2050030F3059630FA02FA1FBD2FBE2F84
:102F7A00D82F7A08803A973E0318C42FC52FC62F38
:102F8A00912F01300310F30CF20CF10CF00CFF3E00
:102F9A00031DC72F0130F4007408FA07031DD62F4A
:102FAA00D72FC62FEF2F20307A02031CDD2FDE2FFA
:102FBA00EA2F912F0130F4000310F00DF10DF20DFC
:102FCA00F30DF40BE12F0130FA027A08031DEE2FFC
:102FDA00EF2FDF2F79080319F32FF42FFF2FF009B2
:102FEA00F109F209F309F00A0319F10A0319F20ABD
:062FFA000319F30A0800B0
:04400E00C420FF3F8C
:00000001FF
