:020000040000FA
:060000000A128A11EB2F29
:10000800803083120313B5063908F3003808F2006C
:100018003708F1003608F0003508F7003408F60014
:100028003308F5003208F4000A128A1568250A1206
:100038008A11730883120313B5007208B40071089B
:10004800B3007008B20008000310720D730DF400BD
:100058007408FA007A08031D322833283C28003037
:10006800F3000030F2000030F1000030F000A12869
:100078007008F4007108F5007208F6007308F700BC
:100088001F300310F70CF60CF50CF40CFF3E031DA3
:1000980045287408F8007808F900F217FF30F005D1
:1000A800FF30F105FF30F2050030F3059630FA0213
:1000B800FA1F5F2860287A287A08803A973E031842
:1000C800662867286828332801300310F30CF20CDF
:1000D800F10CF00CFF3E031D69280130F400740890
:1000E800FA07031D782879286828912820307A0291
:1000F800031C7F2880288C2833280130F400031043
:10010800F00DF10DF20DF30DF40B83280130FA0216
:100118007A08031D902891288128790803199528C1
:100128009628A128F009F109F209F309F00A031940
:10013800F10A0319F20A0319F30A080083120313D8
:10014800AC002C080319A928AA28BE28A71FAD2887
:10015800AE28BE282409AE002509AF002609B00044
:100168002709B100AE0A0319AF0A0319B00A031927
:10017800B10AC6282708B1002608B0002508AF0034
:100188002408AE002708260425042404031DCD28CE
:10019800CE28D7280030A7000030A6000030A500E0
:1001A8000030A4005D299630A8002808AD00E92891
:1001B8000130A8002808AD0701300310B10CB00CBD
:1001C800AF0CAE0CFF3E031DE128FE303105031DC8
:1001D800EE28EF28DC280B290130A8002808AD07F5
:1001E8000130AE07003003180130AF0700300318A4
:1001F8000130B007003003180130B1070130031097
:10020800B10CB00CAF0CAE0CFF3E031D0329FF3040
:100218003105031D10291129F0281D290130AD02CF
:100228000130A8000310AE0DAF0DB00DB10DA80B35
:100238001629B01B20292129272902302D0203184D
:100248002629272912292D182A292B293329FF3055
:10025800AE05FF30AF057F30B005FF30B1050310A4
:10026800AD0C2D08A800A901AA01AB011830031094
:10027800A80DA90DAA0DAB0DFF3E031D3B292808AB
:10028800AE042908AF042A08B0042B08B1042C08CE
:1002980003194F2950295529A71F5329542955298E
:1002A800B1173108A7003008A6002F08A5002E08AE
:1002B800A400080083120313E0005708F30056084F
:1002C800F2005508F1005408F0000A128A1128209B
:1002D8000A128A11710883120313DD007008DC000A
:1002E800E701E801E501E6010130E9000030EA0034
:1002F8005708F3005608F2005508F1005408F000BA
:100308000030F7000030F6000030F5000030F4004F
:100318000A128A152E210A128A110318942995297E
:10032800DD29BF3083120313BD008030BC000030CC
:10033800BB000030BA005708C1005608C000550875
:10034800BF005408BE000A128A118A240A128A11B0
:10035800831203133D08D7003C08D6003B08D5009C
:100368003A08D4002D30DA00600884005A08831354
:1003780080000130E5070318E60A0030E607DD29AA
:100388000A30F0000030F1005D08F3005C08F2006C
:100398000A128A15C7200A128A11710883120313D8
:1003A800DD007008DC000130E7070318E80A0030B8
:1003B800E807831203135C085D04031DE429E5299B
:1003C800C429C92A67036804031DEB29EC29F1290C
:1003D8000130E9000030EA001F2A0230DE00003058
:1003E800DF00112A831203136A08A1006908A0001C
:1003F8000A30A2000030A3000A168A11AD270A129B
:100408008A11831203132108EA002008E900013049
:10041800DE070318DF0A0030DF076808803ADA00D1
:100428005F08803A5A02031D1B2A5E0867020318F8
:100438001E2A1F2AF629831203136908A4006A08D2
:10044800A5000030A51BFF30A600A70001300A1246
:100458008A11A2200A128A11831203132708B500F1
:100468002608B4002508B3002408B2005708B900CC
:100478005608B8005508B7005408B6000A128A157D
:100488008B230A128A11831203133508E4003408F7
:10049800E3003308E2003208E1006A08A3006908B3
:1004A800A2006408F3006308F2006208F100610822
:1004B800F0000A128A1128200A128A117108831280
:1004C8000313A1007008A0000A168A11AD270A12AA
:1004D8008A11831203132008A4002108A500003004
:1004E800A51BFF30A600A70001300A128A11A2201E
:1004F8000A128A11831203132708B5002608B400CC
:100508002508B3002408B2005708B9005608B800F7
:100518005508B7005408B6000A128A1104200A12B6
:100528008A11831203133508D7003408D60033081C
:10053800D5003208D4006408F3006308F2006208AA
:10054800F1006108F0000A128A1128200A128A11A3
:100558007008303E83120313DA0065086007DB0079
:100568005B0884005A08831380000130E5070318EC
:10057800E60A0030E607FF30E7070318E80AFF300D
:10058800E8070130E9000030EA0067086804031D45
:10059800CE2ACF2AE6292E30DA0065086007DB006C
:1005A8005B0884005A08831380000130E5070318AC
:1005B800E60A0030E6070130DE000030DF00FF2ADF
:1005C800831203136A08A1006908A0000A30A20078
:1005D8000030A3000A168A11AD270A128A11831265
:1005E80003132108EA002008E9000130DE07031898
:1005F800DF0A0030DF075908803ADA005F08803ADE
:100608005A02031D092B5E08580203180C2B0D2BE8
:10061800E42A831203136908A4006A08A5000030BD
:10062800A51BFF30A600A70001300A128A11A220DC
:100638000A128A11831203132708BD002608BC007A
:100648002508BB002408BA005708F3005608F20032
:100658005508F1005408F0000A128A1128200A12DD
:100668008A11700883120313A4007108A5000030D2
:10067800A51BFF30A600A70001300A128A11A2208C
:100688000A128A11831203132708B5002608B4003A
:100698002508B3002408B2005708B9005608B80066
:1006A8005508B7005408B6000A128A1104200A1225
:1006B8008A11831203133508C1003408C0003308B7
:1006C800BF003208BE000A128A118A240A128A114F
:1006D800831203133D08E4003C08E3003B08E200F2
:1006E8003A08E1006408D7006308D6006208D5001C
:1006F8006108D4005708F3005608F2005508F100C5
:100708005408F0000A128A1128200A128A110130AE
:1007180083120313E9000030EA005908E80058087A
:10072800E700792C67036804031D9B2B9C2BA12BE6
:100738000130E9000030EA00CF2B0230DE00003043
:10074800DF00C12B831203136A08A1006908A00007
:100758000A30A2000030A3000A168A11AD270A1237
:100768008A11831203132108EA002008E9000130E6
:10077800DE070318DF0A0030DF076808803ADA006E
:100788005F08803A5A02031DCB2B5E0867020318E4
:10079800CE2BCF2BA62B831203136908A4006A085B
:1007A800A5000030A51BFF30A600A70001300A12E3
:1007B8008A11A2200A128A11831203132708B5008E
:1007C8002608B4002508B3002408B2005708B90069
:1007D8005608B8005508B7005408B6000A128A151A
:1007E8008B230A128A11831203133508E400340894
:1007F800E3003308E2003208E1006A08A300690850
:10080800A2006408F3006308F2006208F1006108BE
:10081800F0000A128A1128200A128A11710883121C
:100828000313A1007008A0000A168A11AD270A1246
:100838008A11831203132008A4002108A5000030A0
:10084800A51BFF30A600A70001300A128A11A220BA
:100858000A128A11831203132708B5002608B40068
:100868002508B3002408B2005708B9005608B80094
:100878005508B7005408B6000A128A1104200A1253
:100888008A11831203133508D7003408D6003308B9
:10089800D5003208D4006408F3006308F200620847
:1008A800F1006108F0000A128A1128200A128A1140
:1008B8007008303E83120313DA0065086007DB0016
:1008C8005B0884005A08831380000130E507031889
:1008D800E60A0030E607FF30E7070318E80AFF30AA
:1008E800E8070130E9000030EA0067086804031DE2
:1008F8007E2C7F2C962B0A30DA0065086007DB0017
:100908005B0884005A0883138000080083120313CD
:100918003D088039C2004208C7003D08C2004207AE
:10092800C3004308CD00BC1F9A2C9B2C9C2C4D1453
:100938004D080319A02CA12CB02C4D0A031DA52C81
:10094800A62CAE2C0030BD000030BC000030BB002F
:100958000030BA00BC17B82C0030BD000030BC0015
:100968000030BB000030BA0041088039C20042089C
:10097800C7064108C2004207C3004308CC00C01F95
:10098800C62CC72CC82C4C144C080319CC2CCD2CC5
:10099800DC2C4C0A031DD12CD22CDA2C0030C100DF
:1009A8000030C0000030BF000030BE00C017E42C8B
:1009B8000030C1000030C0000030BF000030BE0071
:1009C8004C080319E82CE92CEE2C4D08031DED2CDE
:1009D800EE2CF72C0030BD000030BC000030BB000E
:1009E8000030BA00EA2F3A08C2004208F000400876
:1009F8000A168A1186270A128A11710883120313AC
:100A0800D3007008D2005208C200C301C401C50156
:100A18004508CB004408CA004308C9004208C8007A
:100A28005308C200C301C401C5014508D1004408E8
:100A3800D0004308CF004208CE003B08C20042085D
:100A4800F0003F080A168A1186270A128A117108CF
:100A580083120313D3007008D2005208C200C301E6
:100A6800C401C5014208C807430803110318013E21
:100A780003193F2DC907440803110318013E031940
:100A8800462DCA07450803110318013E03194D2DC9
:100A9800CB075308C200C301C401C5014208CE07F1
:100AA800430803110318013E03195B2DCF074408BF
:100AB80003110318013E0319622DD00745080311DD
:100AC8000318013E0319692DD1073C08C2004208EA
:100AD800F0003E080A168A1186270A128A11710840
:100AE80083120313D3007008D2005208C200C30156
:100AF800C401C5014208C807430803110318013E91
:100B08000319872DC907440803110318013E031967
:100B18008E2DCA07450803110318013E0319952DA8
:100B2800CB075308C200C301C401C5014208CE0760
:100B3800430803110318013E0319A32DCF074408E6
:100B480003110318013E0319AA2DD0074508031104
:100B58000318013E0319B12DD1070830C200031054
:100B6800C80DC90DCA0DCB0DC20BB32D3B08C20071
:100B78004208F0003E080A168A1186270A128A11CE
:100B8800710883120313D3007008D2005208C20000
:100B98005308C300C401C5014208C807430803112C
:100BA8000318013E0319D92DC90744080311031876
:100BB800013E0319E02DCA07450803110318013E39
:100BC8000319E72DCB073A08C2004208F0003F0896
:100BD8000A168A1186270A128A11710883120313CA
:100BE800D3007008D2005208C2005308C300C401E1
:100BF800C5014208C807430803110318013E031939
:100C0800062EC907440803110318013E03190D2EC7
:100C1800CA07450803110318013E0319142ECB0710
:100C28000830C2000310C80DC90DCA0DCB0DC20B88
:100C3800162E3A08C2004208F0003E080A168A1129
:100C480086270A128A11710883120313D3007008C9
:100C5800D2005208C2005308C300C401C5014208AB
:100C6800C807430803110318013E03193C2EC9079E
:100C7800440803110318013E0319432ECA07450807
:100C880003110318013E03194A2ECB073B08C20083
:100C98004208F00040080A168A1186270A128A11AB
:100CA800710883120313D3007008D2005208C200DF
:100CB8005308C300C401C5014208CE074308031105
:100CC8000318013E0319692ECF07440803110318BE
:100CD800013E0319702ED007450803110318013E81
:100CE8000319772ED1073C08C2004208F0003F08DC
:100CF8000A168A1186270A128A11710883120313A9
:100D0800D3007008D2005208C2005308C300C401BF
:100D1800C5014208CE07430803110318013E031911
:100D2800962ECF07440803110318013E03199D2E80
:100D3800D007450803110318013E0319A42ED10753
:100D48003C08C2004208F00040080A168A118627AB
:100D58000A128A11710883120313D3007008D20093
:100D68005208C2005308C300C401C501083003106B
:100D7800C20DC30DC40DC50DFF3E031DBB2E420899
:100D8800CE07430803110318013E0319CC2ECF07E1
:100D9800440803110318013E0319D32ED007450850
:100DA80003110318013E0319DA2ED1074808C200BF
:100DB8004908C3004A08C4004B08C500183003108E
:100DC800C50CC40CC30CC20CFF3E031DE32E420825
:100DD800CE07430803110318013E0319F42ECF0769
:100DE800440803110318013E0319FB2ED0074508D8
:100DF80003110318013E0319022FD1070830C2005E
:100E08000310C80DC90DCA0DCB0DC20B042F4D0818
:100E18004C07C200C301C30D4208823ED2004308FA
:100E28000318013EFF3ED300362F0130C2000310E5
:100E3800CE0DCF0DD00DD10DC20B1B2FCB1F252FE3
:100E4800262F272F4E140130C2000310C80DC90DDC
:100E5800CA0DCB0DC20B292FFF30D2070318D30AB6
:100E6800FF30D307D01F392F3A2F192FCC01CB1FB2
:100E78003E2F3F2F5B2FFF304805C200FF3049054A
:100E8800C300FF304A05C4007F304B05C500450844
:100E98004404430442040319522F532F562FCC0104
:100EA800CC0A5B2F4E1C592F5A2F5B2F532F4C08FF
:100EB80003195F2F602F912F0130CE0700300318E0
:100EC8000130CF07003003180130D0070030031875
:100ED8000130D107511C712F722F912F4E08C2007B
:100EE8004F08C3005008C4005108C5000130C600AF
:100EF800450DC50CC40CC30CC20CC60B7C2F450891
:100F0800D1004408D0004308CF004208CE00013089
:100F1800D2070318D30A0030D3075308803AFF00DA
:100F280080307F02031D9A2FFF305202031C9D2F31
:100F38009E2FA92F7F3083120313D1008030D00059
:100F48000030CF000030CE00DE2F83120313530889
:100F5800803AFF0080307F02031DB42F0130520217
:100F68000318B72FB82FC42F003083120313D100F2
:100F78000030D0000030CF000030CE00C701DE2F97
:100F8800831203135208C2004208CD00FF30CE0579
:100F9800FF30CF057F30D0050030D1054D1CD52F4F
:100FA800D62FD72FD0174D08C2000310420CC3000C
:100FB8004308D1004708C2004208D1045108BD00C7
:100FC8005008BC004F08BB004E08BA000800FD01DD
:100FD80083120313EB01EC01ED01EE01EF01831322
:100FE800A0308400C6300A128A1503200A128A111A
:080FF80083010A128A15D029B9
:1010060064008001840A04060319003404060428D7
:10101600F3007308840083138001F2018312031323
:10102600051C1628172811288F018E0105181C2863
:101036001D28192833300E02031C222823283528A0
:101046000130F0007208073C013E2B280310F00D1A
:10105600FF3E031D29287008F100730884007108FB
:10106600831380040130F0007008F2070830720222
:10107600031C3E283F2811280800F801F9016528BD
:1010860078087307F6007408F5000318F50AF81FC8
:101096004D28F5037508F700770883120313FF0040
:1010A600760884000A168A1100200A128A150A1682
:1010B6008A11FB260A128A150130F8070318F90A65
:1010C6000030F90778087307F6007408F50003186E
:1010D600F50AF81F6F28F5037508F70077088312DD
:1010E6000313FF00760884000A168A1100200A12EC
:1010F6008A15003A031D80288128432808000030FD
:101106000A168A11E8260A128A153430F500F130DB
:10111600F400F40B8C28F50B8C28912830300A1635
:101126008A1111270A128A150D30F500FB30F400DA
:10113600F40B9B28F50B9B28A02830300A168A1141
:1011460011270A128A151D30F5009130F400F40BB0
:10115600AA28F50BAA2830300A168A1111270A1276
:101166008A1538300A168A1111270A128A150C3088
:101176000A168A1111270A128A1506300A168A11CA
:1011860011270A128A150800F601F11FCB28CC2870
:10119600D328F009F109F00A0319F10AF601F60A53
:1011A600F31FD628D728E028F209F309F20A031913
:1011B600F30A0130F4007408F606F701F801700826
:1011C60071040319E728E8281F29F501F50AF6280E
:1011D60001300310F00DF10DFF3E031DEC28013028
:1011E600F4007408F507F11FF928FA28EB280130F6
:1011F6000310F70DF80DFF3E031DFB28710873025F
:10120600031D072970087202031C0A290B291229DB
:101216007008F2027108031CF303F302771401301D
:101226000310F10CF00CFF3E031D13290130F502EB
:10123600031D1E291F29FA287608031923292429A4
:101246002929F709F809F70A0319F80A7808F100B5
:101256007708F000080000307005F80000307105CE
:10126600F90080307205FA007F307305FB007B08B9
:101276007A0479047804031D412942294A29003059
:10128600F3000030F2000030F1000030F0000030D2
:101296007405F80000307505F90080307605FA000F
:1012A6007F307705FB007B087A0479047804031DF8
:1012B6005D295E2966290030F7000030F60000300F
:1012C600F5000030F400F31F69296A298E290030E1
:1012D600F8000030F9000030FA008030FB0070089A
:1012E600F8027108031C710F79297A29F90272082C
:1012F600031C720F7F298029FA027308031C730FDF
:1013060085298629FB027B08F3007A08F200790812
:10131600F1007808F000F71F91299229B6290030CC
:10132600F8000030F9000030FA008030FB00740845
:10133600F8027508031C750FA129A229F90276087F
:10134600031C760FA729A829FA027708031C770F32
:10135600AD29AE29FB027B08F7007A08F60079086A
:10136600F5007808F4008030F3068030F706770839
:101376007302031DC82976087202031DC829750861
:101386007102031DC829740870020318CB29CC29E1
:10139600CE290310CF29031408000A168A114627FE
:1013A6000A128A150A128A1582200A128A150A1644
:1013B6008A11EE260A128A150A168A112B270A1294
:1013C6008A150A168A11D4270A128A15003A0319B1
:1013D600ED29EE29792B6D300A128A150B200A1297
:1013E6008A156C300A128A150B200A128A156F307C
:1013F6000A128A150B200A128A156E300A128A15ED
:101406000B200A128A156B300A128A150B200A1253
:101416008A15013083160313C60046088312031388
:1014260088076D086C0783160313C600C701C70D2E
:10143600831203136F08831603134607C800003090
:10144600031801304707C900831203136E08831679
:1014560003134807CA000030031801304907CB00C0
:10146600FF304A05CC0000304B05CD008312031334
:101476006B0883160313CE00CF014D084F06031DDC
:10148600462A4C084E06031D492A4A2A632B003079
:10149600B1000030B0000030AF000030AE000030C8
:1014A600AD000030AC000030AB000030AA00831263
:1014B60003136D0883160313C600C701C801C901CB
:1014C600490883120313A7008316031348088312DF
:1014D6000313A60083160313470883120313A500FC
:1014E60083160313460883120313A40000300A125E
:1014F6008A11A2200A128A1583120313270883165B
:101506000313B10083120313260883160313B000D6
:1015160083120313250883160313AF0083120313E4
:10152600240883160313AE00831203136F08831671
:101536000313C600C701C801C90149088312031372
:10154600A70083160313480883120313A600831605
:101556000313470883120313A500831603134608D3
:1015660083120313A40000300A128A11A2200A1261
:101576008A1583120313270883160313AD008312FB
:101586000313260883160313AC00831203132508DE
:1015960083160313AB008312031324088316031365
:1015A600AA00310883120313D700831603133008E9
:1015B60083120313D600831603132F088312031313
:1015C600D500831603132E0883120313D4000230AA
:1015D600D8000030D900B2300A128A115E210A12F0
:1015E6008A15831603132D0883120313D700831657
:1015F60003132C0883120313D600831603132B0838
:1016060083120313D500831603132A0883120313C8
:10161600D4000230D8000030D900BC300A128A113A
:101626005E210A128A15F401F40A01300A168A119B
:1016360062270A128A151630F3008030F4000A1267
:101646008A1540200A128A15083083160313C6002D
:101656004608F40001300A168A1162270A128A1512
:101666001030F3008030F4000A128A1540200A1266
:101676008A15F401F40A02300A168A1162270A1240
:101686008A15B230F3000030F4000A128A154020A1
:101696000A128A15073083160313C6004608F4009B
:1016A60002300A168A1162270A128A15BC30F30024
:1016B6000030F4000A128A1540200A128A15792B86
:1016C6000A168A11EE260A128A15F401F40A013066
:1016D6000A168A1162270A128A150130F300803031
:1016E600F4000A128A1540200A128A15063083165B
:1016F6000313C8001330C700AD30C600C60B812BDC
:10170600C70B812BC80B812BDF290A128A110028EF
:101716008312031339088039BA003A08C30039081E
:10172600BA003A07BB003B08CA00B81F9B2B9C2B8C
:101736009D2B4A144A080319A12BA22BB22B4A0A45
:10174600031DA62BA72BAF2B0030B9000030B80025
:101756000030B7000030B600B817B901BA2B003018
:10176600B9000030B8000030B7000030B6003508C8
:101776008039BA003A08C3063508BA003A07BB00F2
:101786003B08CB00B41FC82BC92BCA2B4B144B08E4
:101796000319CE2BCF2BDF2B4B0A031DD32BD42BB8
:1017A600DC2B0030B5000030B4000030B300003050
:1017B600B200B417B501E72B0030B5000030B40015
:1017C6000030B3000030B20035083404330432046C
:1017D600031DEE2BEF2B082C0030B9000030B800AB
:1017E6000030B7000030B6008030B8047F30B9044E
:1017F6004308BA003A08B9043908B5003808B400F5
:101806003708B3003608B200672D4A08031D0C2CB2
:101816000D2C162C0030B5000030B4000030B3009B
:101826000030B200672D4A08BA00BB013B08BD0074
:101836004B083A02BC00031CBD033C087F3EC400B3
:101846003D080318013E003EC5003908C2003808AD
:10185600C1003708C0003608BF000030B9000030AC
:10186600B8000030B7000030B6000030C9000030C4
:10187600C8000030C7000030C600CB018C2C4B08D6
:101886000319462C472C672C0130BA000310BF0DF4
:10189600C00DC10DC20DBA0B492C0130BA000310A0
:1018A600B60DB70DB80DB90DBA0B522CC91F5C2C6D
:1018B6005D2C5E2C36140130BA000310C60DC70D20
:1018C600C80DC90DBA0B602C35084202031D752CD4
:1018D60034084102031D752C33084002031D752C84
:1018E60032083F02031C782C792C882C49173208C1
:1018F600BF023308031C330FC0023408031C340F25
:10190600C1023508031C350FC2020130BA003A087D
:10191600CB071A304B02031C912C922C422C420806
:10192600410440043F040319992C9A2CB92C4614FF
:10193600B92C0130BA000310B60DB70DB80DB90DAC
:10194600BA0B9E2CC91FA82CA92CAA2C3614013020
:10195600BA000310C60DC70DC80DC90DBA0BAC2CC5
:10196600FF30C4070318C50AFF30C507B81FBC2CD3
:10197600BD2C9C2CCB01C91FC12CC22CDE2CFF30E8
:101986004605BA00FF304705BB00FF304805BC00DE
:101996007F304905BD003D083C043B043A04031969
:1019A600D52CD62CD92CCB01CB0ADE2C361CDC2C24
:1019B600DD2CDE2CD62C4B080319E22CE32C142D3F
:1019C6000130B607003003180130B707003003189E
:1019D6000130B807003003180130B907391CF42C60
:1019E600F52C142D3608BA003708BB003808BC00A1
:1019F6003908BD000130BE003D0DBD0CBC0CBB0C52
:101A0600BA0CBE0BFF2C3D08B9003C08B8003B08D9
:101A1600B7003A08B6000130C4070318C50A0030FB
:101A2600C5074508803AFF0080307F02031D1D2D43
:101A3600FF304402031C202D212D2F2DFF30831251
:101A46000313C4000030C5000030B9000030B800F0
:101A56000030B7000030B600831203134508803A01
:101A6600FF0080307F02031D3A2D01304402031827
:101A76003D2D3E2D4B2D83120313C401C5010030AD
:101A8600B9000030B8000030B7000030B600C3011E
:101A9600831203134408BA003A08CA004A1C542D9C
:101AA600552D572DB8175B2D7F30BA003A08B8056B
:101AB6004A08BA0003103A0CBB003B08B9004308B9
:101AC600BA003A08B904FF2B08007308803983125C
:101AD6000313A0002008F8007308A0002007A10047
:101AE6002108FA00F21F782D792D7A2D7A147A08BA
:101AF60003197E2D7F2D8F2D7A0A031D832D842DAC
:101B06008C2D0030F3000030F2000030F100003080
:101B1600F000F217F301972D0030F3000030F200C9
:101B26000030F1000030F00077088039A00020086E
:101B3600F900790878060319A12DA22DA32D78178F
:101B46007708A0002007A1002108F900F61FAC2D98
:101B5600AD2DAE2D791479080319B22DB32DC32DF1
:101B6600790A031DB72DB82DC02D0030F7000030BF
:101B7600F6000030F5000030F400F617F701CB2D23
:101B86000030F7000030F6000030F5000030F400B9
:101B96007A0879020318D02DD12D152E781FD42D51
:101BA600D52DD92D8030A0002008F8067A08A0008F
:101BB6002008FB007908A0002008FA007B08A00096
:101BC6002008F9007008A0002008FB007408A00097
:101BD6002008F0007B08A0002008F4007108A0008F
:101BE6002008FB007508A0002008F1007B08A00073
:101BF6002008F5007208A0002008FB007608A00067
:101C06002008F2007B08A0002008F6007308A00058
:101C16002008FB007708A0002008F3007B08A0003E
:101C26002008F700FB017908A000A1012108A30004
:101C36007A082002A200031CA3032308803AFF00AF
:101C460080307F02031D292E1A302202031C2C2EFF
:101C56002D2E6E2E7308720471047004031D342E2B
:101C6600362E0130372E003083120313A0002008D1
:101C7600FB000030F3000030F2000030F1000030CD
:101C8600F0007908A0002008FA00742E7B1C4C2E68
:101C96004D2E582E7B0883120313A0000310200C30
:101CA6000138A1002108FB005A2E0310FB0C701C02
:101CB6005D2E5E2E5F2EFB17013083120313A000EC
:101CC600730DF30CF20CF10CF00CA00B632E01302B
:101CD600A0002008FA0779087A02031C732E742ED6
:101CE600492E781B772E782EC72E7A08031D7C2E58
:101CF6007D2E862E0030F3000030F2000030F10019
:101D06000030F000FF2F7408F00775080311031860
:101D1600013E03198F2EF107760803110318013EC1
:101D26000319962EF207770803110318013E0319CB
:101D36009D2EF307731CA02EA12E7F2F7B1CA42E95
:101D4600A52EB02E7B0883120313A0000310200CCF
:101D56000138A1002108FB00B22E0310FB0C701CF9
:101D6600B52EB62EB72EFB17013083120313A00033
:101D7600730DF30CF20CF10CF00CA00BBB2E013022
:101D8600A0002008FA077F2F7308803AFF00770823
:101D9600803A7F02031DD92E76087202031DD92EC2
:101DA60075087102031DD92E740870020318DC2E03
:101DB600DD2E372FFF3083120313A000FF30A10062
:101DC600FF30A200FF30A3007408A4007508A50028
:101DD6007608A6007708A7007008A4027108031CFD
:101DE600710FF62EF72EA5027208031C720FFC2E39
:101DF600FD2EA6027308031C730F022F032FA702E2
:101E06002408A00725080318250F0A2F0B2FA10762
:101E160026080318260F102F112FA20727080318CC
:101E2600270AA3072308F3002208F2002108F1007D
:101E36002008F0008030A0002008F806FB09FB0A05
:101E46007B08031D272F282F452F0130F007003070
:101E560003180130F107003003180130F207003093
:101E660003180130F307452F7408F0027508031CA8
:101E7600750FF1027608031C760FF2027708031C31
:101E8600770FF3027308720471047004031D4C2F5C
:101E96004D2F7B2F7B08031D512F522F7B2F003098
:101EA600F3000030F2000030F1000030F000FF2FA8
:101EB600013083120313A0000310F00DF10DF20D93
:101EC600F30DA00B5F2FFB1F692F6A2F6B2F70146A
:101ED6007B1C6E2F6F2F722F0314FB0D742F0310B4
:101EE600FB0D7A080319782F792F7B2F0130FA0220
:101EF600F21F7E2F7F2F5B2FF901FB1F832F842F6D
:101F0600922F7B087F390319892F8A2F8D2FF9018C
:101F1600F90A922F701C902F912F922F8A2F7908F1
:101F26000319962F972FCD2F0130F0070030031895
:101F36000130F107003003180130F20700300318B2
:101F46000130F307731CA82FA92FCD2F7008831219
:101F56000313A0007108A1007208A2007308A30071
:101F66000130A400230DA30CA20CA10CA00CA40B01
:101F7600B52F2308F3002208F2002108F1002008FB
:101F8600F0007A0A0319C82FC92FCD2F0130A000FF
:101F96002008FA077A0A0319D12FD22FD72F7A08E9
:101FA600031DD62FD72FE52F0030F3000030F200A7
:101FB6000030F1000030F0007A08031DE32FE42F13
:101FC600E52FF8017A1CE82FE92FEB2FF217F12FF6
:101FD6007F3083120313A0002008F2057A088312CB
:101FE6000313A0000310200CA1002108F300F81F22
:101FF600FD2FFE2FFF2FF3170800FF1B0A28831360
:102006007F1883170008840A0319FF0A0800103096
:102016008A000408840A82070034653472347234F4
:102026006F347234203465346E3420346434613451
:1020360074346F3473340034543465346D3470340E
:0E2046003A340034683475346D343A34003462
:102DD000F0007008831203138600080000300A1602
:102DE0008A1111270A168A1101300A168A11112731
:102DF0000A168A110800F2008312031309147208DC
:102E00000A168A11E8260A168A1183120313091575
:102E10000630F100F10B0A2F000083120313091191
:102E20000800F30083120313091073080A168A11AD
:102E3000E8260A168A118312031309150B30F200D3
:102E40006230F100F10B222FF20B222F00008312CF
:102E500003130911080083160313051083120313CB
:102E600005104130F100EE30F000F00B352FF10B82
:102E7000352F00008312031305141030F000F00BFF
:102E80003F2F000083160313051408008316031751
:102E90008801890183160313850186018801890150
:102EA000831203138501860188018901703083161E
:102EB00003138F040F1410308312031390008F013B
:102EC0008E010800F6007603031D672F682F742F0C
:102ED00074087F3EF5007508F70077080A168A1116
:102EE00011270A168A11852F02307606031D792FC5
:102EF0007A2F852F7408BF3EF5007508F700770814
:102F00000A168A1111270A168A110800F800F4011E
:102F1000F5017008F200F3017208F6007308F7007B
:102F2000781C932F942F9A2F7608F4070318F50A2C
:102F30007708F50701300310F60DF70DFF3E031D6E
:102F40009B2F0310F80C7808031DA72FA82F902F94
:102F50007508F1007408F0000800FB01FC01831201
:102F60000313201CB42FB52FBB2F2208FB07031817
:102F7000FC0A2308FC0701300310A20DA30DFF3E3D
:102F8000031DBC2F01300310A10CA00CFF3E031D3C
:102F9000C32F20082104031DCE2FCF2FAF2F7C0875
:102FA000A1007B08A0000800831203138F018E018B
:102FB00010140518DC2FDD2FE32F64300E02031CE4
:102FC000E22FE32FD92F64300E02031CE82FE92FE4
:102FD000EB2F0030FF2F8F018E01051CF02FF12FFA
:102FE000F72F64300E02031CF62FF72FED2F6430FD
:102FF0000E02031CFC2FFD2FFE2FE92F01300800CD
:04400E00C420FF3F8C
:00000001FF
