:020000040000FA
:060000000A128A110C280F
:10000800FE00030EF1000A08F2000A128A112028E5
:100018000A128A110F28F701F801F901FA0183136E
:10002800203084004A300A128A1181210A128A116A
:1000380083010A128A118528831203138C1D25282F
:1000480026287E281412141B2A282B282F28941FB0
:100058002E282F2836281308F0007008C70014131C
:100068009413141683160313941A3B283C285A2811
:1000780014193F2840285A28831203131308F00044
:100088007008C7008C11141683160313141C4D280E
:100098004E284828831203131308F0007008C6007E
:1000A800A630F000F00B562800007B28941A5D2833
:1000B8005E287B28141D612862287B28831203137D
:1000C8001308F0007008C70083160313141078088B
:1000D8008312031393001416A630F000F00B722855
:1000E80000008316031314187A287B2875288312B6
:1000F80003138C1172088A00710E8300FE0E7E0EA7
:1001080009000A128A112A210A128A110A128A116E
:100118004C210A128A110A128A11FE200A128A1127
:10012800003A031998289928B72878300A128A11B2
:10013800C9200A128A1177300A128A11C9200A12B4
:100148008A117A300A128A11C9200A128A11793062
:100158000A128A11C9200A128A1149300A128A1110
:10016800C9200A128A11063083120313CC001330F7
:10017800CB00AD30CA00CA0BBF28CB0BBF28CC0BB5
:10018800BF288A280A128A110C28F60076088400EB
:1001980083138001F50183120313051CD428D52885
:1001A800CF288F018E010518DA28DB28D7283330AD
:1001B8000E02031CE028E128F3280130F30075083B
:1001C800073C013EE9280310F30DFF3E031DE72815
:1001D8007308F400760884007408831380040130DF
:1001E800F3007308F50708307502031CFC28FD2886
:1001F800CF280800831203138F018E0110140518ED
:10020800062907290D2964300E02031C0C290D2923
:10021800032964300E02031C122913291529003002
:1002280029298F018E01051C1A291B2921296430CF
:100238000E02031C20292129172964300E02031CF1
:10024800262927292829132901300800831603178E
:1002580088018901831603138501860188018901B4
:1002680083120313850186018801890110300A125F
:100278008A1167210A128A117030831603138F04BA
:100288000F1410308312031390008F018E010800A1
:100298008316031305108312031305104130F4006D
:1002A800EE30F300F30B5629F40B562900008312A5
:1002B800031305141030F300F30B602900008316B4
:1002C800031305140800F30073088316031393003F
:1002D800363083120313940080308316031394007E
:1002E80001309100871507168B170B17831203131C
:1002F8008C11831603138C15080064008001840A8E
:0A03080004060319003404068229DC
:04400E00C420FF3F8C
:00000001FF
